:10000000783E01202919000025190000251900005B
:100010002519000025190000251900000000000026
:10002000000000000000000000000000E13D0000B2
:100030002519000000000000813E0000E53E0000A0
:1000400025190000251900002519000025190000B8
:1000500025190000251900002519000025190000A8
:100060002519000025190000251900002519000098
:100070002519000025190000251900002519000088
:100080002519000025190000251900002519000078
:100090002519000025190000251900002519000068
:1000A0002519000025190000251900002519000058
:1000B00025190000B12C0000C52C0000412A0000C9
:1000C0004D2A0000592A0000652A0000712A00000C
:1000D0002519000025190000251900002519000028
:1000E0002519000025190000251900002519000018
:1000F00000000000C12D0000251900002519000096
:1001000025190000251900002519000025190000F7
:1001100025190000251900002519000025190000E7
:100120002519000025190000E90E0000F50E000059
:10013000010F0000251900002519000025190000F5
:1001400025190000251900002519000025190000B7
:100150000D1800002519000000000000000000003C
:10016000000000000000000000000000000000008F
:10017000000000000000000000000000000000007F
:100180002519000025190000251900002519000077
:10019000000000006133000025190000251900004F
:1001A0002519000025190000251900002519000057
:1001B00075330000251900002519000025190000DD
:1001C00025190000893300002519000025190000B9
:1001D000251900009D330000251900002519000095
:1001E000B13300002519000025190000A5380000D2
:1001F000B9380000CD380000E1380000F5380000C3
:10020000093900000000000000000000251900006E
:1002100025190000251900002519000025190000E6
:1002200025190000251900002519000025190000D6
:1002300025190000251900002519000025190000C6
:1002400025190000251900002519000025190000B6
:1002500025190000251900002519000025190000A6
:100260000000000010B5054C237833B9044B13B1DE
:100270000448AFF300800123237010BD90010020DB
:1002800000000000587B00000C4B43B10C480D49A6
:1002900010B5AFF300800C48036823B910BD0A48BD
:1002A000036833B97047094B002BF7D0BDE8104005
:1002B0001847064B002BF5D0184700BF0000000080
:1002C000587B000094010020587B000000000000D3
:1002D00000B589B006461E22302168460C4B98476F
:1002E0000C4D28460C4CA0470C48A0472846A04778
:1002F0000B48A04732460B4968460B4B9847684667
:100300000A4B984781B26846094B9847FEE700BF01
:100310003D5D000050660000C11700008C660000C3
:10032000FC730000C8660000C55E00001D5F000091
:100330007D17000070B582B0064B984702AC44F8B8
:10034000040D054E054DB0474FF42F712046A847C8
:10035000F9E700BF014F0000F9180000415100000B
:1003600030B400EB80000D46044C04EB80040FCC4D
:100370000FC523682B6030BC704700BFDC660000EF
:100380000378313B082B3BD8DFE803F0050B11174E
:100390001D23292F35001B4B3122DA7383F82020CF
:1003A0007047184B3222DA7383F820207047154BC0
:1003B0003322DA7383F820207047124B3422DA7329
:1003C00083F8202070470F4B3522DA7383F8202002
:1003D00070470C4B3622DA7383F820207047094BA4
:1003E0003722DA7383F820207047064B3822DA73FD
:1003F00083F820207047034B3922DA7383F82020DA
:10040000704700BF00000020F8B50F4C0F220F49C5
:1004100020460F4B984720460E4B98470E4D0444FC
:1004200005F120072E460FCE20606160A260E360D8
:1004300035461034BE42F5D107CD20606160A26020
:100440002B782373F8BD00BFAC01002014000020FE
:10045000515F00001D5F00008C6B0000F0B587B09D
:1004600001A92E4B98479DF80C70BDF814002C4B39
:10047000984700284DD00446BDF81410294B9847E2
:100480000646002841D09DF80C2021460298264BB4
:10049000984770BBBDF80E000130214B98470546C8
:1004A00010B3BDF80E30EBB10023B91CC9B2E2188D
:1004B000525CEA540133DBB2BDF80E209A42F6D802
:1004C0000022EA54BDF80E20013292B229469DF86E
:1004D0000400049B98471548154B98472846154B30
:1004E00098470AE00023EBE71348114B9847002692
:1004F00003E012480E4B9847002620460D4B9847C4
:100500000F4B9847304607B0F0BD0E48084B984750
:10051000F3E70D48064B98470026F1E7610300001A
:10052000B5400000C90F00002D5F0000FC73000003
:10053000C117000089410000986D0000CC6D0000DB
:100540001D100000086E00004C6E0000014B18707A
:10055000704700BF23000020014B1870704700BF98
:10056000E8010020014B1878704700BFE801002027
:10057000013809281AD8DFE800F00507090B0D0F2C
:10058000111315170A2070470B2070470C20704775
:100590000D2070470E2070470F20704710207047C5
:1005A00011207047122070471320704700207047B9
:1005B000064B00221A705A709A70DA700A2119716B
:1005C0001A725A81DA6030221A747047EC010020E6
:1005D00030B583B08E4B5B78052B00F2B480DFE83A
:1005E00013F00600AD004701B1011B02AD02884BBC
:1005F0009B78002B5BD1864B1B79002B50D0854B11
:100600001868854B9847002846D10021834B18680D
:10061000834B9847012803D08248834B984792E048
:1006200001238DF800307A4B1879804B98478DF86C
:100630000100002301934FF4FA726946754800687F
:100640007B4CA047012807D07A48774B98474FF456
:10065000FA70794B984776E000231A4619466F489E
:100660000068A0474FF0FF31744B18686C4B9847F7
:10067000012807D00122664B9A704FF4FA706E4B36
:10068000984760E06E48684B984700231A46194621
:100690006A480068A047EDE76A48634B984752E014
:1006A0006948614B98470122594B5A704BE0012B26
:1006B00049D14FF496726549654B1868654B984768
:1006C000012840D1524B1C7A1879584B98478442E4
:1006D00009D06148544B98474D4B00229A70D86816
:1006E0005E4B98472FE04FF0FF31544B18684C4B4E
:1006F000984701280AD0464B1B7993B90122444BF5
:100700005A70434BD868554B98471CE05448464BA9
:10071000984700231A46194648480068444CA047A9
:10072000E9E73B4A013B1371002393705189D0687C
:100730004C4CA04702214C48A047E2E7344B9B7841
:100740001BB1012B3DD003B030BD324B1868324B8A
:100750009847002831D10021304B1868304B98471A
:10076000012803D02F48304B9847ECE701238DF840
:10077000003014238DF80130002301934FF4FA72F6
:100780006946244800682A4CA047012807D037480A
:10079000254B98474FF4FA70274B9847D3E700232F
:1007A0001A4619461D480068A0470122184B9A7046
:1007B0004FF4FA70204B9847C5E722481A4B9847E8
:1007C000C1E74FF496722149214B1868214B984795
:1007D0000128B8D10E4B1B7A142B09D01E48124B9E
:1007E00098470B4B00229A70D8681C4B9847AAE791
:1007F000074C6189E0681B4DA84702211A48A847A9
:10080000022363700023A370E068144B98479AE7B3
:10081000EC01002084340020294B00008C3400209F
:1008200049490000E46E0000C11700007105000096
:10083000B1440000B06E0000ED510000883400208B
:10084000846E0000106F00002C6F0000F401002087
:1008500060340020C14700007C6F00008941000027
:10086000506F00007D170000FC730000B06F0000A7
:10087000964B9B78D3B1012B7FF465AF4FF4967202
:100880009349944B1868944B984701287FF45BAFC9
:100890008E4B1B7A152B45D09048914B98478B4B2C
:1008A00000229A70D8688F4B98474CE78E4B186897
:1008B0008E4B9847002831D100218D4B18688D4B05
:1008C0009847012803D08C48854B98473BE7012384
:1008D0008DF8003015238DF80130002301934FF47B
:1008E000FA72694680480068844CA047012807D006
:1008F00083487B4B98474FF4FA70824B984722E726
:1009000000231A4619467A480068A04701226F4B17
:100910009A704FF4FA707B4B984714E77A48704B03
:10092000984710E7694C6189E068784DA847022133
:100930007748A847032363700023A370E068694BDE
:10094000984700E7614B9B78D3B1012B7FF4FBAE56
:100950004FF496725E495F4B18685F4B98470128C9
:100960007FF4F1AE594B1B7A162B45D05B485C4B9C
:100970009847564B00229A70D8685A4B9847E2E63F
:10098000594B1868594B9847002831D10021584BD2
:100990001868584B9847012803D05748504B984740
:1009A000D1E601238DF8003016238DF801300023A5
:1009B00001934FF4FA7269464B4800684F4CA047C8
:1009C000012807D05348464B98474FF4FA704D4BD7
:1009D0009847B8E600231A46194645480068A047DC
:1009E00001223A4B9A704FF4FA70464B9847AAE6A8
:1009F00045483B4B9847A6E6344C6189E068434D37
:100A0000A84702214248A847042363700023A3702B
:100A1000E068344B984796E62C4B9B78D3B1012B7A
:100A20007FF491AE4FF4967229492A4B18682A4BED
:100A3000984701287FF487AE244B1B7A092B6BD093
:100A40002648274B9847214B00229A70D868254B9F
:100A5000984778E6244B1868244B9847002831D1F2
:100A60000021234B1868234B9847012803D02248C4
:100A70001B4B984767E601238DF8003009238DF85A
:100A80000130002301934FF4FA726946164800685A
:100A90001A4CA047012807D01E48114B98474FF425
:100AA000FA70184B98474EE600231A46194610482C
:100AB0000068A0470122054B9A704FF4FA70114B61
:100AC000984740E61048064B98473CE6EC0100206A
:100AD000F401002060340020C14700007C6F00005A
:100AE000C11700008941000084340020294B000018
:100AF0008C34002049490000E46E0000B14400003D
:100B0000DC6F0000ED510000106F00007D17000049
:100B1000FC730000087000004A4C6189E0684A4D8F
:100B2000A84702214948A847E068C37A23740523EF
:100B300063700023A370464B984704E6414B9B78B3
:100B4000D3B1012B7FF4FFAD4FF496724149424B74
:100B50001868424B984701287FF4F5AD394B1B7A52
:100B6000172B48D03E483F4B9847364B00229A708F
:100B7000D868374B9847E6E53B483C4B98473C4B99
:100B800018683C4B9847002831D100213A4B18682F
:100B90003A4B9847012803D03948324B9847D2E561
:100BA00001238DF8003017238DF8013000230193C5
:100BB0004FF4FA7269462E480068324CA04701286B
:100BC00007D03148274B98474FF4FA702F4B98477E
:100BD000B9E500231A46194627480068A0470122B4
:100BE000184B9A704FF4FA70284B9847ABE5284899
:100BF0001C4B9847A7E5134C6189E068124DA84744
:100C000002211248A84707222249E068224B984750
:100C100038B100220B4B9A700A4BD8680C4B98479E
:100C200091E510211D481E4B98471E4B9847002206
:100C30006270A27002212170E27040F2DC50134B0E
:100C40009847E9E7EC0100207D170000FC730000E5
:100C500089410000F401002060340020C1470000F9
:100C60007C6F0000C1170000FC0100208103000020
:100C700084340020294B00008C34002049490000B6
:100C8000E46E0000B144000008700000ED51000067
:100C9000106F000038700000D55C0000646D00002B
:100CA000A10F00001D10000030B583B0574B1B781A
:100CB000012B0FD01BB1022B0FD003B030BD544B12
:100CC00098470028F9D0514B01221A7000225A701F
:100CD0009A70F2E74F4B9847EFE74C4BDB78052BC8
:100CE000EBD801A252F823F0010D0000BB0C00006C
:100CF0000D0D0000210D0000990D0000FB0D0000FE
:100D0000454B98470222414BDA70D6E7434B984750
:100D100003223E4BDA704FF4FA70414B9847CCE710
:100D2000404B1868404B9847002831D100213F4B79
:100D300018683F4B9847012803D03E483E4B9847E0
:100D4000BBE701238DF8003018238DF80130002314
:100D500001934FF4FA72694632480068374CA04755
:100D6000012807D03648344B984740F6C4102C4B26
:100D70009847A2E700231A4619462C480068A04766
:100D80000422224BDA7040F6C410254B984794E7B2
:100D90002C48294B984790E74FF4FA622A492B4B8D
:100DA00018682B4B9847012803D00522174BDA709F
:100DB00083E7164B1B7A182B0DD026481E4B9847FD
:100DC000124B0322DA70D868234B984741F658300B
:100DD000134B984771E70D4C6189E0681F4DA84798
:100DE00002211F48A8470323E370E0681A4B984785
:100DF00041F658300A4B98475FE70022034BDA7000
:100E000041F65830064B984757E700BFEC010020E9
:100E1000D5120000D10500001D10000009040000DB
:100E2000ED51000084340020294B00008C34002058
:100E300049490000E46E0000C1170000B144000001
:100E400008700000106F0000F401002060340020E2
:100E5000C14700007C6F0000894100007D17000041
:100E6000FC73000010B512491248134B984718B193
:100E70001248134B984710BD4FF4006211491248B5
:100E8000124B98470028F3D10A4C01221146204604
:100E90000F4B984720460F4B98470F48084B9847F1
:100EA0000E4B93F83C1349090D480E4B984710BD63
:100EB00000400141240000203D2F00007C70000014
:100EC000C117000098340020983C00202525000020
:100ED000E92F0000B12F00004070000000E100E0A9
:100EE00068700000C51700000122014B1A76704798
:100EF000004001410222014B1A7670470040014137
:100F000030B589B01A4D1B4C2846A0470028FBD0AD
:100F10001748194B984701461848194B9847194BE1
:100F20009847044610F0FF0001D109B030BD02A976
:100F3000154B98471148154B9847BDF81830984203
:100F4000F3D3134B186807AB009300230322E1B2DD
:100F5000104CA047079B3BB14FF080520E4B1A60DC
:100F6000BFF34F8FBFF36F8F00200C4B9847DCE728
:100F700024000020DD2F0000CB2F0000983C002033
:100F8000B92500006505000061030000F925000097
:100F900078340020A157000004ED00E0590500005E
:100FA00070B505460E46054C2046054B984732461F
:100FB00029462046034B984770BD00BF24000020FF
:100FC000B12F0000F9160000F0B583B005460E46BB
:100FD0000D480E4B9847B04201D203B0F0BD01A8B6
:100FE0000B4B984766B12C46013EB6B201363544EC
:100FF000054F084E21463846B0470134AC42F9D17E
:1010000001A8054B9847E8E7983C0020F925000027
:10101000F5210000752500000322000008B50248F4
:10102000024B984708BD00BF983C00201D260000D9
:10103000F0B583B000236C4A13706C4A114601F876
:10104000043B93808B709360D36013615361936111
:10105000D3611362C2F823309362654C654E664DCE
:10106000A3E004238DF8003001238DF80130002324
:101070000193642269463068604FB847012806D062
:101080005F48604B98474FF4FA60A84788E05E4895
:101090005C4B984700231A4619465C480068B847DD
:1010A0004FF4FA60A84701224F4B1A7078E00423EE
:1010B0008DF8003002238DF8013000230193642263
:1010C000694630684D4FB847012806D04C484D4B13
:1010D00098474FF4FA60A84762E04B48494B98475D
:1010E00000231A46194649480068B8474FF4FA6089
:1010F000A84702223C4B1A7052E004238DF80030BE
:1011000007238DF80130002301936422694630687B
:101110003A4FB847012806D039483A4B98474FF420
:10112000FA60A8473CE03848364B984700231A46F7
:10113000194636480068B8474FF4FA60A8470422B9
:10114000294B1A702CE004238DF8003003238DF80E
:10115000013000230193642269463068274FB84765
:10116000012806D02648274B98474FF4FA60A84735
:1011700016E02548234B984700231A461946234872
:101180000068B8474FF4FA60A8476422164B1A70FB
:1011900006E000231A4619461C480068174FB84756
:1011A0001B4B98474FF41670A847A0470428FCD162
:1011B0003068184B98470028F2D10021134B18686B
:1011C000154B98470128EBD1074B1B78032BE0D830
:1011D00001A252F823F000BF63100000AF1000001E
:1011E000FB10000047110000A83C00200002002076
:1011F000E112000084340020ED510000B1440000F1
:10120000C8700000C1170000A87000008C340020D6
:10121000F9180000294B00004949000070B5044648
:101220000B78013B062B27D8DFE803F02633252671
:10123000262604004B88072B0DD4002213461F4D91
:10124000A018C0792A4410760133DBB21A464888C8
:1012500007388342F4DD194D01262C4604F8186B3B
:101260001748184B98470F212046174CA0470221DA
:101270001648A0472E7070BD104B181D2188A2780B
:10128000998082700321104CA04702210F48A0478B
:1012900070BD0A4E06F1080500686168A268E3683F
:1012A0000FC50B48074B9847102106F10800064C64
:1012B000A04702210548A04770BD00BF00020020E2
:1012C00010710000C11700007D170000FC730000C2
:1012D000F0700000014B1878704700BF000200203A
:1012E000014B1878704700BF2C020020034B0022EE
:1012F0001A705A7001229A70DA7070472C0200201E
:1013000038B55D4B1B78062B00F08980072B54D035
:1013100003B138BD584B5B78032BFAD8DFE803F0F4
:1013200002354149554B4FF48032C3F888204FF0C5
:101330008041C3F8A810524CC3F8A84093F8D000DD
:1013400000F0FE0083F8D000C3F894204FF400258D
:101350009D6099624B48986293F8530000F0FE003C
:1013600083F853005D619A6099629C6293F8501013
:1013700001F0FE0183F850105A6101223E4B5A7071
:101380004FF4FA70404B984738BD4FF480323B4BD6
:10139000C3F898200222384B5A7032203A4B9847B3
:1013A00038BD0322344B5A7040F6B830364B98475C
:1013B00038BD0422304B1A7038BD2F4B9B7813B1C7
:1013C000012B17D038BD2D4B4FF4002199604FF001
:1013D00080429A622B4A9A6293F8532002F0FE02EE
:1013E00083F8532099610122234B9A701920264BD0
:1013F000984738BD214B4FF4002199604FF080424F
:101400009A62204A9A6293F8532002F0FE0283F80F
:1014100053205961184B00221A705A7038BD164B70
:10142000DB78002B7FF475AF144B4FF48031C3F899
:1014300088104FF08040C3F8A800114AC3F8A820D4
:1014400093F8D02002F0FE0283F8D020C3F8941065
:101450004FF40021996098620A4A9A6293F85320E7
:1014600002F0FE0283F8532099610122024BDA70E8
:101470001920054B98474CE72C02002000800041C2
:10148000010000C0080000C0ED51000070B5094B1C
:101490009847094B9847094D094C0A4EA847A04761
:1014A0000428FBD1B047084B98474FF4C870074B4E
:1014B0009847F3E7ED120000B105000001130000AA
:1014C000E1120000A90C0000F9180000ED51000025
:1014D000F8B507460C4615462D492E4B9847002C6B
:1014E00052D02B4B5B7813B1012B16D0F8BD284E90
:1014F0003775F58206F11C074FF42F72002138462C
:10150000254B98472A4621463846244B984706F1F2
:1015100014013846224B9847F8BD4FF0FF31214B5C
:101520001868214B984701281FD0204B1868204B82
:10153000984728BB164E3775F58228461D4B9847AD
:10154000B06120B32A462146144B984700236422F9
:1015500006F1140115480068174CA04701280CBF7C
:1015600016481748174B9847F8BD1748154B98472A
:1015700000231A4619460B4800680F4EB047D4E7BF
:101580001248104B9847F8BD11480E4B9847F8BDCC
:1015900030020020610300003D5D0000F35C0000AC
:1015A0001D120000883400204949000060340020EA
:1015B000294B0000B5400000B14400005C71000000
:1015C00090710000C117000034710000C07100006C
:1015D000EC71000070B586B00F4C104E104D01E05C
:1015E000104B98474FF0FF330DF1170219460020BA
:1015F000A0470128F4D169469DF81700B047284656
:10160000094B98479DF80000084B98470028E7D100
:101610000748054B9847E3E7ED56000061030000DB
:1016200084730000F9180000C11700005D04000079
:10163000B0730000F8B500231A4619461F48006829
:101640001F4CA0471F4C204D05F1080604E01F4B1E
:10165000984764201E4B9847A0470428FCD11D4B97
:1016600018681D4B98470028F1D00021134B1868CB
:101670001A4B98470128EAD164222946154B18686D
:10168000174B98470128E2D16F7831463846154B01
:101690009847154B9847297CE868144B984738467B
:1016A000134B98470020134B984700231A461946BE
:1016B00002480068024FB847C9E700BF8C340020D9
:1016C000B1440000E11200000C050020F9180000F0
:1016D000ED51000084340020294B000049490000EE
:1016E000C1470000610300001D100000A10F0000B1
:1016F000590500004D0500002DE9F04704460E464F
:1017000091460E4D2046A8470028FBD0013EDFF849
:1017100030800027DFF82CA0084D737808F8013BD3
:1017200016F8011F2046D0472046A8470028FBD0C6
:1017300001374F45F1D33846BDE8F087D32F00007D
:1017400028050020C52F0000022303767047802360
:101750000376704710B5054C05492046054B984760
:10176000012211462046044B984710BD400000203E
:10177000000400433D2F0000E92F000070B505462E
:101780000E46054C2046054B9847324629462046D2
:10179000034B984770BD00BF40000020B12F0000F0
:1017A000F916000010B5044616210348034B98476C
:1017B0000123237610BD00BFD07300007D17000009
:1017C0007047000030B59BB005460C4664220021EE
:1017D00001A8094B98470CB91BB030BD23462A46D7
:1017E000064901A8064CA04701A8064B984781B2BC
:1017F00001A8054B9847EFE73D5D0000F47300003A
:10180000C55E00001D5F00007D17000038B5042292
:101810000B4B1A760B4D0C4C2846A0470028FBD0EA
:1018200008480A4B98470A49087000234B70094C36
:101830002046094B984705212046084B984738BD5C
:101840000004004340000020DD2F0000CB2F0000EB
:10185000AC3C0020B03C00200D5F00007D17000074
:1018600038B50A4B03EB80004588094C2068792283
:101870000849003018BF0120074B98472A464FF40B
:101880007A712046054B984738BD00BF5C000020A8
:101890008C3D002000740000BD2400008939000048
:1018A00010B50220074B9847074C2068962207493D
:1018B000003018BF0120064B98472046054B98473B
:1018C00010BD00BF611800008C3D002000740000B6
:1018D000BD240000A53A000008B5044B98474FF41A
:1018E0007A70034B9847034B984708BD752000005A
:1018F00065220000A118000010B5064C2068B32234
:101900000549003018BF0120044B98472046044B7E
:10191000984710BD8C3D002000740000BD240000DD
:10192000E13A0000FEE7000008B51C4B1C4A9A4251
:1019300010D01C4B194A9A420CD2013B9B1A23F03F
:10194000030304331344164951F8040B42F8040B03
:101950009A42F9D1144B154A9A420AD2013B9B1A7A
:1019600023F0030304331344002142F8041B934281
:10197000FBD10F4B0F4A22F07F029A60D3F88820E8
:1019800042F47002C3F88820BFF34F8FBFF36F8F0C
:10199000094B9847094B9847FEE700BF000000201D
:1019A000587B00008C010020783E00209001002030
:1019B00000ED00E0000000008D5C0000993B00009D
:1019C000044AD36943F48073D3614022024BC3F8C5
:1019D0000021704700080040001C004008B5034B80
:1019E000984703490348044B984708BDC1190000B4
:1019F00000200042583D0020952100005D4B04224C
:101A00005A6002F180429A624FF040429A6293F823
:101A1000421001F0FE0141F0010183F8421093F8F9
:101A2000311001F0F00141F0010183F8311008217B
:101A3000596001F1804199629A6293F8431001F074
:101A4000FE0141F0010183F8431093F8311001F0D9
:101A50000F0141F0100183F831104FF48071C3F889
:101A6000841001F18041C3F8A810C3F8A82093F8AE
:101A7000C81001F0FE0141F0010183F8C81093F88D
:101A8000B41001F0F00141F0010183F8B4104FF4FB
:101A90000071C3F8841001F18041C3F8A810C3F8A5
:101AA000A82093F8C91001F0FE0141F0010183F86C
:101AB000C91093F8B41001F00F0141F0100183F840
:101AC000B4101021596001F1804199629A6293F833
:101AD000441001F0FE0141F0010183F8441093F835
:101AE000321001F0F00141F0010183F832102021A1
:101AF000596001F1804199629A6293F8451001F0B2
:101B0000FE0141F0010183F8451093F8321001F015
:101B10000F0141F0100183F832104021596001F1AA
:101B2000804199629A6293F8461001F0FE0141F0FB
:101B3000010183F8461093F8331001F0F00141F0F1
:101B4000010183F833108021596001F180419962CD
:101B50009A6293F8472002F0FE0242F0010283F8F5
:101B6000472093F8332002F00F0242F0100283F86E
:101B70003320704700800041044A136A43F0800319
:101B800013624122024BC3F8202170470008004035
:101B9000001C004008B5054B9847054B98470022AC
:101BA00004490548054B984708BD00BF791B000054
:101BB000FD190000001C0043683D0020C521000005
:101BC000044A136A43F4807313624022024BC3F841
:101BD0002421704700080040001C004008B5044B59
:101BE0009847002203490448044B984708BD00BFAA
:101BF000C11B000000200043203E0020C521000042
:101C0000044A136A43F4007313624022024BC3F880
:101C10002821704700080040001C004008B5034B15
:101C2000984703490348044B984708BD011C00002E
:101C300000240043903D00201122000008B54022FE
:101C4000054BC3F89020054A536943F48063536100
:101C5000034B984708BD00BF001C0040000800402F
:101C6000C922000008B5044A936943F080039361D8
:101C7000024B984708BD00BF0008004085220000C5
:101C8000024A136943F040031361704700080040A3
:101C900008B5034B984703490348044B984708BDD0
:101CA000811C0000004000411C3D00200123000079
:101CB000104B93F8512002F0FE0242F0010283F82B
:101CC000512093F8382002F00F0242F0300283F8DE
:101CD000382093F8522002F0FE0242F0010283F80D
:101CE000522093F8392002F0F00242F0030283F808
:101CF0003920704700800041064B4022C3F8E020A5
:101D00004A22C3F88C20044A936943F480639361A8
:101D1000704700BF001C00400008004008B5034B9E
:101D20009847034B9847034B984708BDF91C0000A0
:101D3000650E0000B11C0000104B93F8572002F014
:101D4000FE0242F0010283F8572093F83B2002F094
:101D50000F0242F0300283F83B2093F8D72002F0C4
:101D6000FE0242F0010283F8D72093F8BB2002F074
:101D70000F0242F0300283F8BB2070470080004120
:101D8000064B4022C3F80C214A22C3F88C20044A97
:101D9000136A43F002031362704700BF001C004047
:101DA0000008004008B5034B9847034B9847034B86
:101DB000984708BD811D000055170000391D00001F
:101DC00008B50248024B984708BD00BF10E000E08C
:101DD00051220000044A536943F480435361402276
:101DE000024BC3F8A420704700080040001C0040CC
:101DF00008B5054B9847054B9847024604490548E6
:101E0000054B984708BD00BFD51D0000A138000054
:101E100000380040E43C00205D230000044A536980
:101E200043F4004353614022024BC3F8A42070479F
:101E300000080040001C004008B5054B9847054BC2
:101E40009847024604490548054B984708BD00BF1E
:101E50001D1E0000A1380000003C0040043E002090
:101E60005D230000044A936943F4005393614022C8
:101E7000024BC3F8E820704700080040001C0040F7
:101E800008B5054B9847054B984702460449054855
:101E9000054B984708BD00BF651E0000A138000033
:101EA00000A00141003D00205D230000044A936929
:101EB00043F4006393614022024BC3F8E42070476F
:101EC00000080040001C004008B5054B9847054B32
:101ED0009847024604490548054B984708BD00BF8E
:101EE000AD1E00005933000000600141243E002077
:101EF00079240000044A936943F48053936140229B
:101F0000024BC3F8E420704700080040001C00406A
:101F100008B5054B9847054B9847024604490548C4
:101F2000054B984708BD00BFF51E0000593300005F
:101F3000008001416C3D002079240000044AD369EF
:101F400043F00803D3614022024BC3F8F4207047EA
:101F500000080040001C004008B5054B9847054BA1
:101F60009847024604490548054B984708BD00BFFD
:101F70003D1F000059330000000C0042C43D00200A
:101F800079240000044AD36943F01003D36140224E
:101F9000024BC3F8F420704700080040001C0040CA
:101FA00008B5054B9847054B984702460449054834
:101FB000054B984708BD00BF851F0000593300003E
:101FC00000100042E43D002079240000044A136A16
:101FD00043F0100313624022024BC3F818217047EC
:101FE00000080040001C004008B5054B9847054B11
:101FF0009847024604490548054B984708BD00BF6D
:10200000CD1F00005933000000100043383D002070
:1020100079240000024A536943F480735361704786
:102020000008004008B50A4B984752220949012090
:10203000094B984709480A4B03600A4B984718B167
:1020400009480A4B984708BD0948084B984708BDFE
:102050001520000000740000BD2400008C3D00200D
:10206000002000401D3900002C740000C117000042
:102070001C7400002DE9F041284B9847284B9847E5
:10208000284B9847284B9847284B9847284B984708
:10209000284B9847284B9847284B9847284B9847F8
:1020A000284B9847284B9847284B9847284B9847E8
:1020B000284CA36943F48043A361274F4FF04008A5
:1020C000C7F8E880254EB047024625492548264DE9
:1020D000A847E36943F02003E361C7F8F880B047FD
:1020E000024622492248A847E36943EA0803E3611C
:1020F000C7F8F880B04702461E491F48A8471F4B43
:1021000098471F4B98471F4B98471F4B98471F4BAB
:1021100098471F4B9847BDE8F08100BF0928000091
:10212000C11D0000DD190000951B0000DD1B000033
:102130001D1C00003D1C0000651C0000911C0000DF
:10214000A51D00001D1D0000F11D0000391E00002E
:10215000811E000000080040001C0040993800006B
:1021600000C00141443E00207924000000140042D8
:10217000A43D002000180042C43C0020C91E0000FD
:10218000111F0000591F0000A11F0000E91F0000DF
:102190002520000038B50C46054658B1081C18BF6C
:1021A00001203B220449054B984721462846044B11
:1021B000984738BD0020F4E748740000BD240000B3
:1021C000D126000038B50C46054658B1081C18BF8A
:1021D000012043220449054B984721462846044BD9
:1021E000984738BD0020F4E764740000BD24000067
:1021F000A9270000EFF31083036072B6BFF35F8F6F
:102200007047BFF35F8F036883F310887047000047
:1022100038B50D46044698B1081C18BF01203C2271
:102220000849094B984729462046084B98470246DB
:1022300020B900236360A360E3602361104638BDCA
:102240000020ECE780740000BD240000C1280000DD
:1022500008B5024B1860024B984708BD34050020B2
:102260005530000010B5044B1C68044B98470146DC
:102270002046034B984710BD34050020FD27000081
:102280006930000008B5014B984708BDFD2A0000E1
:1022900070B50C4B5C68A0420ED0012300211E4695
:1022A000FF2503E02B465A18520804D1A042F9D961
:1022B0003BB13146F7E770BD024B1B680BB1984745
:1022C00070BD70BD3805002008B5054B4FF0FF32DA
:1022D0005A6000221A600348034B984708BD00BFAC
:1022E00038050020912200007D2A000008B54369CE
:1022F00003B1984708BD08B5836903B1984708BD85
:1023000038B50D46044690B1081C18BF0120422282
:102310000849094B984729462046084B98470346E9
:1023200018B9074A2260074A6260184638BD002083
:10233000EDE700BF9C740000BD240000392C0000B4
:10234000ED220000F722000008B5436903B1984769
:1023500008BD08B5836903B1984708BD38B50D4677
:10236000044680B1081C18BF01203D220749084BD4
:10237000984729462046074B9847074B2360074B51
:102380006360002038BD0020EFE700BFB474000098
:10239000BD240000813700004923000053230000C2
:1023A000F8B5844607682FB18D683C460026C2F117
:1023B000010E0BE00E4B9847F8BD7344A068034430
:1023C000AB420AD22368264653B11C466368934247
:1023D000F3D8A06803449B1AF2E7A74204D034461E
:1023E0002046044B9847F8BD6046014B9847F8BD1E
:1023F000E5240000112500002DE9F0474469076934
:1024000001370761037E13F0010F13D1037E13F030
:10241000020F0FD154B36368FB1AA268934207D32B
:10242000064600F11408DFF84890DFF848A012E0F3
:10243000BDE8F087037E43F002030376BDE8F08732
:102440007569E3682046984785B12C466B68FB1A8E
:10245000AA6893420AD34046C847237C012BEFD198
:1024600067603A4621464046D047E9E7BDE8F08735
:1024700019250000A123000070B50E46154604463C
:1024800090B199B1101C18BF012045220849094B91
:102490009847204640F8045B2B6831469847002057
:1024A0006061054B636070BD0020EEE70020ECE743
:1024B000CC740000BD240000F923000000B900BE68
:1024C000704703684BB18B4209D01B681BB199421E
:1024D000FBD1012070470020704700207047012089
:1024E0007047000038B504460D46064B984780F00B
:1024F000010043220449C0B2044B984723682B6073
:10250000256038BDC3240000E4740000BD24000031
:1025100003680B600160704703680BB11A680260C2
:102520001846704770B50E461546044678B181B11D
:10253000A2B1012032220D490D4B98476B1E1D425E
:1025400009D163600020A060E060266070BD0020BB
:10255000F0E70020EEE76FF00C0070BD3222034977
:102560000020034B98476B1EEBE700BF047500008B
:10257000BD24000038B50D460446A0B1081C18BFA4
:1025800001204A220A490B4B9847A368E2689A4205
:102590000BD0626813402268D35C2B70A3680133B0
:1025A000A360002038BD0020EBE76FF0090038BDC4
:1025B00004750000BD24000038B50D4604465B22BA
:1025C0000B49003018BF01200A4B9847E368626846
:1025D00013402268D554E3686168A2689A1A8A4257
:1025E00084BF591AA1600133E360002038BD00BFE9
:1025F00004750000BD24000010B504467122054991
:10260000003018BF0120044B9847E068A368C01A47
:1026100010BD00BF04750000BD24000010B50446C5
:102620007B220549003018BF0120044B9847E3681E
:10263000A360002010BD00BF04750000BD24000091
:102640000346064A126822B1044A10680344136024
:1026500070470349014A1160F6E700BF40050020BA
:10266000783E012010B504464FF481721549164892
:10267000844214BF00200120144B9847236A13F0B2
:10268000010FFBD1236A13F0030FFBD1237813F062
:10269000020F14D1236A13F0010FFBD1237843F00A
:1026A00001032370236A13F0010FFBD14FF4C063C1
:1026B00023610020207363616073608010BD6FF040
:1026C000100010BD2875000000200042BD2400004D
:1026D00038B50C4605466C220549003018BF01206C
:1026E000044B98472C602046034B984738BD00BFE9
:1026F00028750000BD24000065260000036B13F060
:10270000010FFBD1036B13F0030FFBD1038813F010
:10271000020F2AD1036B13F0010FFBD103889BB288
:1027200043F001030380036B13F0010FFBD116226A
:102730000F4B02FB01318B88C3808B790372CB79FD
:1027400083700B8983808B7A8372CB7AC3728B8977
:102750008381CB89C3810B8A03824B8A43820B7DA1
:10276000C3704B880380002070476FF010007047E3
:102770003C75000000F13D40A0F5E050C0F387201B
:1027800048B1012809D008B5912205490020054B20
:102790009847002008BD002070470120704700BF07
:1027A00068750000BD24000038B50C460546D522EA
:1027B0000749003018BF0120064B98472C6020467F
:1027C000054B984701462046044B984738BD00BF4B
:1027D00068750000BD24000075270000FD2600007C
:1027E000430900F01F00012202FA00F04033024AC0
:1027F00042F82300704700BF00E100E04BF6803351
:1028000003FB00F07047000010B50C4A13889BB220
:1028100013800B4B98470B4B98474FF400600A4CC2
:10282000A0470A4B984740F2FF70A047084A136937
:1028300043F400731361074B984710BD00400041FB
:10284000D92C0000012C0000592B0000052D0000A0
:10285000000800406129000010B50446F322154924
:102860001548844214BF00200120144B9847A368E8
:1028700013F0010FFBD1A36813F0030FFBD12378F2
:1028800013F0020F13D1A36813F0010FFBD12378CB
:1028900043F001032370A36813F0010FFBD1002064
:1028A0006070A070A081E0810123237610BD6FF0DD
:1028B000030010BD8075000000240043BD2400000B
:1028C00038B50C46054661220549003018BF012085
:1028D000044B98472C602046034B984738BD00BFF7
:1028E00080750000BD2400005928000008B51A4A70
:1028F000138C03F01F0303EB4301184800EB810026
:1029000002EB031292F84E2012F0010F0AD11A01C5
:1029100002F1824202F5204292F84E2012F0020F9C
:102920000BD108BD1A0102F1824202F520420121B9
:1029300082F84E104368984708BD1A0102F182429E
:1029400002F52042022182F84E1003EB4303034AB2
:1029500052F823309847E4E700A0004150050020DA
:1029600030B4334A138823F002031B041B0C13807A
:10297000538823F47C531B041B0C538013889BB295
:1029800043F001031380138813F0010FFBD1284B90
:102990004FF470621A805A7B02F0FE025A730020D4
:1029A0005861244A02F5C071596302F560729A6356
:1029B000214BA1F5C0751C68010101F1824202F5AD
:1029C000204214641C7982F845405C7982F84640C4
:1029D000DA882944A1F88021013008332028EAD17F
:1029E0001F23012015499AB213F4004F0BD0013375
:1029F000242BF8D10E4A13889BB243F002031380B4
:102A0000002030BC70475C0902F01F0200FA02F29D
:102A100004F1200541F82520BFF34F8FBFF36F8FDE
:102A200004F1600541F8252041F82420DFE700BFCC
:102A300000A00041500500209875000000E100E072
:102A400008B5014B984708BDED28000008B5014BBB
:102A5000984708BDED28000008B5014B984708BD10
:102A6000ED28000008B5014B984708BDED2800008F
:102A700008B5014B984708BDED2800001E4A536871
:102A800013F0010FFBD11C4A536813F0030FFBD165
:102A9000194B1B7813F0020F2BD1174A536813F010
:102AA000010FFBD1144A137843F0010313705368EC
:102AB00013F0010FFBD1104A536813F0030FFBD141
:102AC0000D4B1A7802F0EF021A7000225A709A60C9
:102AD0009A611A635A63DA611A621A46536813F0EC
:102AE000030FFBD1044A137843F002031370002054
:102AF00070476FF0100070470028004030B4144851
:102B000000F143050346134C1A1A13F8011B48320F
:102B100044F82210AB42F7D10D4800F14204803056
:102B2000002134F8023FCA0002F1824202F56042FD
:102B3000136250F8043FDBB282F82530DB43DBB28E
:102B400082F8243001312029EBD1002030BC7047BD
:102B50009876000000E0004110F0010F02D0234AF7
:102B6000234B1A6210F0020F02D0224A204B5A6205
:102B700010F0040F02D01D4A1D4B9A6210F0080F8E
:102B800002D01A4A1A4BDA6210F0100F02D0174A1C
:102B9000174B1A6310F0200F02D0144A144B5A63DB
:102BA00010F0400F02D0114A114B9A6310F0800FC1
:102BB00002D00E4A0E4BDA6310F4807F02D00B4A2B
:102BC0000B4B1A6410F4007F02D0084A084B5A6479
:102BD00010F4806F02D0084A054B9A6410F4006F1D
:102BE00002D0064A024BDA64704700BF062B010090
:102BF000001C004006230100052B0100053B0100DD
:102C00000122014B5A7170470008004008B5036962
:102C10001A8A12F0010F05D001221A82036853B1FB
:102C2000984708BD1A8A92B22AB140F25E221A82EF
:102C3000436803B1984708BD38B50C46054650B304
:102C40001648814214BF0020012056221449154B1A
:102C500098472C61238823F0C0039B049B0C23809E
:102C6000114B1D60114B4FF00051C3F88010BFF3A2
:102C70004F8FBFF36F8F4FF08042C3F88020BFF3B8
:102C80004F8FBFF36F8FC3F88011C3F88021196095
:102C90001A60002038BD0020D7E700BF0040004187
:102CA0009C770000BD240000D00A002000E100E075
:102CB00008B5024B1868024B984708BDD00A00209F
:102CC0000D2C000008B5024B1868024B984708BD50
:102CD000D00A00200D2C0000094B42F24E029A82CD
:102CE00001229A75DA75DA690022DA611A46D36828
:102CF00013F0010FFBD00422014B1A74704700BF80
:102D0000001400402B4A136A23F00F0343F004031E
:102D10001362294B00221A77284A9A621A4692F8BF
:102D20002C3013F0100FFAD10022234B83F820200F
:102D30001A4692F82C3013F0040FFAD142221E4B9F
:102D40001A771A4692F82C3013F0020FFAD11A4B68
:102D50005A6A5A621A4692F82C3013F0080FFAD1C8
:102D60008222154B83F820201A4692F82C3013F05B
:102D7000040FFAD1104B93F8203013F0010F12D04A
:102D80000D4A136903F41063B3F5106FF9D1094AC2
:102D90005368002BFCD1074A136A23F00F0343F05A
:102DA000060313627047044A136913F4807FFBD053
:102DB000EDE700BF001C00400010004000000104CF
:102DC00000B583B00D4B9B78DBB20193019B13F0F0
:102DD000020F06D00A4B1B681BB1084A506898477F
:102DE00009E0019B13F0010F05D0054B5B6813B19F
:102DF000024A5068984703B05DF804FB00000241A6
:102E0000643E002070B487B006466C460C4D0FCD72
:102E10000FC495E8030084E80300009BB3420CD084
:102E2000324601205DF82030934207D00130062859
:102E3000F8D1002007B070BC70470020C0B2F9E79D
:102E4000BC77000008B5034B984780002E3000F097
:102E5000FE0008BD052E000038B50446334B9847E8
:102E6000032856D0042852D0052808BF022206D0D5
:102E700040F263222E4900202E4B98470022E3693E
:102E800013F0010FFBD1E36913F0030FFBD12368AB
:102E900013F0020F47D1E36913F0010FFBD1236850
:102EA00043F001032360E36913F0010FFBD11046E7
:102EB00002EB4203204901EBC303D96921601D6A7B
:102EC00065605B6AA36011F4C04F24D002EB42023C
:102ED000194B03EBC202118DA38961F30C03A3818B
:102EE00092F82A20A38962F34F33A381124B420048
:102EF000111803EBC10191F82B10A173024403EBED
:102F0000C20393F82C3084F83030002038BD012201
:102F1000B5E70022B3E702EB4202074B03EBC20224
:102F2000138DA381E2E76FF0100038BD052E00007D
:102F300048780000BD240000BC77000070B50D4645
:102F40000646DA221649003018BF0120154B984773
:102F50002846154B98470446F8B9B5612846134BE7
:102F600098470230C0B200F01F0301229A40430983
:102F70009B0003F1604303F56143C3F88020BFF376
:102F80004F8FBFF36F8FC3F8802100F1604000F5D1
:102F90006140E02180F800131A60204670BD00BF38
:102FA00048780000BD240000592E0000452E000086
:102FB0008269D36913F0030FFBD1136843F0020356
:102FC000136070478369996270478369986AC0B2D9
:102FD00070478369187E00F0010070478369187E8E
:102FE000C0F380007047000070B50C4616460546D9
:102FF00040F245221549003018BF0120144B984774
:1030000014F0FD0F0DD1AB692EB901221A75AB6911
:1030100002221A7570BD01229A75AB6902229A7557
:1030200070BD012C02D0032C08D070BDAB6916B95D
:1030300004221A7570BD04229A7570BDAB6916B171
:1030400080229A75F1E780221A7570BD48780000D9
:10305000BD240000034B6FF07F425A6005221A60C6
:10306000704700BF10E000E00B0E03B330B45D1EEC
:10307000EDB22846124A6FF07F44546094601368A2
:1030800013F4803FFBD00138C0B2FF28F5D1A5EB87
:10309000056501F17F4101312944094B596099606F
:1030A0001A46136813F4803FFBD030BC7047044BC2
:1030B000596099601A46136813F4803FFBD070473B
:1030C00010E000E070B487B0064601AC144D0FCD9F
:1030D0000FC42B682360B04217D03146012301A8EA
:1030E00050F823208A4206D00133052BF8D1552011
:1030F00007B070BC7047DBB2042B0CD8DFE803F0DC
:1031000005030D0709005C20F2E75520F0E7652074
:10311000EEE76820ECE78920EAE76120E8E700BFF6
:103120006478000010B5C4682046104B98474309E6
:1031300000F01F00012202FA00F020330C4A42F88E
:103140002300BFF34F8FBFF36F8FA36813F0030FFC
:10315000FBD1236823F002032360A36813F0010F5F
:10316000FBD1236843F00103236010BDC53000008C
:1031700000E100E0C268936813F0030FFBD113680D
:1031800043F0020313607047C268936813F0030FA3
:10319000FBD1136823F0020313607047C3681964FE
:1031A0007047C368186C7047C268936813F0030FC8
:1031B000FBD11068C0F34000704708B5C368DA6AF5
:1031C00012F0010F00D108BD0122DA6203689847AE
:1031D000F9E70000F0B587B005460C4601AE4E4F4A
:1031E0000FCF0FC63B683360A0420CD021460123AD
:1031F00001A850F823208A4206D00133052BF8D1CC
:10320000002676B215E0002313F0FF0373D0012BE4
:103210006BD0022B6BD0032B6BD0042B08BF042682
:10322000EFD040F28B123D4900203D4B98474FF0C4
:10323000FF36EC60E42239490120394B9847A368F6
:1032400013F0010FFBD1A36813F0030FFBD1236828
:1032500013F0020F5DD1A36813F0010FFBD12368B7
:1032600043F001032360A36813F0010FFBD12A4A46
:10327000F1008B1902EB830398692060187F60715D
:10328000587FA0771B6A23620E4402EB8602536AC2
:1032900023640123A362234B9C422ED0224B9C42E9
:1032A0002ED0224B9C422ED0214B9C422ED0214B23
:1032B0009C4204BF204B1D612046204B984700F0E4
:1032C0001F0301229A4043099B0003F1604303F569
:1032D0006143C3F88020BFF34F8FBFF36F8FC3F8F4
:1032E00080211A60002007B0F0BD012689E7022680
:1032F00087E7032685E7002683E70F4B1D60D3E7AA
:103300000D4B5D60D3E70C4B9D60D5E70A4BDD604C
:10331000D2E76FF01000E6E7647800002C79000037
:10332000BD2400000060014100800141000C00420A
:103330000010004200100043D40A0020C5300000F5
:1033400008B5C068024B9847024B984708BD00BFBC
:10335000C5300000E12700000048704768000020E9
:1033600008B5024B1868024B984708BDD40A0020E4
:10337000BB31000008B5024B5868024B984708BDA6
:10338000D40A0020BB31000008B5024B9868024BFC
:10339000984708BDD40A0020BB31000008B5024B95
:1033A000D868024B984708BDD40A0020BB31000002
:1033B00008B5024B1869024B984708BDD40A002093
:1033C000BB310000C268136913F0030FFBD113680F
:1033D00043F0020313607047C268136913F0030FD0
:1033E000FBD1136823F0020313607047C2681368AF
:1033F000C3F38103022B0BD0136813F00C0F09D019
:103400001368C3F38103012B04BFC9B2D17670479F
:10341000D161704789B291837047C2681368C3F362
:103420008103022B0CD0136813F00C0F0AD0136821
:10343000C3F38103012B06BFD07EC0B200207047CA
:10344000D0697047908B80B27047C268136913F0DF
:10345000030FFBD11068C0F34000704708B5C36884
:103460009A7A12F0010F00D108BD01229A72036806
:103470009847F9E738B505460469A37A13F0010FB8
:1034800004D00123A372036803B19847637A13F051
:10349000020F05D00223A3726B680BB12846984730
:1034A00038BD0000114B984211D0114B984211D0F9
:1034B000104B984211D0104B984211D00F4B9842AC
:1034C00011D00F4B984204BF0E4B596170470D4B02
:1034D0001960F0E70B4B5960F0E70A4B9960F0E791
:1034E000084BD9607047074B19617047003800409E
:1034F000003C004000A0014100C001410014004216
:1035000000180042E80A002070B586B006466C46F6
:10351000184D0FCD0FC495E8030084E80300009B0D
:10352000B34221D0314601235DF823208A421CD0CA
:103530000133062BF8D100230F4A12789A4216D095
:103540000D4A0120117D994212D00130C0B21432CF
:103550000628F7D140F2272208490020084B984757
:103560004FF0FF3006B070BD0023DBB2E4E700206F
:1035700040B2F7E744790000880000205C79000041
:10358000BD24000070B506460C460846484B9847D7
:103590000546F460AF2247490120474B984723690D
:1035A00013F0010FFBD1236913F0030FFBD1236844
:1035B00013F0020F75D1236913F0010FFBD12368BB
:1035C00043F001032360236913F0010FFBD105EBE6
:1035D00085033A4A02EB83035A6822609A7AE273BF
:1035E0001A89E280012222735B6803F00C03082B26
:1035F0003FD0002B47D105EB8503304A02EB830314
:103600009A89A2831B8AE383012363723146204691
:103610002B4B984705EB8503284A02EB8303B3F94C
:103620000230002B40DB5A0903F01F03012101FA8D
:1036300003F32032234941F82230BFF34F8FBFF309
:103640006F8F05EB85051D4B03EB8505B5F9023042
:10365000002B2BDB590903F01F03012202FA03F3AD
:10366000184A01F1600042F8203042F82130002071
:1036700070BD05EB8503114A02EB8303DA68E26152
:103680001B692362C0E7042BBED105EB85030B4AFF
:1036900002EB83031A7B22771A7C6277DB7AE3766C
:1036A000B2E76FF0100070BD002070BD002070BD4B
:1036B000093500005C790000BD240000880000206E
:1036C000A534000000E100E038B5C4682046184B7E
:1036D0009847054640F2011216490120164B9847BB
:1036E00005EB8505154B03EB8505B5F90230002B7D
:1036F0000DDB5A0903F01F03012101FA03F3203205
:103700000F4941F82230BFF34F8FBFF36F8F23690A
:1037100013F0030FFBD1236823F002032360236916
:1037200013F0010FFBD1236843F00103236038BD80
:10373000093500005C790000BD24000088000020ED
:1037400000E100E010B5C068084B984704464FF40C
:10375000DE7207490120074B984704EB8404064BAF
:1037600003EB8404A078054B984710BD0935000091
:103770005C790000BD24000088000020E1270000E3
:1037800070B506460C4608463F4B984705463461DF
:10379000236913F0010FFBD1236913F0030FFBD151
:1037A000236813F0020F65D1236913F0010FFBD1D9
:1037B000236843F001032360236913F0010FFBD159
:1037C00005EB8503314A02EB83035A6822609A7A3B
:1037D000E2731A89E280032222735B6803F00C0310
:1037E000082B3DD0002B48D105EB8503274A02EB7F
:1037F00083039A89A2831B8AE38331462046244BA4
:10380000984705EB8503214A02EB8303B3F90230A5
:10381000002B35DB5A0903F01F03012101FA03F3E2
:1038200020321C4941F82230BFF34F8FBFF36F8F16
:1038300005EB8505154B03EB8505B5F90230002B2B
:1038400020DB590903F01F03012202FA03F3114A96
:1038500001F1600042F8203042F82130002070BDB4
:1038600005EB8503094A02EB8303DA68E2611B6911
:103870002362C2E76FF0100070BD4FF0FF3070BDE3
:10388000002070BD002070BD0935000088000020B8
:10389000A534000000E100E000487047000100206E
:1038A0000020704708B5024B1868024B984708BDC6
:1038B000E80A00207534000008B5024B5868024B36
:1038C000984708BDE80A00207534000008B5024B8F
:1038D0009868024B984708BDE80A0020753400003C
:1038E00008B5024BD868024B984708BDE80A00208B
:1038F0005D34000008B5024B1869024B984708BDBB
:10390000E80A00205D34000008B5024B5869024BFC
:10391000984708BDE80A00205D34000010B5044651
:1039200030B30068003018BF01205A221449154BEB
:10393000984723689A6812F00E0FFBD11A78D209C3
:1039400018D19A6812F00E0FFBD11A7812F0020FFC
:1039500013D19A6812F00E0FFBD11A7802F0FB0215
:103960001A702268537803F0F0035370002010BDE2
:103970000020DAE76FF0100010BD6FF0100010BDEE
:1039800070790000BD24000070B50D46144606464F
:10399000002844D00068003018BF012084223F492D
:1039A0003F4B98473268936813F00E0FFBD11378A2
:1039B00003F0FD03137031688B6813F00E0FFBD119
:1039C0000B7803F07F030B703368996811F00E0FCA
:1039D000FBD11A78D20958D1996811F00E0FFBD19A
:1039E0001A7812F0020F53D1A4FB05452846002196
:1039F00050EA01024FD1B4F57A3F38D011D9B4F56D
:103A0000FA1F38D027D9B4F5FA0F38D0B4F57A0FA9
:103A100037D0B4F57A1F30D06FF00C0070BD0020A5
:103A2000BCE7B4F5FA4F1ED00DD8B4F5FA5F2AD032
:103A3000B4F57A5FF0D101215A7802F0F0020A431E
:103A40005A70002070BDB4F57A4F0ED0B4F5FA3F2D
:103A5000E2D10421F0E7B4F5FA2F0AD0B4F57A2FB9
:103A6000DAD10721E8E70221E6E70321E4E70521AF
:103A7000E2E70621E0E70821DEE70921DCE70A2189
:103A8000DAE70B21D8E70021D6E76FF0100070BD10
:103A90006FF0100070BD6FF00C0070BD7079000009
:103AA000BD24000010B5044698B10068003018BF6E
:103AB000012040F207120849084B98472268936892
:103AC00013F00E0FFBD1137843F0020313700020A4
:103AD00010BD0020EDE700BF70790000BD2400009C
:103AE00010B5044668B10068003018BF012040F2EC
:103AF00025120549054B98472368A5221A73002013
:103B000010BD0020F3E700BF70790000BD24000065
:103B100038B5002208210120154CA047154D28601A
:103B2000002201210846A047134B186000220821FB
:103B30000120A047114B18602B68BBB10E4B1B68CE
:103B4000A3B198B10E480F4B9847032200210120E2
:103B5000A0470D4C206001200C4B98470C4B18607F
:103B600023681BB110B10B48064B984738BD00BF06
:103B70005944000084340020903400206034002038
:103B800088790000C11700008C3400208D460000A9
:103B900088340020A479000080B582B0294B984772
:103BA000294B019302270097002396222749284892
:103BB000284DA847284C2060284B019301260096E9
:103BC0000023962226492748A8476060264B019388
:103BD00000970023962225492548A847A060254B39
:103BE000019300960023962223492448A847E060C9
:103BF000234B019300960023962222492248A8478E
:103C00002368B34206D02148214B98472148204BD6
:103C10009847FEE7E368B342F5D16368B342F2D157
:103C2000A368B342EFD1B042EDD11B48184B98477F
:103C30001A4B984710B11A4B9847E7E71948144BAD
:103C40009847E3E7D91800007C340020C8790000C9
:103C500035030000894C0000000B00206434002074
:103C6000D87900003516000078340020E47900008F
:103C7000D51500006C340020F07900008D14000090
:103C800070340020047A000031100000547A0000E3
:103C9000C11700006C7A0000147A0000113B00008C
:103CA000654E0000347A000000F1080343604FF0D5
:103CB000FF328260C360036100230360704700230A
:103CC0000361704743684B609A688A609A685160E4
:103CD00099600861036801330360704730B40D6870
:103CE000B5F1FF3F02D000F1080202E0026904E0F2
:103CF0001A4653681C68A542FAD253684B60996013
:103D00008A605160086103680133036030BC70470A
:103D100003694268816891608268416851605A68AD
:103D2000904204BF82685A60002202611A68013A18
:103D30001A6018687047000082B0002301930D4B91
:103D40001B68B3F1FF3F08D04FF0800383F3118865
:103D5000BFF36F8FBFF34F8FFEE74FF0800383F306
:103D60001188BFF36F8FBFF34F8F019B002BFCD0E7
:103D700002B070472001002008480068006880F306
:103D800008884FF0000080F3148862B661B6BFF374
:103D90004F8FBFF36F8F00DF00BF000008ED00E022
:103DA000DFF80C00016841F4700101607047000009
:103DB00088ED00E04FF0807340F8043C21F00101F1
:103DC00040F8081C054B40F80C3C40F8202C6FF0E4
:103DD000020340F8243C4438704700BF393D0000DE
:103DE000074B19680868B0E8F04F80F30988BFF303
:103DF0006F8F4FF0000080F311887047AFF30080A1
:103E0000C43300204FF0800383F31188BFF36F8F1A
:103E1000BFF34F8F0A4A136801331360012B0DD192
:103E2000084B1B6813F0FF0F08D04FF0800383F39B
:103E30001188BFF36F8FBFF34F8FFEE7704700BF4E
:103E40002001002004ED00E0094B1B6843B94FF04E
:103E5000800383F31188BFF36F8FBFF34F8FFEE7AB
:103E6000013B034A13600BB983F31188704700BF0D
:103E70002001002000000000000000000000000001
:103E8000EFF30980BFF36F8F154B1A681EF0100F08
:103E900008BF20ED108A20E9F04F10602DE90900DD
:103EA0004FF0800080F31188BFF34F8FBFF36F8F07
:103EB00001F0C8F94FF0000080F3118809BC1968BF
:103EC0000868B0E8F04F1EF0100F08BFB0EC108A81
:103ED00080F30988BFF36F8F704700BFAFF3008096
:103EE000C433002008B54FF0800383F31188BFF37B
:103EF0006F8FBFF34F8F054B984718B14FF080522B
:103F0000034B1A60002383F3118808BD0D4F000096
:103F100004ED00E0054B00221A6005490A604BF6EB
:103F20007F31044A116007221A60704710E000E0F8
:103F300018E000E014E000E03B4B1A683B4B9A426B
:103F400008D14FF0800383F31188BFF36F8FBFF365
:103F50004F8FFEE7344B1A68354B9A4208D14FF029
:103F6000800383F31188BFF36F8FBFF34F8FFEE79A
:103F700010B582B02F4B1A78D2B20192FF221A707C
:103F80001B78DBB28DF803309DF803302A4A03F02A
:103F900080031370072353609DF8033013F0800FE4
:103FA00012D0062300E00B469DF803205200D2B247
:103FB0008DF803209DF80320591E12F0800FF2D1D6
:103FC0001D4A5360042B08D04FF0800383F31188FF
:103FD000BFF36F8FBFF34F8FFEE71B0203F4E06365
:103FE000154A5360019BDBB2124A1370134B1A68D7
:103FF00042F460021A601A6842F060421A60104B84
:10400000984700240F4B1C600F4B98470F4A1368CA
:1040100043F0404313600E4B98470E4B98470E4BAE
:104020009847204602B010BD00ED00E071C20F417C
:1040300070C20F4100E400E0100B002020ED00E012
:10404000153F000020010020A13D000034EF00E0FA
:10405000793D000045520000393D0000EFF3058333
:104060000F2B0FD9104A9B5CDBB2104A12789A4290
:1040700008D94FF0800383F31188BFF36F8FBFF32C
:104080004F8FFEE70A4B1B6803F4E063074A526850
:10409000934208D94FF0800383F31188BFF36F8FE9
:1040A000BFF34F8FFEE77047F0E300E0100B0020F6
:1040B0000CED00E070B504462D4B98472D4B9B68E6
:1040C00083B1002C4DD0083414F0070F1CBF24F02E
:1040D00007040834621E42F2F6739A4243D8254917
:1040E0000B6817E0234901F1140323F007030B6069
:1040F00000254D60204A42F2F870C2F82006C2F84E
:104100001C56586002F21C621A6001238B60D8E7CB
:10411000194613465A68944202D91A68002AF7D100
:10412000164A934221D00D6808351A680A605A6809
:10413000121B102A0CD91E1972605C6074680D493C
:1041400000E011460A6850688442FAD832600E6076
:104150000B490A685B68D21A0A600A4B98472846DE
:1041600070BD0025F9E70025F7E70025F5E700BF5A
:10417000ED4E0000180B0020082D002024330020F5
:104180002401002035500000D0B170B50546A0F1E3
:1041900008060C4B984755F8044C0B4A00E01A46A9
:1041A000136859688C42FAD845F8083C1660074AEB
:1041B00055F8043C11680B441360054B984770BDDB
:1041C000704700BFED4E0000180B002024010020B6
:1041D0003550000010B50446044B9847A46B044BBF
:1041E0009847B4FA84F0400910BD00BF053E0000B6
:1041F000493E000070B504461646856B026C52B904
:104200000368002B2AD14068184B9847002363604D
:104210000135A56370BD6EB98068154B9847A368DA
:10422000226C1344A3606268934219D32368A3608D
:104230000020EDE7C0680E4B9847236C5B42E268B4
:104240001A44E26021688A4202D262681344E36041
:10425000022E07D145B1013D0020D9E70020D7E764
:104260000020D5E70020D3E70020D1E785550000E6
:10427000F35C000070B582B00190846C64B1A26BF5
:10428000E36B9A4211D34FF0800383F31188BFF39D
:104290006F8FBFF34F8FFEE74FF0800383F31188DA
:1042A000BFF36F8FBFF34F8FFEE7A26B934203D82C
:1042B0000026304602B070BD0A4694F845506DB2F3
:1042C00001A920460A4B98470646B5F1FF3F0AD19F
:1042D000636A002BEDD004F12400064B98470028B8
:1042E00018BF0126E5E76B1C5BB284F84530E0E7B8
:1042F000F541000081530000026C72B110B5034615
:10430000C4681444C4604068844224BF1868D860FC
:104310000846D968014B984710BD7047F35C000010
:104320002DE9F0410546234B984795F8454064B286
:10433000002C19DD204EDFF88C80204F08E06B6ADE
:1043400093B105F12400B84760B9013C64B25CB197
:10435000AB6C002BF3D000212846B0470028F4D0E6
:10436000C047F2E7C047F0E7FF2385F84530144B1C
:104370009847104B984795F8444064B2002C12DDE2
:104380002B6983B105F110070C4EDFF8388004E08B
:10439000013C64B23CB12B692BB13846B0470028D0
:1043A000F6D0C047F4E7FF2385F84430044B984724
:1043B000BDE8F081053E0000754200008153000019
:1043C000493E0000B154000038B530B304460D46F4
:1043D0001C4B98472268216CE36B03FB01F3D01858
:1043E00060600020A063A2605B1A1344E360FF23B7
:1043F00084F8443084F84530C5B92369EBB104F141
:104400001000114B9847C0B14FF080520F4B1A600B
:10441000BFF34F8FBFF36F8F0FE04FF0800383F335
:104420001188BFF36F8FBFF34F8FFEE704F11000C9
:10443000074DA84704F12400A847064B98470120E0
:1044400038BD00BF053E00008153000004ED00E0D0
:10445000A93C0000493E0000F8B540B94FF0800388
:1044600083F31188BFF36F8FBFF34F8FFEE70646CC
:1044700017460D4601FB00F054300B4B984704469D
:1044800078B11DB100F15403036000E02060E663E1
:10449000256401212046054B984784F8507000237D
:1044A000A3642046F8BD00BFB5400000C94300002A
:1044B0002DE9F04F85B0019298B10446D1B1022B9D
:1044C00024D01E460F46644B984758BB019B8BB3C4
:1044D0004FF0800383F31188BFF36F8FBFF34F8FCB
:1044E000FEE74FF0800383F31188BFF36F8FBFF3B4
:1044F0004F8FFEE7026C002AE1D04FF0800383F378
:104500001188BFF36F8FBFF34F8FFEE7E26B012A75
:10451000D7D04FF0800383F31188BFF36F8FBFF3C1
:104520004F8FFEE70025DFF85C81DFF85CA1DFF844
:10453000349141E00025F6E7324639462046474BA4
:104540009847A36C93B131462046454B984738B104
:104550004FF08052434B1A60BFF34F8FBFF36F8F02
:10456000414B9847012005B0BDE8F08F636A73B1F5
:1045700004F124003D4B98470028F1D04FF08052C1
:10458000384B1A60BFF34F8FBFF36F8FE8E70028F7
:10459000E6D04FF08052334B1A60BFF34F8FBFF31A
:1045A0006F8FDDE7304B98470020DCE72046304B2B
:1045B0009847304B98470125C047A26BE36B9A425E
:1045C000BAD3022EB8D0019B002BEBD00DB902A8B4
:1045D000D047254B9847284B9847C04794F844301C
:1045E0005BB2B3F1FF3F04BF002384F8443094F87A
:1045F00045305BB2B3F1FF3F04BF002384F8453080
:10460000194B984701A902A81C4B9847E0B9C0472D
:10461000D4F838B0E56B144B9847AB45C6D1019937
:1046200004F11000164B98472046114B9847114B48
:1046300098470028BFD14FF08053C9F80030BFF32E
:104640004F8FBFF36F8FB6E72046094B9847094B52
:104650009847002087E700BFC1540000F5410000E3
:104660007542000004ED00E0493E00008153000067
:104670002143000035500000ED4E0000255400009D
:1046800001530000053E00001154000038B50246F9
:1046900000210120064B9847044638B100214160B3
:1046A0000160C1600B460A46024DA847204638BD4E
:1046B00059440000B14400002DE9F843002836D0E9
:1046C000044600293CD0022B46D01F46904689461E
:1046D000374B9847EFF311864FF0800383F311882F
:1046E000BFF36F8FBFF34F8FA26BE36B9A4201D37F
:1046F000022F51D194F845506DB23A4649462046B2
:104700002C4B9847B5F1FF3F40D1A36C83B339469A
:104710002046294B9847002840D0B8F1000F3FD0E1
:104720000120C8F8000086F31188BDE8F8834FF037
:10473000800383F31188BFF36F8FBFF34F8FFEE7C2
:10474000006C0028BFD04FF0800383F31188BFF3C3
:104750006F8FBFF34F8FFEE7E06B0128B5D04FF0AE
:10476000800383F31188BFF36F8FBFF34F8FFEE792
:10477000636ABBB104F12400104B9847A0B1B8F1B3
:10478000000F13D00120C8F80000CCE76B1C5BB20F
:1047900084F845300120C6E70020C4E70120C2E7C5
:1047A0000120C0E70120BEE70120BCE70120BAE7F5
:1047B0005D400000F541000075420000815300009B
:1047C0002DE9F04784B0019280B10446B9B10E469C
:1047D000504B9847F8B9019B2BB34FF0800383F3FC
:1047E0001188BFF36F8FBFF34F8FFEE74FF0800349
:1047F00083F31188BFF36F8FBFF34F8FFEE7036C16
:10480000002BE4D04FF0800383F31188BFF36F8F48
:10481000BFF34F8FFEE70027DFF82481DFF824A1E4
:10482000DFF8FC9029E00027F6E7314620463A4BB6
:104830009847013DA563236963B104F11000374B2C
:10484000984738B14FF08052354B1A60BFF34F8F05
:10485000BFF36F8F334B9847012004B0BDE8F0875A
:10486000304B98470020F8E702A8D0470EE02046DA
:104870002D4B98472D4B98470127C047A56B002D1E
:10488000D3D1019B002BEBD0002FEDD0254B9847C7
:10489000274B9847C04794F844305BB2B3F1FF3FD1
:1048A00004BF002384F8443094F845305BB2B3F180
:1048B000FF3F04BF002384F845301A4B984701A9F5
:1048C00002A81C4B9847C8B920461B4B98470028A4
:1048D000CDD0019904F12400184B98472046124B83
:1048E0009847124B98470028C6D14FF08053C9F81B
:1048F0000030BFF34F8FBFF36F8FBDE720460A4BE9
:1049000098470A4B984720460B4B98470028B3D04E
:104910000020A2E7C1540000F942000081530000CA
:1049200004ED00E0493E0000214300003550000046
:10493000ED4E000025540000D54100000153000059
:10494000053E0000115400002DE9F04385B00191AF
:1049500058B10446036C8BB14FF0800383F3118888
:10496000BFF36F8FBFF34F8FFEE74FF0800383F3EA
:104970001188BFF36F8FBFF34F8FFEE75B4B9847F4
:1049800050B9019B83B14FF0800383F31188BFF3CB
:104990006F8FBFF34F8FFEE700252F46544EDFF891
:1049A0008491DFF8588148E000252F46F6E7013B67
:1049B000A363236813B94F4B98476060236963B1C1
:1049C00004F110004C4B984738B14FF080524B4BDC
:1049D0001A60BFF34F8FBFF36F8F494B9847012584
:1049E000284605B0BDE8F08345B14FF0800383F35E
:1049F0001188BFF36F8FBFF34F8FFEE7404B98478F
:104A0000EEE702A8C84721E0B04760683D4B9847F1
:104A100005463B4B984740E020463B4B98473B4B75
:104A2000984709E02046384B9847384B984720462E
:104A3000374B9847002845D10127B047A36B002B7F
:104A4000B5D1019B002BCFD0002FDAD02C4B98474B
:104A5000304B9847B04794F844305BB2B3F1FF3F16
:104A600004BF002384F8443094F845305BB2B3F1BE
:104A7000FF3F04BF002384F84530214B984701A92C
:104A800002A8254B98470028CCD12046204B9847B8
:104A90000028C1D02368002BB6D0019904F124006E
:104AA0001E4B98472046184B9847184B98470028AC
:104AB000C2D14FF08053C8F80030BFF34F8FBFF31F
:104AC0006F8FB9E7002D8BD0094B9847636A53B1BC
:104AD000236B1968C1F105016068114B9847084BB9
:104AE000984700257CE70021F6E700BFC15400008D
:104AF000053E0000CD5600008153000004ED00E0AB
:104B0000493E0000E1540000214300003550000000
:104B1000D5410000ED4E0000255400000153000077
:104B2000215600001154000040B94FF0800383F378
:104B30001188BFF36F8FBFF34F8FFEE710B50446A8
:104B4000034B9847A46B034B9847204610BD00BF0A
:104B5000053E0000493E000070B504460D4616466D
:104B6000114B984794F844305BB2B3F1FF3F04BF58
:104B7000002384F8443094F845305BB2B3F1FF3F32
:104B800004BF002384F84530084B9847A36B1BB142
:104B90002046074B984770BD3246294604F1240051
:104BA000044B9847F4E700BF053E0000493E000073
:104BB000214300003D530000064A07484FF0805152
:104BC000936A012BFCD90160BFF34F8FBFF36F8F46
:104BD000F6E700BF2C33002004ED00E0094BD3F8CA
:104BE0008C301B6843B1074BD3F88C20D268D26855
:104BF0005268C3F8902070474FF0FF32014BC3F862
:104C0000902070472C33002070B504460E461A4B96
:104C1000D3F89450D3F898000430184B9847B4F167
:104C2000FF3F16D02C44144BD3F898305C60A5425B
:104C300018D8114DD5F88C00D5F898100431104BC8
:104C40009847D5F890309C423CBF2B46C3F8904023
:104C500070BD002EE6D00848D0F898100431094BFA
:104C6000984770BD044BD3F89C00D3F898100431DA
:104C7000034B984770BD00BF2C330020113D00004E
:104C8000DD3C0000C53C00002DE9F04F83B08346B9
:104C90000D460193DDF834A096003046664B9847E8
:104CA000002800F0968007465420634B984704463E
:104CB000002800F08B8007633246A52138465F4B01
:104CC0009847043E236B1E4426F007062B7884F891
:104CD00034302B785BB12B4604F13502E91D58784E
:104CE00002F8010B13F8010F08B19942F7D1002720
:104CF00084F83B700C9D042D28BF0425E562656493
:104D0000A76404F104084046DFF85491C84704F151
:104D10001800C8472461C5F10505A5616462E76410
:104D200084F85070019A59463046454B98472060A8
:104D3000BAF1000F01D0CAF80040424B9847424BED
:104D4000D3F8A0200132C3F8A020D3F89830002B6C
:104D500042D03D4BD3F8CC304BB93B4BD3F89830D5
:104D6000DA6AE36A9A429CBF374BC3F89840364AE6
:104D7000D2F8D0300133C2F8D030E363E36AD2F81E
:104D8000D420934284BF304AC2F8D4302E4D05F16E
:104D9000280003EB8303414600EB83002B4B98472D
:104DA0002B4B9847D5F8CC30002B3FD0D5F8983016
:104DB000DA6AE36A9A423DD24FF08052254B1A607C
:104DC000BFF34F8FBFF36F8F012030E03846224B87
:104DD00098474FF0FF302AE01B4BC3F89840D3F8B8
:104DE000A030012BC3D1184D05F128001B4EB04750
:104DF00005F13C00B04705F15000B04705F16400F3
:104E0000B04705F17800B04705F1A4094846B0471E
:104E100005F1B8073846B04705F11400B0472846F9
:104E2000B047C5F88C90C5F89C70A0E7012003B08E
:104E3000BDE8F08F0120FAE7B54000003D5D0000BD
:104E4000B53D0000053E00002C330020C53C0000AD
:104E5000493E000004ED00E089410000A93C00004B
:104E6000BF3C000010B582B0194B019300230093A2
:104E7000802218491848194CA047012804D0B0F1E5
:104E8000FF3F1BD002B010BD154B98470128F6D14B
:104E90004FF0800383F31188BFF36F8FBFF34F8F01
:104EA000104B4FF0FF32C3F890200122C3F8CC2002
:104EB0000022C3F894200C4B9847E3E74FF080039F
:104EC00083F31188BFF36F8FBFF34F8FFEE700BFEF
:104ED00008340020847A0000B94B0000894C00009F
:104EE000595900002C330020393F0000034AD2F802
:104EF000D8300133C2F8D830704700BF2C330020BF
:104F0000014BD3F8940070472C3300202DE9F04773
:104F1000444BD3F8D830002B73D1424BD3F8946074
:104F20000136C3F89460E6B9D3F88C301B6843B1FE
:104F30004FF0800383F31188BFF36F8FBFF34F8F60
:104F4000FEE7384BD3F88C20D3F89C10C3F88C10B4
:104F5000C3F89C20D3F8E0200132C3F8E020324BA4
:104F60009847304BD3F890309E420DD200242D4B01
:104F7000D3F89820D26A02EB820203EB82039B6A89
:104F8000022B28BF012443E00024264DDFF8A08037
:104F900005F1280A21E04FF0FF32224BC3F89020A0
:104FA000E5E7204AC2F89030E1E707F11800C04772
:104FB000F86AD5F8D430984288BFC5F8D40000EB21
:104FC000800049460AEB8000184B9847D5F8983086
:104FD000FA6ADB6A9A4228BF0124D5F88C301B6834
:104FE000002BD8D0D5F88C30DB68DF687B689E4218
:104FF000D7D307F104094846C047BB6A002BD4D178
:10500000D6E7084AD2F8E4300133C2F8E43000248D
:10501000044BD3F8E830002B0CBF20460120BDE83C
:10502000F08700BF2C330020DD4B0000C53C0000A2
:10503000113D00003A4BD3F8D83043B94FF080030C
:1050400083F31188BFF36F8FBFF34F8FFEE72DE916
:10505000F041344B9847324BD3F8D820013AC3F88B
:10506000D820D3F8D830002B55D12D4BD3F8A03011
:105070002BB900242C4B98472046BDE8F081002531
:10508000274C2A4E04F128086369FBB1236ADD68C6
:1050900005F11800B0472F1D3846B047E86AD4F82C
:1050A000D430984288BFC4F8D40000EB8000394661
:1050B00008EB80001E4B9847D4F89830EA6ADB6A08
:1050C0009A42E1D30123C4F8E830DDE70DB1194B72
:1050D0009847134BD3F8E4407CB1174F1E46012587
:1050E00001E0013C05D0B8470028FAD0C6F8E850E6
:1050F000F7E700220A4BC3F8E420094BD3F8E83065
:105100005BB14FF080520D4B1A60BFF34F8FBFF36E
:105110006F8F0124AEE70024ACE70024AAE700BFAC
:105120002C330020053E0000493E0000113D0000E8
:10513000C53C0000DD4B00000D4F000004ED00E019
:1051400038B550B1054689B94FF0800383F3118813
:10515000BFF36F8FBFF34F8FFEE74FF0800383F3F2
:105160001188BFF36F8FBFF34F8FFEE71A4BD3F851
:10517000D83043B14FF0800383F31188BFF36F8FB2
:10518000BFF34F8FFEE70C46144B9847124BD3F8F2
:1051900094002A681444904214D2A24216D92C607A
:1051A000A04203D20021201A0D4B98470D4B98477F
:1051B00080B94FF080520C4B1A60BFF34F8FBFF392
:1051C0006F8F38BDA24203D8A04201D32C60EDE717
:1051D0002C60E7E738BD00BF2C330020ED4E000007
:1051E000094C00003550000004ED00E010B5B0B1EE
:1051F00004460F4BD3F8D83043B14FF0800383F30C
:105200001188BFF36F8FBFF34F8FFEE7094B9847AD
:1052100000212046084B9847084B984738B94FF073
:105220008052074B1A60BFF34F8FBFF36F8F10BDD3
:105230002C330020ED4E0000094C000035500000DA
:1052400004ED00E02C4BD3F8D8308BBB10B52A4BC3
:105250000022C3F8E820D3F89820D3F898301268D9
:105260001B6B9A4207D8244BD3F89800D3F89810B8
:105270003431224B9847204AD2F8D43003EB8301D3
:1052800002EB8102926AC2B94BB11B49013B03EBAD
:10529000830201EB8202926A7AB9002BF6D14FF0B9
:1052A000800383F31188BFF36F8FBFF34F8FFEE747
:1052B0000122114BC3F8E82070470F4A9900C81823
:1052C00002EB8000C46A6468C4621944024630324A
:1052D00094420BD0084A03EB830102EB8101C96AB7
:1052E000C968C2F89810C2F8D43010BD6068024A8C
:1052F00002EB8102D062EDE72C330020D1020000E6
:1053000040B94FF0800383F31188BFF36F8FBFF371
:105310004F8FFEE710B50C46054BD3F898101831A7
:10532000044B984701212046034B984710BD00BF0E
:105330002C330020DD3C0000094C000038B580B162
:1053400014460D460B4BD3F8981018310A4B98476A
:10535000002C21460CBF28464FF0FF30074B9847E2
:1053600038BD4FF0800383F31188BFF36F8FBFF315
:105370004F8FFEE72C330020C53C0000094C000095
:1053800038B5C368DC68002C2AD004F1180528461B
:105390001A4B98471A4BD3F8D83053BB251D2846D3
:1053A000164B9847E06A164BD3F8D430984284BF26
:1053B000134BC3F8D40000EB80002946114B03EBDC
:1053C0008000114B98470E4BD3F89830E26ADB6AA5
:1053D0009A4283BF01200A4BC3F8E800002038BD81
:1053E0004FF0800383F31188BFF36F8FBFF34F8FAC
:1053F000FEE729460548044B9847E4E7113D0000C5
:105400002C33002054330020C53C000040330020E2
:10541000034BD3F8E0200260D3F894304360704728
:105420002C330020F8B170B5054629B30C461C4B4F
:1054300098471C4BD3F8942069682368B3F1FF3F69
:105440002AD01848D0F8E0002E68864201D08A425F
:1054500024D2521A9A4218D3002323600124124BFB
:105460009847204670BD4FF0800383F31188BFF347
:105470006F8FBFF34F8FFEE74FF0800383F31188E8
:10548000BFF36F8FBFF34F8FFEE79B1A2360284651
:10549000064B98470024E2E70024E0E70124DEE71A
:1054A000053E00002C330020493E0000115400004E
:1054B0000122024BC3F8E820704700BF2C330020C4
:1054C000064BD3F8CC303BB1044BD3F8D830002B8B
:1054D0000CBF022000207047012070472C330020B1
:1054E000002845D038B50546C26A2249D1F898103F
:1054F000C96A8A4232D28169002906DB1D49D1F886
:105500009810C96AC1F10501816102EB82021A4952
:1055100001EB82026969914206D0164AD2F89820BE
:10552000D26AEA62012038BD2C1D2046134B9847F1
:10553000104BD3F89820D06AE862D3F8D430984260
:1055400084BF0C4BC3F8D40000EB800021460A4B0B
:1055500003EB80000A4B9847012038BD054AD2F87A
:105560009820406CD36A98422CBF0020012038BD9F
:10557000002070472C33002054330020113D0000E0
:10558000C53C000000283CD038B50446204AD2F87B
:105590009820904208D04FF0800383F31188BFF326
:1055A0006F8FBFF34F8FFEE7826C42B94FF08003DD
:1055B00083F31188BFF36F8FBFF34F8FFEE7013A7C
:1055C0008264C06A616C88421DD0F2B9251D2846EC
:1055D000104B9847606CE062C0F10503A3610C4B6F
:1055E000D3F8D430984284BF094BC3F8D40000EB01
:1055F00080002946084B03EB8000084B98470120A8
:1056000038BD00207047002038BD002038BD00BFE5
:105610002C330020113D000054330020C53C000015
:10562000002849D038B50446806C40B94FF080035B
:1056300083F31188BFF36F8FBFF34F8FFEE7626C68
:105640008A4238BF0A46E16A914201D0012800D05F
:1056500038BD1A48D0F89800844208D14FF0800332
:1056600083F31188BFF36F8FBFF34F8FFEE7E262C2
:10567000A0690028A4BFC2F10502A26101EB81016B
:105680000F4A02EB810162698A42E1D1251D284659
:105690000C4B9847E06A094BD3F8D430984284BF4A
:1056A000064BC3F8D40000EB80002946044B03EB03
:1056B0008000054B9847CBE7704700BF2C33002094
:1056C00054330020113D0000C53C0000064BD3F8C8
:1056D00098302BB1044BD3F89820936C013393642A
:1056E000014BD3F8980070472C330020F8B50746DB
:1056F0000D4614461E46254B9847254BD3F8983047
:1057000093F85030DBB2022B0CD0214BD3F8982009
:10571000D06C20EA0700D064D3F89830012283F8D7
:105720005020E6B91B4B9847184B984724B1184BAB
:10573000D3F89830DB6C2360154BD3F8983093F88E
:105740005030DBB2022B17D00024114BD3F8983025
:10575000002283F850200F4B98472046F8BD114691
:1057600030460D4B98474FF080520C4B1A60BFF3F8
:105770004F8FBFF36F8FD5E7054BD3F89820D36CCD
:1057800023EA0505D5640124DFE700BF053E0000DC
:105790002C330020493E0000094C000004ED00E0DD
:1057A0002DE9F843089E10B30446994617468846EB
:1057B0003E4B9847EFF311854FF0800383F3118838
:1057C000BFF36F8FBFF34F8FB9F1000F02D0E36CBF
:1057D000C9F8003094F85030DBB2022284F850202F
:1057E0007A1E032A10D8DFE802F00B1C20234FF0AA
:1057F000800383F31188BFF36F8FBFF34F8FFEE7F2
:10580000E26C42EA0802E264012B47D1A36AA3B129
:105810004FF0800383F31188BFF36F8FBFF34F8F77
:10582000FEE7E26C0132E264EEE7C4F84C80EBE79D
:10583000022B31D0C4F84C80E6E71D4BD3F8D830AA
:10584000FBB9271D38461B4B9847E06A184BD3F825
:10585000D430984284BF164BC3F8D40000EB8000CC
:105860003946154B03EB8000144B9847104BD3F887
:105870009830E26ADB6A9A4215D946B1012030605D
:105880000DE004F118010E480C4B9847EEE701209B
:10589000074BC3F8E80002E0002000E0012085F398
:1058A0001188BDE8F8830120F9E700BF5D400000E2
:1058B0002C330020113D000054330020C53C000073
:1058C0004033002008B54160006191420CD8D21AE3
:1058D00083699A4201D3012008BD011D094B186854
:1058E000094B9847002008BD9A4201D2994206D23E
:1058F000011D044B5868044B9847002008BD012047
:1059000008BD00BF18340020DD3C0000F8B50D4B89
:1059100098470D4B9B6813B10C4B9847F8BD0A4C48
:1059200004F10C0630460A4FB84704F1200528461A
:10593000B8476660256000220C211420054B98476B
:10594000A060E9E7053E000018340020493E000051
:10595000A93C00005944000010B582B00D4B984797
:105960000D4B9B6863B10D4B019303230093002300
:1059700080220B490B480C4CA04708B102B010BD67
:105980004FF0800383F31188BFF36F8FBFF34F8F06
:10599000FEE700BF0D590000183400204C340020F1
:1059A0009C7A0000C55A0000894C0000D8B130B57F
:1059B00085B015460446144A906810B31A46019102
:1059C00002950394052917DC104B984702284FF0E5
:1059D00000030CBF089A1A4601A90B4880680C4CBA
:1059E000A04705B030BD4FF0800383F31188BFF3AB
:1059F0006F8FBFF34F8FFEE7002301A9054CA0472F
:105A0000EFE70020EDE700BF18340020C15400008C
:105A1000B1440000B94600002DE9F04782B080464D
:105A2000234B98470746234B9B6B984219D300237F
:105A3000C8F800301F4B9F63384602B0BDE8F087BE
:105A4000002100910B46524620461B4CA04750B9FE
:105A50004FF0800383F31188BFF36F8FBFF34F8F35
:105A6000FEE7144D154E6B681A68C2B1DB68D3F8B7
:105A700000A0DC6804F104094846B047636A204688
:105A80009847E369012BEED1A36953449A45D7D2D5
:105A90006360246149466868094B9847E3E7054A13
:105AA0001168516013600123C8F80030C2E700BFDD
:105AB000014F000018340020AD590000113D0000D6
:105AC000DD3C00002DE9F04786B0654C654FDFF8FE
:105AD000B491DFF8B48163681A6872B1DB681D683D
