S00E000053414D4435312E737265638B
S1130000803F01208D340000253500002535000097
S113001025350000253500002535000000000000CE
S1130020000000000000000000000000614B000020
S11300302535000000000000014C0000654C000064
S11300402535000025350000253500002535000044
S11300502535000025350000253500002535000034
S11300602535000025350000253500002535000024
S11300702535000025350000253500002535000014
S11300802535000025350000253500002535000004
S113009025350000253500002535000025350000F4
S11300A025350000253500002535000025350000E4
S11300B025350000D9400000ED400000BD3F0000A0
S11300C0C93F0000D53F0000E13F0000ED3F0000C4
S11300D025350000253500002535000025350000B4
S11300E025350000253500002535000025350000A4
S11300F000000000E941000025350000253500001E
S11301002535000025350000253500002535000083
S11301102535000025350000253500002535000073
S11301202535000025350000A1270000AD2700007B
S1130130B9270000253500002535000025350000CD
S11301402535000025350000253500002535000043
S1130150DD32000025350000000000000000000032
S1130160000000000000000000000000000000008B
S1130170000000000000000000000000000000007B
S11301802535000025350000253500002535000003
S1130190000000000545000025350000253500005D
S11301A025350000253500002535000025350000E3
S11301B019450000253500002535000025350000CF
S11301C0253500002D4500002535000025350000AB
S11301D02535000041450000253500002535000087
S11301E0554500002535000025350000B1450000C7
S11301F0C5450000D9450000ED450000014600005A
S11302001546000000000000000000002535000035
S11302102535000025350000690500007D05000036
S11302202535000025350000253500002535000062
S11302302535000025350000253500002535000052
S11302402535000025350000253500002535000042
S11302502535000025350000253500002535000032
S11302600000000010B5054C237833B9044B13B1DA
S11302700448AFF300800123237010BD5002002016
S113028000000000689600000C4B43B10C480D4977
S113029010B5AFF300800C48036823B910BD0A48B9
S11302A0036833B97047094B002BF7D0BDE8104001
S11302B01847064B002BF5D0184700BF000000007C
S11302C068960000540200206896000000000000B8
S11302D070B588B006461E22302168460D4B9847FB
S11302E00D4D28460D4CA0470D48A0472846A04771
S11302F00C48A04732460C4968460C4B9847684660
S11303000B4B984781B268460A4B98470A4B98476B
S113031008B070BDA36A000000750000DD31000064
S11303203C750000E0900000787500002D6C000022
S1130330856C0000993100001534000038B5054D76
S11303402846054CA0470548A0472846A047044B2B
S1130350984738BD00750000DD3100008C75000041
S11303601534000070B4594B4FF40051C3F8841095
S1130370574AC3F8A820574AC3F8A820C3F88410E2
S113038093F8CD0040F0040083F8CD00C3F8981032
S113039093F8CD1001F0FE0183F8CD104FF4805195
S11303A0C3F884104C48C3F8A800C3F8A820C3F8C5
S11303B0841093F8CC0040F0040083F8CC00C3F818
S11303C0981093F8CC1001F0FE0183F8CC104FF490
S11303D00060C3F88400414EC3F8A860C3F8A820A5
S11303E0C3F8840093F8CB1041F0040183F8CB10D8
S11303F0C3F8980093F8CB1001F0FE0183F8CB10FA
S11304004FF48061C3F88410354DC3F8A850C3F885
S1130410A820C3F8841093F8CA4044F0040483F875
S1130420CA40C3F8981093F8CA4004F0FE0483F855
S1130430CA4058609E629A62586093F84B4044F0F8
S1130440040483F84B40986193F84B0000F0FE00DD
S113045083F84B0059609D629A62596093F84A0090
S113046040F0040083F84A00996193F84A1001F0BF
S1130470FE0183F84A104FF40071596019489862DC
S11304809A62596093F8490040F0040083F84900E7
S1130490996193F8491001F0FE0183F849104FF473
S11304A080715960104898629A62596093F84820A4
S11304B042F0040283F84820996193F8482002F03E
S11304C0FE0283F8482070BC704700BF00800041E2
S11304D000200240000002C0001002400008024058
S11304E000040240000202400001024008B5014B32
S11304F0984708BDD13600002DE9F04383B0044687
S11305000F469046002302AE26F8043D0B80114DA1
S113051001462846104B984723461922214628466F
S1130520DFF84090C84743463246214628460B4EE2
S1130530B047064621462846094B98479DF80520B2
S11305409DF8043043EA02233B80304603B0BDE803
S1130550F08300BF583E0020C93800002139000054
S1130560F5380000C139000008B50248024B98472D
S113057008BD00BFC8750000DD31000008B50248A1
S1130580024B984708BD00BFDC750000DD31000058
S113059008B502220349044B9847B0FA80F0400999
S11305A008BD00BFF07500003B6A00002DE9F04172
S11305B082B0904B00221A705A709A70DA701A71D5
S11305C08D4C1D4603F108070CE001232B7000231A
S11305D06B70AB70EB702B71884B98474FF41670AF
S11305E0874B9847A0470428FCD1EB78002BF9D11E
S11305F02B78072BF0D801A252F823F0CB0500008A
S11306001D06000009070000550800004D0A0000FF
S11306108F0B0000250D0000CB0E00006B781BB380
S1130620012BD9D14FF47A623946764B1868764B50
S113063098470128D0D12B7A1C2B5CD1E868734BE6
S1130640984700284FD07248724EB0476989E868CD
S1130650714B98477148B04700236B7002232B708D
S1130660E8686F4B9847B7E741F27070644B98475E
S11306706C4B18686C4B9847002830D100216B4BA9
S113068018686B4B9847012803D06A48614B984718
S1130690A2E705238DF800301C238DF801300023D8
S11306A001934FF4FA7269465E480068624EB0479F
S11306B0012807D06148574B98474FF4FA70504BC4
S11306C0984789E700231A46194658480068B047F6
S11306D001236B704FF4FA70494B98477CE75848F4
S11306E04C4B984778E757484A4EB0474B48B04779
S11306F000236B70B4E75448464B984700236B7053
S1130700E868474B984767E76B7833B3012B7FF46E
S113071063AF4FF47A6239463A4B18683A4B9847BC
S113072001287FF459AF2B7A1E2B59D1E868374B37
S1130730984700284CD04548364EB0476989E86848
S1130740354B98473548B04700236B7003222A7015
S1130750AB70E868324B98473EE7324B1868324B2F
S11307609847002830D10021304B1868304B984707
S1130770012803D02F48274B98472DE705238DF8F0
S113078000301E238DF80130002301934FF4FA72D8
S1130790694624480068284EB047012807D02C48F1
S11307A01C4B98474FF4FA70154B984714E70023F5
S11307B01A4619461D480068B04701236B704FF470
S11307C0FA700F4B984707E71D48124B984703E709
S11307D01C48104EB0471148B04700236B70B8E76F
S11307E019480C4B984700236B70E8680C4B9847EA
S11307F0F2E600BF6C020020B92B0000D5330000E4
S1130800CD5E0000743500204D55000091050000B8
S11308106C760000DD31000099310000E0900000AA
S1130820154F000068350020B55800007C350020C5
S1130830D5560000247600003D520000F4750000F7
S113084050760000A0760000C87600003C770000D7
S113085000770000AB78002B2FD0012B7FF4BCAEC7
S11308606B78002B00F0A380012B7FF4B5AE4FF41E
S11308707A623946924B1868924B984701287FF464
S1130880ABAE2B7A202B40F0D880E8688E4B98478B
S1130890002800F0CA808D488D4EB0476989E86809
S11308A08C4B98478C48B04700236B7004222A7005
S11308B0AB70E868894B98478EE66B783BB3012BA5
S11308C07FF48AAE4FF47A6239467D4B18687D4BCB
S11308D0984701287FF480AE2B7A1F2B5ED1E868FD
S11308E0794B9847002851D07D48794EB0476989A3
S11308F0E868784B98477848B04700236B70032327
S11309002B700123AB70E868744B984764E6754B11
S11309101868754B9847002834D10021734B186828
S1130920734B9847012803D07248694B984753E6A4
S113093005238DF800301F238DF801300023019327
S11309404FF4FA726946674800686B4EB047012855
S113095007D06A485E4B98474FF4FA70684B984743
S11309603AE600231A46194660480068B047012356
S11309706B7003232B700023AB704FF4FA70604B41
S1130980984729E65F48524B984725E65E48504E03
S1130990B0475148B04700236B70B4E75B484C4BF9
S11309A0984700236B70E8684C4B984714E64D4B0E
S11309B018684D4B9847002833D100214B4B1868D9
S11309C04B4B9847012803D04A48414B984703E6CC
S11309D005238DF8003020238DF801300023019386
S11309E04FF4FA7269463F480068434EB047012805
S11309F007D04748364B98474FF4FA70404B984716
S1130A00EAE500231A46194638480068B04701232E
S1130A106B7003222A70AB704FF4FA70384B98470E
S1130A20DAE538482A4B9847D6E53748284EB04788
S1130A302948B04700236B703BE73448244B984760
S1130A4000236B70E868254B9847C5E56B7833B392
S1130A50012B7FF4C1AD4FF47A623946184B186804
S1130A60184B984701287FF4B7AD2B7A1D2B40F023
S1130A708580E868144B9847002877D02548144EA1
S1130A80B0476989E868134B98471348B047002377
S1130A906B7005232B70E868104B98479CE5114B4D
S1130AA01868114B984700285CD100210F4B186837
S1130AB00F4B984701282FD00E48054B98478BE5DC
S1130AC0743500204D550000910500004078000069
S1130AD0DD31000099310000E0900000154F000066
S1130AE0B477000068350020B55800007C3500203C
S1130AF0D5560000247600003D52000064770000C3
S1130B00CD5E000050760000A0760000C87600009C
S1130B10EC770000B478000005238DF800301D2325
S1130B208DF80130002301934FF4FA72694693481B
S1130B300068934EB047012807D09248924B9847DB
S1130B404FF4FA70914B984746E500231A4619462C
S1130B508F480068B04701236B704FF4FA708B4BD9
S1130B60984739E58B48884B984735E58A48864E3F
S1130B70B0478A48B04700236B708CE78848824BA3
S1130B80984700236B70E868864B984724E5002358
S1130B90ADF80030844EB0470B28FCD9824B9847FF
S1130BA00C283AD9804B9847A0F10C0630467F4B6D
S1130BB09847804600283FF40FADB1B27C4B98476C
S1130BC0002800F0FE81092241467A487A4B984772
S1130BD0002840F0F68198F809300C2B21D08DF8CC
S1130BE0003098F80A308DF801306846734B984706
S1130BF0C6B240466B4B9847642E3FF4EDAC122EC0
S1130C0019D8DFE806F0151B1F272F183318375E95
S1130C10621866186F737F188B00634B98470646FB
S1130C20C4E700238DF800300C238DF80130DCE795
S1130C306348554B9847634B1E70CDE46248524B52
S1130C409847F8E76148504B984706232B700023D8
S1130C506B70F0E75E484C4B984707232B700023DA
S1130C606B70E8E75B48484B9847E4E75A48464BC3
S1130C709847E0E75948444B9847524B1B78062B5A
S1130C800DD0EB78002BD6D10123EB7000232B7011
S1130C905348DFF8F480C0475248C047CBE7EB78AD
S1130CA0002BC8D12B79002BC5D000232B71012236
S1130CB0EA702B704C48DFF8D080C0474B48C047DF
S1130CC0B9E74B48304B9847B5E74A482E4B98470D
S1130CD0B1E74948DFF8B080C0473048C0474748CB
S1130CE0C047A8E74648284B9847A4E74548DFF89B
S1130CF09880C0474448C0470123EB7000232B7100
S1130D002B7098E73848DFF88080C0473F48C047D9
S1130D100123EB702B7100232B708CE73C481A4B9A
S1130D20984788E76B78002B7ED0012B7FF454AC76
S1130D304FF47A623946374B1868374B9847012885
S1130D407FF44AAC2B7A212B40F0B580E868334B12
S1130D509847002800F0A78031480B4EB0476989B6
S1130D60E868304B98470D48B04700236B70052363
S1130D702B70E8680B4B98472EE400BF68350020C1
S1130D803D5200007C780000DD310000CD5E0000A3
S1130D907C35002050760000A0760000E090000032
S1130DA0C8760000154F0000E9280000354E000009
S1130DB081280000E8780000956C0000C1690000FB
S1130DC0F47800000000002020790000547900002D
S1130DD088790000C0790000F8790000307A0000BA
S1130DE0607A00008C7A0000E07A00001C7B00002E
S1130DF0587B0000887B0000C07B0000F87B00006B
S1130E00387C0000607C0000887C0000C47C00000A
S1130E10047D0000743500204D550000910500004C
S1130E20887D000099310000684B1868684B98472A
S1130E30002833D10021674B1868674B9847012875
S1130E4004D06648664B9847FFF7C6BB05238DF868
S1130E50003021238DF80130002301934FF4FA72FE
S1130E6069465A4800685F4EB047012808D05E487A
S1130E705B4B98474FF4FA705C4B9847FFF7ACBB59
S1130E8000231A46194653480068B04701236B7083
S1130E904FF4FA70554B9847FFF79EBB5448504B9C
S1130EA09847FFF799BB53484D4EB0475248B04757
S1130EB000236B705DE75148494B984700236B70E2
S1130EC0E8684F4B9847FFF787BB6B7843B3012B18
S1130ED07FF482AB4FF47A6239464A4B18684A4B26
S1130EE0984701287FF478AB2B7A222B5FD1E868EE
S1130EF0464B9847002852D04548394EB047698937
S1130F00E868444B98473C48B04701232B710023C1
S1130F106B7005232B70E868394B9847FFF75CBB6F
S1130F202A4B18682A4B9847002833D10021294BB3
S1130F301868294B9847012804D02848284B98471B
S1130F40FFF74ABB05238DF8003022238DF80130CA
S1130F50002301934FF4FA7269461C480068214E3D
S1130F60B047012808D02C481D4B98474FF4FA701D
S1130F701E4B9847FFF730BB00231A461946154805
S1130F800068B04701236B704FF4FA70174B984711
S1130F90FFF722BB1648124B9847FFF71DBB1548B5
S1130FA00F4EB0471448B04700236B70B3E71348A3
S1130FB00B4B984700236B70E868114B9847FFF779
S1130FC00BBB40460E4B9847FFF706BB6835002025
S1130FD0B55800007C350020D5560000247600006A
S1130FE0DD3100003D520000507D0000CD5E000068
S1130FF050760000A0760000E0900000C876000063
S1131000154F0000743500204D5500009105000077
S1131010247E000099310000EC7D0000014BD8785B
S1131020704700BF6C02002030B583B00023ADF8D8
S113103006303A4B1B78012B10D01BB1022B47D042
S113104003B030BD4FF4FA71354B1868354B9847EF
S11310500128F5D10122314B1A70F1E72F4B1A7D8B
S113106003EB42031D7968462F4B98476B092F49C0
S1131070DB01CA18C958136A14695C400C405C400F
S113108068462B4B984705F01F05012303FA05F525
S113109025420CD0214A137D0133DBB21375072B93
S11310A0CED9134602221A7000221A75C8E71B4CC7
S11310B0217D19441F48204B9847237D0133DBB21F
S11310C02375072BBCD90222227000222275B7E7B0
S11310D0124B1B7D072B04D9104B00221A701A7572
S11310E0AEE70E4C04EB430302220DF106015879DE
S11310F0124B9847637D4BB9BDF806202283012229
S11311006275064B1B7D072B9AD9E5E7034B00223A
S11311105A751A761A7D01321A75F2E77C0200209C
S113112078350020D5560000F539000000800041D4
S1131130033A00008C7E000069320000F9040000CC
S11311402DE9F04F93B08F4B98478F4B98478F4BB7
S113115098478F4B1F7C5E7C9A7B0E92DA7B1092B1
S113116093F80C9093F80D8093F80AB093F80BA0C1
S11311701D7A5C7A93F806C093F807E018795B79D6
S11311800C93012200230F930D930B930A9309935D
S1131190089307930693059304930393029301938F
S11311A00092119307E001210A9102240099099108
S11311B02B250132D2B2511EC9B2072900F289800F
S11311C001A353F821F000BF65130000751300005C
S11311D0A7110000E9110000FB1100000D1200002E
S11311E01F1200002D120000012102914FF0030A8A
S11311F0009901914FF02A0BDBE7012104914FF094
S11312000408009903914FF00B09D2E701231193CD
S11312100521109100990F910A210E91C9E701212E
S113122008910626009907910927C2E7119B019AA4
S1131230002A4AD1029A12B1554A82F80BA0039AA5
S113124012B1534A82F80C90049A12B1504A82F8AF
S11312500D80059A12B14E4A82F806C0069A12B160
S11312604B4A82F807E0079A0AB1494A1774089A68
S11312700AB1474A5674099A0AB1454A15720A9A3C
S11312800AB1434A54720B9A0AB1414A10710D9A39
S11312901AB13F4A9DF8301051710F9A1AB13C4A65
S11312A09DF8381091731BB1394B9DF84020DA73C7
S11312B0374B08229A740722DA740022344B1A70CE
S11312C0344D354CA847A047FCE7314A82F80AB0B0
S11312D0B0E7072A7FF66DAF119B019A12B12C4A31
S11312E082F80AB0029A12B1294A82F80BA0039A32
S11312F012B1274A82F80C90049A12B1244A82F857
S11313000D80059A12B1224A82F806C0069A12B1DB
S11313101F4A82F807E0079A0AB11D4A1774089A0F
S11313200AB11B4A5674099A0AB1194A15720A9AE3
S11313300AB1174A54720B9A0AB1154A10710D9AE0
S11313401AB1134A9DF8301051710F9A1AB1104A0C
S11313509DF838109173002BAFD00D4B9DF84020B1
S1131360DA73AAE701210D9100210C9100990B91E8
S11313702D201EE70121069100998E4605914FF01C
S11313802C0C16E78D5C000065030000ED040000E2
S11313907C02002029100000D533000030B400EB9B
S11313A080000D46044C04EB80040FCC0FC5236869
S11313B02B6030BC704700BFA47E00000378313B33
S11313C0082B3BD8DFE803F0050B11171D23292F49
S11313D035001B4B3122DA7383F820207047184BF9
S11313E03222DA7383F820207047154B3322DA73E4
S11313F083F820207047124B3422DA7383F82020BC
S113140070470F4B3522DA7383F8202070470C4B5A
S11314103622DA7383F820207047094B3722DA73B7
S113142083F820207047064B3822DA7383F8202093
S11314307047034B3922DA7383F82020704700BFCA
S113144004000020F8B50F4C0F220F4920460F4B23
S1131450984720460E4B98470E4D044405F120074B
S11314602E460FCE20606160A260E36035461034E2
S1131470BE42F5D107CD20606160A2602B78237352
S1131480F8BD00BF9802002018000020B96C0000CD
S1131490856C000054830000F0B587B001A92D4B82
S11314A098479DF80C70BDF814002B4B9847002802
S11314B04AD00446BDF81410284B98470646002825
S11314C03ED09DF80C2021460298254B984758BBE6
S11314D0BDF80E000130204B98470546F8B1BDF821
S11314E00E30D3B10023B91CC9B2E218525CEA54DD
S11314F00133DBB2BDF80E209A42F6D80022EA543A
S1131500BDF80E20013292B229469DF80400049BD6
S113151098472846134B98470AE00023EEE7124801
S1131520124B9847002603E01148104B98470026B9
S113153020460C4B98470F4B9847304607B0F0BDF8
S11315400D480A4B9847F3E70C48084B9847002688
S1131550F1E700BF9D130000354E00008128000014
S1131560956C0000154F0000D4850000DD310000AB
S113157008860000D5280000448600008886000004
S1131580014B1870704700BF27000020014B1870F2
S1131590704700BFD4020020014B1878704700BF89
S11315A0D4020020013809281AD8DFE800F0050722
S11315B0090B0D0F111315170A2070470B207047E4
S11315C00C2070470D2070470E2070470F20704785
S11315D01020704711207047122070471320704765
S11315E00020704708B502220349044B9847B0FA1B
S11315F080F0400908BD00BFF07500003B6A0000A0
S1131600074B00221A705A709A70DA701A71052109
S113161059711A725A81DA6030221A74704700BF05
S1131620D802002010B50548054CA0470548A0473E
S1131630054B9847054B984710BD00BFC086000076
S1131640DD310000E8860000C52B00000116000013
S113165070B582B0874B5B78072B00F29280DFE88D
S113166013F008008B003B01C1012D02CC023803AA
S11316701004804B9B78002B4DD17E4B5B79002B63
S11316803ED07D4B18687D4B9847002834D100210B
S11316907B4B18687B4B9847012803D07A487B4BD7
S11316A098476EE001238DF80030724B5879784BDF
S11316B098478DF80100002301934FF4FA726946AC
S11316C06D480068734CA047012807D072486F4BDF
S11316D098474FF4FA70714B984752E000231A462A
S11316E0194667480068A0470122624B9A704FF47C
S11316F0FA706A4B984744E06948644B984740E065
S11317006848624CA0476848A0475A4B01225A7067
S113171000229A7035E0012B33D14FF47A62634989
S1131720634B1868634B984701282AD1514B1D7AA3
S11317305C792046564B9847854213D14CB14D4BAA
S1131740013C5C7100229A704A4BD8685A4B984706
S113175017E0484B01225A7000229A7057484B4BAD
S11317609847F1E75648494B9847424B00229A70F4
S1131770D868514B984704E03E4B9B781BB1012B32
S11317803ED002B070BD3C4B18683C4B98470028D3
S113179032D100213A4B18683A4B9847012803D0BC
S11317A039483A4B9847ECE701238DF800301A2367
S11317B08DF80130002301934FF4FA7269462E48E4
S11317C00068344CA047012807D033482F4B984772
S11317D04FF4FA70314B9847D3E700231A46194661
S11317E027480068A047234B01229A705A704FF48F
S11317F0FA702A4B9847C4E72948244B9847C0E716
S11318004FF47A6229492A4B18682A4B98470128D1
S1131810B7D1184B1B7A1A2B22D1164BD868294BF7
S1131820984790B12848194DA847124C6189E0683F
S1131830264B98471C48A8470023A37002236370D3
S11318400C4BD8681C4B98479BE721480F4CA0478A
S11318501548A0470022074B9A701E4B9847EFE7A4
S113186017480A4B9847034B00229A70D868124BCA
S1131870984786E7D802002068350020B558000054
S11318807C350020D556000024760000DD310000B0
S1131890A51500003D5200002C870000CD5E00001D
S11318A05076000060870000E0900000E002002015
S11318B0443500204D550000154F0000848700007A
S11318C0A4870000E5150000D887000099310000C6
S11318D0F887000025160000904B9B78002B2ED033
S11318E0012B7FF44EAF4FF47A628D498D4B18680B
S11318F08D4B984701287FF444AF884B1B7A1B2BF0
S113190066D1864BD868894B9847002855D08848BB
S1131910884DA847814C6189E068874B9847874E7A
S11319203046A8478648A8473046A8470023A370F6
S113193003236370794BD868824B984721E7824B25
S11319401868824B9847002833D10021804B1868CF
S1131950804B9847012803D07F48764B984710E77F
S113196001238DF800301B238DF8013000230193EF
S11319704FF4FA72694674480068784CA04701280D
S113198007D077486B4B98474FF4FA70754B9847DC
S1131990F7E600231A4619466D480068A0475F4BD6
S11319A001229A7002225A704FF4FA706D4B9847D4
S11319B0E7E66D485F4B9847E3E66C485D4CA0470B
S11319C05E48A0470022554B9A70694B9847B1E78F
S11319D06848584B9847514B00229A70D868594B25
S11319E09847CEE64D4B9B78D3B1012B7FF4C9AE1B
S11319F04FF47A624A494B4B18684B4B984701287D
S1131A007FF4BFAE454B1B7A142B45D05948494B44
S1131A109847424B00229A70D8684A4B9847B0E6E0
S1131A20494B1868494B9847002831D10021484B4D
S1131A301868484B9847012803D047483D4B9847BE
S1131A409FE601238DF8003014238DF80130002324
S1131A5001934FF4FA7269463B4800683F4CA04733
S1131A60012807D04448334B98474FF4FA703D4B54
S1131A70984786E600231A46194635480068A04769
S1131A800122264B9A704FF4FA70364B984778E649
S1131A903548284B984774E63848264DA8471F4CCC
S1131AA06189E068244B98472448A847042363705D
S1131AB00023A370E068234B984762E6174B9B789A
S1131AC0D3B1012B7FF45DAE4FF47A621449154B08
S1131AD01868154B984701287FF453AE0F4B1B7AB7
S1131AE0152B78D02348134B98470C4B00229A703F
S1131AF0D868144B984744E6134B1868134B98471F
S1131B00002864D10021124B1868124B9847012811
S1131B1036D01148074B984733E600BFD80200205F
S1131B20E0020020443500204D550000E51500007A
S1131B304C880000DD31000099310000E090000085
S1131B4060880000154F000068350020B55800007B
S1131B507C350020D5560000247600003D5200005C
S1131B601C880000CD5E000050760000F88700005D
S1131B7025160000A487000098880000C48800008F
S1131B8001238DF8003015238DF8013000230193D3
S1131B904FF4FA72694690480068904CA0470128B7
S1131BA007D08F488F4B98474FF4FA708E4B984765
S1131BB0E7E500231A4619468C480068A04701222D
S1131BC08B4B9A704FF4FA70874B9847D9E5894844
S1131BD0844B9847D5E58848824DA847844C618951
S1131BE0E068864B98478648A8470523637000231E
S1131BF0A370E068834B9847C3E57D4B9B78D3B1D2
S1131C00012B7FF4BEAD4FF47A627F497F4B186895
S1131C107F4B984701287FF4B4AD754B1B7A162B84
S1131C2045D07C486F4B9847714B00229A70D86816
S1131C30744B9847A5E5684B1868774B984700287C
S1131C4031D10021694B1868744B9847012803D09F
S1131C507348644B984794E501238DF800301623AC
S1131C608DF80130002301934FF4FA7269465A4803
S1131C7000685A4CA047012807D06A48594B984736
S1131C804FF4FA70584B98477BE500231A461946DF
S1131C9056480068A0470122554B9A704FF4FA70D9
S1131CA0514B98476DE553484E4B984769E55E485C
S1131CB04C4DA8474E4C6189E068504B98475048BA
S1131CC0A847062363700023A370E0684D4B984730
S1131CD057E5474B9B78D3B1012B7FF452AD4FF4BA
S1131CE07A624949494B1868494B984701287FF45F
S1131CF048AD3F4B1B7A092B45D04648394B984792
S1131D003B4B00229A70D8683E4B984739E5324BDA
S1131D101868414B9847002831D10021334B18688B
S1131D203E4B9847012803D03D482E4B984728E561
S1131D3001238DF8003009238DF80130002301932D
S1131D404FF4FA72694624480068244CA0470128DD
S1131D5007D03448234B98474FF4FA70224B9847E6
S1131D600FE500231A46194620480068A0470122BF
S1131D701F4B9A704FF4FA701B4B984701E51D48AE
S1131D80184B9847FDE41A4CE068C37A23746189C0
S1131D901A4B98471A48134B9847E36893F837301F
S1131DA0303B062B08D8DFE803F00447585C606436
S1131DB068001E480B4B98471D480A4CA0471D4815
S1131DC0A0470F48A0470A4B00229A700722DA70F6
S1131DD002221A703CE000BF683500203D5200002A
S1131DE0DC880000DD310000CD5E00007C35002081
S1131DF0D8020020507600000889000099310000C4
S1131E00E0900000154F0000E0020020443500205F
S1131E104D550000A4870000B5580000D5560000B9
S1131E202476000020890000508900007089000099
S1131E30D48A0000F08A00005548564CA047564802
S1131E40A0475648A047564B07225A7000229A7062
S1131E50534BD868534B984793E453484D4B98479A
S1131E60AAE752484B4B9847A6E75148494B984735
S1131E70A2E75048474B98479EE74F48454B984741
S1131E809AE7474B9B78D3B1012B7FF47AAC4FF49C
S1131E907A624A494A4B18684A4B984701287FF4AA
S1131EA070AC3F4B1B7A172B48D04748394B9847A7
S1131EB03B4B00229A70D8683A4B984761E44348F8
S1131EC0434B9847434B1868434B9847002831D1FC
S1131ED00021424B1868424B9847012803D04148DF
S1131EE02C4B98474DE401238DF8003017238DF8CF
S1131EF00130002301934FF4FA72694635480068B3
S1131F00394CA047012807D03848224B98474FF452
S1131F10FA70374B984734E400231A4619462F4881
S1131F200068A04701221E4B9A704FF4FA70304BA0
S1131F30984726E42F48174B984722E4184C6189A8
S1131F40E0682D4B98471548124B984707222B49B8
S1131F50E0682B4B984738B10022114B9A70104B14
S1131F60D868104B98470CE410212648264B984714
S1131F70264B984700226270A27002212170E27001
S1131F800648044B98476420194B9847E7E700BF7D
S1131F90A0890000DD310000C0890000E09000004D
S1131FA0D8020020154F0000F0890000188A0000B4
S1131FB0408A00006C8A0000A88A0000E002002029
S1131FC0443500204D550000A4870000E80200209D
S1131FD0BD13000068350020B55800007C35002092
S1131FE0D5560000247600003D52000020890000F0
S1131FF0CD5E000050760000993100001C8B00007B
S11320003B6A00002C85000059280000D5280000F8
S113201030B583B0934B1B78012B12D01BB1022B2C
S113202012D003B030BD904B98470028F9D08D4BA7
S113203001221A7000225A709A708C488C4B98476F
S1132040EFE78C4B9847ECE7864BDB78082BE8D816
S1132050DFE813F009000F001700220026002C000F
S11320606800B300C100844B984701227D4BDA70AD
S1132070D7E7824B98470028D3D00222794BDA70F5
S1132080CFE700231A4619467D4800687D4CA047D7
S11320900322744BDA70C4E70422724BDA70C0E78F
S11320A0794B984705226F4BDA70BAE7774B18687B
S11320B0774B9847002831D10021764B1868764B2E
S11320C09847012803D07548694B9847A9E701232D
S11320D08DF8003018238DF80130002301934FF45C
S11320E0FA72694669480068664CA047012807D01F
S11320F06B485F4B984740F6C4106A4B984790E78B
S113210000231A46194663480068A0470622554B27
S1132110DA7040F6C410634B984782E76248544B28
S113212098477EE741F288326049614B1868614BF9
S11321309847012839D14B4B1B7A182B27D1494B8F
S11321405C89172C17D9DD6818225B4928465B4B3C
S1132150984718B10722434BDA700FE0214628460E
S1132160574B98475748424B9847574B984701223B
S11321703C4BDA7002E007223A4BDA70394BD868EC
S1132180524B98474FF47A70464B984749E750486A
S1132190374B9847334B0722DA70D8684B4B984734
S11321A04FF47A703F4B98473BE707222D4BDA7088
S11321B04FF47A703B4B984733E72A4B0822DA7086
S11321C000221A71052159719A704248284CA0477F
S11321D04148A04725E7234B1B79012B00F00A81D6
S11321E023B3022B7FF41DAF1E4B9B78002B00F012
S11321F0D981012B7FF415AF4FF47A622B492C4B14
S113220018682C4B9847012800F00A82154B5B7C18
S1132210032B40F255823148154CA0473048A04763
S11322200022104B5A742F4B9847FAE60D4B9B78BB
S1132230002B40F092800B4B5B79002B00F08480E4
S1132240124B1868124B9847002879D10021114B82
S11322501868114B9847012846D01048044B9847FA
S1132260DFE600BFD8020020AD2B0000248B000065
S1132270DD31000051160000D5280000B92E000001
S1132280783500203D5200004514000068350020D8
S1132290B55800007C350020D55600002476000097
S11322A020890000CD5E000050760000E00200208E
S11322B0443500204D550000408B00003B6A00006F
S11322C099310000E0900000AD2E0000154F000091
S11322D0A48700005C8B00009C8B00001C8C000019
S11322E0508C00001534000001238DF800308F4B12
S11322F058798F4B98478DF80100002301934FF4D0
S1132300FA7269468B4800688B4CA047012807D0B5
S11323108A488B4B98474FF4FA708A4B984780E66B
S113232000231A46194688480068A0477F4B0122BB
S11323309A700822DA704FF4FA70824B984770E66C
S113234082487F4B98476CE681487D4B9847774B92
S113235001221A710822DA7063E6012B7FF461AE60
S11323604FF47A627B497C4B18687C4B9847012870
S11323700FD06E4B5B7C032B31D87948704CA0474F
S11323807848A047694A537C01335374764B984785
S113239047E6664B1D7A5C792046654B9847854233
S11323A013D14CB1614B013C5C7100229A705F4BBC
S11323B0D8686E4B984734E65C4B01221A710822A8
S11323C0DA706B485E4B9847F1E76A485C4B984774
S11323D0564B00229A70D868644B984721E66648A9
S11323E0574CA0476548A0470022504B5A74644B91
S11323F0984716E64D4B9B78DBB1012B7FF411AE69
S11324004FF47A625349544B1868544B9847012847
S11324104DD0464B5B7C032B7CD85148484CA0479D
S11324205048A047414A537C013353744E4B98475C
S1132430F7E5404B1868534B9847002833D10021E7
S1132440414B1868504B9847012803D04F483C4BE8
S11324509847E6E501238DF800301A238DF8013002
S1132460002301934FF4FA72694632480068324CF3
S1132470A047012807D03148314B98474FF4FA70F0
S1132480304B9847CDE500231A4619462E4800687C
S1132490A047264B01229A700822DA704FF4FA7092
S11324A0284B9847BDE52948254B9847B9E51F4B6C
S11324B01B7A1A2B24D11D4BD868354B9847A0B1F1
S11324C034481F4DA847194C6189E068324B98473E
S11324D03248A847022323710023A3700823E37022
S11324E0124BD868214B98479BE52D48144CA047C4
S11324F02A48A04700220D4B9A701B4B9847EFE7E0
S11325001C480F4B9847094B00229A70D868174B08
S1132510984786E518480A4CA0471848A047002267
S1132520024B5A74164B98477BE500BFD802002033
S1132530A5150000683500203D5200002C870000DE
S1132540DD310000CD5E00007C35002050760000B7
S113255060870000E0020020443500204D55000053
S1132560BC8B0000D88B000025160000154F00001E
S113257084870000A48700001C8C0000508C00009D
S113258015340000B5580000D5560000247600002C
S1132590E5150000D887000099310000E0900000A4
S11325A0F88700004C4B18684C4B9847002833D1EF
S11325B000214B4B18684B4B9847012803D04A48DD
S11325C04A4B98472DE501238DF800301B238DF8E5
S11325D00130002301934FF4FA7269463E480068C3
S11325E0434CA047012807D04248404B98474FF43A
S11325F0FA70414B984714E500231A4619463848A7
S11326000068A0473D4B01229A700822DA704FF40B
S1132610FA70394B984704E53948344B984700E53C
S1132620364B1B7A1B2B3FD1344BD868354B98471C
S113263000282BD034482D4DA847304C6189E068E0
S1132640324B98473248A84700232371A370E370A4
S113265023706370052363712E48A8472E48A8474A
S11326602E48A847A37C0133A374E0682C4B9847F9
S1132670A37C022B7FF6D5AC2A48A8472A48A84752
S113268000221E4B9A74294B9847CAE42848174CD9
S1132690A0471F48A047194B00229A70D868204BC6
S11326A09847244B9847BCE42348104B9847134B56
S11326B000229A700822DA70D868194B9847B0E45F
S11326C01E480A4CA0471E48A0470C4A537C0133BD
S11326D05374184B9847A4E468350020B55800009B
S11326E07C350020D556000024760000DD31000042
S11326F03D5200002C870000CD5E0000D80200206F
S113270050760000E51500004C8800009931000067
S1132710E09000009C8C0000B88C0000EC8C000061
S1132720154F0000188D0000488D0000153400007E
S1132730F887000025160000A4870000BC8B000069
S1132740D88B000010B50D490D480E4B984700B1C9
S113275010BD4FF400620C490C480D4B98470028FB
S1132760F6D1074C0122114620460A4B98472046D1
S1132770094B9847094B93F83C33E9E70040014182
S1132780280000206543000088350020883D002093
S11327904D3A000011440000D943000000E100E07C
S11327A00122014B1A767047004001410222014B7D
S11327B01A7670470040014130B589B01A4D1B4C60
S11327C02846A0470028FBD01748194B98470146D4
S11327D01848194B9847194B9847044610F0FF00C6
S11327E001D109B030BD02A9154B98471148154BCA
S11327F09847BDF818309842F3D3134B186807ABC9
S1132800009300230322E1B2104CA047079B3BB185
S11328104FF080520E4B1A60BFF34F8FBFF36F8F90
S113282000200C4B9847DCE72800002005440000FA
S1132830F3430000883D0020E13A000099150000B0
S11328409D130000213B00006035002081640000DE
S113285004ED00E08D15000070B505460E46054CEC
S11328602046054B9847324629462046034B984755
S113287070BD00BF28000020D943000015310000BE
S1132880F0B583B005460E460D480E4B9847B0424E
S113289001D203B0F0BD01A80B4B984766B12C469A
S11328A0013EB6B201363544054F084E214638463E
S11328B0B0470134AC42F9D101A8054B9847E8E789
S11328C0883D0020213B0000F53900009D3A0000BE
S11328D0033A000008B50248024B984708BD00BF00
S11328E0883D0020453B000008B50248024B98474C
S11328F008BD00BF883D0020213B0000F0B583B037
S113290000236C4A13706C4A114601F8043B93800F
S11329108B709360D360136153619361D3611362CD
S1132920C2F823309362654C654D664E29E004235A
S11329308DF8003001238DF80130002301936422C7
S113294069463068604FB84701280DD100231A4604
S113295019465E480068B84740F2DC505C4B984723
S11329600122544B1A7006E05A485B4B984740F2D8
S1132970DC50574B9847594B98474FF41670544BBB
S11329809847A0470428FCD1A8470028F9D030680C
S1132990534B98470028EED100214C4B1868514BFB
S11329A098470128E7D1434B1B78032B79D801A220
S11329B052F823F02F290000C52900000F2A000037
S11329C0592A000004238DF8003002238DF80130C9
S11329D0002301936422694630683B4FB8470128BD
S11329E00DD100231A46194638480068B84740F20A
S11329F0DC50374B984702222E4B1A70BBE7354800
S1132A00354B984740F2DC50314B9847B3E70423E9
S1132A108DF8003007238DF80130002301936422E0
S1132A2069463068284FB84701280DD100231A465B
S1132A30194626480068B84740F2DC50244B9847B2
S1132A4004221C4B1A7096E72248234B984740F205
S1132A50DC501F4B98478EE704238DF80030032386
S1132A608DF8013000230193642269463068164FC3
S1132A70B84701280DD100231A46194613480068A7
S1132A80B84740F2DC50124B98476422094B1A7045
S1132A9071E71048104B984740F2DC500C4B9847B4
S1132AA069E700231A46194608480068064FB847E4
S1132AB061E700BF983D0020EC020020B92B000024
S1132AC01D100000683500203D5200007C350020B8
S1132AD0CD5E0000A48D0000DD310000D533000080
S1132AE0B5580000D5560000F8B504460B78013BF4
S1132AF0062B26D8DFE803F02537242525250400F6
S1132B004B88072B0DD400221346204DA018C07902
S1132B102A4410760133DBB21A46488807388342C8
S1132B20F4DD1A4D01262C4604F8186B1848194F89
S1132B30B8470F212046184B98471848B8472E70BD
S1132B40F8BD124B1D1D0188827899809A71144832
S1132B50104CA0471348A047032128460E4B984722
S1132B600E48A047F8BD094E06F1080500686168E3
S1132B70A268E3680FC50C48064CA047102106F173
S1132B800800054B98470548A047F8BDEC02002013
S1132B90608E0000DD31000099310000E0900000FB
S1132BA0CC8D0000F88D0000408E0000014B187899
S1132BB0704700BFEC020020014B1878704700BF3B
S1132BC018030020044B07221A7000225A709A70CE
S1132BD00122DA70704700BF1803002038B5694B32
S1132BE01B78062B00F0A180072B57D003B138BD0A
S1132BF0644B5B78032BFAD8DFE803F002354149D4
S1132C00614B4FF48032C3F888204FF08041C3F801
S1132C10A8105E4CC3F8A84093F8D00000F0FE0062
S1132C2083F8D000C3F894204FF400259D60996286
S1132C305748986293F8530000F0FE0083F853005D
S1132C405D619A6099629C6293F8501001F0FE01F4
S1132C5083F850105A6101224A4B5A704FF4FA70AB
S1132C604C4B984738BD4FF48032474BC3F89820FB
S1132C700222444B5A703220464B984738BD0322F7
S1132C80404B5A7040F6B830424B984738BD4248E2
S1132C90424B984704223B4B1A7038BD394B9B7802
S1132CA013B1012B28D038BD374B4FF48031C3F812
S1132CB088104FF08040C3F8A800344AC3F8A82015
S1132CC093F8D02002F0FE0283F8D020C3F89810C5
S1132CD04FF40021996098622D4A9A6293F8532028
S1132CE002F0FE0283F8532099610122254B9A7069
S1132CF01920284B984738BD234B4FF40021996085
S1132D004FF080429A62224A9A6293F8532002F06A
S1132D10FE0283F8532059611A4B00221A705A702C
S1132D204FF4FA701B4B984738BD164BDB78002BD9
S1132D307FF45DAF144B4FF48031C3F888104FF02B
S1132D408040C3F8A800114AC3F8A82093F8D02003
S1132D5002F0FE0283F8D020C3F894104FF400214F
S1132D60996098620A4A9A6293F8532002F0FE022C
S1132D7083F8532099610122024BDA701920054B24
S1132D80984734E71803002000800041010000C088
S1132D90080000C0CD5E0000848E0000DD3100001C
S1132DA00122014B1A7070471C03002008B5034828
S1132DB0034B9847034B984708BD00BFC08E0000E3
S1132DC0DD3100001534000070B582B0234B984704
S1132DD0234B98470024234B1C70234B009323461A
S1132DE0012222492248234EB0470546224B009334
S1132DF02346012241F270712048B047B0B1044625
S1132E00A5B11F4B98470023009302460121284691
S1132E101C4DA847012809D1194B9847002300935A
S1132E20024601212046A847012804D01648174B22
S1132E309847174B9847174D174C184EA847A0476B
S1132E400428FBD1B0470028F8D0154B9847154B00
S1132E5098476420144B9847F0E700BFC52B000047
S1132E60011600001C030020AD2D000080EE36008A
S1132E70008F00008D660000A12D00001C8F000053
S1132E808D5C0000E1660000388F0000DD31000039
S1132E9015340000DD2B0000B92B00001D100000CC
S1132EA011200000D5330000CD5E00000022014B4C
S1132EB01A7070471C030020014B1878704700BF3C
S1132EC01C030020F8B506460C4615463649374B18
S1132ED09847002C64D0344B5B78012B19D013B184
S1132EE0022B3AD0F8BD304F3E75FD8207F11C0627
S1132EF04FF42F72002130462D4B98472A46214625
S1132F0030462C4B984707F1140130462A4B98471A
S1132F10F8BD2A4B18682A4B9847D0B9224F3E7502
S1132F20FD822846274B9847B86100283BD02A46A3
S1132F302146204B98470023642207F114011F48BF
S1132F400068214CA04701282DD02048204B9847E9
S1132F50F8BD20481E4B9847F8BD1F4B1868184B06
S1132F609847C8B9104F3E75FD822846154B9847BF
S1132F70B861C0B12A4621460E4B9847002364220B
S1132F8007F11401144800680F4CA04701280AD027
S1132F9012480F4B9847F8BD0E480D4B9847F8BDA3
S1132FA00F480B4B9847F8BD200300209D130000E9
S1132FB0A36A0000596A0000E92A00004435002091
S1132FC0B5580000354E00003D520000748F0000DB
S1132FD0DD310000A48F000074350020D08F000084
S1132FE008900000F0B587B0104C114F114E01E06D
S1132FF0114B98474FF0FF330DF11702194600208B
S1133000A0470128F4D169469DF81700B8479DF8F8
S11330100000B0470028EBD10848094DA8470948EB
S1133020A8470948A847094B9847E1E7CD63000042
S11330309D13000099140000D53300005090000047
S1133040DD31000070900000E090000015340000B5
S1133050F8B500231A4619461F4800681F4CA047BC
S11330601F4C204D05F1080604E01F4B98476420CF
S11330701E4B9847A0470428FCD11D4B18681D4BD4
S113308098470028F1D00021134B18681A4B984731
S11330900128EAD164222946154B1868174B984732
S11330A00128E2D16F7831463846154B9847154BC5
S11330B09847297CE868144B98473846134B98473F
S11330C00020134B984700231A461946024800680B
S11330D0024FB847C9E700BF7C3500203D520000CD
S11330E0B92B0000FC050020D5330000CD5E0000A4
S11330F068350020B5580000D55600004D55000035
S11331009D130000D5280000592800008D150000EB
S1133110811500002DE9F04704460E4691460E4DF8
S11331202046A8470028FBD0013EDFF83080002766
S1133130DFF82CA0084D737808F8013B16F8011F3E
S11331402046D0472046A8470028FBD001374F45EA
S1133150F1D33846BDE8F087FB4300001806002091
S1133160ED43000002230376704780230376704703
S113317010B5054C05492046054B984701221146D8
S11331802046044B984710BD44000020000400432F
S1133190654300001144000070B505460E46054C19
S11331A02046054B9847324629462046034B98470C
S11331B070BD00BF44000020D94300001531000059
S11331C010B5044616210348034B98470123237680
S11331D010BD00BFB49000009931000070B50546E1
S11331E0174B984704464FF4FA71164B1868164B60
S11331F09847012800D070BDE4B22046134B98478D
S11332000646A0B122460021114B98472946304674
S1133210104B984730460A4B984781B230460E4CC3
S1133220A04702210D48A04730460D4B9847002384
S11332301A461946034800680A4CA047DBE700BF5A
S1133240856C000070350020D5560000354E000016
S1133250A36A0000756C000099310000E090000042
S1133260154F00003D52000030B59BB005460C469A
S11332704FF4FA71114B1868114B9847012801D08B
S11332801BB030BD6422002101A80E4B98473CB905
S113329000231A461946094800680B4CA047EFE77B
S11332A023462A46094901A8094CA04701A8094B0D
S11332B0984781B201A8084B9847E9E77035002088
S11332C0D5560000A36A00003D520000D8900000CB
S11332D02D6C0000856C00009931000038B5042283
S11332E00B4B1A760B4D0C4C2846A0470028FBD0FC
S11332F008480A4B98470A49087000234B70094C48
S11333002046094B984705212046084B984738BD6D
S1133310000400434400002005440000F34300007F
S11333209C3D0020A03D0020756C000099310000F8
S113333038B50A4B03EB80004588094C2068792294
S11333400849003018BF0120074B98472A464FF41C
S11333507A712046054B984738BD00BF60000020B5
S11333607C3E0020F4900000453A000095460000A1
S113337010B50220074B9847074C2068962207494E
S1133380003018BF0120064B98472046054B98474C
S113339010BD00BF313300007C3E0020F4900000DB
S11333A0453A0000B147000008B5064B98474FF472
S11333B07A70054B98470122044B1A73044B9847C3
S11333C008BD00BF65380000253A000060000020F9
S11333D0713300000A4B1B7B012B0DD110B5094C36
S11333E02068B3220849003018BF0120074B9847D2
S11333F02046074B984710BD6FF01000704700BF80
S1133400600000207C3E0020F4900000453A00005B
S11334103D480000F8B5134D2846134CA047134807
S1133420A0472846A0470027114B1F73114E124C8A
S11334302068A5223146C01B18BF01200F4DA847A4
S113344020460F4B984738460E4B984720689622E3
S11334503146C01B18BF0120A84720460A4B984795
S1133460F8BD00BFE0900000DD31000010910000C5
S113347060000020F49000007C3E0020453A0000EB
S1133480ED47000031330000B147000008B51C4B84
S11334901C4A9A4210D01C4B194A9A420CD2013B46
S11334A09B1A23F0030304331344164951F8040B05
S11334B042F8040B9A42F9D1144B154A9A420AD2A3
S11334C0013B9B1A23F0030304331344002142F805
S11334D0041B9342FBD10F4B0F4A22F07F029A60E8
S11334E0D3F8882042F47002C3F88820BFF34F8FCA
S11334F0BFF36F8F094B9847094B9847FEE700BF0E
S1133500000000206896000048020020803F002050
S11335105002002000ED00E000000000C969000036
S1133520FD48000008B50248024B9847FEE700BF7B
S11335305C910000DD3100005D4B04225A6002F111
S113354080429A624FF040429A6293F8421001F02E
S1133550FE0141F0010183F8421093F8311001F0AB
S1133560F00141F0010183F831100821596001F1A3
S1133570804199629A6293F8431001F0FE0141F090
S1133580010183F8431093F8311001F00F0141F069
S1133590100183F831104FF48071C3F8841001F1E5
S11335A08041C3F8A810C3F8A82093F8C81001F00C
S11335B0FE0141F0010183F8C81093F8B41001F042
S11335C0F00141F0010183F8B4104FF40071C3F825
S11335D0841001F18041C3F8A810C3F8A82093F81F
S11335E0C91001F0FE0141F0010183F8C91093F8FC
S11335F0B41001F00F0141F0100183F8B410102150
S1133600596001F1804199629A6293F8441001F083
S1133610FE0141F0010183F8441093F8321001F0E7
S1133620F00141F0010183F832102021596001F1C9
S1133630804199629A6293F8451001F0FE0141F0CD
S1133640010183F8451093F8321001F00F0141F0A5
S1133650100183F832104021596001F180419962D0
S11336609A6293F8461001F0FE0141F0010183F8DB
S1133670461093F8331001F0F00141F0010183F892
S113368033108021596001F1804199629A6293F864
S1133690472002F0FE0242F0010283F8472093F82B
S11336A0332002F00F0242F0100283F833207047F7
S11336B000800041044A136A43F0800313624122EC
S11336C0024BC3F82021704700080040001C004052
S11336D008B5054B9847002204490548054B98470F
S11336E0054B984708BD00BFB5360000001C0043D9
S11336F0583E00209938000039350000104B93F8EB
S1133700512002F0FE0242F0010283F8512093F8A6
S1133710382002F00F0242F0300283F8382093F888
S1133720522002F0FE0242F0010283F8522093F884
S1133730392002F0F00242F0030283F83920704786
S113374000800041064B4022C3F8E0204A22C3F81F
S11337508C20044A936943F480639361704700BFEB
S1133760001C00400008004008B5034B9847034B79
S11337709847034B984708BD45370000452700008C
S1133780FD360000104B93F8572002F0FE0242F081
S1133790010283F8572093F83B2002F00F0242F015
S11337A0300283F83B2093F8D72002F0FE0242F067
S11337B0010283F8D72093F8BB2002F00F0242F0F5
S11337C0300283F8BB20704700800041064B402242
S11337D0C3F80C214A22C3F88C20044A136A43F02C
S11337E002031362704700BF001C00400008004041
S11337F008B5034B9847034B9847034B984708BDBC
S1133800CD370000713100008537000008B502484B
S1133810024B984708BD00BF10E000E0113A0000D9
S1133820024A536943F480735361704700080040AF
S113383008B5064B9847522205490120054B984785
S11338400548064B0360064B984708BD2138000025
S1133850F4900000453A00007C3E00200020004027
S11338602946000008B5064B9847064B9847064B77
S11338709847064B9847064B9847064B984708BD10
S1133880193E00000D380000D1360000F137000069
S1133890693700003138000038B50C46054658B188
S11338A0081C18BF012043220449054B98472146B0
S11338B02846044B984738BD0020F4E7A091000047
S11338C0453A0000613C000038B50D4604465822D4
S11338D00549003018BF0120044B9847294620466B
S11338E0034B9847002038BDA0910000453A0000E2
S11338F0593D000038B50D460446632205490030A1
S113390018BF0120044B984729462046034B98478B
S1133910002038BDA0910000453A00006F3D000032
S11339202DE9F84F0D4691469A468046E0B1EAB13A
S1133930181C18BF01201C4F712239461B4EB0477A
S1133940444640461A4B984780469AFBF0F008FBE1
S113395010A073223946B0FA80F04009B04700271E
S1133960DFF858B0134E07E00020E4E70020E2E758
S11339704744BFB2BA4514D92046D8472946204601
S1133980B0470028FAD0294620460B4B984709F83F
S11339900700B8F1010FEBD909EB0703000A5870CF
S11339A0E6E73846BDE8F88FA0910000453A0000EC
S11339B0873D0000993D0000BB3D0000A53D00008F
S11339C0F8B50D4616461F460446A32206490030A4
S11339D018BF0120054B98473B46324629462046EE
S11339E0034CA0470020F8BDA0910000453A000018
S11339F0C53D0000EFF31083036072B6BFF35F8F21
S1133A007047BFF35F8F036883F31088704700002B
S1133A1008B5024B1860024B984708BD24060020E5
S1133A207D44000010B5044B1C68044B98470146C4
S1133A302046034B984710BD240600200D3E00008D
S1133A409144000000B900BE7047000070B50E46F6
S1133A501546044678B181B1A2B1012032220D4944
S1133A600D4B98476B1E1D4209D163600020A06076
S1133A70E060266070BD0020F0E70020EEE76FF004
S1133A800C0070BD322203490020034B98476B1E83
S1133A90EBE700BFBC910000453A000038B50D4685
S1133AA00446A0B1081C18BF01204A220A490B4B46
S1133AB09847A368E2689A420BD062681340226870
S1133AC0D35C2B70A3680133A360002038BD0020B1
S1133AD0EBE76FF0090038BDBC910000453A0000E7
S1133AE038B50D4604465B220B49003018BF01204F
S1133AF00A4B9847E368626813402268D554E36828
S1133B006168A2689A1A8A4284BF591AA160013373
S1133B10E360002038BD00BFBC910000453A0000BE
S1133B2010B5044671220549003018BF0120044B2A
S1133B309847E068A368C01A10BD00BFBC9100009C
S1133B40453A000010B504467B220549003018BFF1
S1133B500120044B9847E368A360002010BD00BF18
S1133B60BC910000453A00000346064A126822B19F
S1133B70044A10680344136070470349014A116002
S1133B80F6E700BF28060020803F0120406900F1CD
S1133B903D40A0F5E050800A4000763000F0FE0081
S1133BA070470000036B13F0010FFBD1036B13F09C
S1133BB0030FFBD1038813F0020F30D110B4036B51
S1133BC013F0010FFBD103889BB243F00103038080
S1133BD0036B13F0010FFBD1124B0122DA80032295
S1133BE01A721624104A04FB0121CA7982704FF418
S1133BF0C0529A8049229A720622DA728A89828194
S1133C00CA89C2810A8A02824A8A42820A7DC270B1
S1133C1048F2C2521A8000205DF8044B70476FF0DE
S1133C2010007047001C0043E091000000F13D408B
S1133C30A0F5E050C0F3872048B1012809D008B5A9
S1133C40912205490020054B9847002008BD00201B
S1133C5070470120704700BF0C920000453A0000F5
S1133C602DE9F0410D460446E8223549003018BFDD
S1133C700120344B98472846334B98470146284641
S1133C80324B98470746002857D125602046304ECE
S1133C90B047430900F01F00012505FA00F0DFF8E2
S1133CA0B480203348F82300BFF34F8FBFF36F8FE6
S1133CB02046B047430900F01F0005FA00F06033C6
S1133CC048F823002046B047430900F01F00854010
S1133CD048F823502046B047013080B203B2002B8D
S1133CE02BDB5B0900F01F00012202FA00F02033F5
S1133CF048F82300BFF34F8FBFF36F8F2046B047C0
S1133D00013080B203B2002B17DB5B0900F01F0007
S1133D10012202FA00F0603348F823002046B0473D
S1133D20013080B203B2002B07DB5B0900F01F00F7
S1133D30012202FA00F048F823003846BDE8F08179
S1133D400C920000453A00002D3C0000A53B000009
S1133D508D3B000000E100E00268136B13F0030FD9
S1133D60FBD113889BB243F00203138070470268AF
S1133D70136B13F0030FFBD1138823F002031B040E
S1133D801B0C138070470368DB88C3F3C103032B48
S1133D900CBF012002207047036893F82E0000F046
S1133DA0010070470268136BC3F30B03002BFAD1B5
S1133DB0137D43F00203137570470368B3F84000A2
S1133DC080B2704710B40468236BC3F30B03002B59
S1133DD0FAD1A38823F01F031B041B0C01F01F015D
S1133DE00B43A380016892B20B6BC3F30B03002B4C
S1133DF0FAD18B8823F4F8531B041B0C120202F42F
S1133E00F85213438B805DF8044B70474BF68033B4
S1133E1003FB00F07047000010B50C4A13889BB2F6
S1133E2013800B4B98470B4B98474FF400600A4C98
S1133E30A0470A4B984740F2FF70A047084A13690D
S1133E4043F400731361074B984710BD00400041D1
S1133E5001410000A1400000F93F00002D41000095
S1133E6000080040DD3E000008B51A4A138C03F038
S1133E701F0303EB4301184800EB810002EB03121C
S1133E8092F84E2012F0010F0AD11A0102F1824277
S1133E9002F5204292F84E2012F0020F0BD108BD19
S1133EA01A0102F1824202F52042012182F84E10E9
S1133EB04368984708BD1A0102F1824202F5204284
S1133EC0022182F84E1003EB4303034A52F82330D5
S1133ED09847E4E700A000413006002030B4334A9C
S1133EE0138823F002031B041B0C1380538823F450
S1133EF07C531B041B0C538013889BB243F00103B7
S1133F001380138813F0010FFBD1284B4FF4706218
S1133F101A805A7B02F0FE025A7300205861244A28
S1133F2002F5C071596302F560729A63214BA1F5E1
S1133F30C0751C68010101F1824202F5204214643B
S1133F401C7982F845405C7982F84640DA88294435
S1133F50A1F88021013008332028EAD11F23012051
S1133F6015499AB213F4004F0BD00133242BF8D126
S1133F700E4A13889BB243F002031380002030BC26
S1133F8070475C0902F01F0200FA02F204F12005F6
S1133F9041F82520BFF34F8FBFF36F8F04F1600505
S1133FA041F8252041F82420DFE700BF00A00041AC
S1133FB0300600202492000000E100E008B5014B27
S1133FC0984708BD693E000008B5014B984708BDF5
S1133FD0693E000008B5014B984708BD693E0000E2
S1133FE008B5014B984708BD693E000008B5014B70
S1133FF0984708BD693E000010F0010F02D0234A23
S1134000234B1A6210F0020F02D0224A204B5A624C
S113401010F0040F02D01D4A1D4B9A6210F0080FD5
S113402002D01A4A1A4BDA6210F0100F02D0174A63
S1134030174B1A6310F0200F02D0144A144B5A6322
S113404010F0400F02D0114A114B9A6310F0800F08
S113405002D00E4A0E4BDA6310F4807F02D00B4A72
S11340600B4B1A6410F4007F02D0084A084B5A64C0
S113407010F4806F02D0084A054B9A6410F4006F64
S113408002D0064A024BDA64704700BF062B0100D7
S1134090001C004006230100052B0100053B010024
S11340A00122014B5A7170470008004008B50369AA
S11340B01A8A12F0010F05D001221A82036853B143
S11340C0984708BD1A8A92B22AB140F25E221A8237
S11340D0436803B1984708BD08B5024B1868024B02
S11340E0984708BDB00B0020AD40000008B5024B56
S11340F01868024B984708BDB00B0020AD40000083
S1134100094B42F24E029A8201229A75DA75DA69F3
S11341100022DA611A46D36813F0010FFBD004229F
S1134120014B1A74704700BF001400402B4A136AF5
S113413023F00F0343F004031362294B00221A7780
S1134140284A9A621A4692F82C3013F0100FFAD1CA
S11341500022234B83F820201A4692F82C3013F0C7
S1134160040FFAD142221E4B1A771A4692F82C30C9
S113417013F0020FFAD11A4B5A6A5A621A4692F88D
S11341802C3013F0080FFAD18222154B83F820202B
S11341901A4692F82C3013F0040FFAD1104B93F80E
S11341A0203013F0010F12D00D4A136903F4106389
S11341B0B3F5106FF9D1094A5368002BFCD1074AB3
S11341C0136A23F00F0343F0060313627047044A93
S11341D0136913F4807FFBD0EDE700BF001C00409F
S11341E0001000400000010400B583B00D4B9B7823
S11341F0DBB20193019B13F0020F06D00A4B1B683C
S11342001BB1084A5068984709E0019B13F0010F5D
S113421005D0054B5B6813B1024A5068984703B058
S11342205DF804FB000002416C3F002070B487B0CD
S113423006466C460C4D0FCD0FC495E8030084E888
S11342400300009BB3420CD0324601205DF82030BD
S1134250934207D001300628F8D1002007B070BC83
S113426070470020C0B2F9E72493000008B5034B5F
S1134270984780002E3000F0FE0008BD2D4200005B
S113428038B50446334B9847032856D0042852D0F7
S1134290052808BF022206D040F263222E490020DE
S11342A02E4B98470022E36913F0010FFBD1E36919
S11342B013F0030FFBD1236813F0020F47D1E36916
S11342C013F0010FFBD1236843F001032360E3697A
S11342D013F0010FFBD1104602EB4203204901EB1E
S11342E0C303D96921601D6A65605B6AA36011F428
S11342F0C04F24D002EB4202194B03EBC202118DD2
S1134300A38961F30C03A38192F82A20A38962F3A1
S11343104F33A381124B4200111803EBC10191F8F2
S11343202B10A173024403EBC20393F82C3084F8DE
S11343303030002038BD0122B5E70022B3E702EB9C
S11343404202074B03EBC202138DA381E2E76FF035
S1134350100038BD2D420000B0930000453A000023
S11343602493000070B50D460646DA221649003043
S113437018BF0120154B98472846154B984704460B
S1134380F8B9B5612846134B98470230C0B200F023
S11343901F0301229A4043099B0003F1604303F584
S11343A06143C3F88020BFF34F8FBFF36F8FC3F80F
S11343B0802100F1604000F56140E02180F80013A5
S11343C01A60204670BD00BFB0930000453A00005B
S11343D0814200006D4200008269D36913F0030F2B
S11343E0FBD1136843F00203136070478369996239
S11343F070478369986AC0B270478369187E00F079
S1134400010070478369187EC0F380007047000084
S113441070B50C461646054640F245221549003053
S113442018BF0120144B984714F0FD0F0DD1AB6950
S11344302EB901221A75AB6902221A7570BD0122C8
S11344409A75AB6902229A7570BD012C02D0032CB7
S113445008D070BDAB6916B904221A7570BD042268
S11344609A7570BDAB6916B180229A75F1E7802206
S11344701A7570BDB0930000453A0000034B6FF00D
S11344807F425A6005221A60704700BF10E000E0C6
S11344900B0E03B330B45D1EEDB22846124A6FF022
S11344A07F4454609460136813F4803FFBD0013858
S11344B0C0B2FF28F5D1A5EB056501F17F410131BB
S11344C02944094B596099601A46136813F4803FD4
S11344D0FBD030BC7047044B596099601A4613688E
S11344E013F4803FFBD0704710E000E008B5C368C8
S11344F0DA6A12F0010F00D108BD0122DA62036802
S11345009847F9E708B5024B1868024B984708BD6D
S1134510B40B0020ED44000008B5024B5868024B70
S1134520984708BDB40B0020ED44000008B5024BC9
S11345309868024B984708BDB40B0020ED44000076
S113454008B5024BD868024B984708BDB40B00204D
S1134550ED44000008B5024B1869024B984708BDAA
S1134560B40B0020ED44000008B5C3689A7A12F039
S1134570010F00D108BD01229A7203689847F9E738
S113458038B505460469A37A13F0010F04D001235A
S1134590A372036803B19847637A13F0020F05D03E
S11345A00223A3726B680BB12846984738BD0000FC
S11345B008B5024B1868024B984708BDC80B002089
S11345C08145000008B5024B5868024B984708BD66
S11345D0C80B00208145000008B5024B9868024BC7
S11345E0984708BDC80B00208145000008B5024B60
S11345F0D868024B984708BDC80B002069450000E5
S113460008B5024B1869024B984708BDC80B002037
S11346106945000008B5024B5869024B984708BD2C
S1134620C80B00206945000010B5044630B300688B
S1134630003018BF01205A221449154B98472368AB
S11346409A6812F00E0FFBD11A78D20918D19A6821
S113465012F00E0FFBD11A7812F0020F13D19A68E0
S113466012F00E0FFBD11A7802F0FB021A702268C6
S1134670537803F0F0035370002010BD0020DAE7F4
S11346806FF0100010BD6FF0100010BDCC9300004F
S1134690453A000070B50D4614460646002844D03D
S11346A00068003018BF012084223F493F4B9847DF
S11346B03268936813F00E0FFBD1137803F0FD03F7
S11346C0137031688B6813F00E0FFBD10B7803F075
S11346D07F030B703368996811F00E0FFBD11A78C1
S11346E0D20958D1996811F00E0FFBD11A7812F043
S11346F0020F53D1A4FB05452846002150EA0102CC
S11347004FD1B4F57A3F38D011D9B4F5FA1F38D067
S113471027D9B4F5FA0F38D0B4F57A0F37D0B4F5F9
S11347207A1F30D06FF00C0070BD0020BCE7B4F5E8
S1134730FA4F1ED00DD8B4F5FA5F2AD0B4F57A5FDB
S1134740F0D101215A7802F0F0020A435A70002095
S113475070BDB4F57A4F0ED0B4F5FA3FE2D104211E
S1134760F0E7B4F5FA2F0AD0B4F57A2FDAD107219D
S1134770E8E70221E6E70321E4E70521E2E7062171
S1134780E0E70821DEE70921DCE70A21DAE70B216B
S1134790D8E70021D6E76FF0100070BD6FF010006D
S11347A070BD6FF00C0070BDCC930000453A000062
S11347B010B5044698B10068003018BF012040F2DB
S11347C007120849084B98472268936813F00E0FA4
S11347D0FBD1137843F002031370002010BD0020B6
S11347E0EDE700BFCC930000453A000010B5044645
S11347F0D0B10068003018BF01204FF48A720D490F
S11348000D4B984723689A6812F00E0FFBD11A7863
S1134810D2090BD19A6812F00E0FFBD11A7802F06C
S1134820FD021A70002010BD0020E6E76FF01000B2
S113483010BD00BFCC930000453A000010B50446FB
S113484068B10068003018BF012040F22512054904
S1134850054B98472368A5221A73002010BD002039
S1134860F3E700BFCC930000453A000038B50022BE
S113487008210120184CA047184D2860002201216E
S11348800846A047164B1860002208210120A047C3
S1134890144B1860002208210120A047124B186015
S11348A02B68BBB10E4B1B68A3B10E4B1B688BB1BD
S11348B080B1032200210120A0470C4B1860032281
S11348C000210120A0470A4B18600120094B98479A
S11348D0094B186038BD00BFE55100006835002061
S11348E08035002044350020743500207C350020BC
S11348F078350020195400007035002080B582B04E
S11349002E4B98472E4B01930227009700239622A3
S11349102C492D482D4DA8472D4C20602D4B01933B
S113492001260096002396222B492C48A847606054
S11349302B4B01930097002396222A492A48A84723
S1134940A0602A4B01930096002396222849294807
S1134950A847E060284B019300960023962227493C
S11349602748A8472061274B0193009600239622ED
S113497025492648A8472368B34206D02448254B36
S113498098472548234B9847FEE7E368B342F5D19F
S11349906368B342F2D1A368B342EFD12369B3424F
S11349A0ECD1B042EAD11D4B984710B11C4B98474B
S11349B0E7E71C48174B9847E3E700BFA93300001B
S11349C06C350020E493000041110000155A0000EA
S11349D0E00B002048350020F09300005130000027
S11349E060350020FC930000E52F000054350020C2
S11349F008940000C92D0000583500201C940000C4
S1134A00FD280000503500202C940000AD05000066
S1134A1058940000DD310000709400006D480000DF
S1134A20F15B00003894000000F1080343604FF08C
S1134A30FF328260C3600361002303607047002378
S1134A400361704743684B609A688A609A68516052
S1134A5099600861036801330360704730B40D68DE
S1134A60B5F1FF3F02D000F1080202E0026904E060
S1134A701A4653681C68A542FAD253684B60996081
S1134A808A605160086103680133036030BC704779
S1134A9003694268816891608268416851605A681C
S1134AA0904204BF82685A60002202611A68013A87
S1134AB01A6018687047000082B0002301930D4B00
S1134AC01B68B3F1FF3F08D04FF0800383F31188D4
S1134AD0BFF36F8FBFF34F8FFEE74FF0800383F375
S1134AE01188BFF36F8FBFF34F8F019B002BFCD056
S1134AF002B070477000002008480068006880F326
S1134B0008884FF0000080F3148862B661B6BFF3E2
S1134B104F8FBFF36F8F00DF00BF000008ED00E090
S1134B20DFF80C00016841F4700101607047000077
S1134B3088ED00E04FF0807340F8043C21F001015F
S1134B4040F8081C054B40F80C3C40F8202C6FF052
S1134B50020340F8243C4438704700BFB94A0000BF
S1134B60074B19680868B0E8F04F80F30988BFF371
S1134B706F8F4FF0000080F311887047AFF300800F
S1134B80A83400204FF0800383F31188BFF36F8FA4
S1134B90BFF34F8F0A4A136801331360012B0DD101
S1134BA0084B1B6813F0FF0F08D04FF0800383F30A
S1134BB01188BFF36F8FBFF34F8FFEE7704700BFBD
S1134BC07000002004ED00E0094B1B6843B94FF06E
S1134BD0800383F31188BFF36F8FBFF34F8FFEE71A
S1134BE0013B034A13600BB983F31188704700BF7C
S1134BF07000002000000000000000000000000021
S1134C00EFF30980BFF36F8F154B1A681EF0100F76
S1134C1008BF20ED108A20E9F04F10602DE909004B
S1134C204FF0800080F31188BFF34F8FBFF36F8F75
S1134C3001F078F94FF0000080F3118809BC19687D
S1134C400868B0E8F04F1EF0100F08BFB0EC108AEF
S1134C5080F30988BFF36F8F704700BFAFF3008004
S1134C60A834002008B54FF0800383F31188BFF304
S1134C706F8FBFF34F8F054B984718B14FF0805299
S1134C80034B1A60002383F3118808BD995C00006C
S1134C9004ED00E0054B00221A6005490A604BF65A
S1134CA07F31044A116007221A60704710E000E067
S1134CB018E000E014E000E03B4B1A683B4B9A42DA
S1134CC008D14FF0800383F31188BFF36F8FBFF3D4
S1134CD04F8FFEE7344B1A68354B9A4208D14FF098
S1134CE0800383F31188BFF36F8FBFF34F8FFEE709
S1134CF010B582B02F4B1A78D2B20192FF221A70EB
S1134D001B78DBB28DF803309DF803302A4A03F098
S1134D1080031370072353609DF8033013F0800F52
S1134D2012D0062300E00B469DF803205200D2B2B5
S1134D308DF803209DF80320591E12F0800FF2D144
S1134D401D4A5360042B08D04FF0800383F311886D
S1134D50BFF36F8FBFF34F8FFEE71B0203F4E063D3
S1134D60154A5360019BDBB2124A1370134B1A6845
S1134D7042F460021A601A6842F060421A60104BF2
S1134D80984700240F4B1C600F4B98470F4A136839
S1134D9043F0404313600E4B98470E4B98470E4B1D
S1134DA09847204602B010BD00ED00E071C20F41EB
S1134DB070C20F4100E400E0F40B002020ED00E09D
S1134DC0954C000070000020214B000034EF00E0FF
S1134DD0F94A0000255F0000B94A0000EFF305839B
S1134DE00F2B0FD9104A9B5CDBB2104A12789A42FF
S1134DF008D94FF0800383F31188BFF36F8FBFF39B
S1134E004F8FFEE70A4B1B6803F4E063074A5268BE
S1134E10934208D94FF0800383F31188BFF36F8F57
S1134E20BFF34F8FFEE77047F0E300E0F40B002080
S1134E300CED00E070B504462F4B98472F4B9B6850
S1134E4083B1002C51D0083414F0070F1CBF24F098
S1134E5007040834621E42F2F6739A4242D8274984
S1134E600B6817E0254901F1140323F007030B60D5
S1134E7000254D60224A42F2F870C2F82006C2F8BA
S1134E801C56586002F21C621A6001238B60D8E73A
S1134E90194613465A68944202D91A68002AF7D16F
S1134EA0184A93421ED00D6808351A680A605A6879
S1134EB0121B102A0CD91E1972605C6074680F49A9
S1134EC000E011460A6850688442FAD832600E60E5
S1134ED00D490A685B68D21A0A600C4B984735B1D1
S1134EE0284670BD094B984701E0084B9847084B8A
S1134EF098470025F4E700BF795C0000FC0B002014
S1134F00EC2D00200834002074000020C15D000056
S1134F103D030000D0B170B50546A0F108060C4B66
S1134F20984755F8044C0B4A00E01A461368596830
S1134F308C42FAD845F8083C1660074A55F8043CF8
S1134F4011680B441360054B984770BD704700BF50
S1134F50795C0000FC0B002074000020C15D00009F
S1134F6010B50446044B9847A46B044B9847B4FA15
S1134F7084F0400910BD00BF854B0000C94B000000
S1134F8070B504461646856B026C52B90368002B53
S1134F902AD14068184B9847002363600135A56304
S1134FA070BD6EB98068154B9847A368226C134492
S1134FB0A3606268934219D32368A3600020EDE7DD
S1134FC0C0680E4B9847236C5B42E2681A44E26067
S1134FD021688A4202D262681344E360022E07D138
S1134FE045B1013D0020D9E70020D7E70020D5E7EF
S1134FF00020D3E70020D1E765620000596A000071
S113500070B582B00190846C64B1A26BE36B9A4278
S113501011D34FF0800383F31188BFF36F8FBFF375
S11350204F8FFEE74FF0800383F31188BFF36F8F38
S1135030BFF34F8FFEE7A26B934203D8002630469E
S113504002B070BD0A4694F845506DB201A92046DD
S11350500A4B98470646B5F1FF3F0AD1636A002B15
S1135060EDD004F12400064B9847002818BF012610
S1135070E5E76B1C5BB284F84530E0E7814F000044
S113508061600000026C72B110B50346C468144438
S1135090C4604068844224BF1868D8600846D96850
S11350A0014B984710BD7047596A00002DE9F04143
S11350B00546234B984795F8454064B2002C19DD0A
S11350C0204EDFF88C80204F08E06B6A93B105F125
S11350D02400B84760B9013C64B25CB1AB6C002BEE
S11350E0F3D000212846B0470028F4D0C047F2E7A7
S11350F0C047F0E7FF2385F84530144B9847104B21
S1135100984795F8444064B2002C12DD2B6983B1B2
S113511005F110070C4EDFF8388004E0013C64B25E
S11351203CB12B692BB13846B0470028F6D0C047B4
S1135130F4E7FF2385F84430044B9847BDE8F08139
S1135140854B00000150000061600000C94B000065
S11351509161000038B530B304460D461C4B9847A6
S11351602268216CE36B03FB01F3D018606000201C
S1135170A063A2605B1A1344E360FF2384F8443005
S113518084F84530C5B92369EBB104F11000114B23
S11351909847C0B14FF080520F4B1A60BFF34F8F46
S11351A0BFF36F8F0FE04FF0800383F31188BFF3D9
S11351B06F8FBFF34F8FFEE704F11000074DA84730
S11351C004F12400A847064B9847012038BD00BFCE
S11351D0854B00006160000004ED00E0294A0000F6
S11351E0C94B0000F8B540B94FF0800383F3118830
S11351F0BFF36F8FBFF34F8FFEE7064617460D468A
S113520001FB00F054300B4B9847044678B11DB1B4
S113521000F15403036000E02060E663256401218B
S11352202046054B984784F850700023A364204619
S1135230F8BD00BF354E0000555100002DE9F04F78
S113524085B0019298B10446D1B1022B24D01E46F8
S11352500F46644B984758BB019B8BB34FF08003B8
S113526083F31188BFF36F8FBFF34F8FFEE74FF0C7
S1135270800383F31188BFF36F8FBFF34F8FFEE773
S1135280026C002AE1D04FF0800383F31188BFF34E
S11352906F8FBFF34F8FFEE7E26B012AD7D04FF039
S11352A0800383F31188BFF36F8FBFF34F8FFEE743
S11352B00025DFF85C81DFF85CA1DFF8349141E080
S11352C00025F6E7324639462046474B9847A36CFB
S11352D093B131462046454B984738B14FF0805240
S11352E0434B1A60BFF34F8FBFF36F8F414B984707
S11352F0012005B0BDE8F08F636A73B104F12400A6
S11353003D4B98470028F1D04FF08052384B1A603B
S1135310BFF34F8FBFF36F8FE8E70028E6D04FF05D
S11353208052334B1A60BFF34F8FBFF36F8FDDE7AB
S1135330304B98470020DCE72046304B9847304BF1
S113534098470125C047A26BE36B9A42BAD3022E59
S1135350B8D0019B002BEBD00DB902A8D047254B48
S11353609847284B9847C04794F844305BB2B3F150
S1135370FF3F04BF002384F8443094F845305BB207
S1135380B3F1FF3F04BF002384F84530194B98471D
S113539001A902A81C4B9847E0B9C047D4F838B01B
S11353A0E56B144B9847AB45C6D1019904F1100045
S11353B0164B98472046114B9847114B98470028A5
S11353C0BFD14FF08053C9F80030BFF34F8FBFF304
S11353D06F8FB6E72046094B9847094B9847002042
S11353E087E700BFA1610000814F00000150000069
S11353F004ED00E0C94B000061600000AD50000006
S1135400C15D0000795C000005610000E15F0000FF
S1135410854B0000F160000038B5024600210120F0
S1135420064B9847044638B1002141600160C160D1
S11354300B460A46024DA847204638BDE5510000F8
S11354403D5200002DE9F843002836D004460029D7
S11354503CD0022B46D01F4690468946374B98478E
S1135460EFF311864FF0800383F31188BFF36F8F3E
S1135470BFF34F8FA26BE36B9A4201D3022F51D13A
S113548094F845506DB23A46494620462C4B98470D
S1135490B5F1FF3F40D1A36C83B339462046294B75
S11354A09847002840D0B8F1000F3FD00120C8F839
S11354B0000086F31188BDE8F8834FF0800383F37E
S11354C01188BFF36F8FBFF34F8FFEE7006C002886
S11354D0BFD04FF0800383F31188BFF36F8FBFF306
S11354E04F8FFEE7E06B0128B5D04FF0800383F3C4
S11354F01188BFF36F8FBFF34F8FFEE7636ABBB1B1
S113550004F12400104B9847A0B1B8F1000F13D058
S11355100120C8F80000CCE76B1C5BB284F845306E
S11355200120C6E70020C4E70120C2E70120C0E74C
S11355300120BEE70120BCE70120BAE7DD4D0000F1
S1135540814F000001500000616000002DE9F04728
S113555084B0019280B10446B9B10E46504B9847CD
S1135560F8B9019B2BB34FF0800383F31188BFF389
S11355706F8FBFF34F8FFEE74FF0800383F31188E3
S1135580BFF36F8FBFF34F8FFEE7036C002BE4D0A4
S11355904FF0800383F31188BFF36F8FBFF34F8FF6
S11355A0FEE70027DFF82481DFF824A1DFF8FC9070
S11355B029E00027F6E7314620463A4B9847013D5B
S11355C0A563236963B104F11000374B984738B1E0
S11355D04FF08052354B1A60BFF34F8FBFF36F8F7C
S11355E0334B9847012004B0BDE8F087304B98470F
S11355F00020F8E702A8D0470EE020462D4B98473C
S11356002D4B98470127C047A56B002DD3D1019B93
S1135610002BEBD0002FEDD0254B9847274B984714
S1135620C04794F844305BB2B3F1FF3F04BF00239A
S113563084F8443094F845305BB2B3F1FF3F04BFC3
S1135640002384F845301A4B984701A902A81C4B43
S11356509847C8B920461B4B98470028CDD00199DC
S113566004F12400184B98472046124B9847124BDC
S113567098470028C6D14FF08053C9F80030BFF3D3
S11356804F8FBFF36F8FBDE720460A4B98470A4BF5
S1135690984720460B4B98470028B3D00020A2E738
S11356A0A1610000855000006160000004ED00E08D
S11356B0C94B0000AD500000C15D0000795C0000E2
S11356C005610000614F0000E15F0000854B0000B0
S11356D0F16000002DE9F04385B0019158B1044612
S11356E0036C8BB14FF0800383F31188BFF36F8F8A
S11356F0BFF34F8FFEE74FF0800383F31188BFF3AE
S11357006F8FBFF34F8FFEE75B4B984750B9019BF8
S113571083B14FF0800383F31188BFF36F8FBFF31E
S11357204F8FFEE700252F46544EDFF88491DFF8B3
S1135730588148E000252F46F6E7013BA363236820
S113574013B94F4B98476060236963B104F11000AB
S11357504C4B984738B14FF080524B4B1A60BFF313
S11357604F8FBFF36F8F494B98470125284605B0EB
S1135770BDE8F08345B14FF0800383F31188BFF394
S11357806F8FBFF34F8FFEE7404B9847EEE702A8B9
S1135790C84721E0B04760683D4B984705463B4BFE
S11357A0984740E020463B4B98473B4B984709E0DD
S11357B02046384B9847384B98472046374B9847F4
S11357C0002845D10127B047A36B002BB5D1019B1D
S11357D0002BCFD0002FDAD02C4B9847304B984772
S11357E0B04794F844305BB2B3F1FF3F04BF0023E9
S11357F084F8443094F845305BB2B3F1FF3F04BF02
S1135800002384F84530214B984701A902A8254B71
S113581098470028CCD12046204B98470028C1D077
S11358202368002BB6D0019904F124001E4B98473D
S11358302046184B9847184B98470028C2D14FF080
S11358408053C8F80030BFF34F8FBFF36F8FB9E7B1
S1135850002D8BD0094B9847636A53B1236B1968A9
S1135860C1F105016068114B9847084B9847002522
S11358707CE70021F6E700BFA1610000854B000032
S1135880AD6300006160000004ED00E0C94B00005E
S1135890C1610000AD500000C15D0000614F000017
S11358A0795C000005610000E15F00000163000015
S11358B0F160000040B94FF0800383F31188BFF317
S11358C06F8FBFF34F8FFEE710B50446034B984725
S11358D0A46B034B9847204610BD00BF854B0000C6
S11358E0C94B000070B504460D461646114B984747
S11358F094F844305BB2B3F1FF3F04BF002384F853
S1135900443094F845305BB2B3F1FF3F04BF002349
S113591084F84530084B9847A36B1BB12046074BCE
S1135920984770BD3246294604F12400044B984739
S1135930F4E700BF854B0000C94B0000AD500000E8
S11359401D600000064A07484FF08051936A012BFE
S1135950FCD90160BFF34F8FBFF36F8FF6E700BF31
S11359601034002004ED00E0094BD3F88C301B68A0
S113597043B1074BD3F88C20D268D2685268C3F87D
S1135980902070474FF0FF32014BC3F890207047CE
S11359901034002070B504460E461A4BD3F89450C8
S11359A0D3F898000430184B9847B4F1FF3F16D051
S11359B02C44144BD3F898305C60A54218D8114D90
S11359C0D5F88C00D5F898100431104B9847D5F8C9
S11359D090309C423CBF2B46C3F8904070BD002ED3
S11359E0E6D00848D0F898100431094B984770BDA8
S11359F0044BD3F89C00D3F898100431034B984718
S1135A0070BD00BF10340020914A00005D4A0000C0
S1135A10454A00002DE9F04F83B083460D460193BB
S1135A20DDF834A096003046664B9847002800F015
S1135A30968007465420634B98470446002800F09C
S1135A408B8007633246A52138465F4B9847043E56
S1135A50236B1E4426F007062B7884F834302B7809
S1135A605BB12B4604F13502E91D587802F8010BAD
S1135A7013F8010F08B19942F7D1002784F83B705D
S1135A800C9D042D28BF0425E5626564A76404F118
S1135A9004084046DFF85491C84704F11800C84789
S1135AA02461C5F10505A5616462E76484F850705A
S1135AB0019A59463046454B98472060BAF1000F89
S1135AC001D0CAF80040424B9847424BD3F8A0207B
S1135AD00132C3F8A020D3F89830002B42D03D4BBC
S1135AE0D3F8CC304BB93B4BD3F89830DA6AE36A3D
S1135AF09A429CBF374BC3F89840364AD2F8D0300C
S1135B000133C2F8D030E363E36AD2F8D42093427D
S1135B1084BF304AC2F8D4302E4D05F1280003EB7F
S1135B208303414600EB83002B4B98472B4B98474C
S1135B30D5F8CC30002B3FD0D5F89830DA6AE36A38
S1135B409A423DD24FF08052254B1A60BFF34F8FDB
S1135B50BFF36F8F012030E03846224B98474FF057
S1135B60FF302AE01B4BC3F89840D3F8A030012B38
S1135B70C3D1184D05F128001B4EB04705F13C0078
S1135B80B04705F15000B04705F16400B04705F196
S1135B907800B04705F1A4094846B04705F1B807B5
S1135BA03846B04705F11400B0472846B047C5F859
S1135BB08C90C5F89C70A0E7012003B0BDE8F08F7D
S1135BC00120FAE7354E0000A36A0000354B0000BF
S1135BD0854B000010340020454A0000C94B0000EA
S1135BE004ED00E0154F0000294A00003F4A000080
S1135BF010B582B0194B01930023009380221849F9
S1135C001848194CA047012804D0B0F1FF3F1BD01D
S1135C1002B010BD154B98470128F6D14FF0800310
S1135C2083F31188BFF36F8FBFF34F8F104B4FF087
S1135C30FF32C3F890200122C3F8CC200022C3F81D
S1135C4094200C4B9847E3E74FF0800383F31188CB
S1135C50BFF36F8FBFF34F8FFEE700BFEC3400201C
S1135C608894000045590000155A00003966000068
S1135C7010340020B94C0000034AD2F8D830013364
S1135C80C2F8D830704700BF10340020014BD3F85D
S1135C9094007047103400202DE9F047444BD3F8AA
S1135CA0D830002B73D1424BD3F894600136C3F83B
S1135CB09460E6B9D3F88C301B6843B14FF080038D
S1135CC083F31188BFF36F8FBFF34F8FFEE7384B19
S1135CD0D3F88C20D3F89C10C3F88C10C3F89C2004
S1135CE0D3F8E0200132C3F8E020324B9847304B20
