:10000000483B0120090E0000050E0000050E00000F
:10001000050E0000050E0000050E000000000000A7
:10002000000000000000000000000000B1320000ED
:10003000050E00000000000051330000B533000041
:10004000050E0000050E0000050E0000050E000064
:10005000050E0000050E0000050E0000050E000054
:10006000050E0000050E0000050E0000050E000044
:10007000050E0000050E0000050E0000050E000034
:10008000050E0000050E0000050E0000050E000024
:10009000050E0000050E0000050E0000050E000014
:1000A000050E0000050E0000050E0000050E000004
:1000B000050E000091210000A5210000211F000075
:1000C0002D1F0000391F0000451F0000511F0000B8
:1000D000050E0000050E0000050E0000050E0000D4
:1000E000050E0000050E0000050E0000050E0000C4
:1000F00000000000A1220000050E0000050E000017
:10010000050E0000050E0000050E0000050E0000A3
:10011000050E0000050E0000050E0000050E000093
:10012000050E0000050E00000D0500001905000079
:1001300025050000050E0000050E0000050E00005C
:10014000050E0000050E0000050E0000050E000063
:10015000ED0C0000050E0000000000000000000093
:10016000000000000000000000000000000000008F
:10017000000000000000000000000000000000007F
:10018000050E0000050E0000050E0000050E000023
:100190000000000041280000050E0000050E0000D0
:1001A000050E0000050E0000050E0000050E000003
:1001B00055280000050E0000050E0000050E000089
:1001C000050E000069280000050E0000050E000065
:1001D000050E00007D280000050E0000050E000041
:1001E00091280000050E0000050E0000852D00007E
:1001F000992D0000AD2D0000C12D0000D52D00006F
:10020000E92D00000000000000000000050E0000C5
:10021000050E0000050E0000050E0000050E000092
:10022000050E0000050E0000050E0000050E000082
:10023000050E0000050E0000050E0000050E000072
:10024000050E0000050E0000050E0000050E000062
:10025000050E0000050E0000050E0000050E000052
:100260000000000010B5054C237833B9044B13B1DE
:100270000448AFF300800123237010BD90010020DB
:1002800000000000447000000C4B43B10C480D49C5
:1002900010B5AFF300800C48036823B910BD0A48BD
:1002A000036833B97047094B002BF7D0BDE8104005
:1002B0001847064B002BF5D0184700BF0000000080
:1002C0004470000094010020447000000000000011
:1002D00080B59AB006460F466422002101A80D4B56
:1002E00098470D4D28460D4CA0470D48A04728467D
:1002F000A0470C48A0473B4632460B4901A80B4C8F
:10030000A04701A80A4B984781B201A8094B98471A
:10031000FEE700BFC3510000B05A00005D0C0000B2
:10032000EC5A0000F4680000285B00004D53000008
:10033000A5530000190C000070B582B0074B984718
:100340000190074E074D084C3046A847A04742F29F
:10035000107101A8054B9847F6E700BFA5430000C0
:10036000505B00005D0C0000D90D0000E545000069
:1003700030B400EB80000D46044C04EB80040FCC3D
:100380000FC523682B6030BC704700BF745B000052
:10039000F0B587B001A9284B98479DF80C60BDF8CF
:1003A0001400264B9847002841D00446BDF814108D
:1003B000234B98470546002835D09DF80C20214650
:1003C0000298204B984710BBBDF80E0001301B4B24
:1003D00098470746B0B1BDF80E308BB10023B11C71
:1003E000C9B2E218525CFA540133DBB2BDF80E20F8
:1003F0009A42F6D80022FA543846134B98470AE03E
:100400000023F7E71148124B9847002503E01148F5
:100410000F4B9847002520460B4B98470E4B9847AB
:10042000284607B0F0BD0D48094B9847F3E70C4844
:10043000074B98470025F1E7710300008535000060
:10044000ED050000B553000059360000F0620000D1
:100450005D0C0000246300004106000060630000A2
:10046000A4630000014B1870704700BF23000020F8
:10047000014B1870704700BFE8010020014B18784D
:10048000704700BFE801002010B512491248134B15
:10049000984718B11248134B984710BD4FF40062AB
:1004A00011491248124B98470028F3D10A4C0122F7
:1004B000114620460F4B984720460F4B98470F4850
:1004C000084B98470E4B93F83C1349090D480E4BC7
:1004D000984710BD00400141240000201D24000069
:1004E0002C6500005D0C00006431002064390020A0
:1004F000051A0000C924000091240000F0640000E7
:1005000000E100E018650000A50C00000122014B8D
:100510001A767047004001410222014B1A7670475B
:100520000040014130B589B01A4D1B4C2846A04708
:100530000028FBD01748194B984701461848194B1B
:100540009847194B9847044610F0FF0001D109B0B5
:1005500030BD02A9154B98471148154B9847BDF877
:1005600018309842F3D3134B186807AB009300235D
:100570000322E1B2104CA047079B3BB14FF08052E1
:100580000E4B1A60BFF34F8FBFF36F8F00200C4BE1
:100590009847DCE724000020BD240000AB240000C5
:1005A00064390020991A00007D04000071030000E6
:1005B000D91A000048310020454C000004ED00E04D
:1005C0007104000070B505460E46054C2046054BEB
:1005D0009847324629462046034B984770BD00BFD6
:1005E0002400002091240000950B0000F0B583B09A
:1005F00005460E460D480E4B9847B04201D203B057
:10060000F0BD01A80B4B984766B12C46013EB6B22F
:1006100001363544054F084E21463846B04701346F
:10062000AC42F9D101A8054B9847E8E764390020AE
:10063000D91A0000D5160000551A0000E316000074
:1006400008B50248024B984708BD00BF6439002036
:10065000FD1A0000F0B583B00022604B1A70604CA8
:10066000604E614D8AE004238DF8003001238DF83F
:10067000013000230193642269465C4800685C4FA6
:10068000B847012805D05B48B0474FF4FA60A84747
:100690006DE05948B04700231A461946574800688C
:1006A000B8474FF4FA60A84701224C4B1A705EE03D
:1006B00004238DF8003002238DF8013000230193CC
:1006C0006422694649480068494FB847012805D067
:1006D0004848B0474FF4FA60A84748E04648B0475A
:1006E00000231A46194645480068B8474FF4FA6097
:1006F000A8470222394B1A7039E004238DF80030E4
:1007000007238DF80130002301936422694637489E
:100710000068374FB847012805D03648B0474FF436
:10072000FA60A84723E03448B04700231A46194628
:1007300032480068B8474FF4FA60A8470322274BB5
:100740001A7014E004238DF8003003238DF8013073
:10075000002301936422694624480068244FB84767
:1007600001282BD02348B0474FF4FA60A847244B08
:1007700098472448B04740F6AC50A847A047042803
:10078000FCD11A4B1868204B98470028EFD1002164
:100790001A4B18681D4B98470128E8D10F4B1B785E
:1007A000032BE4D801A252F823F000BF6706000033
:1007B000B1060000FB060000450700000E48B047E8
:1007C00000231A4619460D480068B8474FF4FA60EE
:1007D000A8476422014B1A70C9E700BF7439002092
:1007E000110800005D0C000091460000543100200B
:1007F00081390000786500005865000058310020FC
:10080000D90D0000A0650000CD3F0000ED3D0000C7
:10081000014B1878704700BFE9010020034B00220C
:100820001A705A7001229A70DA707047E90100203C
:1008300038B55D4B1B78062B00F08980072B54D010
:1008400003B138BD584B5B78032BFAD8DFE803F0CF
:1008500002354149554B4FF48032C3F888204FF0A0
:100860008041C3F8A810524CC3F8A84093F8D000B8
:1008700000F0FE0083F8D000C3F894204FF4002568
:100880009D6099624B48986293F8530000F0FE0017
:1008900083F853005D619A6099629C6293F85010EE
:1008A00001F0FE0183F850105A6101223E4B5A704C
:1008B0004FF4FA70404B984738BD4FF480323B4BB1
:1008C000C3F898200222384B5A7032203A4B98478E
:1008D00038BD0322344B5A7040F6B830364B984737
:1008E00038BD0422304B1A7038BD2F4B9B7813B1A2
:1008F000012B17D038BD2D4B4FF4002199604FF0DC
:1009000080429A622B4A9A6293F8532002F0FE02C8
:1009100083F8532099610122234B9A701920264BAA
:10092000984738BD214B4FF4002199604FF0804229
:100930009A62204A9A6293F8532002F0FE0283F8EA
:1009400053205961184B00221A705A7038BD164B4B
:10095000DB78002B7FF475AF144B4FF48031C3F874
:1009600088104FF08040C3F8A800114AC3F8A820AF
:1009700093F8D02002F0FE0283F8D020C3F8941040
:100980004FF40021996098620A4A9A6293F85320C2
:1009900002F0FE0283F8532099610122024BDA70C3
:1009A0001920054B98474CE7E901002000800041E1
:1009B000010000C0080000C09146000070B5094B5E
:1009C0009847094D094C0A4EA847A0470428FBD177
:1009D0003046084B9847084B984741F28830074B00
:1009E0009847F1E71D0800003108000011080000D9
:1009F000DC6500005D0C0000D90D00009146000090
:100A000010B586B00C4601A9074B984734B19DF844
:100A1000053033B90548064B984702E00548044BBA
:100A2000984706B010BD00BF7103000004660000C7
:100A30005D0C000040660000F0B587B0134E144D09
:100A4000144F04E01448154B9847154B98474FF442
:100A50007A730DF117024FF0FF310020B0470446C2
:100A600069469DF81700A847012CEED138460B4B7C
:100A700098479DF800000B4B98470028E2D00A48A1
:100A8000064B98470120094B9847DEE7914B000041
:100A90007103000024680000786800005D0C00000D
:100AA000D90D0000910300005068000065040000AB
:100AB0002DE9F04186B000231A4619462248006805
:100AC000224CA047224C234D234E05E0234B984750
:100AD0004FF47A70224B9847A0470428FCD128682D
:100AE000B0470028F2D00021174B18681D4B9847DB
:100AF0000128EBD11C4F4FF0FF32394628681B4BC1
:100B0000984797F8018001A94046194B9847194B1F
:100B100098479DF80C100298174B98474046174B82
:100B200098470020164B984739781648164B984737
:100B30001648174B984700231A4619460248006882
:100B4000024FB847C2E700BF58310020813900008A
:100B50001108000054310020CD3F0000D90D0000E5
:100B600091460000ED3D0000F0010020653C0000D2
:100B70007103000041060000C5050000710400007B
:100B80006504000098680000A50C0000A068000043
:100B90005D0C00002DE9F04704460E4691460E4DCF
:100BA0002046A8470028FBD0013EDFF83080002710
:100BB000DFF82CA0084D737808F8013B16F8011FE8
:100BC0002046D0472046A8470028FBD001374F4594
:100BD000F1D33846BDE8F087B3240000F8010020C7
:100BE000A524000002230376704780230376704714
:100BF00010B5054C05492046054B98470122114682
:100C00002046044B984710BD4000002000040043DC
:100C10001D240000C924000070B505460E46054C91
:100C20002046054B9847324629462046034B9847B5
:100C300070BD00BF4000002091240000950B000013
:100C400010B5044616210348034B98470123237629
:100C500010BD00BFC0680000190C000010B59AB0AC
:100C600004466422002101A8084B9847084B2246FD
:100C7000084901A8084CA04701A8084B984781B231
:100C800001A8074B98471AB010BD00BFC351000020
:100C9000F4680000E46800004D530000A553000014
:100CA000190C000030B59BB005460C4664220021AB
:100CB00001A8094B98470CB91BB030BD23462A4602
:100CC000064901A8064CA04701A8064B984781B2E7
:100CD00001A8054B9847EFE7C3510000EC680000FE
:100CE0004D530000A5530000190C000038B5042234
:100CF0000B4B1A760B4D0C4C2846A0470028FBD016
:100D000008480A4B98470A49087000234B70094C61
:100D10002046094B984705212046084B984738BD87
:100D20000004004340000020BD240000AB2400006C
:100D3000783900207C39002095530000190C000000
:100D400038B50A4B03EB80004588094C20687922AE
:100D50000849003018BF0120074B98472A464FF436
:100D60007A712046054B984738BD00BF5C000020D3
:100D7000583A0020F86800009D190000692E000014
:100D800010B50220074B9847074C20689622074968
:100D9000003018BF0120064B98472046054B984766
:100DA00010BD00BF410D0000583A0020F868000057
:100DB0009D190000852F000008B5044B98474FF49B
:100DC0007A70034B9847034B984708BD55150000B0
:100DD00045170000810D000010B5064C2068B322B5
:100DE0000549003018BF0120044B98472046044BAA
:100DF000984710BD583A0020F86800009D1900007F
:100E0000C12F0000FEE7000008B51C4B1C4A9A42A7
:100E100010D01C4B194A9A420CD2013B9B1A23F06A
:100E2000030304331344164951F8040B42F8040B2E
:100E30009A42F9D1144B154A9A420AD2013B9B1AA5
:100E400023F0030304331344002142F8041B9342AC
:100E5000FBD10F4B0F4A22F07F029A60D3F8882013
:100E600042F47002C3F88820BFF34F8FBFF36F8F37
:100E7000094B9847094B9847FEE700BF0000002048
:100E8000447000008C010020443B002090010020B1
:100E900000ED00E000000000315100006130000072
:100EA000044AD36943F48073D3614022024BC3F8F0
:100EB0000021704700080040001C004008B5034BAB
:100EC000984703490348044B984708BDA10E00000A
:100ED00000200042243A0020751600005D4B0422D9
:100EE0005A6002F180429A624FF040429A6293F84F
:100EF000421001F0FE0141F0010183F8421093F825
:100F0000311001F0F00141F0010183F831100821A6
:100F1000596001F1804199629A6293F8431001F09F
:100F2000FE0141F0010183F8431093F8311001F004
:100F30000F0141F0100183F831104FF48071C3F8B4
:100F4000841001F18041C3F8A810C3F8A82093F8D9
:100F5000C81001F0FE0141F0010183F8C81093F8B8
:100F6000B41001F0F00141F0010183F8B4104FF426
:100F70000071C3F8841001F18041C3F8A810C3F8D0
:100F8000A82093F8C91001F0FE0141F0010183F897
:100F9000C91093F8B41001F00F0141F0100183F86B
:100FA000B4101021596001F1804199629A6293F85E
:100FB000441001F0FE0141F0010183F8441093F860
:100FC000321001F0F00141F0010183F832102021CC
:100FD000596001F1804199629A6293F8451001F0DD
:100FE000FE0141F0010183F8451093F8321001F041
:100FF0000F0141F0100183F832104021596001F1D6
:10100000804199629A6293F8461001F0FE0141F026
:10101000010183F8461093F8331001F0F00141F01C
:10102000010183F833108021596001F180419962F8
:101030009A6293F8472002F0FE0242F0010283F820
:10104000472093F8332002F00F0242F0100283F899
:101050003320704700800041044A136A43F0800344
:1010600013624122024BC3F8202170470008004060
:10107000001C004008B5054B9847054B98470022D7
:1010800004490548054B984708BD00BF59100000AA
:10109000DD0E0000001C0043343A0020A5160000BD
:1010A000044A136A43F4807313624022024BC3F86C
:1010B0002421704700080040001C004008B5044B84
:1010C0009847002203490448044B984708BD00BFD5
:1010D000A110000000200043EC3A0020A5160000FB
:1010E000044A136A43F4007313624022024BC3F8AC
:1010F0002821704700080040001C004008B5034B41
:10110000984703490348044B984708BDE110000085
:10111000002400435C3A0020F116000008B540228C
:10112000054BC3F89020054A536943F4806353612B
:10113000034B984708BD00BF001C0040000800405A
:10114000A917000008B5044A936943F0800393612E
:10115000024B984708BD00BF00080040651700001B
:10116000024A136943F040031361704700080040CE
:1011700008B5034B984703490348044B984708BDFB
:101180006111000000400041E8390020E117000033
:10119000104B93F8512002F0FE0242F0010283F856
:1011A000512093F8382002F00F0242F0300283F809
:1011B000382093F8522002F0FE0242F0010283F838
:1011C000522093F8392002F0F00242F0030283F833
:1011D0003920704700800041064B4022C3F8E020D0
:1011E0004A22C3F88C20044A936943F480639361D4
:1011F000704700BF001C00400008004008B5034BCA
:101200009847034B9847034B984708BDD9110000F6
:101210008904000091110000104B93F8572002F050
:10122000FE0242F0010283F8572093F83B2002F0BF
:101230000F0242F0300283F83B2093F8D72002F0EF
:10124000FE0242F0010283F8D72093F8BB2002F09F
:101250000F0242F0300283F8BB207047008000414B
:10126000064B4022C3F80C214A22C3F88C20044AC2
:10127000136A43F002031362704700BF001C004072
:101280000008004008B5034B9847034B9847034BB1
:10129000984708BD61120000F10B00001912000010
:1012A00008B50248024B984708BD00BF10E000E0B7
:1012B00031170000044A536943F4804353614022CC
:1012C000024BC3F8A420704700080040001C0040F7
:1012D00008B5054B9847054B984702460449054811
:1012E000054B984708BD00BFB5120000812D0000D6
:1012F00000380040B03900203D180000044A53690E
:1013000043F4004353614022024BC3F8A4207047CA
:1013100000080040001C004008B5054B9847054BED
:101320009847024604490548054B984708BD00BF49
:10133000FD120000812D0000003C0040D03A00204A
:101340003D180000044A936943F40053936140221E
:10135000024BC3F8E820704700080040001C004022
:1013600008B5054B9847054B984702460449054880
:10137000054B984708BD00BF45130000812D0000B4
:1013800000A00141CC3900203D180000044A9369B7
:1013900043F4006393614022024BC3F8E42070479A
:1013A00000080040001C004008B5054B9847054B5D
:1013B0009847024604490548054B984708BD00BFB9
:1013C0008D1300003928000000600141F03A002030
:1013D00059190000044A936943F4805393614022F1
:1013E000024BC3F8E420704700080040001C004096
:1013F00008B5054B9847054B9847024604490548F0
:10140000054B984708BD00BFD513000039280000E0
:1014100000800141383A002059190000044AD3697C
:1014200043F00803D3614022024BC3F8F420704715
:1014300000080040001C004008B5054B9847054BCC
:101440009847024604490548054B984708BD00BF28
:101450001D14000039280000000C0042903A0020C2
:1014600059190000044AD36943F01003D3614022A4
:10147000024BC3F8F420704700080040001C0040F5
:1014800008B5054B9847054B98470246044905485F
:10149000054B984708BD00BF6514000039280000BF
:1014A00000100042B03A002059190000044A136AA3
:1014B00043F0100313624022024BC3F81821704717
:1014C00000080040001C004008B5054B9847054B3C
:1014D0009847024604490548054B984708BD00BF98
:1014E000AD1400003928000000100043043A002029
:1014F00059190000024A536943F4807353617047DD
:101500000008004008B50A4B9847522209490120BB
:10151000094B984709480A4B03600A4B984718B192
:1015200009480A4B984708BD0948084B984708BD29
:10153000F5140000F86800009D190000583A0020DA
:1015400000200040FD2D0000246900005D0C00001B
:10155000146900002DE9F041284B9847284B984723
:10156000284B9847284B9847284B9847284B984733
:10157000284B9847284B9847284B9847284B984723
:10158000284B9847284B9847284B9847284B984713
:10159000284CA36943F48043A361274F4FF04008D0
:1015A000C7F8E880254EB047024625492548264D14
:1015B000A847E36943F02003E361C7F8F880B04728
:1015C000024622492248A847E36943EA0803E36147
:1015D000C7F8F880B04702461E491F48A8471F4B6E
:1015E00098471F4B98471F4B98471F4B98471F4BD7
:1015F00098471F4B9847BDE8F08100BFE91C0000E9
:10160000A1120000BD0E000075100000BD1000000A
:10161000FD1000001D1100004511000071110000B7
:1016200085120000FD110000D11200001913000006
:101630006113000000080040001C0040792D0000EC
:1016400000C00141103B0020591900000014004265
:10165000703A00200018004290390020A9130000C1
:10166000F11300003914000081140000C9140000B7
:101670000515000038B50C46054658B1081C18BFC2
:1016800001203B220449054B984721462846044B3C
:10169000984738BD0020F4E7406900009D1900001C
:1016A000B11B000038B50C46054658B1081C18BFE0
:1016B000012043220449054B984721462846044B04
:1016C000984738BD0020F4E75C6900009D190000D0
:1016D000891C0000EFF31083036072B6BFF35F8FC5
:1016E0007047BFF35F8F036883F310887047000073
:1016F00038B50D46044698B1081C18BF01203C229D
:101700000849094B984729462046084B9847024606
:1017100020B900236360A360E3602361104638BDF5
:101720000020ECE7786900009D190000A11D000071
:1017300008B5024B1860024B984708BD0402002010
:101740003525000010B5044B1C68044B9847014632
:101750002046034B984710BD04020020DD1C00000A
:101760004925000008B5014B984708BDDD1F000062
:1017700070B50C4B5C68A0420ED0012300211E46C0
:10178000FF2503E02B465A18520804D1A042F9D98C
:101790003BB13146F7E770BD024B1B680BB1984770
:1017A00070BD70BD0802002008B5054B4FF0FF3238
:1017B0005A6000221A600348034B984708BD00BFD7
:1017C00008020020711700005D1F000008B5436982
:1017D00003B1984708BD08B5836903B1984708BDB0
:1017E00038B50D46044690B1081C18BF01204222AE
:1017F0000849094B984729462046084B9847034615
:1018000018B9074A2260074A6260184638BD0020AE
:10181000EDE700BF946900009D1900001921000048
:10182000CD170000D717000008B5436903B19847EA
:1018300008BD08B5836903B1984708BD38B50D46A2
:10184000044680B1081C18BF01203D220749084BFF
:10185000984729462046074B9847074B2360074B7C
:101860006360002038BD0020EFE700BFAC690000D6
:101870009D190000612C0000291800003318000099
:10188000F8B5844607682FB18D683C460026C2F142
:10189000010E0BE00E4B9847F8BD7344A06803445B
:1018A000AB420AD22368264653B11C466368934272
:1018B000F3D8A06803449B1AF2E7A74204D0344649
:1018C0002046044B9847F8BD6046014B9847F8BD49
:1018D000C5190000F11900002DE9F04744690769B6
:1018E00001370761037E13F0010F13D1037E13F05C
:1018F000020F0FD154B36368FB1AA268934207D357
:10190000064600F11408DFF84890DFF848A012E01E
:10191000BDE8F087037E43F002030376BDE8F0875D
:101920007569E3682046984785B12C466B68FB1AB9
:10193000AA6893420AD34046C847237C012BEFD1C3
:1019400067603A4621464046D047E9E7BDE8F08760
:10195000F91900008118000070B50E4615460446BE
:1019600090B199B1101C18BF012045220849094BBC
:101970009847204640F8045B2B6831469847002082
:101980006061054B636070BD0020EEE70020ECE76E
:10199000C46900009D190000D918000000B900BEFC
:1019A000704703684BB18B4209D01B681BB1994249
:1019B000FBD10120704700207047002070470120B4
:1019C0007047000038B504460D46064B984780F036
:1019D000010043220449C0B2044B984723682B609E
:1019E000256038BDA3190000DC6900009D190000C6
:1019F00003680B600160704703680BB11A680260EE
:101A00001846704770B50E461546044678B181B148
:101A1000A2B1012032220D490D4B98476B1E1D4289
:101A200009D163600020A060E060266070BD0020E6
:101A3000F0E70020EEE76FF00C0070BD32220349A2
:101A40000020034B98476B1EEBE700BFFC690000CA
:101A50009D19000038B50D460446A0B1081C18BFFA
:101A600001204A220A490B4B9847A368E2689A4230
:101A70000BD0626813402268D35C2B70A3680133DB
:101A8000A360002038BD0020EBE76FF0090038BDEF
:101A9000FC6900009D19000038B50D4604465B2224
:101AA0000B49003018BF01200A4B9847E368626871
:101AB00013402268D554E3686168A2689A1A8A4282
:101AC00084BF591AA1600133E360002038BD00BF14
:101AD000FC6900009D19000010B5044671220549FB
:101AE000003018BF0120044B9847E068A368C01A73
:101AF00010BD00BFFC6900009D19000010B5044630
:101B00007B220549003018BF0120044B9847E36849
:101B1000A360002010BD00BFFC6900009D190000FB
:101B20000346064A126822B1044A1068034413604F
:101B300070470349014A1160F6E700BF1002002018
:101B4000483B012010B504464FF4817215491648F0
:101B5000844214BF00200120144B9847236A13F0DD
:101B6000010FFBD1236A13F0030FFBD1237813F08D
:101B7000020F14D1236A13F0010FFBD1237843F035
:101B800001032370236A13F0010FFBD14FF4C063EC
:101B900023610020207363616073608010BD6FF06B
:101BA000100010BD206A0000002000429D190000B6
:101BB00038B50C4605466C220549003018BF012097
:101BC000044B98472C602046034B984738BD00BF14
:101BD000206A00009D190000451B0000036B13F0F4
:101BE000010FFBD1036B13F0030FFBD1038813F03C
:101BF000020F2AD1036B13F0010FFBD103889BB2B4
:101C000043F001030380036B13F0010FFBD1162295
:101C10000F4B02FB01318B88C3808B790372CB7928
:101C200083700B8983808B7A8372CB7AC3728B89A2
:101C30008381CB89C3810B8A03824B8A43820B7DCC
:101C4000C3704B880380002070476FF0100070470E
:101C5000346A000000F13D40A0F5E050C0F3872059
:101C600048B1012809D008B5912205490020054B4B
:101C70009847002008BD002070470120704700BF32
:101C8000606A00009D19000038B50C460546D52253
:101C90000749003018BF0120064B98472C602046AA
:101CA000054B984701462046044B984738BD00BF76
:101CB000606A00009D190000551C0000DD1B00003B
:101CC000430900F01F00012202FA00F04033024AEB
:101CD00042F82300704700BF00E100E04BF680337C
:101CE00003FB00F07047000010B50C4A13889BB24C
:101CF00013800B4B98470B4B98474FF400600A4CEE
:101D0000A0470A4B984740F2FF70A047084A136962
:101D100043F400731361074B984710BD0040004126
:101D2000B9210000E120000039200000E521000079
:101D300000080040411E000010B50446F32215497A
:101D40001548844214BF00200120144B9847A36813
:101D500013F0010FFBD1A36813F0030FFBD123781D
:101D600013F0020F13D1A36813F0010FFBD12378F6
:101D700043F001032370A36813F0010FFBD100208F
:101D80006070A070A081E0810123237610BD6FF008
:101D9000030010BD786A0000002400439D19000074
:101DA00038B50C46054661220549003018BF0120B0
:101DB000044B98472C602046034B984738BD00BF22
:101DC000786A00009D190000391D000008B51A4A04
:101DD000138C03F01F0303EB4301184800EB810051
:101DE00002EB031292F84E2012F0010F0AD11A01F1
:101DF00002F1824202F5204292F84E2012F0020FC8
:101E00000BD108BD1A0102F1824202F520420121E4
:101E100082F84E104368984708BD1A0102F18242C9
:101E200002F52042022182F84E1003EB4303034ADD
:101E300052F823309847E4E700A000412002002038
:101E400030B4334A138823F002031B041B0C1380A5
:101E5000538823F47C531B041B0C538013889BB2C0
:101E600043F001031380138813F0010FFBD1284BBB
:101E70004FF470621A805A7B02F0FE025A730020FF
:101E80005861244A02F5C071596302F560729A6381
:101E9000214BA1F5C0751C68010101F1824202F5D8
:101EA000204214641C7982F845405C7982F84640EF
:101EB000DA882944A1F88021013008332028EAD1AA
:101EC0001F23012015499AB213F4004F0BD00133A0
:101ED000242BF8D10E4A13889BB243F002031380DF
:101EE000002030BC70475C0902F01F0200FA02F2C9
:101EF00004F1200541F82520BFF34F8FBFF36F8F0A
:101F000004F1600541F8252041F82420DFE700BFF7
:101F100000A0004120020020906A000000E100E0E3
:101F200008B5014B984708BDCD1D000008B5014B11
:101F3000984708BDCD1D000008B5014B984708BD66
:101F4000CD1D000008B5014B984708BDCD1D000010
:101F500008B5014B984708BDCD1D00001E4A5368C7
:101F600013F0010FFBD11C4A536813F0030FFBD190
:101F7000194B1B7813F0020F2BD1174A536813F03B
:101F8000010FFBD1144A137843F001031370536817
:101F900013F0010FFBD1104A536813F0030FFBD16C
:101FA0000D4B1A7802F0EF021A7000225A709A60F4
:101FB0009A611A635A63DA611A621A46536813F017
:101FC000030FFBD1044A137843F00203137000207F
:101FD00070476FF0100070470028004030B414487C
:101FE00000F143050346134C1A1A13F8011B48323B
:101FF00044F82210AB42F7D10D4800F14204803082
:10200000002134F8023FCA0002F1824202F5604228
:10201000136250F8043FDBB282F82530DB43DBB2B9
:1020200082F8243001312029EBD1002030BC7047E8
:10203000906B000000E0004110F0010F02D0234A35
:10204000234B1A6210F0020F02D0224A204B5A6230
:1020500010F0040F02D01D4A1D4B9A6210F0080FB9
:1020600002D01A4A1A4BDA6210F0100F02D0174A47
:10207000174B1A6310F0200F02D0144A144B5A6306
:1020800010F0400F02D0114A114B9A6310F0800FEC
:1020900002D00E4A0E4BDA6310F4807F02D00B4A56
:1020A0000B4B1A6410F4007F02D0084A084B5A64A4
:1020B00010F4806F02D0084A054B9A6410F4006F48
:1020C00002D0064A024BDA64704700BF062B0100BB
:1020D000001C004006230100052B0100053B010008
:1020E0000122014B5A7170470008004008B503698E
:1020F0001A8A12F0010F05D001221A82036853B127
:10210000984708BD1A8A92B22AB140F25E221A821A
:10211000436803B1984708BD38B50C46054650B32F
:102120001648814214BF0020012056221449154B45
:1021300098472C61238823F0C0039B049B0C2380C9
:10214000114B1D60114B4FF00051C3F88010BFF3CD
:102150004F8FBFF36F8F4FF08042C3F88020BFF3E3
:102160004F8FBFF36F8FC3F88011C3F880211960C0
:102170001A60002038BD0020D7E700BF00400041B2
:10218000946C00009D190000A007002000E100E011
:1021900008B5024B1868024B984708BDA0070020FD
:1021A000ED20000008B5024B1868024B984708BDA7
:1021B000A0070020ED200000094B42F24E029A8257
:1021C00001229A75DA75DA690022DA611A46D36853
:1021D00013F0010FFBD00422014B1A74704700BFAB
:1021E000001400402B4A136A23F00F0343F004034A
:1021F0001362294B00221A77284A9A621A4692F8EB
:102200002C3013F0100FFAD10022234B83F820203A
:102210001A4692F82C3013F0040FFAD142221E4BCA
:102220001A771A4692F82C3013F0020FFAD11A4B93
:102230005A6A5A621A4692F82C3013F0080FFAD1F3
:102240008222154B83F820201A4692F82C3013F086
:10225000040FFAD1104B93F8203013F0010F12D075
:102260000D4A136903F41063B3F5106FF9D1094AED
:102270005368002BFCD1074A136A23F00F0343F085
:10228000060313627047044A136913F4807FFBD07E
:10229000EDE700BF001C00400010004000000104FA
:1022A00000B583B00D4B9B78DBB20193019B13F01B
:1022B000020F06D00A4B1B681BB1084A50689847AA
:1022C00009E0019B13F0010F05D0054B5B6813B1CA
:1022D000024A5068984703B05DF804FB00000241D1
:1022E000303B002070B487B006466C460C4D0FCDD5
:1022F0000FC495E8030084E80300009BB3420CD0B0
:10230000324601205DF82030934207D00130062884
:10231000F8D1002007B070BC70470020C0B2F9E7C8
:10232000B46C000008B5034B984780002E3000F0D5
:10233000FE0008BDE522000038B50446334B98473F
:10234000032856D0042852D0052808BF022206D000
:1023500040F263222E4900202E4B98470022E36969
:1023600013F0010FFBD1E36913F0030FFBD12368D6
:1023700013F0020F47D1E36913F0010FFBD123687B
:1023800043F001032360E36913F0010FFBD1104612
:1023900002EB4203204901EBC303D96921601D6AA6
:1023A00065605B6AA36011F4C04F24D002EB420267
:1023B000194B03EBC202118DA38961F30C03A381B6
:1023C00092F82A20A38962F34F33A381124B420073
:1023D000111803EBC10191F82B10A173024403EB18
:1023E000C20393F82C3084F83030002038BD01222D
:1023F000B5E70022B3E702EB4202074B03EBC20250
:10240000138DA381E2E76FF0100038BDE5220000D4
:10241000406D00009D190000B46C000070B50D46C1
:102420000646DA221649003018BF0120154B98479E
:102430002846154B98470446F8B9B5612846134B12
:1024400098470230C0B200F01F0301229A404309AE
:102450009B0003F1604303F56143C3F88020BFF3A1
:102460004F8FBFF36F8FC3F8802100F1604000F5FC
:102470006140E02180F800131A60204670BD00BF63
:10248000406D00009D190000392300002523000045
:102490008269D36913F0030FFBD1136843F0020381
:1024A000136070478369996270478369986AC0B204
:1024B00070478369187E00F0010070478369187EB9
:1024C000C0F380007047000070B50C461646054604
:1024D00040F245221549003018BF0120144B98479F
:1024E00014F0FD0F0DD1AB692EB901221A75AB693D
:1024F00002221A7570BD01229A75AB6902229A7583
:1025000070BD012C02D0032C08D070BDAB6916B988
:1025100004221A7570BD04229A7570BDAB6916B19C
:1025200080229A75F1E780221A7570BD406D000017
:102530009D190000034B6FF07F425A6005221A601C
:10254000704700BF10E000E00B0E03B330B45D1E17
:10255000EDB22846124A6FF07F44546094601368CD
:1025600013F4803FFBD00138C0B2FF28F5D1A5EBB2
:10257000056501F17F4101312944094B596099609A
:102580001A46136813F4803FFBD030BC7047044BED
:10259000596099601A46136813F4803FFBD0704766
:1025A00010E000E070B487B0064601AC144D0FCDCA
:1025B0000FC42B682360B04217D03146012301A815
:1025C00050F823208A4206D00133052BF8D155203C
:1025D00007B070BC7047DBB2042B0CD8DFE803F007
:1025E00005030D0709005C20F2E75520F0E76520A0
:1025F000EEE76820ECE78920EAE76120E8E700BF22
:102600005C6D000010B5C4682046104B9847430924
:1026100000F01F00012202FA00F020330C4A42F8B9
:102620002300BFF34F8FBFF36F8FA36813F0030F27
:10263000FBD1236823F002032360A36813F0010F8A
:10264000FBD1236843F00103236010BDA5250000E2
:1026500000E100E0C268936813F0030FFBD1136838
:1026600043F0020313607047C268936813F0030FCE
:10267000FBD1136823F0020313607047C368196429
:102680007047C368186C7047C268936813F0030FF3
:10269000FBD11068C0F34000704708B5C368DA6A20
:1026A00012F0010F00D108BD0122DA6203689847D9
:1026B000F9E70000F0B587B005460C4601AE4E4F75
:1026C0000FCF0FC63B683360A0420CD021460123D8
:1026D00001A850F823208A4206D00133052BF8D1F7
:1026E000002676B215E0002313F0FF0373D0012B10
:1026F0006BD0022B6BD0032B6BD0042B08BF0426AE
:10270000EFD040F28B123D4900203D4B98474FF0EF
:10271000FF36EC60E42239490120394B9847A36821
:1027200013F0010FFBD1A36813F0030FFBD1236853
:1027300013F0020F5DD1A36813F0010FFBD12368E2
:1027400043F001032360A36813F0010FFBD12A4A71
:10275000F1008B1902EB830398692060187F607188
:10276000587FA0771B6A23620E4402EB8602536AED
:1027700023640123A362234B9C422ED0224B9C4214
:102780002ED0224B9C422ED0214B9C422ED0214B4E
:102790009C4204BF204B1D612046204B984700F00F
:1027A0001F0301229A4043099B0003F1604303F594
:1027B0006143C3F88020BFF34F8FBFF36F8FC3F81F
:1027C00080211A60002007B0F0BD012689E70226AB
:1027D00087E7032685E7002683E70F4B1D60D3E7D5
:1027E0000D4B5D60D3E70C4B9D60D5E70A4BDD6078
:1027F000D2E76FF01000E6E75C6D0000246E000089
:102800009D1900000060014100800141000C004260
:102810000010004200100043A4070020A52500007E
:1028200008B5C068024B9847024B984708BD00BFE7
:10283000A5250000C11C000000487047680000206A
:1028400008B5024B1868024B984708BDA407002042
:102850009B26000008B5024B5868024B984708BDFC
:10286000A40700209B26000008B5024B9868024B85
:10287000984708BDA40700209B26000008B5024B1E
:10288000D868024B984708BDA40700209B2600008B
:1028900008B5024B1869024B984708BDA4070020F1
:1028A0009B260000C268136913F0030FFBD1136865
:1028B00043F0020313607047C268136913F0030FFB
:1028C000FBD1136823F0020313607047C2681368DA
:1028D000C3F38103022B0BD0136813F00C0F09D044
:1028E0001368C3F38103012B04BFC9B2D1767047CB
:1028F000D161704789B291837047C2681368C3F38E
:102900008103022B0CD0136813F00C0F0AD013684C
:10291000C3F38103012B06BFD07EC0B200207047F5
:10292000D0697047908B80B27047C268136913F00A
:10293000030FFBD11068C0F34000704708B5C368AF
:102940009A7A12F0010F00D108BD01229A72036831
:102950009847F9E738B505460469A37A13F0010FE3
:1029600004D00123A372036803B19847637A13F07C
:10297000020F05D00223A3726B680BB1284698475B
:1029800038BD0000114B984211D0114B984211D024
:10299000104B984211D0104B984211D00F4B9842D7
:1029A00011D00F4B984204BF0E4B596170470D4B2D
:1029B0001960F0E70B4B5960F0E70A4B9960F0E7BC
:1029C000084BD9607047074B1961704700380040C9
:1029D000003C004000A0014100C001410014004241
:1029E00000180042B807002070B586B006466C4655
:1029F000184D0FCD0FC495E8030084E80300009B39
:102A0000B34221D0314601235DF823208A421CD0F5
:102A10000133062BF8D100230F4A12789A4216D0C0
:102A20000D4A0120117D994212D00130C0B21432FA
:102A30000628F7D140F2272208490020084B984782
:102A40004FF0FF3006B070BD0023DBB2E4E700209A
:102A500040B2F7E73C6E000088000020546E000092
:102A60009D19000070B506460C460846484B98472D
:102A70000546F460AF2247490120474B9847236938
:102A800013F0010FFBD1236913F0030FFBD123686F
:102A900013F0020F75D1236913F0010FFBD12368E6
:102AA00043F001032360236913F0010FFBD105EB11
:102AB00085033A4A02EB83035A6822609A7AE273EA
:102AC0001A89E280012222735B6803F00C03082B51
:102AD0003FD0002B47D105EB8503304A02EB83033F
:102AE0009A89A2831B8AE3830123637231462046BD
:102AF0002B4B984705EB8503284A02EB8303B3F978
:102B00000230002B40DB5A0903F01F03012101FAB8
:102B100003F32032234941F82230BFF34F8FBFF334
:102B20006F8F05EB85051D4B03EB8505B5F902306D
:102B3000002B2BDB590903F01F03012202FA03F3D8
:102B4000184A01F1600042F8203042F8213000209C
:102B500070BD05EB8503114A02EB8303DA68E2617D
:102B60001B692362C0E7042BBED105EB85030B4A2A
:102B700002EB83031A7B22771A7C6277DB7AE37697
:102B8000B2E76FF0100070BD002070BD002070BD76
:102B9000E9290000546E00009D1900008800002003
:102BA0008529000000E100E038B5C4682046184BD4
:102BB0009847054640F2011216490120164B9847E6
:102BC00005EB8505154B03EB8505B5F90230002BA8
:102BD0000DDB5A0903F01F03012101FA03F3203230
:102BE0000F4941F82230BFF34F8FBFF36F8F236936
:102BF00013F0030FFBD1236823F002032360236942
:102C000013F0010FFBD1236843F00103236038BDAB
:102C1000E9290000546E00009D1900008800002082
:102C200000E100E010B5C068084B984704464FF437
:102C3000DE7207490120074B984704EB8404064BDA
:102C400003EB8404A078054B984710BDE9290000E8
:102C5000546E00009D19000088000020C11C000077
:102C600070B506460C4608463F4B9847054634610A
:102C7000236913F0010FFBD1236913F0030FFBD17C
:102C8000236813F0020F65D1236913F0010FFBD104
:102C9000236843F001032360236913F0010FFBD184
:102CA00005EB8503314A02EB83035A6822609A7A66
:102CB000E2731A89E280032222735B6803F00C033B
:102CC000082B3DD0002B48D105EB8503274A02EBAA
:102CD00083039A89A2831B8AE38331462046244BCF
:102CE000984705EB8503214A02EB8303B3F90230D1
:102CF000002B35DB5A0903F01F03012101FA03F30E
:102D000020321C4941F82230BFF34F8FBFF36F8F41
:102D100005EB8505154B03EB8505B5F90230002B56
:102D200020DB590903F01F03012202FA03F3114AC1
:102D300001F1600042F8203042F82130002070BDDF
:102D400005EB8503094A02EB8303DA68E2611B693C
:102D50002362C2E76FF0100070BD4FF0FF3070BD0E
:102D6000002070BD002070BDE9290000880000200F
:102D70008529000000E100E00048704700010020C4
:102D80000020704708B5024B1868024B984708BDF1
:102D9000B80700205529000008B5024B5868024BBF
:102DA000984708BDB80700205529000008B5024B18
:102DB0009868024B984708BDB807002055290000C5
:102DC00008B5024BD868024B984708BDB8070020E9
:102DD0003D29000008B5024B1869024B984708BD11
:102DE000B80700203D29000008B5024B5869024B86
:102DF000984708BDB80700203D29000010B50446DB
:102E000030B30068003018BF01205A221449154B16
:102E1000984723689A6812F00E0FFBD11A78D209EE
:102E200018D19A6812F00E0FFBD11A7812F0020F27
:102E300013D19A6812F00E0FFBD11A7802F0FB0240
:102E40001A702268537803F0F0035370002010BD0D
:102E50000020DAE76FF0100010BD6FF0100010BD19
:102E6000686E00009D19000070B50D4614460646B8
:102E7000002844D00068003018BF012084223F4958
:102E80003F4B98473268936813F00E0FFBD11378CD
:102E900003F0FD03137031688B6813F00E0FFBD144
:102EA0000B7803F07F030B703368996811F00E0FF5
:102EB000FBD11A78D20958D1996811F00E0FFBD1C5
:102EC0001A7812F0020F53D1A4FB054528460021C1
:102ED00050EA01024FD1B4F57A3F38D011D9B4F598
:102EE000FA1F38D027D9B4F5FA0F38D0B4F57A0FD5
:102EF00037D0B4F57A1F30D06FF00C0070BD0020D1
:102F0000BCE7B4F5FA4F1ED00DD8B4F5FA5F2AD05D
:102F1000B4F57A5FF0D101215A7802F0F0020A4349
:102F20005A70002070BDB4F57A4F0ED0B4F5FA3F58
:102F3000E2D10421F0E7B4F5FA2F0AD0B4F57A2FE4
:102F4000DAD10721E8E70221E6E70321E4E70521DA
:102F5000E2E70621E0E70821DEE70921DCE70A21B4
:102F6000DAE70B21D8E70021D6E76FF0100070BD3B
:102F70006FF0100070BD6FF00C0070BD686E000047
:102F80009D19000010B5044698B10068003018BFC4
:102F9000012040F207120849084B984722689368BD
:102FA00013F00E0FFBD1137843F0020313700020CF
:102FB00010BD0020EDE700BF686E00009D19000005
:102FC00010B5044668B10068003018BF012040F217
:102FD00025120549054B98472368A5221A7300203E
:102FE00010BD0020F3E700BF686E00009D190000CF
:102FF00038B5002208210120114CA047114D28604E
:10300000002201210846A0470F4B186000220C2126
:103010000120A0470D4B18602B6883B10A4B1B6839
:103020006BB160B10A480B4B984703220021012085
:10303000A047094B186010B10848064B984738BDA7
:1030400029390000543100205C3100203831002043
:10305000806E00005D0C0000583100209C6E000066
:1030600080B582B0294B9847294B019302270097DE
:103070000023962227492848284DA847284C20603D
:10308000284B0193012600960023962226492748C3
:10309000A8476060264B019300970023962225499C
:1030A0002548A847A060254B01930096002396224F
:1030B00023492448A847E060234B0193009600234E
:1030C000962222492248A8472368B34206D02148C5
:1030D000214B98472148204B9847FEE7E368B342CD
:1030E000F5D16368B342F2D1A368B342EFD1B042E5
:1030F000EDD11B48184B98471A4B984710B11A4B03
:103100009847E7E71948144B9847E3E7B90D0000E3
:103110004C310020B46E0000390300002D41000046
:10312000D007002030310020C46E0000B10A00003A
:1031300048310020D06E0000390A00003C310020E8
:10314000DC6E0000BD09000040310020F06E000080
:1031500055060000406F00005D0C0000586F000035
:10316000006F0000F12F000009430000206F0000F5
:1031700000F1080343604FF0FF328260C3600361D7
:1031800000230360704700230361704743684B606E
:103190009A688A609A68516099600861036801338F
:1031A0000360704730B40D68B5F1FF3F02D000F105
:1031B000080202E0026904E01A4653681C68A5424E
:1031C000FAD253684B6099608A6051600861036865
:1031D0000133036030BC70470369426881689160C5
:1031E0008268416851605A68904204BF82685A60A0
:1031F000002202611A68013A1A60186870470000DC
:1032000082B0002301930D4B1B68B3F1FF3F08D040
:103210004FF0800383F31188BFF36F8FBFF34F8F9D
:10322000FEE74FF0800383F31188BFF36F8FBFF386
:103230004F8F019B002BFCD002B070472001002073
:1032400008480068006880F308884FF0000080F3A9
:10325000148862B661B6BFF34F8FBFF36F8F00DF84
:1032600000BF000008ED00E0DFF80C00016841F449
:10327000700101607047000088ED00E04FF080733E
:1032800040F8043C21F0010140F8081C054B40F8CF
:103290000C3C40F8202C6FF0020340F8243C4438EA
:1032A000704700BF01320000000000000000000075
:1032B000074B19680868B0E8F04F80F30988BFF33E
:1032C0006F8F4FF0000080F311887047AFF30080DC
:1032D000943000204FF0800383F31188BFF36F8F89
:1032E000BFF34F8F0A4A136801331360012B0DD1CE
:1032F000084B1B6813F0FF0F08D04FF0800383F3D7
:103300001188BFF36F8FBFF34F8FFEE7704700BF89
:103310002001002004ED00E0094B1B6843B94FF089
:10332000800383F31188BFF36F8FBFF34F8FFEE7E6
:10333000013B034A13600BB983F31188704700BF48
:10334000200100200000000000000000000000003C
:10335000EFF30980BFF36F8F154B1A681EF0100F43
:1033600008BF20ED108A20E9F04F10602DE9090018
:103370004FF0800080F31188BFF34F8FBFF36F8F42
:1033800001F0B2F94FF0000080F3118809BC196810
:103390000868B0E8F04F1EF0100F08BFB0EC108ABC
:1033A00080F30988BFF36F8F704700BFAFF30080D1
:1033B0009430002008B54FF0800383F31188BFF3E9
:1033C0006F8FBFF34F8F054B984718B14FF0805266
:1033D000034B1A60002383F3118808BDB14300003A
:1033E00004ED00E0054B00221A6005490A604BF627
:1033F0007F31044A116007221A60704710E000E034
:1034000018E000E014E000E03B4B1A683B4B9A42A6
:1034100008D14FF0800383F31188BFF36F8FBFF3A0
:103420004F8FFEE7344B1A68354B9A4208D14FF064
:10343000800383F31188BFF36F8FBFF34F8FFEE7D5
:1034400010B582B02F4B1A78D2B20192FF221A70B7
:103450001B78DBB28DF803309DF803302A4A03F065
:1034600080031370072353609DF8033013F0800F1F
:1034700012D0062300E00B469DF803205200D2B282
:103480008DF803209DF80320591E12F0800FF2D111
:103490001D4A5360042B08D04FF0800383F311883A
:1034A000BFF36F8FBFF34F8FFEE71B0203F4E063A0
:1034B000154A5360019BDBB2124A1370134B1A6812
:1034C00042F460021A601A6842F060421A60104BBF
:1034D000984700240F4B1C600F4B98470F4A136806
:1034E00043F0404313600E4B98470E4B98470E4BEA
:1034F0009847204602B010BD00ED00E071C20F41B8
:1035000070C20F4100E400E0E007002020ED00E081
:10351000E5330000200100206932000034EF00E0B4
:1035200041320000E946000001320000EFF305835C
:103530000F2B0FD9104A9B5CDBB2104A12789A42CB
:1035400008D94FF0800383F31188BFF36F8FBFF367
:103550004F8FFEE70A4B1B6803F4E063074A52688B
:10356000934208D94FF0800383F31188BFF36F8F24
:10357000BFF34F8FFEE77047F0E300E0E007002065
:103580000CED00E070B504462D4B98472D4B9B6821
:1035900083B1002C4DD0083414F0070F1CBF24F069
:1035A00007040834621E42F2F6739A4243D8254952
:1035B0000B6817E0234901F1140323F007030B60A4
:1035C00000254D60204A42F2F870C2F82006C2F889
:1035D0001C56586002F21C621A6001238B60D8E707
:1035E000194613465A68944202D91A68002AF7D13C
:1035F000164A934221D00D6808351A680A605A6845
:10360000121B102A0CD91E1972605C6074680D4977
:1036100000E011460A6850688442FAD832600E60B1
:103620000B490A685B68D21A0A600A4B9847284619
:1036300070BD0025F9E70025F7E70025F5E700BF95
:1036400091430000E8070020D8290020F42F002033
:1036500024010020D9440000D0B170B50546A0F186
:1036600008060C4B984755F8044C0B4A00E01A46E4
:10367000136859688C42FAD845F8083C1660074A26
:1036800055F8043C11680B441360054B984770BD16
:10369000704700BF91430000E8070020240100208C
:1036A000D944000010B50446044B9847A46B044B62
:1036B0009847B4FA84F0400910BD00BFD53200002D
:1036C0001933000070B504461646856B026C52B97A
:1036D0000368002B2AD14068184B98470023636089
:1036E0000135A56370BD6EB98068154B9847A36816
:1036F000226C1344A3606268934219D32368A360C9
:103700000020EDE7C0680E4B9847236C5B42E268EF
:103710001A44E26021688A4202D262681344E3607C
:10372000022E07D145B1013D0020D9E70020D7E79F
:103730000020D5E70020D3E70020D1E7294A000088
:103740007951000070B582B00190846C64B1A26BB5
:10375000E36B9A4211D34FF0800383F31188BFF3D8
:103760006F8FBFF34F8FFEE74FF0800383F3118815
:10377000BFF36F8FBFF34F8FFEE7A26B934203D867
:103780000026304602B070BD0A4694F845506DB22E
:1037900001A920460A4B98470646B5F1FF3F0AD1DA
:1037A000636A002BEDD004F12400064B98470028F3
:1037B00018BF0126E5E76B1C5BB284F84530E0E7F3
:1037C000C536000025480000026C72B110B50346F2
:1037D000C4681444C4604068844224BF1868D86038
:1037E0000846D968014B984710BD704779510000D1
:1037F0002DE9F0410546234B984795F8454064B2C2
:10380000002C19DD204EDFF88C80204F08E06B6A19
:1038100093B105F12400B84760B9013C64B25CB1D2
:10382000AB6C002BF3D000212846B0470028F4D021
:10383000C047F2E7C047F0E7FF2385F84530144B57
:103840009847104B984795F8444064B2002C12DD1D
:103850002B6983B105F110070C4EDFF8388004E0C6
:10386000013C64B23CB12B692BB13846B04700280B
:10387000F6D0C047F4E7FF2385F84430044B98475F
:10388000BDE8F081D5320000453700002548000032
:10389000193300005549000038B530B304460D46D1
:1038A0001C4B98472268216CE36B03FB01F3D01893
:1038B00060600020A063A2605B1A1344E360FF23F2
:1038C00084F8443084F84530C5B92369EBB104F17C
:1038D0001000114B9847C0B14FF080520F4B1A6047
:1038E000BFF34F8FBFF36F8F0FE04FF0800383F371
:1038F0001188BFF36F8FBFF34F8FFEE704F1100005
:10390000074DA84704F12400A847064B984701201B
:1039100038BD00BFD53200002548000004ED00E0AE
:103920007131000019330000F8B540B94FF0800341
:1039300083F31188BFF36F8FBFF34F8FFEE7064607
:1039400017460D4601FB00F054300B4B98470446D8
:1039500078B11DB100F15403036000E02060E6631C
:10396000256401212046054B984784F850700023B8
:10397000A3642046F8BD00BF8535000099380000DB
:103980002DE9F04F85B0019298B10446D1B1022BD8
:1039900024D01E460F46644B984758BB019B8BB3FF
:1039A0004FF0800383F31188BFF36F8FBFF34F8F06
:1039B000FEE74FF0800383F31188BFF36F8FBFF3EF
:1039C0004F8FFEE7026C002AE1D04FF0800383F3B3
:1039D0001188BFF36F8FBFF34F8FFEE7E26B012AB1
:1039E000D7D04FF0800383F31188BFF36F8FBFF3FD
:1039F0004F8FFEE70025DFF85C81DFF85CA1DFF880
:103A0000349141E00025F6E7324639462046474BDF
:103A10009847A36C93B131462046454B984738B13F
:103A20004FF08052434B1A60BFF34F8FBFF36F8F3D
:103A3000414B9847012005B0BDE8F08F636A73B130
:103A400004F124003D4B98470028F1D04FF08052FC
:103A5000384B1A60BFF34F8FBFF36F8FE8E7002832
:103A6000E6D04FF08052334B1A60BFF34F8FBFF355
:103A70006F8FDDE7304B98470020DCE72046304B66
:103A80009847304B98470125C047A26BE36B9A4299
:103A9000BAD3022EB8D0019B002BEBD00DB902A8EF
:103AA000D047254B9847284B9847C04794F8443057
:103AB0005BB2B3F1FF3F04BF002384F8443094F8B5
:103AC00045305BB2B3F1FF3F04BF002384F84530BB
:103AD000194B984701A902A81C4B9847E0B9C04769
:103AE000D4F838B0E56B144B9847AB45C6D1019973
:103AF00004F11000164B98472046114B9847114B84
:103B000098470028BFD14FF08053C9F80030BFF369
:103B10004F8FBFF36F8FB6E72046094B9847094B8D
:103B20009847002087E700BF65490000C5360000C0
:103B30004537000004ED00E019330000254800007F
:103B4000F1370000D944000091430000C94800004B
:103B5000A5470000D5320000B54800002DE9F84324
:103B6000002836D0044600293CD0022B46D01F4600
:103B700090468946374B9847EFF311864FF0800304
:103B800083F31188BFF36F8FBFF34F8FA26BE36B8B
:103B90009A4201D3022F51D194F845506DB23A4662
:103BA000494620462C4B9847B5F1FF3F40D1A36CC6
:103BB00083B339462046294B9847002840D0B8F1B6
:103BC000000F3FD00120C8F8000086F31188BDE83F
:103BD000F8834FF0800383F31188BFF36F8FBFF337
:103BE0004F8FFEE7006C0028BFD04FF0800383F3B7
:103BF0001188BFF36F8FBFF34F8FFEE7E06B012893
:103C0000B5D04FF0800383F31188BFF36F8FBFF3FC
:103C10004F8FFEE7636ABBB104F12400104B984755
:103C2000A0B1B8F1000F13D00120C8F80000CCE714
:103C30006B1C5BB284F845300120C6E70020C4E766
:103C40000120C2E70120C0E70120BEE70120BCE758
:103C50000120BAE72D350000C536000045370000C9
:103C6000254800002DE9F04784B0019280B1044658
:103C7000B9B10E46504B9847F8B9019B2BB34FF0A2
:103C8000800383F31188BFF36F8FBFF34F8FFEE77D
:103C90004FF0800383F31188BFF36F8FBFF34F8F13
:103CA000FEE7036C002BE4D04FF0800383F3118810
:103CB000BFF36F8FBFF34F8FFEE70027DFF824813C
:103CC000DFF824A1DFF8FC9029E00027F6E7314671
:103CD00020463A4B9847013DA563236963B104F13F
:103CE0001000374B984738B14FF08052354B1A606F
:103CF000BFF34F8FBFF36F8F334B9847012004B052
:103D0000BDE8F087304B98470020F8E702A8D0477D
:103D10000EE020462D4B98472D4B98470127C04772
:103D2000A56B002DD3D1019B002BEBD0002FEDD044
:103D3000254B9847274B9847C04794F844305BB2CF
:103D4000B3F1FF3F04BF002384F8443094F84530BA
:103D50005BB2B3F1FF3F04BF002384F845301A4B38
:103D6000984701A902A81C4B9847C8B920461B4B8D
:103D700098470028CDD0019904F12400184B9847AA
:103D80002046124B9847124B98470028C6D14FF057
:103D90008053C9F80030BFF34F8FBFF36F8FBDE77B
:103DA00020460A4B98470A4B984720460B4B9847AA
:103DB0000028B3D00020A2E765490000C937000001
:103DC0002548000004ED00E019330000F137000041
:103DD000D944000091430000C9480000A536000006
:103DE000A5470000D5320000B54800002DE9F0439A
:103DF00085B0019158B10446036C8BB14FF080033C
:103E000083F31188BFF36F8FBFF34F8FFEE74FF03F
:103E1000800383F31188BFF36F8FBFF34F8FFEE7EB
:103E20005B4B984750B9019B83B14FF0800383F3FC
:103E30001188BFF36F8FBFF34F8FFEE700252F462A
:103E4000544EDFF88491DFF8588148E000252F4672
:103E5000F6E7013BA363236813B94F4B98476060B3
:103E6000236963B104F110004C4B984738B14FF00F
:103E700080524B4B1A60BFF34F8FBFF36F8F494B8C
:103E800098470125284605B0BDE8F08345B14FF0BD
:103E9000800383F31188BFF36F8FBFF34F8FFEE76B
:103EA000404B9847EEE702A8C84721E0B04760685A
:103EB0003D4B984705463B4B984740E020463B4BDF
:103EC00098473B4B984709E02046384B9847384B7A
:103ED00098472046374B9847002845D10127B047DF
:103EE000A36B002BB5D1019B002BCFD0002FDAD0D4
:103EF0002C4B9847304B9847B04794F844305BB20E
:103F0000B3F1FF3F04BF002384F8443094F84530F8
:103F10005BB2B3F1FF3F04BF002384F84530214B6F
:103F2000984701A902A8254B98470028CCD12046E4
:103F3000204B98470028C1D02368002BB6D00199A8
:103F400004F124001E4B98472046184B9847184B05
:103F500098470028C2D14FF08053C8F80030BFF313
:103F60004F8FBFF36F8FB9E7002D8BD0094B984768
:103F7000636A53B1236B1968C1F105016068114B85
:103F80009847084B984700257CE70021F6E700BFDB
:103F900065490000D5320000714B00002548000043
:103FA00004ED00E01933000085490000F1370000FE
:103FB000D9440000A536000091430000C948000024
:103FC000A5470000C54A0000B548000040B94FF0C1
:103FD000800383F31188BFF36F8FBFF34F8FFEE72A
:103FE00010B50446034B9847A46B034B98472046F3
:103FF00010BD00BFD53200001933000070B5044673
:104000000D461646114B984794F844305BB2B3F115
:10401000FF3F04BF002384F8443094F845305BB27E
:10402000B3F1FF3F04BF002384F84530084B9847A5
:10403000A36B1BB12046074B984770BD32462946FB
:1040400004F12400044B9847F4E700BFD532000088
:1040500019330000F1370000E1470000064A074825
:104060004FF08051936A012BFCD90160BFF34F8F51
:10407000BFF36F8FF6E700BFFC2F002004ED00E0D8
:10408000094BD3F88C301B6843B1074BD3F88C2015
:10409000D268D2685268C3F8902070474FF0FF3260
:1040A000014BC3F890207047FC2F002070B50446E8
:1040B0000E461A4BD3F89450D3F898000430184B9E
:1040C0009847B4F1FF3F16D02C44144BD3F89830E6
:1040D0005C60A54218D8114DD5F88C00D5F8981021
:1040E0000431104B9847D5F890309C423CBF2B468A
:1040F000C3F8904070BD002EE6D00848D0F8981064
:104100000431094B984770BD044BD3F89C00D3F899
:1041100098100431034B984770BD00BFFC2F00205E
:10412000D9310000A53100008D3100002DE9F04F9C
:1041300083B083460D460193DDF834A096003046E7
:10414000664B9847002800F0968007465420634B42
:1041500098470446002800F08B8007633246A5216B
:1041600038465F4B9847043E236B1E4426F00706F3
:104170002B7884F834302B785BB12B4604F1350270
:10418000E91D587802F8010B13F8010F08B19942A4
:10419000F7D1002784F83B700C9D042D28BF04251F
:1041A000E5626564A76404F104084046DFF85491B1
:1041B000C84704F11800C8472461C5F10505A56189
:1041C0006462E76484F85070019A59463046454B62
:1041D00098472060BAF1000F01D0CAF80040424B66
:1041E0009847424BD3F8A0200132C3F8A020D3F85F
:1041F0009830002B42D03D4BD3F8CC304BB93B4BE1
:10420000D3F89830DA6AE36A9A429CBF374BC3F816
:104210009840364AD2F8D0300133C2F8D030E36348
:10422000E36AD2F8D420934284BF304AC2F8D43033
:104230002E4D05F1280003EB8303414600EB83007C
:104240002B4B98472B4B9847D5F8CC30002B3FD0C1
:10425000D5F89830DA6AE36A9A423DD24FF080523C
:10426000254B1A60BFF34F8FBFF36F8F012030E0F3
:104270003846224B98474FF0FF302AE01B4BC3F8DB
:104280009840D3F8A030012BC3D1184D05F1280078
:104290001B4EB04705F13C00B04705F15000B04758
:1042A00005F16400B04705F17800B04705F1A409B5
:1042B0004846B04705F1B8073846B04705F1140045
:1042C000B0472846B047C5F88C90C5F89C70A0E769
:1042D000012003B0BDE8F08F0120FAE7853500002A
:1042E000C35100007D320000D5320000FC2F0020B9
:1042F0008D3100001933000004ED00E05936000054
:10430000713100008731000010B582B0194B019364
:1043100000230093802218491848194CA04701280F
:1043200004D0B0F1FF3F1BD002B010BD154B984731
:104330000128F6D14FF0800383F31188BFF36F8F0C
:10434000BFF34F8F104B4FF0FF32C3F89020012284
:10435000C3F8CC200022C3F894200C4B9847E3E725
:104360004FF0800383F31188BFF36F8FBFF34F8F3C
:10437000FEE700BFD8300020706F00005D400000F5
:104380002D410000FD4D0000FC2F002009340000ED
:10439000034AD2F8D8300133C2F8D830704700BF92
:1043A000FC2F0020014BD3F894007047FC2F002015
:1043B0002DE9F047444BD3F8D830002B73D1424B52
:1043C000D3F894600136C3F89460E6B9D3F88C3022
:1043D0001B6843B14FF0800383F31188BFF36F8FE5
:1043E000BFF34F8FFEE7384BD3F88C20D3F89C10E7
:1043F000C3F88C10C3F89C20D3F8E0200132C3F836
:10440000E020324B9847304BD3F890309E420DD28B
:1044100000242D4BD3F89820D26A02EB820203EBE2
:1044200082039B6A022B28BF012443E00024264D0F
:10443000DFF8A08005F1280A21E04FF0FF32224B7F
:10444000C3F89020E5E7204AC2F89030E1E707F191
:104450001800C047F86AD5F8D430984288BFC5F82C
:10446000D40000EB800049460AEB8000184B9847C7
:10447000D5F89830FA6ADB6A9A4228BF0124D5F849
:104480008C301B68002BD8D0D5F88C30DB68DF6807
:104490007B689E42D7D307F104094846C047BB6AF0
:1044A000002BD4D1D6E7084AD2F8E4300133C2F861
:1044B000E4300024044BD3F8E830002B0CBF204636
:1044C0000120BDE8F08700BFFC2F002081400000E4
:1044D0008D310000D93100003A4BD3F8D83043B9C0
:1044E0004FF0800383F31188BFF36F8FBFF34F8FBB
:1044F000FEE72DE9F041344B9847324BD3F8D820F2
:10450000013AC3F8D820D3F8D830002B55D12D4B21
:10451000D3F8A0302BB900242C4B98472046BDE897
:10452000F0810025274C2A4E04F128086369FBB16D
:10453000236ADD6805F11800B0472F1D3846B047E3
:10454000E86AD4F8D430984288BFC4F8D40000EBAD
:104550008000394608EB80001E4B9847D4F898300D
:10456000EA6ADB6A9A42E1D30123C4F8E830DDE766
:104570000DB1194B9847134BD3F8E4407CB1174F5A
:104580001E46012501E0013C05D0B8470028FAD0BD
:10459000C6F8E850F7E700220A4BC3F8E420094BBD
:1045A000D3F8E8305BB14FF080520D4B1A60BFF387
:1045B0004F8FBFF36F8F0124AEE70024ACE70024D8
:1045C000AAE700BFFC2F0020D532000019330000FD
:1045D000D93100008D31000081400000B14300005E
:1045E00004ED00E038B550B1054689B94FF08003BD
:1045F00083F31188BFF36F8FBFF34F8FFEE74FF048
:10460000800383F31188BFF36F8FBFF34F8FFEE7F3
:104610001A4BD3F8D83043B14FF0800383F311889D
:10462000BFF36F8FBFF34F8FFEE70C46144B9847D5
:10463000124BD3F894002A681444904214D2A24238
:1046400016D92C60A04203D20021201A0D4B9847A6
:104650000D4B984780B94FF080520C4B1A60BFF356
:104660004F8FBFF36F8F38BDA24203D8A04201D352
:104670002C60EDE72C60E7E738BD00BFFC2F002081
:1046800091430000AD400000D944000004ED00E07B
:1046900010B5B0B104460F4BD3F8D83043B14FF04A
:1046A000800383F31188BFF36F8FBFF34F8FFEE753
:1046B000094B984700212046084B9847084B9847DC
:1046C00038B94FF08052074B1A60BFF34F8FBFF3DA
:1046D0006F8F10BDFC2F002091430000AD40000003
:1046E000D944000004ED00E02C4BD3F8D8308BBB4C
:1046F00010B52A4B0022C3F8E820D3F89820D3F84D
:10470000983012681B6B9A4207D8244BD3F8980054
:10471000D3F898103431224B9847204AD2F8D4303D
:1047200003EB830102EB8102926AC2B94BB11B49D0
:10473000013B03EB830201EB8202926A7AB9002B00
:10474000F6D14FF0800383F31188BFF36F8FBFF36F
:104750004F8FFEE70122114BC3F8E82070470F4A44
:104760009900C81802EB8000C46A6468C4621944E6
:104770000246303294420BD0084A03EB830102EB2D
:104780008101C96AC968C2F89810C2F8D43010BD56
:104790006068024A02EB8102D062EDE7FC2F002044
:1047A000D102000040B94FF0800383F31188BFF3BA
:1047B0006F8FBFF34F8FFEE710B50C46054BD3F854
:1047C00098101831044B984701212046034B984715
:1047D00010BD00BFFC2F0020A5310000AD4000003F
:1047E00038B580B114460D460B4BD3F898101831EC
:1047F0000A4B9847002C21460CBF28464FF0FF304B
:10480000074B984738BD4FF0800383F31188BFF3FF
:104810006F8FBFF34F8FFEE7FC2F00208D3100001C
:10482000AD40000038B5C368DC68002C2AD004F124
:10483000180528461A4B98471A4BD3F8D83053BB63
:10484000251D2846164B9847E06A164BD3F8D430FE
:10485000984284BF134BC3F8D40000EB8000294674
:10486000114B03EB8000114B98470E4BD3F8983057
:10487000E26ADB6A9A4283BF01200A4BC3F8E80070
:10488000002038BD4FF0800383F31188BFF36F8F92
:10489000BFF34F8FFEE729460548044B9847E4E7EE
:1048A000D9310000FC2F0020243000208D31000081
:1048B00010300020034BD3F8E0200260D3F894308E
:1048C00043607047FC2F0020F8B170B5054629B34E
:1048D0000C461C4B98471C4BD3F8942069682368FE
:1048E000B3F1FF3F2AD01848D0F8E0002E68864286
:1048F00001D08A4224D2521A9A4218D3002323604C
:104900000124124B9847204670BD4FF0800383F37B
:104910001188BFF36F8FBFF34F8FFEE74FF0800317
:1049200083F31188BFF36F8FBFF34F8FFEE79B1A9E
:1049300023602846064B98470024E2E70024E0E77E
:104940000124DEE7D5320000FC2F002019330000DF
:10495000B54800000122024BC3F8E820704700BFB1
:10496000FC2F0020064BD3F8CC303BB1044BD3F8DE
:10497000D830002B0CBF0220002070470120704768
:10498000FC2F0020002845D038B50546C26A2249D0
:10499000D1F89810C96A8A4232D28169002906DBAF
:1049A0001D49D1F89810C96AC1F10501816102EB76
:1049B00082021A4901EB82026969914206D0164AC5
:1049C000D2F89820D26AEA62012038BD2C1D204618
:1049D000134B9847104BD3F89820D06AE862D3F86D
:1049E000D430984284BF0C4BC3F8D40000EB800055
:1049F00021460A4B03EB80000A4B9847012038BD43
:104A0000054AD2F89820406CD36A98422CBF002007
:104A1000012038BD00207047FC2F002024300020EA
:104A2000D93100008D31000000283CD038B5044653
:104A3000204AD2F89820904208D04FF0800383F3A8
:104A40001188BFF36F8FBFF34F8FFEE7826C42B9BF
:104A50004FF0800383F31188BFF36F8FBFF34F8F45
:104A6000FEE7013A8264C06A616C88421DD0F2B9E7
:104A7000251D2846104B9847606CE062C0F1050385
:104A8000A3610C4BD3F8D430984284BF094BC3F8D0
:104A9000D40000EB80002946084B03EB8000084B54
:104AA0009847012038BD00207047002038BD002005
:104AB00038BD00BFFC2F0020D93100002430002079
:104AC0008D310000002849D038B50446806C40B9CB
:104AD0004FF0800383F31188BFF36F8FBFF34F8FC5
:104AE000FEE7626C8A4238BF0A46E16A914201D011
:104AF000012800D038BD1A48D0F89800844208D167
:104B00004FF0800383F31188BFF36F8FBFF34F8F94
:104B1000FEE7E262A0690028A4BFC2F10502A2611B
:104B200001EB81010F4A02EB810162698A42E1D106
:104B3000251D28460C4B9847E06A094BD3F8D43022
:104B4000984284BF064BC3F8D40000EB800029468E
:104B5000044B03EB8000054B9847CBE7704700BF41
:104B6000FC2F002024300020D93100008D310000BE
:104B7000064BD3F898302BB1044BD3F89820936CA4
:104B800001339364014BD3F898007047FC2F002049
:104B9000F8B507460D4614461E46254B9847254B4B
:104BA000D3F8983093F85030DBB2022B0CD0214B65
:104BB000D3F89820D06C20EA0700D064D3F898305E
:104BC000012283F85020E6B91B4B9847184B9847B1
:104BD00024B1184BD3F89830DB6C2360154BD3F815
:104BE000983093F85030DBB2022B17D00024114BD1
:104BF000D3F89830002283F850200F4B9847204676
:104C0000F8BD114630460D4B98474FF080520C4B83
:104C10001A60BFF34F8FBFF36F8FD5E7054BD3F803
:104C20009820D36C23EA0505D5640124DFE700BF93
:104C3000D5320000FC2F002019330000AD400000E9
:104C400004ED00E02DE9F843089E10B304469946B0
:104C5000174688463E4B9847EFF311854FF0800387
:104C600083F31188BFF36F8FBFF34F8FB9F1000F3C
:104C700002D0E36CC9F8003094F85030DBB2022265
:104C800084F850207A1E032A10D8DFE802F00B1CAB
:104C900020234FF0800383F31188BFF36F8FBFF39E
:104CA0004F8FFEE7E26C42EA0802E264012B47D133
:104CB000A36AA3B14FF0800383F31188BFF36F8F12
:104CC000BFF34F8FFEE7E26C0132E264EEE7C4F817
:104CD0004C80EBE7022B31D0C4F84C80E6E71D4B4B
:104CE000D3F8D830FBB9271D38461B4B9847E06AEC
:104CF000184BD3F8D430984284BF164BC3F8D40075
:104D000000EB80003946154B03EB8000144B9847AD
:104D1000104BD3F89830E26ADB6A9A4215D946B153
:104D2000012030600DE004F118010E480C4B98474B
:104D3000EEE70120074BC3F8E80002E0002000E0A6
:104D4000012085F31188BDE8F8830120F9E700BF51
:104D50002D350000FC2F0020D93100002430002028
:104D60008D3100001030002008B541600061914293
:104D70000CD8D21A83699A4201D3012008BD011DC3
:104D8000094B1868094B9847002008BD9A4201D288
:104D9000994206D2011D044B5868044B98470020E5
:104DA00008BD012008BD00BFE8300020A53100008B
:104DB000F8B50D4B98470D4B9B6813B10C4B9847BA
:104DC000F8BD0A4C04F10C0630460A4FB84704F10E
:104DD00020052846B8476660256000220C21142073
:104DE000054B9847A060E9E7D5320000E830002085
:104DF00019330000713100002939000010B582B06C
:104E00000D4B98470D4B9B6863B10D4B01930323EA
:104E10000093002380220B490B480C4CA04708B19B
:104E200002B010BD4FF0800383F31188BFF36F8F82
:104E3000BFF34F8FFEE700BFB14D0000E830002008
:104E40001C310020886F0000694F00002D410000D8
:104E5000D8B130B585B015460446144A906810B3F1
:104E60001A46019102950394052917DC104B9847C7
:104E700002284FF000030CBF089A1A4601A90B48FC
:104E800080680C4CA04705B030BD4FF0800383F321
:104E90001188BFF36F8FBFF34F8FFEE7002301A987
:104EA000054CA047EFE70020EDE700BFE830002009
:104EB00065490000813900005D3B00002DE9F047A5
:104EC00082B08046234B98470746234B9B6B984202
:104ED00019D30023C8F800301F4B9F63384602B037
:104EE000BDE8F087002100910B46524620461B4C3E
:104EF000A04750B94FF0800383F31188BFF36F8F41
:104F0000BFF34F8FFEE7144D154E6B681A68C2B1A0
:104F1000DB68D3F800A0DC6804F104094846B04718
:104F2000636A20469847E369012BEED1A369534495
:104F30009A45D7D26360246149466868094B98470F
:104F4000E3E7054A1168516013600123C8F8003097
:104F5000C2E700BFA5430000E8300020514E00002A
:104F6000D9310000A53100002DE9F04786B0654C2D
:104F7000654FDFF8B491DFF8B48163681A6872B1E5
:104F8000DB681D68614B984703A8614B984706464C
:104F9000039B002B79D1A8424AD200220EE05B4B42
:104FA000984703A85A4B98470646039B002B6CD1A1
:104FB00023681A68B2FA82F252090025A91BA06878
:104FC000544B9847B84738B94FF08053C9F8003070
:104FD000BFF34F8FBFF36F8F4F4D002203A9A0681F
:104FE000A8470028C9D0039B002BF6DB059E7369F8
:104FF0000BB1301DC04702A8454B9847039B092BB6
:10500000EBD801A252F823F08F5000008F5000001F
:105010008F500000DB4F0000D7500000FD50000013
:105020008F5000008F500000DB4F0000D750000071
:10503000B8476368DB68D3F80CA00AF10400C047E6
:10504000DAF81C30012B04D0DAF8243050469847A7
:10505000C2E7DAF818102B463246294450462F4E44
:10506000B0470028F0D0002100910B462A46504658
:105070002B4DA8470028E7D14FF0800383F3118818
:10508000BFF36F8FBFF34F8FFEE7B847A4E7049DD0
:10509000B1692B46024629443046204DA8470028D6
:1050A0009AD0736A30469847F369012B94D1B2695C
:1050B000002100910B46049802443046184DA84741
:1050C000002889D14FF0800383F31188BFF36F8FDD
:1050D000BFF34F8FFEE70499B16131B10346024639
:1050E000014430460D4DA84776E74FF0800383F327
:1050F0001188BFF36F8FBFF34F8FFEE73046094B28
:10510000984769E7E8300020D94400009143000047
:10511000BD4E0000FD3F0000653C0000694D0000F1
:10512000514E00005936000004ED00E0D931000076
:1051300070B50D4E0D4CA41BA4100025A54209D13D
:105140000B4E0C4C01F06EFFA41BA4100025A542D1
:1051500005D170BD56F8253098470135EEE756F871
:10516000253098470135F2E73070000030700000BC
:10517000307000003470000010B5431E0A449142A4
:1051800000D110BD11F8014B03F8014FF7E7884239
:1051900010B501EB020303D8421E99420CD110BD99
:1051A0009842F9D28118D21AD34200D110BD13F817
:1051B000014D01F8014DF7E711F8014B02F8014FDD
:1051C000EBE702440346934200D1704703F8011B0A
:1051D000F9E7000038B50546002945D051F8043CF0
:1051E0000C1F002BB8BFE41800F0F6F81F4A136834
:1051F000104633B9636014602846BDE8384000F0BB
:10520000ECB8A3420CD921686218934204BF1A6813
:105210005B68636004BF521822600460ECE71346C9
:105220005A680AB1A242FAD919685818A0420BD19B
:1052300020680144581882421960DDD11068526814
:105240005A6001441960D7E702D90C232B60D3E7D9
:10525000206821188A4204BF11685268626004BF46
:10526000091821605C60C7E738BD00BF2431002009
:1052700070B5CD1C25F0030508350C2D38BF0C2565
:10528000002D064601DBA94203D90C233360002020
:1052900070BD00F0A1F8234A1468214691B9224C50
:1052A00023681BB9304600F041F82060294630469B
:1052B00000F03CF8431C26D10C233360304600F04C
:1052C0008CF8E4E70B685B1B1AD40B2B0FD90B602F
:1052D000CD50CC18304600F080F804F10B00231DAF
:1052E00020F00700C31A1BD05A42E25070BD8C4216
:1052F0000DBF63684B686360136018BF0C46E9E735
:105300000C464968CAE7C41C24F00304A04205D037
:10531000211A304600F00AF80130CDD02560D9E7D7
:1053200070BD00BF243100202831002038B5064C64
:105330000023054608462360FCF7F2FB431C02D11C
:10534000236803B12B6038BD403B00200EB400B58C
:105350009CB04FF402711DABADF814100290069092
:105360006FF000410A48049107914FF6FF7153F81E
:10537000042BADF816100068019302A900F08AF81A
:10538000029B00221A701CB05DF804EB03B070475A
:1053900028010020034611F8012B03F8012B002AF5
:1053A000F9D17047034613F8012B002AFBD1181AD4
:1053B0000138704710B56AB10139841810F8013B03
:1053C00011F8012F934203D1A04201D0002BF5D157
:1053D000981A10BD104610BD704770472DE9F04770
:1053E0008E689E4282460C469146984635D88A89F8
:1053F00012F4906F31D0256809696F1A656902232C
:1054000005EB450595FBF3F508F101033B449D428F
:1054100038BF1D46530531D52946FFF729FF0646FB
:1054200050B90C23CAF80030A38943F04003A3818C
:105430004FF0FF30BDE8F0873A462169FFF79CFE48
:10544000A38923F4906343F08003A38126616561FF
:105450003E44ED1B2660A5604646464528BF4646AD
:10546000324649462068FFF792FEA3689B1BA36063
:1054700023681E4426600020BDE8F0872A4600F01D
:10548000E7FA06460028E1D121695046FFF7A2FE5F
:10549000C7E700002DE9F04F9DB0804603938B894C
:1054A0001C060D4616460FD50B696BB94021FFF758
:1054B000DFFE2860286128B90C23C8F800304FF0BF
:1054C000FF30C5E040236B610023099320238DF852
:1054D000293030238DF82A304FF0010B37463C46F7
:1054E00014F8013B002B3CD1B7EB060A0BD0534616
:1054F000324629464046FFF771FF013000F0A38095
:10550000099B534409933B78002B00F09C800023B7
:105510004FF0FF3204930793059206938DF85330B2
:105520001A9305222178504800F042FA671C049B28
:10553000D8B9D90644BF20228DF853201A0744BF9A
:105540002B228DF8532022782A2A16D0079A002180
:105550000A20274601343B78303B092B51D9C9B189
:1055600011E0252BC0D02746B9E73F4A801A0BFA35
:1055700000F0184304903C46D3E7039A111D1268CB
:105580000391002A01DB079204E0524243F0020338
:10559000079204933B782E2B0ED17B782A2B07F1B0
:1055A000010132D1039B1A1D1B680392002BB8BF67
:1055B0004FF0FF33023705932C4C397803222046F5
:1055C00000F0F6F938B14023001B03FA00F0049B09
:1055D000034304930137397825488DF828100622B3
:1055E0007E1C00F0E5F9002835D0224BFBB9039B67
:1055F000073323F0070308330393099B4B440993B4
:105600006CE700FB02320121A3E700230593184653
:105610000A240F4601313A78303A092A03D9002B7F
:10562000CAD00590C8E704FB00200123F1E703ABD3
:1056300000932A46104B04A94046AFF30080B0F116
:10564000FF3F8146D9D1AB895B063FF538AF09985A
:105650001DB0BDE8F08F03AB00932A46064B04A9AA
:10566000404600F081F8EAE7F06F0000F66F0000B6
:10567000FA6F000000000000DD5300002DE9F04744
:1056800091461F468A680B69DDF820809342B8BFB7
:105690001346C9F8003091F8432006460C4612B173
:1056A0000133C9F800302368990642BFD9F80030A9
:1056B0000233C9F80030256815F0060507D104F15A
:1056C000190AE368D9F800209B1A9D4229DB94F857
:1056D00043302268003318BF012392062ED404F110
:1056E000430239463046C047013021D02368E5687F
:1056F000D9F8002003F00603042B08BFAD1AA368F5
:1057000022690CBF25EAE57500259342C4BF9B1AA8
:10571000ED184FF000091A344D451BD10020BDE8AB
:10572000F0870123524639463046C047013003D145
:105730004FF0FF30BDE8F0870135C2E7E1185A1C91
:10574000302081F84300224494F8451082F8431039
:105750000233C4E70123224639463046C0470130B0
:10576000E6D009F10109D7E72DE9F04317460A7E93
:1057700085B06E2A984606460C460C9B01F1430EF6
:1057800000F0BC801AD8632A2ED00AD8002A00F074
:10579000C880582A00F08A8004F1420584F842202B
:1057A0002AE0642A01D0692AF6D121681A6811F02A
:1057B000800F23D0111D1960136827E0732A00F0B1
:1057C000B48008D86F2A2AD0702AE5D10A6842F03E
:1057D00020020A6003E0752A21D0782ADCD17822E1
:1057E00084F845206E4964E01A6801F14205111DF4
:1057F0001960136884F842300123A3E011F0400FD0
:1058000002F104011960D7D0B2F90030002B03DA9D
:105810002D225B4284F8432062490A2217E0206867
:10582000196810F0800F03D0081D18600B6806E09F
:1058300010F0400F01F104001860F7D00B885949AF
:105840006F2A14BF0A220822002084F843006568EA
:10585000A560002DC0F29C80206820F0040020602C
:10586000002B3FD1002D40F095807546082A0BD1C2
:105870002368DA0708D5236962689A42DEBF3023BD
:1058800005F8013C05F1FF35AEEB05032361CDF8CA
:1058900000803B4603AA21463046FFF7EFFE013069
:1058A00055D14FF0FF3005B0BDE8F08381F84520B9
:1058B0003C492268186812F0800F00F104051D6051
:1058C00001D0036802E05506FBD50388D00744BF2A
:1058D00042F0200222601BB9226822F020022260DE
:1058E0001022B1E77546B3FBF2F002FB1033CB5C3C
:1058F00005F8013D03460028F5D1B7E708681A68A6
:10590000496910F0800F04D0101D186013681960E9
:1059100007E010F0400F02F1040018601368F6D0A1
:105920001980002323617546B1E71A68111D1960BB
:10593000156862680021284600F03AF808B1401B5B
:10594000606063682361002384F843309FE7236924
:105950002A4639463046C0470130A2D023689B070B
:1059600007D5002504F11909E368039A9B1A9D42A3
:1059700005DBE068039B9842B8BF184693E7012314
:105980004A4639463046C04701308AD00135EBE7F8
:10599000002BA7D10B7884F8423004F1420565E76B
:1059A0001270000001700000000000000000000004
:1059B00001F0FF01102A2BDB10F0070F08D010F8C0
:1059C000013B013A8B422DD010F0070F42B3F6D1C4
:1059D000F0B441EA012141EA014122F007047FF0DD
:1059E00000070023F0E80256083C85EA010586EA34
:1059F000010685FA47F5A3FA87F586FA47F6A5FA70
:105A000087F68EB9EED1F0BC01F0FF0102F007027B
:105A100032B110F8013B013A83EA010313B1F8D126
:105A20000020704701387047002D06BF3546033807
:105A3000073815F0010F07D1013015F4807F02BF40
:105A4000013015F4C03F0130F0BC0138704700BF91
:105A5000F8B5074614460E4621B91146BDE8F84090
:105A6000FFF706BC22B9FFF7B5FB25462846F8BD6F
:105A700000F014F884420FD921463846FFF7F8FBAE
:105A800005460028F2D031462246FFF775FB314625
:105A90003846FFF79FFBE9E73546E7E751F8040C86
:105AA0000028A0F10400BCBF0B58C01870470000CC
:105AB0002A2A2A2A2A2A2A2A2A2A2A2A2A2A2A2A46
:105AC0002A2A2A2A2A2A2A2A2A2A2A2A2A2A2A2A36
:105AD0002A2A2A2A2A2A2A2A2A2A2A2A2A2A2A2A26
