:10000000903F0120492D0000C12D0000C12D0000AE
:10001000C12D0000C12D0000C12D00000000000016
:10002000000000000000000000000000E13F0000B0
:10003000C12D00000000000071400000D54000000C
:10004000C12D0000C12D0000C12D0000C12D0000F8
:10005000C12D0000C12D0000C12D0000C12D0000E8
:10006000C12D0000C12D0000C12D0000C12D0000D8
:10007000C12D0000C12D0000C12D0000C12D0000C8
:10008000C12D0000C12D0000C12D0000C12D0000B8
:10009000C12D0000C12D0000C12D0000C12D0000A8
:1000A000C12D0000C12D0000C12D0000C12D000098
:1000B000C12D000001370000D536000011360000C8
:1000C00019360000213600002936000031360000C4
:1000D000C12D0000C12D0000C12D0000C12D000068
:1000E000C12D0000C12D0000C12D0000C12D000058
:1000F00000000000CD370000C12D0000C12D000020
:10010000C12D0000C12D0000C12D0000C12D000037
:10011000C12D0000C12D0000C12D0000C12D000027
:10012000C12D0000C12D00006521000071210000DB
:100130007D210000C12D0000C12D0000C12D000057
:10014000C12D0000C12D0000C12D0000C12D0000F7
:10015000092C0000C12D000000000000000000007C
:10016000000000000000000000000000000000008F
:10017000000000000000000000000000000000007F
:10018000C12D0000C12D0000C12D0000C12D0000B7
:1001900000000000A13A0000C12D0000C12D0000A8
:1001A000C12D0000C12D0000C12D0000C12D000097
:1001B000B13A0000C12D0000C12D0000C12D00008A
:1001C000C12D0000C13A0000C12D0000C12D00006A
:1001D000C12D0000D13A0000C12D0000C12D00004A
:1001E000E13A0000C12D0000C12D0000313B0000AC
:1001F000413B0000513B0000613B0000713B0000AF
:10020000813B00000000000000000000C12D000044
:10021000C12D0000C12D0000F505000005060000FD
:10022000C12D0000C12D0000C12D0000C12D000016
:10023000C12D0000C12D0000C12D0000C12D000006
:10024000C12D0000C12D0000C12D0000C12D0000F6
:10025000C12D0000C12D0000C12D0000C12D0000E6
:100260000000000010B5054C237833B9044B13B1DE
:100270000448AFF300800123237010BD70020020FA
:1002800000000000308900000C4B43B10C480D49C0
:1002900010B5AFF300800C48036823B910BD0A48BD
:1002A000036833B97047094B002BF7D0BDE8104005
:1002B0001847064B002BF5D0184700BF0000000080
:1002C0003089000074020020308900000000000026
:1002D00070B5104D104B114C88B01E2230210646CF
:1002E000684698472846A0470D48A0472846A0479B
:1002F0000C48A04732460C490C4B68469847684664
:100300000B4B98470B4B81B2684698470A4B98476E
:1003100008B070BDAE6600003F5C0000092B000015
:10032000E96600008584000024670000C95D0000C4
:100330003F5E0000C52A0000F92C000070B5064D94
:10034000064C2846A0470648A0472846A047054B2C
:10035000BDE87040184700BFAE660000092B0000E2
:1003600037670000F92C00002F4B30494FF48052C2
:100370004FF040409A60996298625A6093F84C102E
:1003800041F0040183F84C105A6193F84C2002F0BC
:10039000FE0283F84C204FF040214FF48042C3F816
:1003A0008820C3F8A810C3F8A800C3F8842093F8E5
:1003B000CE1041F0040183F8CE10C3F8942093F8D6
:1003C000CE2002F0FE0283F8CE204FF080414FF4A1
:1003D00080029A609962164999625A6093F85610A1
:1003E00041F0040183F856105A6193F8562002F048
:1003F000FE0283F856204FF40042C3F884200D4AD1
:10040000C3F8A820A2F18022C3F8A82093F8CF2037
:1004100002F0FB0283F8CF2093F8CF2002F0FE0217
:1004200083F8CF20704700BF0080004100100040DB
:10043000400000C000800240054B4FF48042C3F8EA
:1004400098204FF480525A614FF480025A617047ED
:1004500000800041054B4FF480529A614FF4804276
:10046000C3F894204FF480025A6170470080004125
:1004700000F01F034009C00100F1824000F5004078
:1004800001229A400344426093F8401041F0040175
:1004900083F840108261704700F01F020123400979
:1004A0009340C0019AB200F1824000F5004042F052
:1004B000804242F4003243608262024A42EA1343BD
:1004C00083627047000002C070B52D20294C2A4E6F
:1004D0002A4DB0472D20A84794F8CD3003F0FE03F5
:1004E00084F8CD302C20B0472C20A84794F8CC308D
:1004F00003F0FE0384F8CC302B20B0472B20A84714
:1005000094F8CB3003F0FE0384F8CB302A20B047B8
:100510002A20A84794F8CA3003F0FE0384F8CA30B2
:100520000B20B0470B20A84794F84B3003F0FE0394
:1005300084F84B300A20B0470A20A84794F84A3084
:1005400003F0FE0384F84A300920B0470920A84789
:1005500094F8493003F0FE0384F849300820B0478E
:100560000820A84794F8483003F0FE0384F8483088
:1005700070BD00BF008000419904000071040000BC
:10058000004B1847052F00002DE9F743144DDFF805
:10059000609002AE0023044626F8043D0F460B800F
:1005A0000146104B2846904698472346214619227B
:1005B0002846C84732464346214628460A4EB04799
:1005C00021460646094B284698479DF805209DF888
:1005D0000430304643EA02233B8003B0BDE8F08399
:1005E000643E002085300000A530000095300000FA
:1005F000113100000148024B184700BF726700002C
:10060000092B00000148024B184700BF8467000017
:10061000092B000010B5034B03489847034BBDE876
:1006200010401847092B000096670000F92C0000C5
:1006300008B502220349044B9847B0FA80F04009FC
:1006400008BD00BF0D7E0000D75B00002DE9FF470D
:10065000A24B009301220023A149A248A24CA0472B
:100660000546002800F0FD83A04B98470024024671
:1006700000942846234601219D4DA847012840F0BB
:10068000F0839C4B5C709C70DC701C7118709A4FEE
:10069000984C0EE0012363700023A370E370237075
:1006A0002371964B9847964B98474FF41670954B8D
:1006B0009847B8470428FCD12378002BF9D16378F8
:1006C000072BF0D801A252F823F000BF95060000D6
:1006D000ED060000B9070000570800007B0A000083
:1006E0001B0B00002B0D0000B30D0000A378002BA6
:1006F0003DD1DFF84C82834E41F27070B047D8F89C
:100700000000814B9847054678BBDFF840A27F4B3D
:100710000146DAF800009847012822D105238DF818
:1007200008301E238DF80930D8F80000DFF8209239
:1007300003952B464FF4FA7202A9C8470128804658
:1007400008D12B462A462946DAF80000C84784F823
:10075000028002E06E486F4B98474FF4FA70B04742
:10076000A1E76D486B4B98479DE76C48FAE7012B72
:1007700099D16B4B6B4918686B4B4FF47A62984771
:10078000012890D1237A634D684E1E2B40F064837C
:10079000E068674B98478046002800F05983654819
:1007A000A847654B6189E06898476448A8470023DB
:1007B000A370022363702AE1A37823BB604E524BDF
:1007C0003068984705460028CFD1DFF880A14F4B0D
:1007D0000146DAF8000098470128C2D105238DF8B8
:1007E000083020238DF809303068DFF864910395D4
:1007F0002B464FF4FA7202A9C84701288046414EA1
:100800009FD05048A7E7012B7FF44DAF444B45499B
:100810001868454B4FF47A62984701287FF443AF3C
:10082000237A3C4D414E202B40F01683E068404B2C
:1008300098478046002800F00B834348A8473E4B6A
:100840006189E06898473D48A8470023A3700322C8
:100850006270E370DBE094F803802A4EB8F1000F79
:1008600078D0B8F1010F7FF41EAFA378002B40F0D1
:10087000DE80DFF8CC80244BD8F80000984705468E
:1008800000287FF472AFDFF8C4A0204B0146DAF8ED
:100890000000984701287FF464AF05238DF80830E5
:1008A00022238DF80930D8F80000DFF8A4900395D2
:1008B0002B464FF4FA7202A9C8470128804640F03F
:1008C000B4802B462A462946DAF80000C84703239D
:1008D00084F80280637084F803803EE71506000008
:1008E000005C2605D96700005D580000A54F000098
:1008F000B15800008C0200201D2500008922000054
:10090000D92C000089510000394C0000854A0000B4
:10091000F4670000092B0000226800004B6800000B
:100920008435002094020020194900006143000032
:100930003106000067680000C52A000085840000B9
:1009400078350020F7680000306900008C35002001
:100950005D460000A378A3BBDFF8CC82A24BD8F899
:1009600000009847054600287FF4FFAEDFF8F4A2A8
:100970009E4B0146DAF80000984701287FF4F1AE5B
:1009800005238DF8083021238DF80930D8F80000B0
:10099000DFF8D49203952B464FF4FA7202A9C847A8
:1009A000012880460BD12B462A462946DAF800005A
:1009B000C847032384F802806370E570CDE68C4855
:1009C000C9E6012B7FF46FAE8A4B8B4918688B4BBD
:1009D0004FF47A629847012882467FF464AE237A06
:1009E000874D884E212B1BD1E068874B9847814665
:1009F00078B18648A847864B6189E0689847854862
:100A0000A847032384F80280637084F803A0E06899
:100A1000A5E68148A8477F48A84784F80290F6E7F2
:100A20007E48A84784F80280F1E77D4893E6012BD1
:100A30007FF439AE6F4B70491868704B4FF47A628F
:100A4000984701287FF42FAE237A6D4D6D4E222BEF
:100A500040F00282E0686C4B98478046002800F026
:100A6000F7817048A8476A4B6189E06898476948F0
:100A7000A8470023A3700422EAE6A3783BBB6A4E92
:100A8000594B30689847054600287FF46EAEDFF872
:100A9000D4A1564B0146DAF80000984701287FF4AC
:100AA00060AE05238DF808301F238DF809303068BB
:100AB000DFF8B49103952B464FF4FA7202A9C847A8
:100AC00001288046594E3FF43CAE594843E6012B7D
:100AD0007FF4E9AD474B48491868484B4FF47A62B8
:100AE000984701287FF4DFAD237A454D454E1F2BF3
:100AF00040F0B281E068444B98478046002800F0FF
:100B0000A7814C48A847E0686189414B9847414814
:100B1000A8470023A37005234CE60023464DADF8FB
:100B20000830A8470B28FCD9A8470C2841D9A8476A
:100B3000A0F10C063046414B9847054600283FF48B
:100B4000B2ADB1B23E4B9847002835D009222946B4
:100B50003C483D4B984778BB6B7A0C2B1ABF8DF8FD
:100B60000830AB7A8DF808008DF8093002A8374BB1
:100B70009847C6B22846234B9847642E3FF493AD5E
:100B8000DFF8E880122E25D8DFE816F018001B00E9
:100B90001D0027002C002400720074007C00A800B7
:100BA000AA002400AC002400B100B300C10024005E
:100BB000CD00A8470646BDE76426DBE72448104B76
:100BC0008AE02448FBE70E4B2348984706236370CE
:100BD0000023A37088F8006065E5094B1F4898471B
:100BE0000723F4E71E48EAE7394C0000854A000075
:100BF0005769000084350020940200201949000044
:100C0000092B00006143000031060000A7690000C5
:100C1000C52A00008584000098680000C0680000B4
:100C2000DD690000316A000078350020895100003C
:100C30006B6A0000A26A0000992200009542000041
:100C400041220000D56A00004F5E00005D5B00009D
:100C5000DF6A00000A6B00003D6B0000716B000052
:100C6000A96B00008C3500205D46000000000020CC
:100C70007F48A4E77F48804DA8478048A8470423C1
:100C80006370A7E77C4D7E48A84798F80030062B94
:100C90002B460AD02278F2B97A4B984701237A483A
:100CA0002370A8477948A84794E794F80090B9F1D1
:100CB000000F10D1227972B1724B98477448A8473F
:100CC0007448A8477448A847012384F80490237007
:100CD000724B98477EE7724898477BE771486EE70A
:100CE00071486CE77148644DA8477148DBE771486B
:100CF00065E7644B604D98476F48A8476548A8472B
:100D00006E48A8470123237000232371E0E75D4B61
:100D1000594D98475E48A8475E48A8475E48A8478F
:100D200001232370F1E7664849E7A3783BBB654E92
:100D3000654B30689847054600287FF416ADDFF80C
:100D4000CCA1624B0146DAF80000984701287FF4F5
:100D500008AD05238DF8083023238DF8093030685D
:100D6000DFF8AC9103952B464FF4FA7202A9C847FD
:100D700001288046564E3FF4E4AC5648EBE4012B84
:100D80007FF491AC544B55491868554B4FF47A6237
:100D9000984701287FF487AC237A374D514E232B97
:100DA0005AD1E068504B98478046002850D04F48B1
:100DB000A8E6A3783BBB434E434B306898470546B3
:100DC00000287FF4D2ACDFF844A1404B0146DAF8AA
:100DD0000000984701287FF4C4AC05238DF8083043
:100DE00024238DF809303068DFF8249103952B46D1
:100DF0004FF4FA7202A9C84701288046344E3FF4E6
:100E0000A0AC3B48A7E4012B7FF44DAC324B3349F7
:100E10001868334B4FF47A629847012881467FF473
:100E200042AC237A144D2F4E242B15D1E0682E4B63
:100E30009847804660B12F48A84761892E4BE068EB
:100E400098471448A8472D48A84784F8049060E6BE
:100E50002B48A8470F48E4E52A48A8470023A37079
:100E6000D5E5054B284898470C4B98470FE400BF41
:100E7000DE6B0000146C0000092B00005E6C0000AB
:100E8000A76C000089220000D66C0000FF6C0000F7
:100E90004A6D000085840000816D0000F92C00007F
:100EA000C96D00000C6E0000396E00006E6E00000F
:100EB000A46E0000E16E0000086F00002E6F0000BD
:100EC0007D6F000078350020394C0000854A000015
:100ED00089510000C86F0000843500209402002072
:100EE0001949000061430000310600000070000055
:100EF000637000009A700000C52A000001710000B4
:100F000098680000C0680000317100008C35002036
:100F10005D460000014B1878704700BF8C0200202E
:100F2000F7B5324E37780025012FADF80250344620
:100F30000ED003D3022F3AD003B0F0BD2C4B4FF4A8
:100F4000FA7118682B4B98470128F5D13070F3E7F8
:100F5000737C06EB430301A85E78274B984773091F
:100F60002649DB01CA18C958136A15695D400D404E
:100F70005D4001A8224B06F01F06984707FA06F2CB
:100F8000617C2A4201F101010DD11E4B1E48984798
:100F9000637C0133DBB26374072BCDD9022323704A
:100FA00000236374C8E7C9B261740729F5E7737C4D
:100FB000072B0ED806EB43033A469878134B0DF1F6
:100FC00002019847B37C53B9BDF80230B3820123C4
:100FD000B374637C072BAFD900232370E1E7737CE4
:100FE000B574013335757374F3E700BF9C020020BC
:100FF00088350020854A0000213100000080004132
:101000002F310000992B0000687100008905000055
:1010100038B5164B164D174C9847174B9847174B3A
:101020009847174B0B225A7204229A720A22DA72DC
:1010300005222A211A732B225A71D9710222032107
:101040009A71197208222C21DA73D97007220121B2
:101050001A7419712D2209215A7059730022062120
:101060009A7099731A70A847A047FCE7A54F000033
:10107000210F0000D92C0000C904000081050000E8
:101080009C020020054B30B5142404FB00340D46AF
:101090000FCC0FC523682B6030BD00BF80710000EE
:1010A0000378313B082B0AD8DFE803F0050A0D105E
:1010B0001316191C1F000E4B3122DA735A77704732
:1010C0000B4B3222F9E70A4B3322F6E7084B342266
:1010D000F3E7074B3522F0E7054B3622EDE7044BEB
:1010E0003722EAE7024B3822E7E7014B3922E4E7EF
:1010F0000100002010B5064C0649074B20460F2280
:10110000984720460549064BBDE81040184700BFE8
:10111000B202002012000020735E00003076000052
:10112000115E000030B585B001AB00210B4D596058
:101130000191C3F8071073306A184478947510F859
:10114000012F5A5401310B29F6D11846044B984708
:101150000448054B984705B030BD00BF2100002072
:10116000C52A000085840000092B00002DE9F0410C
:1011700086B001A9294B2A4D9847BDF814009DF867
:101180000C70A8478046002843D0BDF81410254BAA
:1011900098470646002839D09DF80C200298224B2B
:1011A00041469847044678BBBDF80E000130A84779
:1011B0000546E0B10237204658FA87F7BDF80E30F1
:1011C000421CC0B298420ED300232B54BDF80E200F
:1011D0009DF80400049B013292B229469847134BB4
:1011E0002846984707E03B5C2B541046E6E710483A
:1011F000104B9847002640460C4B98470E4B98479B
:10120000304606B0BDE8F0810C48F1E70C48094BC8
:10121000E7E70C48074B98474646EFE78510000084
:1012200095420000412200004F5E00006143000033
:1012300076780000092B000089220000AA780000BF
:10124000E67800002A790000014B1870704700BF53
:1012500044000020014B1870704700BFEE020020D0
:10126000014B1878704700BFEE02002001380928B2
:1012700007D8DFE800F005080A0C0E101214161843
:101280000A23184670470B23FBE70C23F9E70D23CD
:10129000F7E70E23F5E70F23F3E71023F1E7112318
:1012A000EFE71223EDE71323EBE7000008B5022276
:1012B0000349044B9847B0FA80F0400908BD00BFCD
:1012C0000D7E0000D75B0000024B00221A705A709E
:1012D0009A707047F0020020074B0022DA701A71F2
:1012E0005A719A71DA711A73DA811A610521302202
:1012F00019721A75014B1847F0020020C91200003C
:1013000010B50548054CA0470548A047054B984730
:10131000054BBDE81040184761790000092B00001B
:101320008779000029250000D91200002DE9F74334
:10133000984C994EB0472379092B4CD8DFE813F02D
:101340000A007400C8006001BD010D025102CC0208
:10135000120378036379002B40D1257A002D32D017
:101360008E4E8F4B30689847054650BBDFF88C8215
:101370008C4B0146D8F80000984701281DD18DF804
:101380000000894B207A894F98472B468DF8010041
:101390004FF4FA72306801956946B847012806464D
:1013A00007D12B462A462946D8F80000B84766716F
:1013B00064E07F487F4B984760E07F487D4B9847CB
:1013C00009E07E48FAE77E487A4EB0477D48B0474C
:1013D00001232371657103B0BDE8F083012BFAD1BD
:1013E000794B7A4918687A4B4FF47A62984701280A
:1013F0000646F0D1217A6C4B257B084698478542FA
:10140000744D0DD121B1013921720023637104E0C3
:101410007148684B2671617198472069A847DAE7DF
:101420006E48644B9847F0E763795BBB5B4E5C4B5F
:101430003068984705460028C3D1DFF8C081594B72
:101440000146D8F8000098470128B6D11A238DF834
:1014500000008DF801303068544F01952B464FF451
:10146000FA726946B84701280646A2D12B462A4699
:101470002946D8F80000B847667126714FF4FA7013
:10148000574B9CE7012BA6D14F4B50491868504B46
:101490004FF47A62984701289DD1237B454D4D4EEC
:1014A0001A2B40F05C8220694E4B98470746002873
:1014B00000F0FB804C48A8474C4BE18920699847D5
:1014C0004048A8470023637102232371206931E05B
:1014D0006379002B34D1314E314B30689847054643
:1014E00000287FF46EAFDFF814912E4B0146D9F837
:1014F0000000984701287FF460AF1B238DF800009F
:101500008DF801303068DFF8A48001952B464FF448
:10151000FA726946C04701280746314E0CD12B4666
:101520002A462946D9F80000C04767710223237173
:101530004FF4FA70B0474EE72D481E4B9847F7E737
:10154000012B7FF448AF204B20491868204B4FF403
:101550007A62984701287FF43EAF237B154D1D4EDC
:101560001B2B40F0FC8120691E4B98470746002842
:1015700000F09B801F48A8471C4BE18920699847D1
:101580001048A8471C48A8470E48A8470023637185
:1015900003239AE7F002002055040000783500206C
:1015A000394C0000854A00006D1200005D460000C5
:1015B000CA790000092B0000226800004B68000077
:1015C000FE7900008584000054350020FC020020D4
:1015D0001949000061430000227A0000C66800003B
:1015E00089510000AD120000407A0000C52A0000B9
:1015F000607A0000907A0000A47A00008C35002008
:10160000637973BB9A4E9B4B306898470546002818
:101610007FF4D7AEDFF8BC92974B0146D9F80000B3
:10162000984701287FF4C9AE1D238DF800008DF87E
:1016300001303068DFF8988201952B464FF4FA723A
:101640006946C047012807468C4E08D12B462A46DA
:101650002946D9F80000C0476771032367E7884827
:101660006BE7012B7FF4B7AE864B87491868874B31
:101670004FF47A62984701287FF4ADAE237B844D06
:10168000844E1D2B40F06B812069834B98470746A1
:1016900058B18248A847824BE18920699847814820
:1016A000A8470023637104230FE77F48A8477D48BC
:1016B000A8477E4B6771984708E763796BBB6C4E10
:1016C0006C4B30689847054600287FF47AAEDFF807
:1016D0000492694B0146D9F80000984701287FF42D
:1016E0006CAE14238DF800008DF801303068DFF8FF
:1016F000E08101952B464FF4FA726946C0470128F4
:1017000007465E4E07D12B462A462946D9F80000E7
:10171000C04767710CE766480FE7012B7FF45BAEAB
:10172000584B59491868594B4FF47A629847012829
:101730007FF451AE237B564D564E142B40F00F8153
:101740005C48A847564BE189206998475548A84707
:101750000523237100236371B8E663792BBB444EE4
:10176000444B30689847054600287FF42AAEDFF8DE
:101770006491414B0146D9F80000984701287FF455
:101780001CAE1C238DF800008DF801303068DFF8A6
:10179000408101952B464FF4FA726946C0470128F3
:1017A0000746364EAFD04448C7E6012B7FF413AE50
:1017B000344B35491868354B4FF47A629847012805
:1017C0007FF409AE237B334D1C2B314B07D13B48B3
:1017D00098473B4B206998470623237115E6394803
:1017E00020E6637933BB224E224B3068984705468A
:1017F00000287FF4E6ADDFF8DC901F4B0146D9F8F6
:101800000000984701287FF4D8AD15238DF800001B
:101810008DF801303068DFF8B88001952B464FF421
:10182000FA726946C04701280746144E3FF46BAF71
:10183000254882E6012B7FF4CEAD124B1249186881
:10184000124B4FF47A62984701287FF4C4AD237B92
:101850000F4D104E152B40F082801C48A847104BAE
:10186000E189206998470F48A847072371E700BF1F
:1018700078350020394C0000854A0000895100006D
:10188000DA7A000054350020FC02002019490000DB
:10189000092B000061430000AD120000097B00002D
:1018A000C52A0000858400009E6800000113000026
:1018B000267B0000507B0000677B00009A7B0000C5
:1018C00025110000C6680000AF7B0000DA7B000035
:1018D0005D4600008C350020637923BB7E4E7F4B34
:1018E00030689847054600287FF46BADDFF86C82BE
:1018F0007B4B0146D8F80000984701287FF45DAD86
:101900008DF8000016238DF801303068754F019571
:101910002B464FF4FA726946B847012806463FF451
:1019200040AD714846E5012B7FF455AD6F4B7049D2
:101930001868704B4FF47A62984701287FF44BADDA
:10194000237B6D4D6D4E162B09D16D48A8476D4B0D
:10195000E189206998476C48A8470823F9E66B4855
:10196000A847F7E66379ABB95B4E5C4B30689847A4
:10197000054600287FF425ADDFF8E081584B01468D
:10198000D8F80000984701287FF417AD8DF80000C3
:101990000923B8E7012B7FF41EAD544B5449186856
:1019A000544B4FF47A62984701287FF414AD237B9F
:1019B000514D524F092B38D12069E189C37A2375E3
:1019C000504B98475048A847236993F83730303B2D
:1019D000062B07D8DFE803F004141F212325270076
:1019E0004B48A8474B48A8474B48A8474648A847F4
:1019F000002363710723A371B0470223E37064E0FF
:101A00004648A8474648A8473F48A84709232371A6
:101A10000023637159E04348E3E74348E1E7434863
:101A2000DFE74348DDE74348DBE73848A847EFE70F
:101A30006379C3B9284E4048404B98473068274BDC
:101A40009847054600287FF4BCACDFF81081244B92
:101A50000146D8F80000984701287FF4AEAC8DF815
:101A6000000017234FE7012B7FF4B5AC1F4B204933
:101A70001868204B4FF47A62984701287FF4ABAC8A
:101A8000237B1D4E1D4F172B22D1E1891D4B206951
:101A900098471D48B047072229492069294B984794
:101AA00005460028B4D11021274B28489847284BD9
:101AB00098470223E370274B2571657198471248B8
:101AC000A571B0476420244B98472069B84782E449
:101AD0000E48B0479CE700BF78350020394C000025
:101AE000854A00005D460000F27B0000543500206E
:101AF000FC02002019490000092B0000614300008E
:101B0000217C0000C52A000085840000C668000012
:101B10003E7C0000957D0000B07D00006E7C0000E2
:101B20008C7C0000BC7C0000E27C0000087D000092
:101B3000337D00006C7D000004030020A110000034
:101B4000DA7C0000D75B000019220000C877000093
:101B50008922000039040000895100008C350020E2
:101B60002DE9F0439A4DEB78012B85B02C4612D02D
:101B700004D3022B12D005B0BDE8F083954B9847F3
:101B80000028F8D00123EB70934800232B716B7170
:101B9000924B9847EFE7924B9847ECE7AB790A2BCB
:101BA000E9D801A252F823F0D51B0000E31B000086
:101BB000F31B0000091C0000111C00001D1C00008C
:101BC000871C0000EB1C0000751D0000771B000047
:101BD000891D0000834B9847834B98470123A371CD
:101BE000C9E7804B9847814B98470028C3D0022310
:101BF000F5E77C4B7E4D98477E4800231A461946F0
:101C00000068A8470323EAE7764B98470423E6E7F2
:101C1000744B9847784B98470523E0E7774E714B14
:101C200098473068764B98470546002840F0578122
:101C3000DFF83082734B0146D8F80000984701283E
:101C40001FD118238DF808008DF809303068684FCF
:101C500003952B464FF4FA7202A9B84701286A4E41
:101C60000BD12B462A462946D8F80000B847062350
:101C7000A37140F6C410B0477DE76448574B9847BE
:101C8000F7E7634884E7574B5F4D9847614B6249DC
:101C90001868624B41F288329847012806461FD1E6
:101CA000227BDFF8C491182A16D1B4F80E80B8F15F
:101CB000170F07D927695A495A4B384698470028C1
:101CC00000F0C5810723A371574B98472069C84787
:101CD0004FF47A70A8474EE75448404B9847F1E7D5
:101CE0000723A371504B9847F2E72A783B4D0B2A04
:101CF00000F2B8816378012B21D80133DBB20132C5
:101D0000012B227063704FF00A024FF0000306D1DE
:101D1000A2710522E371227263714548DAE7A2716C
:101D20004448E371052263712272A8474248A847DC
:101D3000424B98471FE76378012B40F29681404859
:101D4000A8474048A8474048A847404B1E68404B1A
:101D50009847002302460093304601213D4EB0478C
:101D6000012803D13C48A847082338E73B48A84747
:101D70003B4BDEE7AB78002B3FF4FDAE0A23AB71A3
:101D800000236B70AB70F6E6274B9847EB79012B7D
:101D900000F0D6806AD3022B7FF4EDAE6B79002B76
:101DA00040F01B81154E164B3068984705460028B9
:101DB00040F09580DFF8AC80124B0146D8F8000067
:101DC000984701287FF45DAF8DF808001B23CDE014
:101DD000F0020020E9240000DC7D0000092B000057
:101DE0002D1300003904000089220000E9270000BB
:101DF0005D46000088350020F51000007835002091
:101E0000394C0000854A000089510000F27B000037
:101E10002268000054350020FC020020194900000F
:101E2000F77D0000D75B000055040000C668000085
:101E3000107E0000537E0000AA7E000029250000CD
:101E4000D27E0000F07E0000187F00009435002054
:101E5000A54F0000B1580000547F0000867F0000AD
:101E6000F92C00008C350020614300006B79002BB9
:101E70003ED12B7A002B34D07F4E804B3068984770
:101E8000054660BBDFF864827D4B0146D8F8000050
:101E9000984701287FF4F5AE8DF80800794B207A39
:101EA00098478DF809003068774F03952B464FF41B
:101EB000FA7202A9B8470128064609D12B462A46DC
:101EC0002946D8F80000B8470A236671A37102E0DA
:101ED0006E486F4B98474FF4FA706E4B59E66E4858
:101EE00056E66B4B6D4898470123EB710A2376E663
:101EF000012B7FF440AE6A4B6A4918686A4B4FF475
:101F00007A629847012806467FF435AE217A5D4B08
:101F10002D7B084698478542644D0DD121B101398A
:101F200021720023637105E00A23A3716048584BB6
:101F3000E67198472069CDE65E48554B9847F0E733
:101F40006B79B3B94C4E4D4B306898470546002825
:101F5000C5D1DFF898814A4B0146D8F80000984770
:101F600001287FF48EAE8DF808001A238DF8093011
:101F700099E7012B7FF4FFAD494B4A4918684A4B5A
:101F80004FF47A62984701287FF4F5AD2B7B474EDA
:101F90003F4D1A2B1CD12069474B9847074670B11B
:101FA0004648A847464BE189206998474548A847D5
:101FB0000223E371002363710A23A37106E0424800
:101FC000A8474048A847414B67719847206952E6A7
:101FD0003848A84700236371F8E7012B7FF4CBADA5
:101FE0002F4B30491868304B4FF47A6298470128DC
:101FF0007FF4C1AD2B7B2D4E254D1B2B24D12069A9
:102000002D4B98470746B0B13148A847E189206970
:102010002B4B98472B48A8470023E3716371A371AA
:10202000E37023712B4805232372A8472A48A84749
:102030002A48A847CAE72448A8472248A847206951
:102040006771B047214BA7E51A48A847B2E7414658
:1020500038461B4B98471B480D4B9847204B9847D9
:10206000A67133E60C2A3FF466AE1E48A8471E4808
:10207000A8470923B3E500BF78350020394C00009C
:10208000854A00006D1200005D460000CA7900001C
:10209000092B0000895100004B680000FE79000008
:1020A00054350020FC020020194900006143000063
:1020B000227A0000C6680000AD120000407A0000DD
:1020C000C52A0000858400009E68000001130000FE
:1020D000907A0000518000006C800000A080000019
:1020E000DD270000D87F0000118000008C35002023
:1020F00008B50348034B9847034B01229A7008BD6B
:10210000F1800000092B0000F002002008B50C4906
:102110000C480D4B984788B94FF400620B490C48A6
:102120000C4B984750B90122114606480A4B984774
:102130000A4B044898470A4B93F83C3308BD00BF4C
:102140000040014148000020793900009A35002004
:102150009C3D0020713100000F3A0000D139000091
:1021600000E100E0014B01221A7670470040014176
:10217000014B02221A7670470040014130B51A4DDA
:102180001A4C89B02846A0470028FBD0184B1648A7
:102190009847184B014618489847184B9847C4B2BF
:1021A00004B303A92046164B9847164B124898478C
:1021B000BDF81C30984215D302AB1348009321465A
:1021C000002303220068114CA047029B3BB1104B37
:1021D0004FF080521A60BFF34F8FBFF36F8F002014
:1021E0000C4B984709B030BD48000020053A00006C
:1021F000F3390000AB3100009C3D0020611200006B
:1022000085100000D1310000703500208556000097
:1022100004ED00E05512000070B5064C064B0E466A
:10222000054620469847324629462046034BBDE8DE
:102230007040184748000020D13900003D2A0000B6
:10224000F7B50C4B04460C480D469847A8420AD3F4
:1022500001A80A4B084E0A4F98472544AC4204D1C6
:1022600001A8084B984703B0F0BD21463046B84757
:102270000134F3E7D13100009C3D00202131000002
:10228000893100002F3100000148024B184700BF80
:102290009C3D0020D93100000148024B184700BF87
:1022A0009C3D0020D13100002DE9F74F4F4E504D9D
:1022B000504FDFF868A1DFF868813346002403F847
:1022C000014BA6F8014010229C702146301D2C7055
:1022D000B8470F22214606F11400B847C6F823403C
:1022E000454CD0470428FCD1A0470028F9D0D8F8A5
:1022F0000000424B424E98470146002831D1414FE1
:10230000414B3868984701282BD12B783F4C032B41
:1023100065D8DFE803F0022C3F4704238DF8003036
:102320004FF0000901238DF8013064224B466946C5
:10233000D8F80000CDF80490A047834601280AD1C0
:102340004B464A4649463868A04740F2DC50B04701
:1023500085F800B005E02E482E4B984740F2DC503F
:10236000B0472D4B98474FF41670B047B8E7042399
:102370004FF0020B8DF800308DF801B04FF00009DE
:102380004B4664226946D8F80000CDF80490A04777
:102390000128D4E74FF0040B07238DF800B08DF827
:1023A0000130EBE704238DF800304FF000090323E0
:1023B0008DF8013064224B466946D8F80000CDF80C
:1023C0000490A0470128C6D14B464A464946386882
:1023D000A04740F2DC50B04764232B70C1E70023D4
:1023E0001A4619463868A047BBE700BF050300201E
:1023F000AC3D00203F5C0000150F0000394C000090
:10240000895100008C350020854A00005D4600009F
:1024100039810000092B0000D92C00001D25000087
:10242000783500200B78013B70B5062B1BD8DFE810
:1024300003F01D32191A1A1A0400214C00254A888B
:10244000EBB2073A934205F1010533DD01251D4842
:102450001D4E2570B0470F211C481D4B98471D4845
:10246000B047257070BD0023012BFBD2144B0288AE
:10247000A3F801205D1C8378AB701748124CA0476D
:102480001648A04703212846114B98472346114878
:10249000BDE870401847124B00F1100250F8041BC1
:1024A00043F8041B9042F9D10E48074CA047102175
:1024B0000B48E9E7C2182344D2791A75BFE700BF79
:1024C00005030020F1810000092B00001903002002
:1024D000C52A000085840000618100008B81000016
:1024E00009030020D1810000014B1878704700BF1C
:1024F0000503002000F01F024009C00100F18240E6
:1025000000F500400123934083609AB21B0C42F017
:10251000804243F04043826283627047014B1878E7
:10252000704700BF2C030020044B07221A700022C2
:102530005A709A700122DA70704700BF2C03002095
:1025400051490B78062B70B50C467DD0072B48D02F
:10255000002B40F097804B78032B00F29380DFE84C
:1025600003F00229353A494D3020A847484991F8EF
:10257000D0304FF4803603F0FE0381F8D0301320C2
:10258000C1F89460A84791F8533003F0FE0381F836
:1025900053304FF400234B611020A84791F850307E
:1025A00003F0FE0381F8503001234E6163704FF455
:1025B000FA7007E0364B4FF48032C3F898200223BC
:1025C0004B703220334BBDE87040184703234B70EB
:1025D00040F6B830F6E7304B304898470423237074
:1025E00070BD8B7813B1012B1DD070BD284C274DC9
:1025F0003020A84794F8D03003F0FE0384F8D030A0
:102600004FF48033C4F898301320A84794F853301F
:1026100003F0FE0384F853304FF40023A361012339
:102620008B701920CEE7194B13209847184B93F85D
:10263000532002F0FE0283F853204FF400225A6127
:1026400000230B704B70B2E7CB78DBB9104C0F4D09
:102650003020A84794F8D03003F0FE0384F8D0303F
:102660004FF48033C4F894301320A84794F85330C3
:1026700003F0FE0384F853304FF40023A3610123D9
:10268000CB70CEE770BD00BF2C030020F524000006
:102690000080004189510000092B000013820000D6
:1026A000014B01221A7070473003002010B5044816
:1026B000044B9847044B9847044BBDE8104018471B
:1026C0004E820000092B0000C9120000F92C000006
:1026D0002DE9F341294B2A4D98472A4B98472A4B1D
:1026E0002A492B4800241C702A4B009301222346C0
:1026F000A847294B00930122234641F270710746F7
:102700002648A847264B00930646234622462549DD
:102710002548A847254B18604EB347B338B3DFF8B8
:10272000B880234DC0470094024623463846012115
:10273000A847012807461AD1C047009402462346FD
:1027400039463046A847012811D11A4E1A4D1B4C64
:10275000B047A8470428FBD1A0470028F8D0184B61
:102760009847184B98476420174B9847F0E7174B4A
:1027700017489847174B9847E7E700BF29250000FF
:102780005D580000D91200003003002080EE3600B2
:102790008B820000AD260000A1260000A48200006C
:1027A000F1200000C0270900C082000094350020FD
:1027B000B1580000412500001D250000150F000044
:1027C000611B0000D92C000089510000092B00007A
:1027D000DC820000F92C0000A54F0000014B002214
:1027E0001A70704730030020014B1878704700BF03
:1027F000300300202DE9F047384C394B0E46214676
:10280000074615469847002E63D06378012B1BD0EE
:1028100003D3022B3DD0BDE8F0874FF42F72002187
:1028200004F11C002F4B2775E582984731462A4654
:1028300004F11C002C4B984704F1140104F11C0016
:102840002A4BBDE8F0471847DFF8C480284BD8F87A
:10285000000098478146D0B92846264B2775E58267
:102860009847A061002836D02A4631461E4B98472B
:1028700004F114014B466422D8F800001E4CA04716
:10288000012828D01D481E4BBDE8F04718471D48B9
:10289000F9E7DFF88080164BD8F8000098478146AA
:1028A0000028F4D12846134B2775E5829847A0618C
:1028B00088B12A4631460C4B984704F114014B4627
:1028C0006422D8F800000C4CA047012803D00E4821
:1028D000D9E70E48D7E7BDE8F08700BF34030020F2
:1028E000851000003F5C0000F55B0000252400001F
:1028F000394C0000954200005D460000188300003E
:10290000092B00004883000074830000A9830000A5
:102910005435002084350020F0B5104D104E114F75
:1029200087B04FF0FF330DF1030219460020A8478E
:10293000012810D19DF8030001A9B0479DF80400BB
:10294000B84740B9084C0948A0470948A04709487A
:10295000A047094B9847094B9847E2E7E955000023
:10296000851000006D110000092B0000EE830000AF
:102970000C84000085840000F92C0000D92C000094
:102980002DE9F0471E4C1F4D2068DFF8A8901E4E21
:10299000DFF8A4A000231A461946A847A846C8474E
:1029A0000428FCD13068D04720B300212068174BA1
:1029B000984701281ED1164D3068164B64222946CF
:1029C0009847012816D16F78134B05F10801384656
:1029D0009847124B9847297C114BE8689847114B50
:1029E00038469847104B0020984700231A4619464E
:1029F0002068C0470D4B984764200D4B9847CEE7A1
:102A00008C3500205D46000078350020854A0000A6
:102A100010060020194900008510000089220000DE
:102A2000192200005512000049120000D92C0000A4
:102A3000895100001D250000394C00002DE9F047A8
:102A40000F4C06460D461746A1463046A0470028C3
:102A5000FBD0DFF83080DFF830A0013D00246B7838
:102A600004F80830304615F8011FD0473046C847F3
:102A70000028FBD00134BC42F1D32046BDE8F087EA
:102A8000FB3900002C060020ED39000002230376FC
:102A9000704780230376704710B5064C0649074BF4
:102AA00020469847012220461146054BBDE81040BC
:102AB000184700BF6400002000040043793900007B
:102AC0000F3A000070B5064C064B0E4605462046F0
:102AD0009847324629462046034BBDE870401847C8
:102AE00064000020D13900003D2A000010B5044BDD
:102AF00004461621034898470123237610BD00BFE2
:102B0000C52A00004F8400002DE9F041184E194FEE
:102B10008046B0474FF4FA710546174B386898471E
:102B2000012822D1EDB22846144B9847044698B1AB
:102B30002A460021124B134D9847134B414620461D
:102B400098472046B04781B22046A8470F48022147
:102B5000A84720460E4B98470E4C38680023A446E1
:102B60001A461946BDE8F0416047BDE8F08100BF54
:102B70003F5E000080350020854A0000954200003D
:102B80003F5C0000C52A00002F5E00008584000025
:102B9000614300005D46000070B5134C134B9AB0C2
:102BA00006460D4620684FF4FA719847012818D15F
:102BB0006422002101A80E4B984765B12B460D49B0
:102BC0000D4D324601A8A8470C4B01A898470C4B65
:102BD00081B201A89847002320680A4C1A4619467A
:102BE000A0471AB070BD00BF80350020854A0000A4
:102BF0003F5C000070840000C95D00003F5E000083
:102C0000C52A00005D4600000C4B10B504220C4C98
:102C10001A760C48A0470028FBD00B4B0948984770
:102C20000A49002308704B7009480A4B9847052150
:102C30000748094BBDE81040184700BF0004004397
:102C4000053A000064000020F3390000AD3D00208B
:102C5000AF3D00202F5E0000C52A0000044B03EBAF
:102C600080004FF47A714288024B0348184700BF36
:102C700080000020CF3B0000883E002010B50220DD
:102C8000034B98470348044BBDE81040184700BF6A
:102C90005D2C0000883E0020B33C000010B5084BBE
:102CA0009847084B98474FF4FA70074B9847074BE3
:102CB00001221A73064B9847064BBDE8104018478F
:102CC00045300000690300004D3100008000002005
:102CD0007D2C000055040000044B1B7B012B02D10E
:102CE0000348044B18476FF0100070478000002025
:102CF000883E0020EF3C000070B50B4D0B4C284681
:102D0000A0470B48A0472846A0470A4C0A4B00257D
:102D10001D732046094B98472846094B9847204683
:102D2000084BBDE87040184785840000092B00005F
:102D300088840000883E002080000020C73C0000FE
:102D40005D2C0000B33C000008B5144A144B9A42B5
:102D500018D1144B144A002193421CD3134A144B2C
:102D600022F07F029A60D3F8882042F47002C3F800
:102D70008820BFF34F8FBFF36F8F0E4B98470E4BDA
:102D80009847FEE70D49043A8B42E2D252F8040F0D
:102D900043F8040BF8E743F8041BDDE73089000033
:102DA00000000020700200208C3F00200000000086
:102DB00000ED00E0655B0000853D0000680200203A
:102DC00008B50248024B9847FEE700BFD1840000D7
:102DD000092B000030B54A1CC4B2C0F34712164894
:102DE00004F01F0300EBC21007D1184490F84030E4
:102DF00003F0FE0380F8403030BDC5185B0895F83D
:102E0000402002F0FE02184442F0010285F8402002
:102E100090F8303014F0010F19BF03F00F0343EAAC
:102E2000011101F00F0103F0F00314BFC9B21943FF
:102E300080F8301030BD00BF0080004100F01F025C
:102E40004009C00100F1824000F500400123934099
:102E500043609AB21B0C42F0804243F040438262CE
:102E60008362704770B50220154D164CA84716496D
:102E70000220A0470320A84714490320A047282088
:102E8000A84713492820A0472920A84711492920ED
:102E9000A0470420A84710490420A0470520A847C0
:102EA0000E490520A0470620A8470D490620A04747
:102EB0000720A84723460B490720BDE87040184764
:102EC0003D2E0000D52D000001000200010003008E
:102ED0000100280001002900010004000100050094
:102EE0000100060001000700044A136A43F0800352
:102EF0001362034B4122C3F82021704700080040B1
:102F0000001C004010B5054B9847054B0549064885
:102F100000229847054BBDE810401847E92E0000F5
:102F20007D300000001C0043643E0020652E000040
:102F300010B5054C05491120A0472346044912202D
:102F4000BDE81040184700BFD52D00000300110058
:102F500003001200064B4022C3F8E0204A22C3F8C7
:102F60008C20044A936943F480639361704700BFE7
:102F7000001C00400008004010B5044B9847044B6B
:102F80009847044BBDE81040184700BF552F00007C
:102F90000D210000312F000010B5054C0549172008
:102FA000A047234604493720BDE81040184700BF1A
:102FB000D52D00000300170003003700064B402208
:102FC000C3F80C214A22C3F88C20044A136A43F048
:102FD00002031362704700BF001C0040000800405D
:102FE00010B5044B9847044B9847044BBDE810407C
:102FF000184700BFBD2F0000992A0000992F00003C
:103000000148024B184700BF10E000E03D310000CE
:10301000024A536943F480735361704700080040CB
:1030200010B5044B98470448044B0360BDE81040BA
:10303000034B184711300000883E0020002000405C
:10304000913B000010B5074B9847074B9847074B3B
:103050009847074B9847074B9847074BBDE81040E8
:10306000184700BFA534000001300000052F000004
:10307000E12F0000792F000021300000004B18479D
:10308000A133000008B5024B9847002008BD00BFDF
:103090001D34000008B5024B9847002008BD00BF52
:1030A000293400002DE9F84F9846154BDFF8589069
:1030B000DFF858B004460E46174698474FF0000A0E
:1030C00005462046C847314620460E4B9847002803
:1030D000F9D031462046D847012D88BF07EB0A02B8
:1030E0000AEB050307F80A0088BF000A1FFA83FAF3
:1030F00088BF5070D045E4D85046BDE8F88F00BF77
:1031000035340000473400005534000071340000AD
:1031100010B5024CA047002010BD00BF7D34000058
:10312000EFF31083036072B6BFF35F8F7047BFF396
:103130005F8F036883F3108870470000014B1860AD
:10314000014B184738060020413A0000054B10B5E6
:103150001C68054B9847054B01462046BDE81040CA
:10316000184700BF380600209D340000553A000083
:10317000531E1A4001BF43608260C26001600CBFF1
:1031800010466FF00C0070478368C2689A4209D0FD
:10319000426813400268D35C0B708368013383601C
:1031A000002070476FF009007047C3684268134001
:1031B0000268D154C36881684268591A914288BF35
:1031C0009A1A03F1010388BF8260C3600020704730
:1031D000C2688068101A7047C36883600020704717
:1031E000044B1968024609B903491960186802447A
:1031F0001A6070473C060020903F0120002808DB41
:103200004209012300F01F0003FA00F0014B43F8CC
:103210002200704700E100E000280DDB4309012295
:1032200000F01F0002FA00F02033044A42F82300A5
:10323000BFF34F8FBFF36F8F704700BF00E100E017
:10324000002809DB4309012200F01F0002FA00F008
:103250006033024A42F82300704700BF00E100E0FB
:10326000036B0B42FCD1704708B50121034B984713
:1032700003889BB243F00103038008BD6132000064
:1032800008B50321034B984703889BB243F0020320
:10329000038008BD6132000008B50321044B984744
:1032A000038823F002031B041B0C038008BD00BF2E
:1032B000613200000A46074B10B540F6FF7198478F
:1032C000838823F01F031B041B0C02F01F0213430F
:1032D000838010BD613200000A46084B10B540F6ED
:1032E000FF719847838823F4F8531B0412021B0CC8
:1032F00002F4F8521343838010BD00BF6132000016
:1033000000F13D40A0F5E050C0F38720431E584235
:103310005841704770B5194E0C4601210246B0471E
:103320000321B0470588C5F3400525BB144B9847DA
:103330000121B047134B0121D98003211972124991
:10334000162000FB0411C87990704FF4C05098808B
:10335000492098720620D87288899081C889D081C6
:10336000088A1082488A097D5082D17048F2C25280
:103370001A80284670BD6FF0100070BD61320000E9
:1033800069320000001C00431485000000F13D403C
:10339000A0F5E050800A4000763000F0FE00704753
:1033A0002DE9F041174B044608460D469847164B49
:1033B000014628469847064600BB144925606069C7
:1033C000DFF85480124F134D884700B2C047606940
:1033D000884700B2B8476069884700B2A84760696B
:1033E0008847013000B2C04760698847013000B2A9
:1033F000B84760698847013000B2A8473046BDE849
:10340000F08100BF01330000153300008D33000050
:1034100041320000FD310000193200000068014B0C
:10342000184700BF813200000068014B184700BFF9
:10343000993200000368DB88C3F3C103032B0CBF80
:10344000012002207047036893F82E0000F001006D
:1034500070470000026808B540F6FF71034B104644
:103460009847137D43F00203137508BD61320000D5
:103470000368B3F8400080B27047000070B504469E
:1034800015460068034B984729462068024BBDE863
:1034900070401847B5320000D93200004BF6803337
:1034A0005843704710B50D4A0D4C13889BB21380DA
:1034B0000C4B98470C4B98474FF40060A0470B4BC0
:1034C000984740F2FF70A047094A136943F400731C
:1034D0001361BDE81040074B184700BF0040004192
:1034E0003936000009370000C93600002D370000CA
:1034F000000800404935000010B4114B114C198CE4
:1035000001F01F0103EB01130C224A4393F84E1004
:10351000C90704EB020006D5012283F84E20436858
:103520005DF8044B184793F84E10890704D5022123
:1035300083F84E10A358F3E75DF8044B704700BFC3
:1035400000A000414006002030B52E4B1A8822F022
:1035500002021204120C1A805A8822F47C521204BD
:10356000120C5A801A8892B242F001021A801A880C
:1035700012F00102FBD14FF470611980597B22488F
:1035800001F0FE01597300F500715A6158639963A7
:103590001E491346A0F5C0701C0104F1824202F5D9
:1035A00020420D6815640D7982F845504D7982F8F6
:1035B000465004440133CA88A4F88021202B01F12D
:1035C0000801E9D11F22012053099B0003F1604348
:1035D00002F01F0103F5614300FA01F1C3F8801006
:1035E000BFF34F8FBFF36F8F0132242AC3F88011CE
:1035F0001960E9D1034A13889BB243F00203138098
:10360000002030BD00A00041C00700204085000020
:10361000004B1847F9340000004B1847F9340000FC
:10362000004B1847F9340000004B1847F9340000EC
:10363000004B1847F9340000C10742BF1D4B1E4A1A
:103640001A62820742BF1B4B1C4A5A62430742BFA1
:10365000184B194A9A62010742BF164B164ADA62A2
:10366000C20642BF134B144A1A63830642BF114B72
:10367000114A5A63410642BF0E4B0F4A9A63020633
:1036800042BF0C4B0C4ADA63C30542BF094B0A4ADE
:103690001A64810542BF074B074A5A64420542BF7C
:1036A000044B074A9A64030542BF024B054ADA6499
:1036B000704700BF001C0040062B010006230100DC
:1036C000052B0100053B0100014B01225A71704797
:1036D00000080040094B186803691A8AD20704D50C
:1036E00001221A82036843B118471A8A92B222B1A2
:1036F00040F25E221A824368F5E77047C00B002053
:10370000004B1847D5360000074B42F24E029A8212
:1037100001229A75DA75DA690022DA61DA68D2076D
:10372000FCD504221A74704700140040244A136A1E
:1037300023F00F0343F004031362224B00221A7795
:10374000214A9A6293F82C2012F01002FAD183F8E1
:1037500020201C4A134692F82C104907FBD4422122
:10376000117793F82C209207FBD45A6A5A62154BB2
:103770001A4693F82C100807FBD4822183F82010F6
:1037800092F82C305907FBD492F820300D4A13F0F0
:10379000010F10D0136903F41063B3F5106FF9D162
:1037A000074A5368002BFCD1136A23F00F0343F040
:1037B0000603136270471369DB05FCD5F0E700BF11
:1037C000001C0040001000400000010407B50C4A36
:1037D0009378DBB20193019B990707D5094B1B68CE
:1037E00023B15068984703B05DF804FB019BDB07E9
:1037F000F9D5044B5B68002BF5D0014AF1E700BF17
:1038000000000241783F0020002808DB4209012324
:1038100000F01F0003FA00F0014B43F8220070474C
:1038200000E100E000280DDB4309012200F01F0049
:1038300002FA00F02033044A42F82300BFF34F8F0E
:10384000BFF36F8F704700BF00E100E0002809DB85
:103850004309012200F01F0002FA00F06033024A1F
:1038600042F82300704700BF00E100E0C3690B424B
:10387000FCD1704708B50321024B98470068C0F39C
:10388000400008BD6D38000070B50B4D06460FCDE9
:1038900086B06C460FC495E8030084E8030000205E
:1038A0005DF82030B34202D1C0B206B070BD013025
:1038B0000628F5D10020F8E74086000038B5254BF2
:1038C0000446984703283ED004283ED0052814BF5C
:1038D00000220222204601211F4DA84720461F4BEF
:1038E0009847002833D120460121A847236843F098
:1038F0000103236020460121A8471949182303FB2F
:103900000213D8691D6A206065605D6AA56010F4C5
:10391000C04F1BBFA0891D8D1B8D65F30C001FBF01
:10392000A08193F82A00A38960F34F33A381182361
:1039300003FB0212002092F82B30A37392F82C3074
:1039400084F8303038BD0022C4E70122C2E76FF0AE
:10395000100038BD893800006D380000753800004F
:103960004086000008B5034B984780002E3000F0D9
:10397000FE0008BD8938000070B5104B06460846A9
:103980000C4698470546B0B9B46120460C4B9847A1
:103990000230C1B20CB220460A4B984720460A4B6F
:1039A000984701F1604000F56140E02380F8003362
:1039B0002046064B9847284670BD00BFBD38000022
:1039C00065390000253800004D3800000938000036
:1039D000826908B50321044B10469847136843F0E9
:1039E0000203136008BD00BF6D380000836999624F
:1039F00070478369986AC0B270478369187E00F087
:103A0000010070478369187EC0F38000704711F091
:103A1000FD0F09D183690221012012B918751975AA
:103A20007047987599757047012904D183690421FD
:103A3000002AF7D1F3E70329F5D183698021F7E75D
:103A4000034B6FF07F425A6005221A60704700BF37
:103A500010E000E00B0E0C4A30B5D8B26FF07F4496
:103A60000138C0B2FF2808D1A3EB036319445160A9
:103A700091601368DB03FCD530BD54609460156819
:103A8000ED03FCD5ECE700BF10E000E0C268D16AAE
:103A9000C90703D50121D1620368184770470000A8
:103AA000014B1868014B1847C40B00208D3A0000E9
:103AB000014B5868014B1847C40B00208D3A000099
:103AC000014B9868014B1847C40B00208D3A000049
:103AD000014BD868014B1847C40B00208D3A0000F9
:103AE000014B1869014B1847C40B00208D3A0000A8
:103AF000C268917AC90703D50121917203681847FA
:103B0000704770B50569AB7ADA07044604D501231E
:103B1000AB72036803B198476B7A9B0707D5022302
:103B2000AB7263681BB12046BDE87040184770BD9A
:103B3000014B1868014B1847D80B0020033B0000CD
:103B4000014B5868014B1847D80B0020033B00007D
:103B5000014B9868014B1847D80B0020033B00002D
:103B6000014BD868014B1847D80B0020F13A0000F0
:103B7000014B1869014B1847D80B0020F13A00009F
:103B8000014B5869014B1847D80B0020F13A00004F
:103B900003689A6812F00E0FFBD11A78D20913D17C
:103BA0009A6812F00E0FFBD11A7892070CD498681D
:103BB00010F00E00FBD11A7802F0FB021A705A784E
:103BC00002F0F0025A7070476FF010007047D0B5E5
:103BD0000468A36813F00E0FFBD1237803F0FD03F4
:103BE0002370A36813F00E0FFBD1237803F07F033B
:103BF0002370A36813F00E0FFBD12378DB0955D196
:103C0000A36813F00E0FFBD12378C3F34003002BFE
:103C10004CD1A2FB01010E461F4656EA07020DD108
:103C2000B0F57A3F38D014D8B0F5FA4F30D008D874
:103C3000B0F5FA5F25D0B0F57A5F21D06FF00C00B7
:103C4000D0BDB0F57A4F25D0B0F5FA3FF6D10423B8
:103C500017E0B0F5FA1F23D007D8B0F5FA2F1DD022
:103C6000B0F57A2FEAD107230BE0B0F5FA0F19D09F
:103C7000B0F57A0F18D0B0F57A1FDFD1092300E034
:103C80000123627802F0F002134363700020D0BD7C
:103C90000223F6E70323F4E70523F2E70623F0E720
:103CA0000823EEE70A23ECE70B23EAE76FF01000A6
:103CB000D0BD0368986810F00E00FBD11A7842F06E
:103CC00002021A70704703689A6812F00E0FFBD157
:103CD0001A78D20908D1986810F00E00FBD11A7832
:103CE00002F0FD021A7070476FF010007047036811
:103CF000A5221A7300207047F8B50022184C194FFE
:103D0000194E1A4D08210120A047012138600022D8
:103D10000846A0470022306008210120A047002269
:103D2000286008210120A047114B18603B68ABB107
:103D300033689BB12B688BB180B103220021012035
:103D4000A0470C4B0322186000210120A0470A4B1A
:103D500018600A4B01209847094B1860F8BD00BF56
:103D600009460000783500209035002054350020A9
:103D7000843500208C35002088350020094800005B
:103D80008035002083B52D4B2D4D2E4C98470227B2
:103D90002D4B0193962200232C4900972C48A847CD
:103DA00001262C4B20600193962200232A4900967D
:103DB0002A48A8472A4B606001939622002329498C
:103DC00000972948A847294BA06001939622002319
:103DD000274900962748A847274BE0600193962281
:103DE0000023264900962648A847264B20610193C8
:103DF00000960023962224492448A8472368244D8E
:103E0000B34218D1E368B34215D16368B34212D10B
:103E1000A368B3420FD12369B3420CD1B0420AD197
:103E20001C4B984720B11C4B98471C48A847FEE7FD
:103E30001B48A847F9E71B48FBE700BF9D2C000083
:103E4000714D0000F00B00207C350020B88600008A
:103E50001110000058350020C386000081290000A1
:103E600070350020CF86000019290000643500203D
:103E7000DB860000D126000068350020EC860000BB
:103E8000A922000060350020FA8600004D060000DF
:103E9000092B0000F93C0000114F00003D87000095
:103EA000068700002687000000F1080343604FF0FA
:103EB000FF32C36003610023826003607047002308
:103EC0000361704743684B609A688A609A685160E2
:103ED0009960036808610133036070470A68531CE6
:103EE00030B50AD103695A684A6091608B605960A5
:103EF000036808610133036030BD00F108035C68AA
:103F00002568AA42EFD32346F9E74168826803692E
:103F10008A60826851605968884208BF5A600022EE
:103F200002611A68013A1A601868704782B000236B
:103F300001930D4B1B68013308D04FF0800383F3CE
:103F40001188BFF36F8FBFF34F8FFEE74FF08003F1
:103F500083F31188BFF36F8FBFF34F8F019B002B4B
:103F6000FCD002B0704700BF9000002008480068F5
:103F7000006880F308884FF0000080F3148862B670
:103F800061B6BFF34F8FBFF36F8F00DF00BF00003C
:103F900008ED00E0DFF80C00016841F470010160F9
:103FA0007047000088ED00E04FF0807340F8043C5B
:103FB000074B40F80C3C21F001016FF0020340F880
:103FC000081C40F8202C40F8243C4438704700BFBF
:103FD0002D3F000000000000000000000000000075
:103FE000074B19680868B0E8F04F80F30988BFF301
:103FF0006F8F4FF0000080F311887047AFF300809F
:10400000903400204FF0800383F31188BFF36F8F4B
:10401000BFF34F8F0A4A13680133012B13600DD190
:10402000084B1B6813F0FF0F08D04FF0800383F399
:104030001188BFF36F8FBFF34F8FFEE7704700BF4C
:104040009000002004ED00E0084A136843B94FF0E7
:10405000800383F31188BFF36F8FBFF34F8FFEE7A9
:10406000013B13600BB983F3118870479000002067
:10407000EFF30980BFF36F8F154B1A681EF0100F16
:1040800008BF20ED108A20E9F04F10602DE90900EB
:104090004FF0800080F31188BFF34F8FBFF36F8F15
:1040A00001F09EF84FF0000080F3118809BC1968F8
:1040B0000868B0E8F04F1EF0100F08BFB0EC108A8F
:1040C00080F30988BFF36F8F704700BFAFF30080A4
:1040D0009034002008B54FF0800383F31188BFF3BC
:1040E0006F8FBFF34F8F054B984718B1044B4FF0BC
:1040F00080521A60002383F3118808BDB14F00007D
:1041000004ED00E0054B064900221A600A60054AEA
:104110004BF67F31116007221A60704710E000E013
:1041200018E000E014E000E0384B394A13B5196894
:10413000914208D14FF0800383F31188BFF36F8F52
:10414000BFF34F8FFEE71A68324B9A4208D14FF007
:10415000800383F31188BFF36F8FBFF34F8FFEE7A8
:104160002D4B1A78D2B20192FF221A701B78DBB263
:104170008DF803309DF80320284B02F080021A705E
:1041800007225A6000219DF80300000602F1FF3467
:104190000DD401B15A605A68042A11D04FF080033F
:1041A00083F31188BFF36F8FBFF34F8FFEE79DF846
:1041B00003205200D2B28DF8032001212246E2E70B
:1041C000120202F4E0625A60019B134ADBB21370E0
:1041D000134B1A6842F460021A601A6842F0604297
:1041E0001A60104B9847104B00241C600F4B9847E7
:1041F0000F4A136843F0404313600E4B98470E4B31
:1042000098470E4B9847204602B010BD00ED00E0E5
:1042100071C20F4170C20F4100E400E0040C0020A5
:1042200020ED00E00541000090000020953F0000D7
:1042300034EF00E06D3F0000E15100002D3F000031
:10424000EFF305830F2B104A0DD910495B5C1178F1
:10425000994208D94FF0800383F31188BFF36F8F21
:10426000BFF34F8FFEE70A4B52681B6803F4E0630D
:10427000934208D94FF0800383F31188BFF36F8F07
:10428000BFF34F8FFEE77047040C0020F0E300E01F
:104290000CED00E070B52B4B044698472A4B98680C
:1042A00090B92A49586003F1140222F0070242F241
:1042B000F875C1F82056C1F81C0601F21C611A609D
:1042C0005560116001229A602CB1083462071CBF4E
:1042D00024F007040834611E42F2F672914207D8B6
:1042E0001B6819495A68944204D81948834207D177
:1042F00000251DE018680028F7D019460346F1E7AD
:104300000D6818680860121B102A05F108050AD903
:1043100019194A605C604E680B4A10684468A642EE
:104320000DD8086011600B495B680A68D21A0A60F0
:10433000094B98470DB9094B9847284670BD02466E
:10434000EBE700BF914F00000C0C0020FC2D00207B
:1043500018340020940000209D5000003D03000010
:1043600070B50446B8B10C4BA0F10805984754F855
:10437000040C0A4A11684B6898420AD844F8081C91
:104380001560074A136803441360BDE87040054B8D
:1043900018470A46EEE770BD914F00000C0C002054
:1043A000940000209D50000010B50446044B98472F
:1043B000A46B044B9847B4FA84F0400910BD00BFC9
:1043C000054000004940000070B51546026C866B40
:1043D000044642B905689DB94068144B984765602A
:1043E0000136A66370BD124B65B980689847A36813
:1043F000226C13446268A360934201D32368A360D4
:104400000020EDE7C0689847236CE26821685B42B2
:104410001A448A42E2603EBF62689B18E360022D44
:10442000EED10EB1013EEBE73046D9E7B1540000C2
:10443000F55B0000034610B41A6C084662B1D968F7
:104440005C681144A142D96024BF1968D960D96859
:104450005DF8044B024B18475DF8044B704700BFF2
:10446000F55B00004FF0800383F31188BFF36F8F7B
:10447000BFF34F8FFEE7000073B5846C01900A46CE
:104480000CB9174B9847A16BE36B994208D34FF0D7
:10449000800383F31188BFF36F8FBFF34F8FFEE765
:1044A000A16B8B421AD994F845500E4B01A92046B6
:1044B00098476DB26B1C06460BD1636A33B104F1A9
:1044C0002400094B9847002818BF0126304602B047
:1044D00070BD01356DB284F84550F7E70026F5E769
:1044E00065440000C9430000E55200002DE9F04793
:1044F00004461F4F1F4EDFF88480DFF88490B847D2
:1045000094F845506DB2002D17DCFF2384F8453038
:10451000194EDFF86080DFF86490B047B84794F830
:10452000445004F110076DB2002D17DCFF2384F80E
:1045300044303346BDE8F0471847A36C3BB1002137
:104540002046C84700B1C047013D6DB2DBE7636A52
:10455000002BDAD004F12400B047F3E72369002BE5
:10456000E4D03846C04700B1C847013D6DB2DBE733
:1045700005400000E552000049400000FD530000E6
:104580007944000038B50D46044608B9184B9847E1
:10459000184B9847206CE36B2268A2604343D11804
:1045A0001B1A13446160E3600021FF23A16384F8B8
:1045B000443084F8453095B9236963B104F11000A3
:1045C0000D4B984738B10D4B4FF080521A60BFF336
:1045D0004F8FBFF36F8F0A4B9847012038BD04F10E
:1045E0001000084DA84704F12400A847F3E700BFD6
:1045F0006544000005400000E552000004ED00E0C5
:1046000049400000A93E0000F8B50D461746064691
:1046100040B94FF0800383F31188BFF36F8FBFF36E
:104620004F8FFEE7484354300A4B9847044658B131
:1046300065B92060084BE663256401212046984750
:10464000002384F85070A3642046F8BD00F15403A1
:104650000360EFE795420000854500002DE9F04F2B
:1046600087B08A4603921F46044640B94FF0800344
:1046700083F31188BFF36F8FBFF34F8FFEE70029DD
:1046800040F08F80036C002B00F08B804FF0800394
:1046900083F31188BFF36F8FBFF34F8FFEE7039B48
:1046A000002B00F089804FF0800383F31188BFF363
:1046B0006F8FBFF34F8FFEE7636A002B5BD004F16F
:1046C0002400444B984756E0039D15B9B04700209D
:1046D0005CE013B904A8404B9847B0473F4BDFF864
:1046E00020B13F4D9847C04794F84430FF2B04BF9A
:1046F000002384F8443094F84530FF2B04BF002396
:1047000084F84530B04703A904A8364B98470028E1
:1047100043D1C047A16BE26B02910192B047019A6D
:104720000299914235D103992F4A04F11000904724
:104730002046D847A84738B92C4A4FF08053136019
:10474000BFF34F8FBFF36F8F01230193C847A16B56
:10475000E26B274E914202D3022F019BB4D1254B2D
:104760003A46514620469847A36C002BA4D03946C0
:104770002046214B984738B11C4B4FF080521A60AD
:10478000BFF34F8FBFF36F8FB047012007B0BDE875
:10479000F08F2046D847A847D6E72046D847A847F5
:1047A00095E7022F02D1E36B012B09D1134B9847F8
:1047B00000283FF474AF0023DFF84890C846C4E7F0
:1047C0004FF0800383F31188BFF36F8FBFF34F8FD8
:1047D000FEE700BFE552000069530000914F000062
:1047E0009D5000007D5300006552000004ED00E084
:1047F00049400000C9430000794400000D54000006
:10480000ED4400000540000038B5024600210120BB
:10481000064B9847044638B1002343600360C360E9
:104820001A461946024DA847204638BD09460000E1
:104830005D4600002DE9F843884691461F46044630
:1048400040B94FF0800383F31188BFF36F8FBFF33C
:104850004F8FFEE719BB036C0BB34FF0800383F35C
:104860001188BFF36F8FBFF34F8FFEE7B9F1000FD1
:104870003FD00120C9F8000086F31188BDE8F88315
:10488000636A002B35D004F124001F4B98472EE0BB
:1048900001356DB284F845502BE00020ECE7022F83
:1048A00002D1E36B012B26D1184B9847EFF3118609
:1048B0004FF0800383F31188BFF36F8FBFF34F8FE7
:1048C000A26BE36B9A4201D3022FE6D194F84550D4
:1048D0000F4B6DB23A464146204698476B1CD7D1E4
:1048E000A36C002BCCD0394620460A4B98470028B1
:1048F000BCD10120C0E74FF0800383F31188BFF3E0
:104900006F8FBFF34F8FFEE7E5520000414200007A
:10491000C9430000794400002DE9F04F85B0894675
:104920000192044640B94FF0800383F31188BFF32E
:104930006F8FBFF34F8FFEE700297DD1036C002BF3
:104940007AD04FF0800383F31188BFF36F8FBFF3EA
:104950004F8FFEE7019E002E73D04FF0800383F34C
:104960001188BFF36F8FBFF34F8FFEE7019D15B91D
:10497000B847002051E016B902A8354B9847B84710
:10498000344B354E354D9847D84794F84430FF2B7B
:1049900004BF002384F8443094F84530FF2B04BF53
:1049A000002384F84530B84701A902A82C4B2D4FAD
:1049B0009847002838D12046B847002830D00199C0
:1049C000294B04F1240098472046B047A84738B93E
:1049D0004FF08053CAF80030BFF34F8FBFF36F8F93
:1049E0000126C047A56B214F002DBFD0204B494663
:1049F0002046013D9847A563236963B104F1100087
:104A00001C4B984738B11C4B4FF080521A60BFF3D3
:104A10004F8FBFF36F8FB847012005B0BDE8F08F0F
:104A20002046B047A847DBE72046B047A8472046C6
:104A3000B8470028D4D09CE7104B9847002889D06D
:104A40000026DFF83C80DFF830A0C346C9E700BF8E
:104A500069530000914F0000ED4400009D5000009C
:104A60007D530000A943000065520000494000004A
:104A700035440000E552000004ED00E00D54000054
:104A8000054000002DE9F04F85B00446019140B982
:104A90004FF0800383F31188BFF36F8FBFF34F8F05
:104AA000FEE7056C45B14FF0800383F31188BFF337
:104AB0006F8FBFF34F8FFEE7504B984718B9019D9A
:104AC000002D40F09180DFF86491DFF83CA12E4684
:104AD0004F46C847A36BE3B1013BA363236813B9F7
:104AE000474B98476060236963B104F11000454B60
:104AF000984738B1444B4FF080521A60BFF34F8F44
:104B0000BFF36F8F414B98470125284605B0BDE89C
:104B1000F08F019B63B945B14FF0800383F3118897
:104B2000BFF36F8FBFF34F8FFEE7384B9847ECE72B
:104B300016B902A8364B9847344EDFF8F4B0DFF8C8
:104B4000F480B047334B9847B84794F84430FF2B74
:104B500004BF002384F8443094F84530FF2B04BF91
:104B6000002384F84530B0472B4B01A902A8984791
:104B70002A4B08BB20469847D0B123682BB9B847C9
:104B80006068274B98470546B0470199254B04F1CB
:104B9000240098472046D847C04738B94FF0805383
:104BA000CAF80030BFF34F8FBFF36F8F012690E735
:104BB0002046D847C047F9E720460093D847C0476A
:104BC0002046009B98470028F0D0002D9DD0B84784
:104BD000616A19B1236B1968C1F105016068124B54
:104BE00098470025B04790E74FF0800383F3118882
:104BF000BFF36F8FBFF34F8FFEE700BF0D54000070
:104C0000D1550000E552000004ED00E049400000ED
:104C100069530000914F00007D530000A94300003C
:104C20002D5400006552000035550000054000007D
:104C3000ED4400009D50000010B5044640B94FF00F
:104C4000800383F31188BFF36F8FBFF34F8FFEE7AD
:104C5000034B9847A46B034B9847204610BD00BFF9
:104C6000054000004940000070B50446104B0D4659
:104C70001646984794F84430FF2B04BF002384F86D
:104C8000443094F84530FF2B04BF002384F84530AE
:104C9000084B9847A36B2BB93246294604F12400F0
:104CA000054B98472046054BBDE87040184700BFAC
:104CB0000540000049400000A1520000ED44000002
:104CC0000649074B4FF0805208680128FCD91A604A
:104CD000BFF34F8FBFF36F8FF6E700BF2034002084
:104CE00004ED00E0064B5A6E12681AB94FF0FF321D
:104CF0009A6670475A6ED268D2685268F8E700BF69
:104D0000203400202DE9F041154E164BF76E054674
:104D1000306F0430884698476B1C34460AD1B8F18E
:104D2000000F07D0316F104B043106F17400BDE85D
:104D3000F04118473D44236FAF425D600B4B04D9EF
:104D4000D4F88800216F0431F1E7606E216F0431DF
:104D50009847A36E9D4238BFA566BDE8F08100BFAD
:104D6000203400200B3F0000C53E0000DD3E000067
:104D70002DE9F84F940080465A4D20460F4699463B
:104D8000A8470646002800F09E805420A847054604
:104D9000002800F0958022460663534BA52130463B
:104DA00098472B6B043C1C4424F0070A7B1E05F13A
:104DB00034020737597802F8011B13F8011F09B1B3
:104DC000BB42F7D10A9C494E042C28BF04244FF063
:104DD000000B2F1DEC626C64384685F83BB0C5F8BB
:104DE00048B0B047C4F1050405F11800B047C5F854
:104DF0004CB03F4B2D61AC616D6285F850B04A46B6
:104E00004146504698470B9B286003B11D60394CC2
:104E1000394B9847D4F8A0300133C4F8A030236F41
:104E2000002B54D12567D4F8A030012B20D1334E6C
:104E30002046B04704F11400B04704F12800B04701
:104E400004F13C00B04704F1A40904F15000B0475C
:104E500004F1B8084846B0474046B04704F18C001A
:104E6000B04704F17400B047C4F86490C4F8888077
:104E7000D4F8D030D4F8D4200133C4F8D030EB6368
:104E8000EB6A1420934288BFC4F8D43000FB03407F
:104E900039461B4B98471B4B9847D4F8CC3063B12D
:104EA000236FDA6AEB6A9A4207D2174B4FF08052AF
:104EB0001A60BFF34F8FBFF36F8F0120BDE8F88FEB
:104EC0003046124B98474FF0FF30BDE8F88FD4F8CA
:104ED000CC30002BCCD1236FDA6AEB6A9A4298BFB0
:104EE0002567C5E7954200003F5C0000BF3E00001B
:104EF000A93F00002034002005400000A93E00002A
:104F0000C53E00004940000004ED00E061430000A0
:104F100073B5194C19491A481A4E04F1DC030025DF
:104F2000019300952B468022B047012816D1164BDD
:104F30009847012812D14FF0800383F31188BFF303
:104F40006F8FBFF34F8F4FF0FF33A3660F4BC4F843
:104F5000CC00E56602B0BDE870401847013008D1CA
:104F60004FF0800383F31188BFF36F8FBFF34F8F30
:104F7000FEE702B070BD00BF20340020558700005E
:104F8000C14C0000714D00000D5800002941000087
:104F9000034AD2F8D8300133C2F8D830704700BF86
:104FA00020340020014BD86E704700BF2034002011
:104FB0002DE9F84F354BD3F8D8201C46002A3DD1B7
:104FC000DE6E0136DE66C6B95B6E1B6843B14FF01C
:104FD000800383F31188BFF36F8FBFF34F8FFEE71A
:104FE000636ED4F888206266C4F88830D4F8E03064
:104FF0000133C4F8E030264B9847A36E9E424FF031
:1050000000050BD3DFF88C80DFF88CB04FF0140A6A
:10501000636E1B68CBB94FF0FF33A366236FDA6A68
:1050200014235343E358022B28BF0125D4F8E8305A
:10503000002B18BF01252846BDE8F88FD3F8E430CF
:105040000133C4F8E4300025F0E7636EDB68DF6805
:105050007B689E42E1D307F104094846C047BB6A1A
:1050600013B107F11800C047F86AD4F8D430984259
:1050700088BFC4F8D40049460AFB0040D847236FD4
:10508000FA6ADB6A9A4228BF0125C1E72034002072
:10509000E54C00000B3F0000C53E00002DE9F84341
:1050A000314CD4F8D83043B94FF0800383F31188E2
:1050B000BFF36F8FBFF34F8FFEE72C4B9847D4F8A9
:1050C000D830013BC4F8D830D4F8D8502DB10024E2
:1050D000274B98472046BDE8F883D4F8A030002B32
:1050E000F5D0244FDFF89C904FF01408D4F88C30A2
:1050F000EBB90DB1204B9847D4F8E4504DB11F4E99
:105100000127B04708B1C4F8E870013DF9D1C4F8EF
:10511000E450D4F8E830002BD9D0194B4FF080522E
:105120001A60BFF34F8FBFF36F8F0124D0E7D4F81D
:105130009830DD682E1D05F11800B8473046B84795
:10514000E86AD4F8D430984288BFC4F8D400314615
:1051500008FB0040C847236FEA6ADB6A9A4224BF13
:105160000123C4F8E830C1E72034002005400000E6
:10517000494000000B3F0000E54C0000B14F00002B
:1051800004ED00E0C53E000008B540B90F4B4FF0FC
:1051900080521A60BFF34F8FBFF36F8F08BD0C4B67
:1051A000D3F8D81041B14FF0800383F31188BFF3D7
:1051B0006F8FBFF34F8FFEE7064B9847064B98471C
:1051C000064B98470028E1D008BD00BF04ED00E081
:1051D00020340020914F0000054D00009D5000003C
:1051E00038B51E4BD3F8D8201C461AB10122C3F89B
:1051F000E82038BDC3F8E8201A6F1B6F12681B6BDC
:105200009A4204D8206F216F154B34319847D4F857
:10521000D420142505FB02F3E118E05888B1486852
:105220000833406848602344984204BF43684B6099
:10523000142303FB02435B68DB682367C4F8D420B4
:1052400038BD42B94FF0800383F31188BFF36F8FED
:10525000BFF34F8FFEE7013ADCE700BF20340020A8
:10526000D102000010B50C4640B94FF0800383F323
:105270001188BFF36F8FBFF34F8FFEE7054B196F98
:10528000054B1831984720460121044BBDE81040DA
:10529000184700BF20340020DD3E0000054D00000F
:1052A00070B50D46144640B94FF0800383F3118862
:1052B000BFF36F8FBFF34F8FFEE7074B196F074B9D
:1052C00018319847002C21460CBF28464FF0FF307C
:1052D000034BBDE87040184720340020C53E000055
:1052E000054D0000C3682DE9F041D3F80C80B8F1FA
:1052F000000F08D14FF0800383F31188BFF36F8F45
:10530000BFF34F8FFEE708F11806144C144F154DEC
:105310003046B847D4F8D830E3B908F1040630462F
:10532000B847D8F82C30D4F8D4201420934288BF42
:10533000C4F8D430314600FB0340A847236FD8F8A7
:105340002C20DB6A9A4286BF0120C4F8E8000020C6
:10535000BDE8F081314604F18C00EEE720340020F6
:105360000B3F0000C53E0000034BD3F8E020DB6E8E
:1053700002604360704700BF2034002070B50C46C7
:10538000054640B94FF0800383F31188BFF36F8F58
:10539000BFF34F8FFEE741B94FF0800383F31188CD
:1053A000BFF36F8FBFF34F8FFEE7104B9847236813
:1053B0000F486968C26E5E1C0ED0D0F8E0002E68FF
:1053C000864201D08A420ED2521A9A4209D29B1AC0
:1053D00023602846074B98470024074B98472046F0
:1053E00070BD002323600124F7E700BF05400000E3
:1053F000203400206953000049400000024B012284
:10540000C3F8E820704700BF20340020064BD3F8D3
:10541000CC2032B1D3F8D830002B0CBF02200020B2
:1054200070470120704700BF2034002070B504464B
:10543000002831D01B4AC36A116FC96A8B421546D6
:1054400022D28269002AA1BF2A6FD26AC2F1050264
:105450008261142202FB035342699A421DD1061D48
:10546000114B304698472B6FD5F8D420DB6AE362A6
:10547000934201D9C5F8D430142000FB03503146C3
:105480000A4B9847012070BD136F406CDC6AA04244
:105490002CBF0020012070BD70BD2B6FDB6AC36282
:1054A000F0E700BF203400200B3F0000C53E0000A5
:1054B00070B5044608B9002070BD1B4D2B6F984293
:1054C00008D04FF0800383F31188BFF36F8FBFF3D1
:1054D0004F8FFEE7836C43B94FF0800383F311884D
:1054E000BFF36F8FBFF34F8FFEE7C16A426C013B82
:1054F00091428364DFD0002BDDD1061D30460B4B7B
:105500009847636CE362C3F10502A261D5F8D42029
:105510001420934200FB035088BFC5F8D4303146B5
:10552000034B9847012070BD203400200B3F000042
:10553000C53E000070B50446002841D0826C42B9D7
:105540004FF0800383F31188BFF36F8FBFF34F8F4A
:10555000FEE7436C994238BF1946C36A8B422FD08D
:10556000012A2DD1174D2A6F904208D14FF08003A8
:1055700083F31188BFF36F8FBFF34F8FFEE782690C
:10558000C162002A4FF0140202FB03534269A4BF18
:10559000C1F1050181619A4212D1061D0A4B3046C4
:1055A0009847E36AD5F8D420934201D9C5F8D4309E
:1055B000142000FB03503146044BBDE870401847EF
:1055C00070BD00BF203400200B3F0000C53E00002E
:1055D000044B1A6F1AB1196F8A6C01328A64186F02
:1055E000704700BF203400202DE9F843204C214FA4
:1055F0001D4681460E469046B847236F93F85030BB
:10560000022B14D0236FDA6C22EA0902DA64236FCA
:10561000012183F8501055B12846174B9847174B76
:105620004FF080521A60BFF34F8FBFF36F8F144D4E
:10563000A847B8472A46B8F1000F03D0236FDB6CA8
:10564000C8F80030236F93F85030022B01BF236F4E
:10565000D96CB143D964236F4FF000010CBF012511
:10566000002583F8501090472846BDE8F88300BF16
:105670002034002005400000054D000004ED00E04E
:10568000494000002DE9F843089F88461546994691
:10569000044640B94FF0800383F31188BFF36F8F46
:1056A000BFF34F8FFEE7334B9847EFF311864FF070
:1056B000800383F31188BFF36F8FBFF34F8FB9F16E
:1056C000000F02D0E36CC9F8003094F85030022289
:1056D00084F850206A1EDBB2032A07D8DFE802F004
:1056E000020D1210E26C42EA0802E264012B0CD0B7
:1056F000012086F31188BDE8F883E26C0132F4E7FB
:10570000022B35D0C4F84C80F0E7A36A43B14FF0C8
:10571000800383F31188BFF36F8FBFF34F8FFEE7D2
:10572000154DDFF85C80D5F8D830CBB904F1040909
:10573000124B48469847E36AD5F8D4201420934288
:1057400088BFC5F8D430494600FB0350C0472B6FD3
:10575000E26ADB6A9A42CBD9012037B13860C8E7E8
:1057600004F1180105F18C00F0E7C5F8E800C0E786
:105770000020BEE741420000203400200B3F000023
:10578000C53E00002DE9F0410C4C0D4B98472568B3
:1057900085B9271D3846DFF8348004F11806C04764
:1057A0003046C0472A460C211420064BE762266388
:1057B00098472060044BBDE8F04118470C350020A5
:1057C000054000000946000049400000A93E0000D5
:1057D000914208B5416000610AD8D21A83699A42A1
:1057E0000ED2084B011D186B074B9847002008BDCF
:1057F0009A4201D2994203D2024B011DD86AF3E7C3
:10580000012008BD0C350020DD3E00000E4B13B515
:1058100098470E4B1A6842B94FF0800383F3118802
:10582000BFF36F8FBFF34F8FFEE734330193032332
:1058300000938022002306490648074CA047002811
:10584000EAD002B010BD00BF855700000C35002023
:105850006987000095590000714D00002DE9F04165
:1058600080461E462C200F4B0D461746984704468F
:10587000A8B145B94FF0800383F31188BFF36F8F50
:10588000BFF34F8FFEE7084B9847069B6362C4F84F
:105890000080A561E7612662201D044B98472046E1
:1058A000BDE8F0819542000085570000BF3E000032
:1058B00030B5154685B01A46034640B94FF080030F
:1058C00083F31188BFF36F8FBFF34F8FFEE70D4C4B
:1058D000206880B105290191029503930DDC0A4BE4
:1058E0000A4D98470023022808BF089A206818BF6D
:1058F0001A4601A9A84705B030BD002301A9044CF0
:10590000A047F8E70C3500200D5400005D4600006C
:10591000354800002DE9F3411A4D1B4FEB6A1A6818
:105920002AB92A6BEA622B6302B0BDE8F081DB681A
:10593000DC681E6804F104084046B847636A2046E4
:105940009847E369012BE9D1A36933449E4206D20B
:10595000636024614146E86A0C4B9847DEE7002308
:105960002046009332461946094CA0470028D5D15D
:105970004FF0800383F31188BFF36F8FBFF34F8F16
:10598000FEE700BF0C3500200B3F0000DD3E0000AD
:10599000B15800002DE9F04F87B0644DEA6AD2F8A3
:1059A0000090A846B9F1000F3BD0D2681668604A53
:1059B000604F9047B847AA6B9042824633D25E4A06
:1059C00090470124C5F838A0DFF88CB1002C73D1C2
:1059D000B9F1000F58D056456CD8D847EB6ADB6850
:1059E000DD68564B281D9847EB69012B1DD1A9692D
:1059F0005246334631442846DFF858A1D047A0B17B
:105A0000009423462146324628464D4CA04760B9B3
:105A10004FF0800383F31188BFF36F8FBFF34F8F75
:105A2000FEE74E46C3E70024CCE76B6A284698475A
:105A3000444D414ED8F80000002203A9A847002891
:105A4000ABD0039B002BF5DB059C636913B1201DD4
:105A50003A4B9847B847D8F838309842834600D236
:105A6000B047039AC8F838B0092AE3D80123934015
:105A700013F4047A46D113F0C70F1FD19B06D9D572
:105A80002046314B9847D4E72B6B1A68B2FA82F262
:105A90005209A6EB0A0128682C4B9847D8470028E2
:105AA000C6D12B4B4FF080521A60BFF34F8FBFF31C
:105AB0006F8FBDE72246ECE7D847B9E7A169049BA1
:105AC000244E5A4619442046B0470028B1D0636A94
:105AD00020469847E369012BABD1A2690499CDF820
