:10000000B02E01202D08000029080000290800005A
:10001000290800002908000029080000000000004D
:10002000000000000000000000000000D1240000DB
:10003000290800000000000061250000C52500001F
:1000400029080000290800002908000029080000EC
:1000500029080000290800002908000029080000DC
:1000600029080000290800002908000029080000CC
:1000700029080000290800002908000029080000BC
:1000800029080000290800002908000029080000AC
:10009000290800002908000029080000290800009C
:1000A000290800002908000029080000290800008C
:1000B0002908000015170000E916000015150000BA
:1000C0001D150000251500002D1500003515000038
:1000D000290800002908000029080000290800005C
:1000E000290800002908000029080000290800004C
:1000F00000000000E11700002908000029080000A6
:10010000290800002908000029080000290800002B
:10011000290800002908000029080000290800001B
:100120002908000029080000C9030000D5030000C9
:10013000E103000029080000290800002908000048
:1001400029080000290800002908000029080000EB
:100150002D0700002908000000000000000000003A
:10016000000000000000000000000000000000008F
:10017000000000000000000000000000000000007F
:1001800029080000290800002908000029080000AB
:1001900000000000C51C000029080000290800001C
:1001A000290800002908000029080000290800008B
:1001B000D51C0000290800002908000029080000BB
:1001C00029080000E51C000029080000290800009B
:1001D00029080000F51C000029080000290800007B
:1001E000051D000029080000290800002D2100003D
:1001F0003D2100004D2100005D2100006D21000027
:100200007D2100000000000000000000290800001F
:10021000290800002908000029080000290800001A
:10022000290800002908000029080000290800000A
:1002300029080000290800002908000029080000FA
:1002400029080000290800002908000029080000EA
:1002500029080000290800002908000029080000DA
:100260000000000010B5054C237833B9044B13B1DE
:100270000448AFF300800123237010BD70010020FB
:1002800000000000844B00000C4B43B10C480D49AA
:1002900010B5AFF300800C48036823B910BD0A48BD
:1002A000036833B97047094B002BF7D0BDE8104005
:1002B0001847064B002BF5D0184700BF0000000080
:1002C000844B000074010020844B000000000000FB
:1002D00000B59BB064220E4B0E4C05460E4601A89D
:1002E000002198470C48A0470C48A0470A48A0475F
:1002F0000B48A0470B490C4C33462A4601A8A0479F
:100300000A4B01A898470A4B81B201A89847FEE71B
:10031000A73B0000E50600006E440000A944000071
:10032000FD450000E4440000313D0000893D00002F
:10033000A106000073B5064B064E074D074C9847C3
:1003400001903046A84742F2107101A8A047F8E793
:10035000E531000009450000E5060000C933000052
:1003600010B50E490E480F4B0F4C984798B94FF4F3
:1003700000620E490E480F4B984760B901221146A2
:1003800007480D4B984706480C4B98470C482346A6
:10039000BDE8104018470B48F9E700BF0040014195
:1003A000000000208D190000E5060000C224002096
:1003B000C42C0020C1110000131A0000D519000040
:1003C0002C45000052450000014B01221A7670476F
:1003D00000400141014B02221A7670470040014162
:1003E00010B5074C0748A0470028FBD0064B05482E
:1003F0009847064B0146BDE810400548184700BF26
:10040000091A000000000020F7190000D9110000AF
:10041000C42C002000F01F024009C00100F18240FE
:1004200000F500400123934083609AB21B0C42F018
:10043000804243F04043826283627047014B1878E8
:10044000704700BF8C010020034B00221A705A70C5
:1004500001229A70DA7070478C01002049490B78AC
:10046000062B70B50C466ED0072B45D0002B40F004
:1004700088804B78032B00F28480DFE803F0022CA5
:10048000353A414D3020A847404991F8D0304FF4DB
:10049000803603F0FE0381F8D0301320C1F8946059
:1004A000A84791F8533003F0FE0381F853304FF41E
:1004B00000234B611020A84791F8503003F0FE0351
:1004C00081F8503001234E614FF4FA706370304B65
:1004D000BDE8704018472D4B4FF48032C3F8982088
:1004E00002234B703220F2E703234B7040F6B83002
:1004F000EDE704230B7070BD8B7813B1012B11D085
:1005000070BD214B13209847204B93F8532002F0E5
:10051000FE0283F853204FF400229A6101238B706E
:100520001920D4E7184B13209847184B93F8532001
:1005300002F0FE0283F853204FF400225A61002398
:100540000B704B7070BDCB78DBB9104C0E4D30206A
:10055000A84794F8D03003F0FE0384F8D0304FF46D
:100560008033C4F894301320A84794F8533003F034
:10057000FE0384F853304FF40023A3610123CB70B2
:10058000CEE770BD8C010020150400000080004102
:100590006934000070B5084B084D094E094C984766
:1005A000A847B0470428FBD12046074B984741F2A3
:1005B0008830064B9847F3E7490400005D040000CB
:1005C0003D0400007B450000E506000069340000A2
:1005D00070B5044E044D054C3046A84740F6B8307F
:1005E000A047F9E7A3450000E506000069340000D4
:1005F00070B5054E054D064C3046A8474FF47A704D
:10060000A047044B9847F7E7C6450000E506000001
:1006100069340000190800002DE9F0470F4C064628
:100620000D461746A1463046A0470028FBD0DFF80C
:100630003080DFF830A0013D00246B7804F80830EA
:10064000304615F8011FD0473046C8470028FBD078
:100650000134BC42F1D32046BDE8F087FF19000009
:1006600090010020F11900000223037670478023D7
:100670000376704710B5064C0649074B204698474D
:10068000012220461146054BBDE81040184700BF27
:100690001C000020000400438D190000131A000004
:1006A00070B5064C064B0E46054620469847324626
:1006B00029462046034BBDE8704018471C00002027
:1006C000D51900001906000010B5044B0446162188
:1006D000034898470123237610BD00BFA106000000
:1006E000E945000010B59AB004466422002101A833
:1006F000084B984722460849084B094C01A8A047D7
:1007000001A8084B9847084B81B201A898471AB036
:1007100010BD00BFA73B00000A460000FD450000D9
:10072000313D0000893D0000A10600000C4B10B5D2
:1007300004220C4C1A760C48A0470028FBD00B4B27
:10074000094898470A49002308704B7009480A4B2A
:10075000984705210748094BBDE81040184700BFDE
:1007600000040043091A00001C000020F7190000D3
:10077000D42C0020D62C0020793D0000A1060000DA
:10078000084B03EB800010B54288074B07484FF435
:100790007A719847064B18B90648BDE810401847CB
:1007A0000548FAE738000020CB210000B02D0020DA
:1007B000E50600001046000031460000074B0848DF
:1007C00010B59847074B30B9074898470220074BA8
:1007D000BDE8104018470648F7E700BF8F22000029
:1007E000B02D0020E5060000504600008107000003
:1007F0006046000010B5054B9847054B4FF47A70E2
:100800009847044BBDE81040184700BF9D0E0000FC
:10081000F50F0000BD0700000148024B184700BF5C
:10082000B02D0020A3220000FEE7000008B5144A06
:10083000144B9A4218D1144B144A002193421CD3F2
:10084000134A144B22F07F029A60D3F8882042F4B6
:100850007002C3F88820BFF34F8FBFF36F8F0E4B2A
:1008600098470E4B9847FEE70D49043A8B42E2D277
:1008700052F8040F43F8040BF8E743F8041BDDE7D4
:10088000844B00000000002070010020AC2E0020EE
:100890000000000000ED00E0153B0000AD2200006C
:1008A0006401002030B54A1CC4B2C0F34712164898
:1008B00004F01F0300EBC21007D1184490F8403039
:1008C00003F0FE0380F8403030BDC5185B0895F892
:1008D000402002F0FE02184442F0010285F8402058
:1008E00090F8303014F0010F19BF03F00F0343EA02
:1008F000011101F00F0103F0F00314BFC9B2194355
:1009000080F8301030BD00BF0080004100F01F02B1
:100910004009C00100F1824000F5004001239340EE
:1009200043609AB21B0C42F0804243F04043826223
:1009300083627047044AD36943F48073D361034BE5
:100940004022C3F80021704700080040001C00400E
:1009500010B5044B984704490448054BBDE81040C6
:10096000184700BF35090000002000427C2D002000
:10097000BD0F000070B50220154D164CA847164952
:100980000220A0470320A84714490320A04728209D
:10099000A84713492820A0472920A8471149292002
:1009A000A0470420A84710490420A0470520A847D5
:1009B0000E490520A0470620A8470D490620A0475C
:1009C0000720A84723460B490720BDE87040184779
:1009D0000D090000A508000001000200010003004D
:1009E00001002800010029000100040001000500A9
:1009F0000100060001000700044A136A43F0800367
:100A00001362034B4122C3F82021704700080040C5
:100A1000001C004010B5054B9847054B9847002235
:100A200004490548054BBDE810401847F909000086
:100A300075090000001C00438C2D0020C50F00002C
:100A4000044A136A43F480731362034B4022C3F8D1
:100A50002421704700080040001C004010B5044BE2
:100A60009847002203490448044BBDE8104018474A
:100A7000410A000000200043442E0020C50F000062
:100A8000044A136A43F400731362034B4022C3F811
:100A90002821704700080040001C004010B5044B9E
:100AA000984704490448054BBDE81040184700BF6B
:100AB000810A000000240043B42D0020CD0F000067
:100AC000054B4022C3F89020044A536943F48063E5
:100AD0005361034B184700BF001C00400008004052
:100AE00051100000034A936943F080039361024B65
:100AF000184700BF0008004019100000024A13699F
:100B000043F04003136170470008004010B5044BE8
:100B1000984704490448054BBDE81040184700BFFA
:100B2000FD0A000000400041402D0020811000001F
:100B300010B5054C05491120A04723460449122051
:100B4000BDE81040184700BFA508000003001100D1
:100B500003001200064B4022C3F8E0204A22C3F8EB
:100B60008C20044A936943F480639361704700BF0B
:100B7000001C00400008004010B5044B9847044B8F
:100B80009847044BBDE81040184700BF550B0000C4
:100B900061030000310B000010B5054C054917201A
:100BA000A047234604493720BDE81040184700BF3E
:100BB000A50800000300170003003700064B402281
:100BC000C3F80C214A22C3F88C20044A136A43F06C
:100BD00002031362704700BF001C00400008004081
:100BE00010B5044B9847044B9847044BBDE81040A0
:100BF000184700BFBD0B000075060000990B0000F0
:100C00000148024B184700BF10E000E0E50F00006C
:100C1000044A536943F480435361034B4022C3F8B1
:100C2000A420704700080040001C004010B5054B90
:100C30009847054B98470549054B0246BDE81040CB
:100C400004481847110C000029210000003800401A
:100C5000B1100000082D0020044A536943F40043FA
:100C60005361034B4022C3F8A420704700080040A2
:100C7000001C004010B5054B9847054B98470549A7
:100C8000054B0246BDE8104004481847590C0000C7
:100C900029210000003C0040B1100000282E002057
:100CA000044A936943F400539361034B4022C3F811
:100CB000E820704700080040001C004010B5054BBC
:100CC0009847054B98470549054B0246BDE810403B
:100CD00004481847A10C00002921000000A0014190
:100CE000B1100000242D0020044A936943F40063EE
:100CF0009361034B4022C3F8E42070470008004092
:100D0000001C004010B5054B9847054B9847054916
:100D1000054B0246BDE8104004481847E90C0000A6
:100D2000BD1C00000060014189110000482E002018
:100D3000044A936943F480539361034B4022C3F800
:100D4000E420704700080040001C004010B5054B2F
:100D50009847054B98470549054B0246BDE81040AA
:100D600004481847310D0000BD1C000000800141FF
:100D700089110000902D0020044AD36943F0080334
:100D8000D361034B4022C3F8F420704700080040B1
:100D9000001C004010B5054B9847054B9847054986
:100DA000054B0246BDE8104004481847790D000085
:100DB000BD1C0000000C004289110000E82D00203D
:100DC000044AD36943F01003D361034B4022C3F8B4
:100DD000F420704700080040001C004010B5054B8F
:100DE0009847054B98470549054B0246BDE810401A
:100DF00004481847C10D0000BD1C0000001000424F
:100E000089110000082E0020044A136A43F01003E1
:100E10001362034B4022C3F81821704700080040BA
:100E2000001C004010B5054B9847054B98470549F5
:100E3000054B0246BDE8104004481847090E000063
:100E4000BD1C000000100043891100005C2D002033
:100E5000024A536943F480735361704700080040AD
:100E600010B5074B98470748074B0360074B984757
:100E7000074B18B90748BDE8104018470648FAE77D
:100E8000510E0000B02D0020002000408D210000F8
:100E9000E506000075460000854600002DE9F0419A
:100EA000284B294C294F2A4E2A4D98472A4B9847C0
:100EB0002A4B98472A4B98472A4B98472A4B9847E2
:100EC0002A4B98472A4B98472A4B98472A4B9847D2
:100ED0002A4B98472A4B98472A4B98472A4B9847C2
:100EE000A3694FF0400843F48043A361C7F8E8804A
:100EF000B047264902462648A847E36943F0200345
:100F0000E361C7F8F880B047224902462248A84763
:100F1000E36943EA0803E361C7F8F880B0471F4973
:100F200002461F48A8471F4B98471F4B98471F4B27
:100F300098471F4B98471F4B98471F4BBDE8F04100
:100F4000184700BF5513000000080040001C004077
:100F50002121000089110000010C0000510900004E
:100F6000150A00005D0A00009D0A0000C10A000089
:100F7000E50A00000D0B0000E10B0000790B0000FA
:100F80002D0C0000750C0000BD0C000000C00141DC
:100F9000682E002000140042C82D002000180042D6
:100FA000E82C0020050D00004D0D0000950D0000FF
:100FB000DD0D0000250E0000610E0000004B1847FB
:100FC00065120000004B18471113000010B5044BC8
:100FD0000446984718B96060A060E060206110BDC9
:100FE000F1130000014B1860014B18479C010020D1
:100FF000451A0000054B10B51C68054B9847054B7A
:1010000001462046BDE81040184700BF9C01002063
:101010004D130000591A0000004B1847A915000095
:101020000A4B30B45D68012100228C18640801D09D
:1010300030BC7047854204D11B68002BF8D030BC0F
:1010400018472CBFFF210122EFE700BFA0010020BD
:10105000044B054800214FF0FF3283E80600034BA4
:10106000184700BFA0010020211000003D1500001E
:10107000436903B118477047836903B11847704744
:1010800010B5044B0446984718B9034B2360034B33
:10109000636010BD9D160000711000007910000003
:1010A000436903B118477047836903B11847704714
:1010B00010B5044B04469847034B2360034B636011
:1010C000002010BD5D200000A1100000A91000004C
:1010D000F0B505681DB90F4BBDE8F0401847D1F8D1
:1010E00008E02C460026C2F1010C6368A768934211
:1010F00095BFDB1963449B1ADB19734507D223683C
:10110000264613B93046044BE6E71C46EDE7A542F8
:10111000F8D1E0E7A5110000AD1100002DE9F0477E
:101120000669037E44690136DA070546066110D474
:10113000037E9B070DD4DFF84880DFF8489000F16C
:10114000140724B16368A268F31A934207D2BDE87A
:10115000F0872B7E43F002032B76BDE8F0873846FC
:10116000C047237C012B04D16660324621463846B5
:10117000C847D5F814A0E368204698475446E0E7EE
:10118000B5110000D110000010B51368044640F8F6
:10119000042B98470020024B6061636010BD00BFC4
:1011A0001D11000003680B600160704703680B604D
:1011B0000160704703680BB11A68026018467047F7
:1011C000531E1A4001BF43608260C26001600CBFC1
:1011D00010466FF00C007047C36842681340026805
:1011E000D154C36881684268591A914288BF9A1ADB
:1011F00003F1010388BF8260C360002070470000D4
:10120000044B1968024609B9034919601868024479
:101210001A607047A8010020B02E0120036A0B421B
:10122000FCD1704738B501210D4DA8470321A847CF
:101230000478C4F3400484B90121A847037843F03B
:10124000010303700121A8474FF4C06303610473D5
:10125000436144734480204638BD6FF0100038BDB0
:101260001D1200000160014B0846184725120000BE
:10127000036B0B42FCD1704708B50121034B984723
:1012800003889BB243F00103038008BD7112000084
:1012900000F13D40A0F5E050C0F38720431E5842C6
:1012A0005841704770B5174E0C460121B0470321D5
:1012B000B0470588C5F340050DBB134B9847012186
:1012C000B0471249162303FB04118B88C3808B7926
:1012D0000372CB7983700B8983808B7A8372CB7A8C
:1012E000C3728B898381CB89C3810B8A03824B8A2A
:1012F00043820B7DC3704B880380284670BD6FF01E
:10130000100070BD71120000791200009E460000AE
:1013100010B5054B016008460A469847034B014645
:10132000BDE810401046184791120000A5120000B9
:101330004309012200F01F0002FA00F04033024A84
:1013400042F82300704700BF00E100E04BF6803315
:101350005843704710B50D4A0D4C13889BB213804B
:101360000C4B98470C4B98474FF40060A0470B4B31
:10137000984740F2FF70A047094A136943F400738D
:101380001361BDE81040074B184700BF0040004103
:10139000011600001D170000911600004117000003
:1013A000000800404D14000083680B42FCD17047D8
:1013B00038B501210D4DA8470321A8470278C2F393
:1013C00040027AB90121A847037843F00103037072
:1013D0000121A8470123427082708281C281037675
:1013E000104638BD6FF0030038BD00BFA9130000E0
:1013F0000160014B08461847B113000010B4114BAF
:10140000114C198C01F01F0103EB01130C224A430C
:1014100093F84E10C90704EB020006D5012283F8A9
:101420004E2043685DF8044B184793F84E10890727
:1014300004D5022183F84E10A358F3E75DF8044B5E
:10144000704700BF00A00041B001002030B52E4B16
:101450001A8822F002021204120C1A805A8822F40E
:101460007C521204120C5A801A8892B242F0010285
:101470001A801A8812F00102FBD14FF470611980B2
:10148000597B224801F0FE01597300F500715A6141
:10149000586399631E491346A0F5C0701C0104F1FE
:1014A000824202F520420D6815640D7982F845509C
:1014B0004D7982F8465004440133CA88A4F880214B
:1014C000202B01F10801E9D11F22012053099B00C3
:1014D00003F1604302F01F0103F5614300FA01F1DB
:1014E000C3F88010BFF34F8FBFF36F8F0132242AF0
:1014F000C3F880111960E9D1034A13889BB243F005
:1015000002031380002030BD00A000413003002002
:10151000CC460000004B1847FD130000004B184755
:10152000FD130000004B1847FD130000004B184747
:10153000FD130000004B1847FD130000194A134625
:101540005168C907FCD45A689007FCD11B789907E9
:1015500025D4144B19465A68D207FCD41A7842F0A5
:1015600001021A704B68DB07FCD40E4B5A6812F06C
:101570000302FBD1197801F0EF0119705A709A60DB
:101580009A611A635A63DA611A62064B586810F05E
:101590000300FBD11A7842F002021A7070476FF014
:1015A000100070470028004010B5124A124C00236A
:1015B000185D03F148010133432B42F82100F7D1B4
:1015C0000E48002200F14004D30003F1824303F5EA
:1015D000604330F81210196214F8221083F82510B5
:1015E0000132C943C9B2202A83F82410ECD100206B
:1015F00010BD00BF00E00041CC47000010480000D3
:10160000C10742BF1D4B1E4A1A62820742BF1B4BD5
:101610001C4A5A62430742BF184B194A9A62010793
:1016200042BF164B164ADA62C20642BF134B144A37
:101630001A63830642BF114B114A5A63410642BFE7
:101640000E4B0F4A9A63020642BF0C4B0C4ADA63F8
:10165000C30542BF094B0A4A1A64810542BF074BC2
:10166000074A5A64420542BF044B074A9A6403057D
:1016700042BF024B054ADA64704700BF001C0040BD
:10168000062B010006230100052B0100053B01008C
:10169000014B01225A7170470008004001610B881C
:1016A00023F0C0039B049B0C0B800D4B18600D4B6B
:1016B0004FF00051C3F88010BFF34F8FBFF36F8F0F
:1016C0004FF08042C3F88020BFF34F8FBFF36F8F7E
:1016D0000020C3F88011C3F8802119601A60704798
:1016E0003007002000E100E0094B186803691A8AFE
:1016F000D20704D501221A82036843B118471A8A17
:1017000092B222B140F25E221A824368F5E7704736
:1017100030070020004B1847E9160000074B42F243
:101720004E029A8201229A75DA75DA690022DA612C
:10173000DA68D207FCD504221A74704700140040FE
:10174000244A136A23F00F0343F004031362224B6D
:1017500000221A77214A9A6293F82C2012F0100284
:10176000FAD183F820201C4A134692F82C1049071E
:10177000FBD44221117793F82C209207FBD45A6AAC
:101780005A62154B1A4693F82C100807FBD4822195
:1017900083F8201092F82C305907FBD492F82030AF
:1017A0000D4A13F0010F10D0136903F41063B3F561
:1017B000106FF9D1074A5368002BFCD1136A23F04C
:1017C0000F0343F00603136270471369DB05FCD572
:1017D000F0E700BF001C00400010004000000104C2
:1017E00007B50C4A9378DBB20193019B990707D5A3
:1017F000094B1B6823B15068984703B05DF804FBA0
:10180000019BDB07F9D5044B5B68002BF5D0014A3F
:10181000F1E700BF00000241882E0020002808DB0D
:101820004209012300F01F0003FA00F0014B43F8C6
:101830002200704700E100E000280DDB430901228F
:1018400000F01F0002FA00F02033044A42F823009F
:10185000BFF34F8FBFF36F8F704700BF00E100E011
:10186000002809DB4309012200F01F0002FA00F002
:101870006033024A42F82300704700BF00E100E0F5
:10188000C3690B42FCD1704708B50321024B98474E
:101890000068C0F3400008BD8118000070B50B4D12
:1018A00006460FCD86B06C460FC495E8030084E869
:1018B000030000205DF82030B34202D1C0B206B070
:1018C00070BD01300628F5D10020F8E7D0480000AF
:1018D00038B5254B0446984703283ED004283ED00F
:1018E000052814BF00220222204601211F4DA847CF
:1018F00020461F4B9847002833D120460121A84796
:10190000236843F00103236020460121A8471949B9
:10191000182303FB0213D8691D6A206065605D6AA5
:10192000A56010F4C04F1BBFA0891D8D1B8D65F3F2
:101930000C001FBFA08193F82A00A38960F34F33E6
:10194000A381182303FB0212002092F82B30A3730B
:1019500092F82C3084F8303038BD0022C4E70122E0
:10196000C2E76FF0100038BD9D180000811800001C
:1019700089180000D048000008B5034B9847800044
:101980002E3000F0FE0008BD9D18000070B50C4B15
:10199000064608460C469847054670B9094BB4619F
:1019A000204698470230C1B20846074B9847074B7C
:1019B00008469847064B08469847284670BD00BF22
:1019C000D1180000791900003918000061180000D2
:1019D0001D180000826908B50321044B1046984782
:1019E000136843F00203136008BD00BF81180000B4
:1019F0008369996270478369986AC0B27047836946
:101A0000187E00F0010070478369187EC0F38000E3
:101A1000704711F0FD0F09D183690221012012B92D
:101A2000187519757047987599757047012904D113
:101A300083690421002AF7D1F3E70329F5D18369EB
:101A40008021F7E7034B6FF07F425A6005221A604E
:101A5000704700BF10E000E00B0E0C4A30B5D8B262
:101A60006FF07F440138C0B2FF2808D1A3EB0363B5
:101A70001944516091601368DB03FCD530BD54609C
:101A800094601568ED03FCD5ECE700BF10E000E0C2
:101A900000280DDB4309012200F01F0002FA00F0CC
:101AA0002033044A42F82300BFF34F8FBFF36F8FF8
:101AB000704700BF00E100E0C36819647047C36865
:101AC000186C7047C268D16AC90703D50121D16279
:101AD000036818477047000070B50B4D06460FCDE0
:101AE00086B001AC0FC42B682360002001AB53F813
:101AF0002020B24202D1C0B206B070BD013005282C
:101B0000F5D10020F8E700BF48490000C3689A6893
:101B10009207FCD11A6842F002021A607047000076
:101B200038B50546364B08460C46984738B101286B
:101B300005D0022803D0032801D0042841D143B2A4
:101B4000EC60A268D207FCD4A2689107FCD122689D
:101B5000920751D4A268D107FCD4226842F0010256
:101B60002260A268D207FCD4264A242101FB032369
:101B700099692160197F6171597FA177196A5B6A40
:101B8000216223640123A3621F4B9C421CD11F4B83
:101B90001D60042896BF8018892190F8C8101C4B3E
:101BA0000846984701F01F024909890001F1604188
:101BB00001F5614101239340C1F8803100200B60A1
:101BC00038BD4FF0FF33BBE7124B9C4202D10F4BA5
:101BD0005D60DEE7104B9C4202D10C4B9D60D8E764
:101BE0000E4B9C4202D1094BDD60D2E70C4B9C426C
:101BF00004BF064B1D61CCE76FF0100038BD00BF7D
:101C0000D91A000048490000006001413407002053
:101C1000911A000000800141000C004200100042B7
:101C200000100043C3689A689207FCD11A6822F03A
:101C300002021A607047C3689A689207FCD118685C
:101C4000C0F3400070470000074BC06810B59847CC
:101C500004289BBF054BC018892090F8C800044B8E
:101C6000BDE81040184700BFD91A000048490000DD
:101C70003113000010B5C4680D4B20469847042866
:101C80009BBF0C4BC018892090F8C8000A4B98479E
:101C9000A3689A07FCD1236823F002032360A3689A
:101CA000DB07FCD4236843F00103236010BD00BFB1
:101CB000D91A000048490000911A000000487047F6
:101CC00044000020014B1868014B184734070020DE
:101CD000C51A0000014B5868014B18473407002013
:101CE000C51A0000014B9868014B184734070020C3
:101CF000C51A0000014BD868014B18473407002073
:101D0000C51A0000014B1869014B18473407002021
:101D1000C51A000000280DDB4309012200F01F0056
:101D200002FA00F02033044A42F82300BFF34F8F39
:101D3000BFF36F8F704700BF00E100E003690B4203
:101D4000FCD1704708B50121034B9847036843F065
:101D50000103036008BD00BF3D1D000008B503215D
:101D6000024B98470068C0F3400008BD3D1D0000CD
:101D700008B50321034B9847036823F0020303606F
:101D800008BD00BF3D1D0000C26808B50321044B1B
:101D900010469847136843F00203136008BD00BF64
:101DA0003D1D0000C068014B184700BF711D0000B9
:101DB000C3681A68C2F38102022A01D1D96170474F
:101DC0001A6812F00C0F02D189B2998370471A6811
:101DD000C2F38102012A04BFC9B2D9767047C36831
:101DE0001A68C2F38102022A01D1D86970471A68C1
:101DF00012F00C0F02D1988B80B270471A68C2F3B0
:101E00008102012A06BFD87EC0B2002070470000C0
:101E1000C068014B184700BF5D1D0000C268917A81
:101E2000C90703D50121917203681847704770B53F
:101E30000569AB7ADA07044604D50123AB7203685F
:101E400003B198476B7A9B0707D50223AB7263688F
:101E50001BB12046BDE87040184770BD114B984239
:101E600007D1114B1960114B984204BF0E4B5961B9
:101E700070470F4B984202D10B4B5960F3E70D4B63
:101E8000984202D1084B996070470B4B984202D19F
:101E9000054BD9607047094B9842E4D1024B196158
:101EA000704700BF0038004048070020001800427B
:101EB000003C004000A0014100C00141001400426C
:101EC00070B5134D06460FCD86B06C460FC495E82D
:101ED000030084E8030000235DF82320B2420BD105
:101EE000DBB20C4A0020142101FB00F4A45C9C42EC
:101EF00007D140B206B070BD0133062BECD10023F0
:101F0000EFE701300628EFD14FF0FF30F2E700BFD6
:101F1000184A0000640000202DE9F0412E4B0746CE
:101F200008460C469847FC600646012120462B4A8D
:101F3000904720462A4B9847002848D1294B2046F5
:101F400098470121204690472749142303FB061395
:101F500088465A682260987AE0731889E08002F017
:101F60000C020120082A207322D1DA68E2611B6981
:101F700023620125394620461C4B6572984714237D
:101F800003FB06861A4BB6F902100846984700294B
:101F90000BDB01F01F034909890001F1604101F5E4
:101FA00061419D40C1F880510D600020BDE8F08185
:101FB00022B99A89A2831B8AE383DAE7042AD8D15B
:101FC0001A7B22771A7C6277DB7AE376D1E76FF0AF
:101FD0001000BDE8F08100BFC11E00003D1D0000E3
:101FE0005D1D0000451D0000640000205D1E000016
:101FF000151D000010B5C468094B20469847094AD2
:10200000142303FB0020084BB0F902009847204638
:10201000064B98472046064BBDE81040184700BFC6
:10202000C11E000064000020151D0000711D00008D
:10203000451D000010B5064BC0689847054A14239B
:1020400003FB0020BDE810408078034B184700BF19
:10205000C11E00006400002031130000F8B5294BB8
:10206000064608460C46984734610546012120463D
:10207000254A90472046254B984700283CD1244BC1
:10208000244F20469847204601219047142303FB04
:1020900005735A682260987AE0731889E08002F02C
:1020A0000C020320082A207320D1DA68E2611B6940
:1020B000236231462046184B9847142303FB0575CD
:1020C000164BB5F902100846984700290CDB01F0C1
:1020D0001F024909890001F1604101F561410123B5
:1020E0009340C1F880310B600020F8BD3AB99A895D
:1020F000A2831B8AE383DCE76FF01000F8BD4FF08A
:10210000FF30F8BDC11E00003D1D00005D1D000038
:10211000451D0000640000205D1E0000151D00002C
:1021200000487047DC00002000207047014B186811
:10213000014B1847480700202F1E0000014B58682C
:10214000014B1847480700202F1E0000014B9868DC
:10215000014B1847480700202F1E0000014BD8688C
:10216000014B1847480700201D1E0000014B18694D
:10217000014B1847480700201D1E0000014B5869FD
:10218000014B1847480700201D1E000003689A688D
:1021900012F00E0FFBD11A78D20913D19A6812F0FF
:1021A0000E0FFBD11A7892070CD4986810F00E002D
:1021B000FBD11A7802F0FB021A705A7802F0F00292
:1021C0005A7070476FF010007047D0B50468A3686C
:1021D00013F00E0FFBD12378DB0955D1A36813F060
:1021E0000E0FFBD12378C3F34003002B4CD1A2FB8D
:1021F00001010E461F4656EA07020DD1B0F57A3F9F
:1022000038D014D8B0F5FA4F30D008D8B0F5FA5F0E
:1022100025D0B0F57A5F21D06FF00C00D0BDB0F5BD
:102220007A4F25D0B0F5FA3FF6D1042317E0B0F588
:10223000FA1F23D007D8B0F5FA2F1DD0B0F57A2FAA
:10224000EAD107230BE0B0F5FA0F19D0B0F57A0FF9
:1022500018D0B0F57A1FDFD1092300E0012362789E
:1022600002F0F002134363700020D0BD0223F6E7B2
:102270000323F4E70523F2E70623F0E70823EEE75C
:102280000A23ECE70B23EAE76FF01000D0BD0368E8
:10229000986810F00E00FBD11A7842F002021A7012
:1022A00070470368A5221A730020704783B5254B39
:1022B000254C264F264E9847264B27491B680193ED
:1022C00002250095002396222448A047244B38601D
:1022D0001B6801934FF00108002396222149CDF895
:1022E00000802148A047214B30601B680193009576
:1022F000002396221E491F481F4DA0471F4B2860F0
:102300001B680193CDF80080002396221C491D48CC
:10231000A0471D4B1D4C18603B6843450ED14045FE
:102320000CD13368434509D12B68434506D1184881
:10233000A047184B98471848A047FEE71748A04702
:10234000F9E700BFF5070000B12F0000A02E002024
:102350009C2E0020B8240020304A000035030000E5
:10236000A42400203D4A0000F1050000B424002010
:10237000474A0000D1050000A42E0020AC24002014
:10238000534A000095050000982E0020E506000045
:10239000644A0000513100009A4A0000834A00005C
:1023A00000F1080343604FF0FF32C3600361002374
:1023B00082600360704700230361704743684B608D
:1023C0009A688A609A68516099600368086101336D
:1023D000036070470A68531C30B50AD103695A6814
:1023E0004A6091608B605960036808610133036043
:1023F00030BD00F108035C682568AA42EFD323468C
:10240000F9E74168826803698A60826851605968A7
:10241000884208BF5A60002202611A68013A1A60B5
:102420001868704782B0002301930D4B1B6801337D
:1024300008D04FF0800383F31188BFF36F8FBFF391
:102440004F8FFEE74FF0800383F31188BFF36F8F48
:10245000BFF34F8F019B002BFCD002B0704700BF31
:10246000FC00002008480068006880F308884FF0EE
:10247000000080F3148862B661B6BFF34F8FBFF3DC
:102480006F8F00DF00BF000008ED00E0DFF80C00F8
:10249000016841F4700101607047000088ED00E0C0
:1024A0004FF0807340F8043C074B40F80C3C21F09F
:1024B00001016FF0020340F8081C40F8202C40F89E
:1024C000243C4438704700BF252400000000000071
:1024D000074B19680868B0E8F04F80F30988BFF32C
:1024E0006F8F4FF0000080F311887047AFF30080CA
:1024F000E02300204FF0800383F31188BFF36F8F38
:10250000BFF34F8F0A4A13680133012B13600DD1BB
:10251000084B1B6813F0FF0F08D04FF0800383F3C4
:102520001188BFF36F8FBFF34F8FFEE7704700BF77
:10253000FC00002004ED00E0084A136843B94FF0A6
:10254000800383F31188BFF36F8FBFF34F8FFEE7D4
:10255000013B13600BB983F311887047FC00002026
:10256000EFF30980BFF36F8F154B1A681EF0100F41
:1025700008BF20ED108A20E9F04F10602DE9090016
:102580004FF0800080F31188BFF34F8FBFF36F8F40
:1025900000F096FF4FF0000080F3118809BC196825
:1025A0000868B0E8F04F1EF0100F08BFB0EC108ABA
:1025B00080F30988BFF36F8F704700BFAFF30080CF
:1025C000E023002008B54FF0800383F31188BFF3A8
:1025D0006F8FBFF34F8F054B984718B1044B4FF0E7
:1025E00080521A60002383F3118808BDF131000086
:1025F00004ED00E0054B064900221A600A60054A16
:102600004BF67F31116007221A60704710E000E03E
:1026100018E000E014E000E0384B394A13B51968BF
:10262000914208D14FF0800383F31188BFF36F8F7D
:10263000BFF34F8FFEE71A68324B9A4208D14FF032
:10264000800383F31188BFF36F8FBFF34F8FFEE7D3
:102650002D4B1A78D2B20192FF221A701B78DBB28E
:102660008DF803309DF80320284B02F080021A7089
:1026700007225A6000219DF80300000602F1FF3492
:102680000DD401B15A605A68042A11D04FF080036A
:1026900083F31188BFF36F8FBFF34F8FFEE79DF871
:1026A00003205200D2B28DF8032001212246E2E736
:1026B000120202F4E0625A60019B134ADBB213700B
:1026C000134B1A6842F460021A601A6842F06042C2
:1026D0001A60104B9847104B00241C600F4B984712
:1026E0000F4A136843F0404313600E4B98470E4B5C
:1026F00098470E4B9847204602B010BD00ED00E011
:1027000071C20F4170C20F4100E400E06007002079
:1027100020ED00E0F5250000FC0000208D240000E5
:1027200034EF00E065240000C134000025240000DF
:10273000EFF305830F2B104A0DD910495B5C11781C
:10274000994208D94FF0800383F31188BFF36F8F4C
:10275000BFF34F8FFEE70A4B52681B6803F4E06338
:10276000934208D94FF0800383F31188BFF36F8F32
:10277000BFF34F8FFEE7704760070020F0E300E0F3
:102780000CED00E038B543070446114B1CBF20F0A8
:102790000704083498470F4B1A6822B903F10C025A
:1027A00022F007021A600C49D1F80C2B41F6F730E1
:1027B0001444844209D8A24207D21D68C1F80C4BC8
:1027C0001544064B9847284638BD0025F9E700BF59
:1027D000D13100006807002060180020DD320000C1
:1027E00040B14FF0800383F31188BFF36F8FBFF3C5
:1027F0004F8FFEE77047000010B50446044B984722
:10280000A46B044B9847B4FA84F0400910BD00BF94
:10281000F52400003925000070B51546026C866B62
:10282000044642B905689DB94068144B98476560F5
:102830000136A66370BD124B65B980689847A368DE
:10284000226C13446268A360934201D32368A3609F
:102850000020EDE7C0689847236CE26821685B427E
:102860001A448A42E2603EBF62689B18E360022D10
:10287000EED10EB1013EEBE73046D9E70D3700004F
:102880005D3B0000034610B41A6C084662B1D9687B
:102890005C681144A142D96024BF1968D960D96825
:1028A0005DF8044B024B18475DF8044B704700BFBE
:1028B0005D3B00004FF0800383F31188BFF36F8FFF
:1028C000BFF34F8FFEE7000073B5846C01900A469A
:1028D0000CB9174B9847A16BE36B994208D34FF0A3
:1028E000800383F31188BFF36F8FBFF34F8FFEE731
:1028F000A16B8B421AD994F845500E4B01A9204682
:1029000098476DB26B1C06460BD1636A33B104F174
:102910002400094B9847002818BF0126304602B012
:1029200070BD01356DB284F84550F7E70026F5E734
:10293000B528000019280000C53500002DE9F04732
:1029400004461F4F1F4EDFF88480DFF88490B8479D
:1029500094F845506DB2002D17DCFF2384F8453004
:10296000194EDFF86080DFF86490B047B84794F8FC
:10297000445004F110076DB2002D17DCFF2384F8DA
:1029800044303346BDE8F0471847A36C3BB1002103
:102990002046C84700B1C047013D6DB2DBE7636A1E
:1029A000002BDAD004F12400B047F3E72369002BB1
:1029B000E4D03846C04700B1C847013D6DB2DBE7FF
:1029C000F5240000C535000039250000DD36000083
:1029D000C928000038B50D46044608B9184B984779
:1029E000184B9847206CE36B2268A2604343D118D0
:1029F0001B1A13446160E3600021FF23A16384F884
:102A0000443084F8453095B9236963B104F110006E
:102A10000D4B984738B10D4B4FF080521A60BFF301
:102A20004F8FBFF36F8F0A4B9847012038BD04F1D9
:102A30001000084DA84704F12400A847F3E700BFA1
:102A4000B5280000F5240000C535000004ED00E0C5
:102A500039250000A1230000F8B50D4617460646AB
:102A600040B94FF0800383F31188BFF36F8FBFF33A
:102A70004F8FFEE7484354300A4B9847044658B1FD
:102A800065B92060084BE66325640121204698471C
:102A9000002384F85070A3642046F8BD00F154036D
:102AA0000360EFE785270000D52900002DE9F04FEE
:102AB00087B08A4603921F46044640B94FF0800310
:102AC00083F31188BFF36F8FBFF34F8FFEE70029A9
:102AD00040F08F80036C002B00F08B804FF0800360
:102AE00083F31188BFF36F8FBFF34F8FFEE7039B14
:102AF000002B00F089804FF0800383F31188BFF32F
:102B00006F8FBFF34F8FFEE7636A002B5BD004F13A
:102B10002400444B984756E0039D15B9B047002068
:102B20005CE013B904A8404B9847B0473F4BDFF82F
:102B300020B13F4D9847C04794F84430FF2B04BF65
:102B4000002384F8443094F84530FF2B04BF002361
:102B500084F84530B04703A904A8364B98470028AD
:102B600043D1C047A16BE26B02910192B047019A39
:102B70000299914235D103992F4A04F110009047F0
:102B80002046D847A84738B92C4A4FF080531360E5
:102B9000BFF34F8FBFF36F8F01230193C847A16B22
:102BA000E26B274E914202D3022F019BB4D1254BF9
:102BB0003A46514620469847A36C002BA4D039468C
:102BC0002046214B984738B11C4B4FF080521A6079
:102BD000BFF34F8FBFF36F8FB047012007B0BDE841
:102BE000F08F2046D847A847D6E72046D847A847C1
:102BF00095E7022F02D1E36B012B09D1134B9847C4
:102C000000283FF474AF0023DFF84890C846C4E7BB
:102C10004FF0800383F31188BFF36F8FBFF34F8FA3
:102C2000FEE700BFC535000049360000D131000085
:102C3000DD3200005D3600004535000004ED00E0A7
:102C40003925000019280000C9280000ED360000D1
:102C50003D290000F52400002DE9F84388469146FF
:102C60001F46044640B94FF0800383F31188BFF339
:102C70006F8FBFF34F8FFEE719BB036C0BB34FF0A1
:102C8000800383F31188BFF36F8FBFF34F8FFEE78D
:102C9000B9F1000F3FD00120C9F8000086F3118878
:102CA000BDE8F883636A002B35D004F124001F4B84
:102CB00098472EE001356DB284F845502BE0002096
:102CC000ECE7022F02D1E36B012B26D1184B98477A
:102CD000EFF311864FF0800383F31188BFF36F8FFA
:102CE000BFF34F8FA26BE36B9A4201D3022FE6D161
:102CF00094F845500F4B6DB23A46414620469847EE
:102D00006B1CD7D1A36C002BCCD0394620460A4B84
:102D100098470028BCD10120C0E74FF0800383F31F
:102D20001188BFF36F8FBFF34F8FFEE7C5350000EB
:102D30003127000019280000C92800002DE9F04FB4
:102D400085B089460192044640B94FF0800383F371
:102D50001188BFF36F8FBFF34F8FFEE700297DD13E
:102D6000036C002B7AD04FF0800383F31188BFF3FC
:102D70006F8FBFF34F8FFEE7019E002E73D04FF091
:102D8000800383F31188BFF36F8FBFF34F8FFEE78C
:102D9000019D15B9B847002051E016B902A8354B7E
:102DA0009847B847344B354E354D9847D84794F837
:102DB0004430FF2B04BF002384F8443094F845309E
:102DC000FF2B04BF002384F84530B84701A902A8AF
:102DD0002C4B2D4F9847002838D12046B847002863
:102DE00030D00199294B04F1240098472046B04780
:102DF000A84738B94FF08053CAF80030BFF34F8F5F
:102E0000BFF36F8F0126C047A56B214F002DBFD0A8
:102E1000204B49462046013D9847A563236963B18D
:102E200004F110001C4B984738B11C4B4FF08052F6
:102E30001A60BFF34F8FBFF36F8FB847012005B003
:102E4000BDE8F08F2046B047A847DBE72046B047F3
:102E5000A8472046B8470028D4D09CE7104B984795
:102E6000002889D00026DFF83C80DFF830A0C34678
:102E7000C9E700BF49360000D13100003D290000FC
:102E8000DD3200005D360000F92700004535000006
:102E90003925000085280000C535000004ED00E05C
:102EA000ED360000F524000070B50446104B0D46C9
:102EB0001646984794F84430FF2B04BF002384F84B
:102EC000443094F84530FF2B04BF002384F845308C
:102ED000084B9847A36B2BB93246294604F12400CE
:102EE000054B98472046054BBDE87040184700BF8A
:102EF000F524000039250000813500003D2900003F
:102F00000649074B4FF0805208680128FCD91A6027
:102F1000BFF34F8FBFF36F8FF6E700BF7023002022
:102F200004ED00E0064B5A6E12681AB94FF0FF32FA
:102F30009A6670475A6ED268D2685268F8E700BF46
:102F4000702300202DE9F041154E164BF76E054613
:102F5000306F0430884698476B1C34460AD1B8F16C
:102F6000000F07D0316F104B043106F17400BDE83B
:102F7000F04118473D44236FAF425D600B4B04D9CD
:102F8000D4F88800216F0431F1E7606E216F0431BD
:102F90009847A36E9D4238BFA566BDE8F08100BF8B
:102FA0007023002003240000BD230000D52300006F
:102FB0002DE9F84F940080465A4D20460F46994619
:102FC000A8470646002800F09E805420A8470546E2
:102FD000002800F0958022460663534BA521304619
:102FE00098472B6B043C1C4424F0070A7B1E05F118
:102FF00034020737597802F8011B13F8011F09B191
:10300000BB42F7D10A9C494E042C28BF04244FF040
:10301000000B2F1DEC626C64384685F83BB0C5F898
:1030200048B0B047C4F1050405F11800B047C5F831
:103030004CB03F4B2D61AC616D6285F850B04A4693
:103040004146504698470B9B286003B11D60394CA0
:10305000394B9847D4F8A0300133C4F8A030236F1F
:10306000002B54D12567D4F8A030012B20D1334E4A
:103070002046B04704F11400B04704F12800B047DF
:1030800004F13C00B04704F1A40904F15000B0473A
:1030900004F1B8084846B0474046B04704F18C00F8
:1030A000B04704F17400B047C4F86490C4F8888055
:1030B000D4F8D030D4F8D4200133C4F8D030EB6346
:1030C000EB6A1420934288BFC4F8D43000FB03405D
:1030D00039461B4B98471B4B9847D4F8CC3063B10B
:1030E000236FDA6AEB6A9A4207D2174B4FF080528D
:1030F0001A60BFF34F8FBFF36F8F0120BDE8F88FC9
:103100003046124B98474FF0FF30BDE8F88FD4F8A7
:10311000CC30002BCCD1236FDA6AEB6A9A4298BF8D
:103120002567C5E785270000A73B0000B7230000FF
:10313000A124000070230020F5240000A12300003A
:10314000BD2300003925000004ED00E0E127000068
:1031500073B5194C19491A481A4E04F1DC030025BD
:10316000019300952B468022B047012816D1164BBB
:103170009847012812D14FF0800383F31188BFF3E1
:103180006F8FBFF34F8F4FF0FF33A3660F4BC4F821
:10319000CC00E56602B0BDE870401847013008D1A8
:1031A0004FF0800383F31188BFF36F8FBFF34F8F0E
:1031B000FEE702B070BD00BF70230020B24A0000DD
:1031C000012F0000B12F000019380000192600005F
:1031D000034AD2F8D8300133C2F8D830704700BF64
:1031E00070230020014BD86E704700BF7023002071
:1031F0002DE9F84F354BD3F8D8201C46002A3DD195
:10320000DE6E0136DE66C6B95B6E1B6843B14FF0F9
:10321000800383F31188BFF36F8FBFF34F8FFEE7F7
:10322000636ED4F888206266C4F88830D4F8E03041
:103230000133C4F8E030264B9847A36E9E424FF00E
:1032400000050BD3DFF88C80DFF88CB04FF0140A48
:10325000636E1B68CBB94FF0FF33A366236FDA6A46
:1032600014235343E358022B28BF0125D4F8E83038
:10327000002B18BF01252846BDE8F88FD3F8E430AD
:103280000133C4F8E4300025F0E7636EDB68DF68E3
:103290007B689E42E1D307F104094846C047BB6AF8
:1032A00013B107F11800C047F86AD4F8D430984237
:1032B00088BFC4F8D40049460AFB0040D847236FB2
:1032C000FA6ADB6A9A4228BF0125C1E77023002011
:1032D000252F000003240000BD2300002DE9F84342
:1032E000314CD4F8D83043B94FF0800383F31188C0
:1032F000BFF36F8FBFF34F8FFEE72C4B9847D4F887
:10330000D830013BC4F8D830D4F8D8502DB10024BF
:10331000274B98472046BDE8F883D4F8A030002B0F
:10332000F5D0244FDFF89C904FF01408D4F88C307F
:10333000EBB90DB1204B9847D4F8E4504DB11F4E76
:103340000127B04708B1C4F8E870013DF9D1C4F8CD
:10335000E450D4F8E830002BD9D0194B4FF080520C
:103360001A60BFF34F8FBFF36F8F0124D0E7D4F8FB
:103370009830DD682E1D05F11800B8473046B84773
:10338000E86AD4F8D430984288BFC4F8D4003146F3
:1033900008FB0040C847236FEA6ADB6A9A4224BFF1
:1033A0000123C4F8E830C1E770230020F5240000B1
:1033B0003925000003240000252F0000F131000012
:1033C00004ED00E0BD23000038B540B94FF08003A4
:1033D00083F31188BFF36F8FBFF34F8FFEE741B9BF
:1033E0004FF0800383F31188BFF36F8FBFF34F8FCC
:1033F000FEE7184DD5F8D84044B14FF0800383F371
:103400001188BFF36F8FBFF34F8FFEE7124B9847C2
:10341000ED6E0268954201EB020317D29A4203D97E
:103420009D422CBF0024012403601CB1581B0021C5
:103430000A4B98470A4B984738B90A4B4FF08052CD
:103440001A60BFF34F8FBFF36F8F38BD9A42E7D931
:103450000124E9E770230020D1310000452F00004E
:10346000DD32000004ED00E008B540B90F4B4FF02D
:1034700080521A60BFF34F8FBFF36F8F08BD0C4BA4
:10348000D3F8D81041B14FF0800383F31188BFF314
:103490006F8FBFF34F8FFEE7064B9847064B984759
:1034A000064B98470028E1D008BD00BF04ED00E0BE
:1034B00070230020D1310000452F0000DD320000D4
:1034C00038B51E4BD3F8D8201C461AB10122C3F8D8
:1034D000E82038BDC3F8E8201A6F1B6F12681B6B19
:1034E0009A4204D8206F216F154B34319847D4F895
:1034F000D420142505FB02F3E118E05888B1486890
:103500000833406848602344984204BF43684B60D6
:10351000142303FB02435B68DB682367C4F8D420F1
:1035200038BD42B94FF0800383F31188BFF36F8F2A
:10353000BFF34F8FFEE7013ADCE700BF70230020A6
:10354000D102000010B50C4640B94FF0800383F360
:103550001188BFF36F8FBFF34F8FFEE7054B196FD5
:10356000054B1831984720460121044BBDE8104017
:10357000184700BF70230020D5230000452F00000E
:1035800070B50D46144640B94FF0800383F311889F
:10359000BFF36F8FBFF34F8FFEE7074B196F074BDA
:1035A00018319847002C21460CBF28464FF0FF30B9
:1035B000034BBDE87040184770230020BD23000076
:1035C000452F0000C3682DE9F041D3F80C80B8F115
:1035D000000F08D14FF0800383F31188BFF36F8F82
:1035E000BFF34F8FFEE708F11806144C144F154D2A
:1035F0003046B847D4F8D830E3B908F1040630466D
:10360000B847D8F82C30D4F8D4201420934288BF7F
:10361000C4F8D430314600FB0340A847236FD8F8E4
:103620002C20DB6A9A4286BF0120C4F8E800002003
:10363000BDE8F081314604F18C00EEE770230020F4
:1036400003240000BD230000034BD3F8E020DB6E11
:1036500002604360704700BF7023002070B50C46C5
:10366000054640B94FF0800383F31188BFF36F8F95
:10367000BFF34F8FFEE741B94FF0800383F311880A
:10368000BFF36F8FBFF34F8FFEE7104B9847236850
:103690000F486968C26E5E1C0ED0D0F8E0002E683C
:1036A000864201D08A420ED2521A9A4209D29B1AFD
:1036B00023602846074B98470024074B984720462D
:1036C00070BD002323600124F7E700BFF52400004C
:1036D000702300204936000039250000024B0122EA
:1036E000C3F8E820704700BF70230020064BD3F8D2
:1036F000CC2032B1D3F8D830002B0CBF02200020F0
:1037000070470120704700BF7023002070B5044649
:1037100008B9002070BD1B4D2B6F984208D04FF0A8
:10372000800383F31188BFF36F8FBFF34F8FFEE7E2
:10373000836C43B94FF0800383F31188BFF36F8F1D
:10374000BFF34F8FFEE7C16A426C013B9142836435
:10375000DFD0002BDDD1061D30460B4B9847636C44
:10376000E362C3F10502A261D5F8D420142093428C
:1037700000FB035088BFC5F8D4303146034B98474F
:10378000012070BD7023002003240000BD23000031
:103790002DE9F0410C4C0D4B9847256885B9271D44
:1037A0003846DFF8348004F11806C0473046C04779
:1037B0002A460C211420064BE762266398472060B6
:1037C000044BBDE8F04118475C240020F5240000BC
:1037D000592A000039250000A1230000914208B5B4
:1037E000416000610AD8D21A83699A420ED2084B0E
:1037F000011D186B074B9847002008BD9A4201D263
:10380000994203D2024B011DD86AF3E7012008BD9B
:103810005C240020D52300000E4B13B598470E4BB7
:103820001A6842B94FF0800383F31188BFF36F8F9A
:10383000BFF34F8FFEE734330193032300938022BD
:10384000002306490648074CA0470028EAD002B0EA
:1038500010BD00BF913700005C240020C64A000064
:103860004D390000B12F000030B5154685B01A461D
:10387000034640B94FF0800383F31188BFF36F8F85
:10388000BFF34F8FFEE70D4C206880B105290191F1
:10389000029503930DDC0A4B0A4D9847002302283A
:1038A00008BF089A206818BF1A4601A9A84705B0A2
:1038B00030BD002301A9044CA047F8E75C24002098
:1038C000ED360000AD2A0000592C00002DE9F3412F
:1038D0001A4D1B4FEB6A1A682AB92A6BEA622B63EE
:1038E00002B0BDE8F081DB68DC681E6804F1040802
:1038F0004046B847636A20469847E369012BE9D1FF
:10390000A36933449E4206D2636024614146E86A5B
:103910000C4B9847DEE700232046009332461946B9
:10392000094CA0470028D5D14FF0800383F31188BC
:10393000BFF36F8FBFF34F8FFEE700BF5C24002003
:1039400003240000D5230000693800002DE9F04F62
:1039500087B0644DEA6AD2F80090A846B9F1000F2A
:103960003BD0D2681668604A604F9047B847AA6B50
:103970009042824633D25E4A90470124C5F838A06F
:10398000DFF88CB1002C73D1B9F1000F58D0564537
:103990006CD8D847EB6ADB68DD68564B281D984722
:1039A000EB69012B1DD1A9695246334631442846A3
:1039B000DFF858A1D047A0B10094234621463246F3
:1039C00028464D4CA04760B94FF0800383F311881F
:1039D000BFF36F8FBFF34F8FFEE74E46C3E7002460
:1039E000CCE76B6A28469847444D414ED8F8000012
:1039F000002203A9A8470028ABD0039B002BF5DBCE
:103A0000059C636913B1201D3A4B9847B847D8F815
:103A100038309842834600D2B047039AC8F838B08D
:103A2000092AE3D80123934013F4047A46D113F012
:103A3000C70F1FD19B06D9D52046314B9847D4E7F5
:103A40002B6B1A68B2FA82F25209A6EB0A012868B7
:103A50002C4B9847D8470028C6D12B4B4FF08052AB
:103A60001A60BFF34F8FBFF36F8FBDE72246ECE7BD
:103A7000D847B9E7A169049B244E5A461944204609
:103A8000B0470028B1D0636A20469847E369012B0C
:103A9000ABD1A2690499CDF800A00A442046534650
:103AA0005146154CA04700289FD14FF0800383F367
:103AB0001188BFF36F8FBFF34F8FFEE70499A161A9
:103AC00041B94FF0800383F31188BFF36F8FBFF3C9
:103AD0004F8FFEE75B465A46594420460B4CA047A1
:103AE00083E700BF5C240020D1310000E5310000F5
:103AF000CD38000003240000693800003D2D00008F
:103B0000E1270000A92E000004ED00E0DD370000F1
:103B1000DD32000070B50D4E0D4CA41BA410002525
:103B2000A54209D10B4E0C4C01F01CF8A41BA410AB
:103B30000025A54205D170BD56F8253098470135BE
:103B4000EEE756F8253098470135F2E7704B000054
:103B5000704B0000704B0000744B000010B5431E0A
:103B60000A44914200D110BD11F8014B03F8014FF6
:103B7000F7E7884210B501EB020303D8421E9942D1
:103B80000CD110BD9842F9D28118D21AD34200D17B
:103B900010BD13F8014D01F8014DF7E711F8014B85
:103BA00002F8014FEBE702440346934200D170470D
:103BB00003F8011BF9E7000038B50546002945D098
:103BC00051F8043C0C1F002BB8BFE41800F0E4F8D7
:103BD0001F4A1368104633B9636014602846BDE875
:103BE000384000F0DAB8A3420CD921686218934239
:103BF00004BF1A685B68636004BF521822600460E7
:103C0000ECE713465A680AB1A242FAD91968581863
:103C1000A0420BD120680144581882421960DDD1BE
:103C2000106852685A6001441960D7E702D90C2322
:103C30002B60D3E7206821188A4204BF11685268BC
:103C4000626004BF091821605C60C7E738BD00BF2F
:103C50009824002070B5CD1C25F0030508350C2DE7
:103C600038BF0C25002D064601DBA94203D90C23E1
:103C70003360002070BD00F08FF8234A146821469D
:103C800091B9224C23681BB9304600F041F82060FE
:103C90002946304600F03CF8431C26D10C23336003
:103CA000304600F07AF8E4E70B685B1B1AD40B2B64
:103CB0000FD90B60CD50CC18304600F06EF804F1EF
:103CC0000B00231D20F00700C31A1BD05A42E250FC
:103CD00070BD8C420DBF63684B686360136018BF92
:103CE0000C46E9E70C464968CAE7C41C24F0030403
:103CF000A04205D0211A304600F00AF80130CDD09C
:103D00002560D9E770BD00BF982400209C240020C6
:103D100038B5064C0023054608462360FDF770FAC7
:103D2000431C02D1236803B12B6038BDA82E0020AC
:103D30000EB400B59CB04FF402711DABADF8141079
:103D4000029006906FF000410A48049107914FF6E7
:103D5000FF7153F8042BADF816100068019302A907
:103D600000F078F8029B00221A701CB05DF804EB9A
:103D700003B0704700010020034611F8012B03F83F
:103D8000012B002AF9D17047034613F8012B002AB2
:103D9000FBD1181A01387047704770472DE9F0477A
:103DA0008E689E4282460C469146984635D88A894E
:103DB00012F4906F31D0256809696F1A6569022382
:103DC00005EB450595FBF3F508F101033B449D42E6
:103DD00038BF1D46530531D52946FFF73BFF064640
:103DE00050B90C23CAF80030A38943F04003A381E3
:103DF0004FF0FF30BDE8F0873A462169FFF7AEFE8D
:103E0000A38923F4906343F08003A3812661656155
:103E10003E44ED1B2660A5604646464528BF464603
:103E2000324649462068FFF7A4FEA3689B1BA360A7
:103E300023681E4426600020BDE8F0872A4600F073
:103E4000E7FA06460028E1D121695046FFF7B4FEA3
:103E5000C7E700002DE9F04F9DB0804603938B89A2
:103E60001C060D4616460FD50B696BB94021FFF7AE
:103E7000F1FE2860286128B90C23C8F800304FF003
:103E8000FF30C5E040236B610023099320238DF8A8
:103E9000293030238DF82A304FF0010B37463C464D
:103EA00014F8013B002B3CD1B7EB060A0BD053466C
:103EB000324629464046FFF771FF013000F0A380EB
:103EC000099B534409933B78002B00F09C8000230E
:103ED0004FF0FF3204930793059206938DF8533009
:103EE0001A9305222178504800F042FA671C049B7F
:103EF000D8B9D90644BF20228DF853201A0744BFF1
:103F00002B228DF8532022782A2A16D0079A0021D6
:103F10000A20274601343B78303B092B51D9C9B1DF
:103F200011E0252BC0D02746B9E73F4A801A0BFA8B
:103F300000F0184304903C46D3E7039A111D126821
:103F40000391002A01DB079204E0524243F002038E
:103F5000079204933B782E2B0ED17B782A2B07F106
:103F6000010132D1039B1A1D1B680392002BB8BFBD
:103F70004FF0FF33023705932C4C3978032220464B
:103F800000F0F6F938B14023001B03FA00F0049B5F
:103F9000034304930137397825488DF82810062209
:103FA0007E1C00F0E5F9002835D0224BFBB9039BBD
:103FB000073323F0070308330393099B4B4409930A
:103FC0006CE700FB02320121A3E7002305931846AA
:103FD0000A240F4601313A78303A092A03D9002BD6
:103FE000CAD00590C8E704FB00200123F1E703AB2A
:103FF00000932A46104B04A94046AFF30080B0F16D
:10400000FF3F8146D9D1AB895B063FF538AF0998B0
:104010001DB0BDE8F08F03AB00932A46064B04A900
:10402000404600F081F8EAE7304B0000364B0000D4
:104030003A4B0000000000009D3D00002DE9F047D4
:1040400091461F468A680B69DDF820809342B8BF0D
:104050001346C9F8003091F8432006460C4612B1C9
:104060000133C9F800302368990642BFD9F80030FF
:104070000233C9F80030256815F0060507D104F1B0
:10408000190AE368D9F800209B1A9D4229DB94F8AD
:1040900043302268003318BF012392062ED404F166
:1040A000430239463046C047013021D02368E568D5
:1040B000D9F8002003F00603042B08BFAD1AA3684B
:1040C00022690CBF25EAE57500259342C4BF9B1AFF
:1040D000ED184FF000091A344D451BD10020BDE802
:1040E000F0870123524639463046C047013003D19C
:1040F0004FF0FF30BDE8F0870135C2E7E1185A1CE8
:10410000302081F84300224494F8451082F843108F
:104110000233C4E70123224639463046C047013006
:10412000E6D009F10109D7E72DE9F04317460A7EE9
:1041300085B06E2A984606460C460C9B01F1430E4C
:1041400000F0BC801AD8632A2ED00AD8002A00F0CA
:10415000C880582A00F08A8004F1420584F8422081
:104160002AE0642A01D0692AF6D121681A6811F080
:10417000800F23D0111D1960136827E0732A00F007
:10418000B48008D86F2A2AD0702AE5D10A6842F094
:1041900020020A6003E0752A21D0782ADCD1782237
:1041A00084F845206E4964E01A6801F14205111D4A
:1041B0001960136884F842300123A3E011F0400F26
:1041C00002F104011960D7D0B2F90030002B03DAF4
:1041D0002D225B4284F8432062490A2217E02068BE
:1041E000196810F0800F03D0081D18600B6806E0F6
:1041F00010F0400F01F104001860F7D00B88594906
:104200006F2A14BF0A220822002084F84300656840
:10421000A560002DC0F29C80206820F00400206082
:10422000002B3FD1002D40F095807546082A0BD118
:104230002368DA0708D5236962689A42DEBF302313
:1042400005F8013C05F1FF35AEEB05032361CDF820
:1042500000803B4603AA21463046FFF7EFFE0130BF
:1042600055D14FF0FF3005B0BDE8F08381F845200F
:104270003C492268186812F0800F00F104051D60A7
:1042800001D0036802E05506FBD50388D00744BF80
:1042900042F0200222601BB9226822F02002226034
:1042A0001022B1E77546B3FBF2F002FB1033CB5C92
:1042B00005F8013D03460028F5D1B7E708681A68FC
:1042C000496910F0800F04D0101D18601368196040
:1042D00007E010F0400F02F1040018601368F6D0F8
:1042E0001980002323617546B1E71A68111D196012
:1042F000156862680021284600F03AF808B1401BB2
:10430000606063682361002384F843309FE723697A
:104310002A4639463046C0470130A2D023689B0761
:1043200007D5002504F11909E368039A9B1A9D42F9
:1043300005DBE068039B9842B8BF184693E701236A
:104340004A4639463046C04701308AD00135EBE74E
:10435000002BA7D10B7884F8423004F1420565E7C1
:10436000524B0000414B0000000000000000000024
:1043700001F0FF01102A2BDB10F0070F08D010F816
:10438000013B013A8B422DD010F0070F42B3F6D11A
:10439000F0B441EA012141EA014122F007047FF033
:1043A00000070023F0E80256083C85EA010586EA8A
:1043B000010685FA47F5A3FA87F586FA47F6A5FAC6
:1043C00087F68EB9EED1F0BC01F0FF0102F00702D2
:1043D00032B110F8013B013A83EA010313B1F8D17D
:1043E0000020704701387047002D06BF354603385E
:1043F000073815F0010F07D1013015F4807F02BF97
:10440000013015F4C03F0130F0BC0138704700BFE7
:10441000F8B5074614460E4621B91146BDE8F840E6
:10442000FFF718BC22B9FFF7C7FB25462846F8BDA1
:1044300000F014F884420FD921463846FFF70AFCF1
:1044400005460028F2D031462246FFF787FB314669
:104450003846FFF7B1FBE9E73546E7E751F8040CCA
:104460000028A0F10400BCBF0B58C01870472A2ACE
:104470002A2A2A2A2A2A2A2A2A2A2A2A2A2A2A2A9C
:104480002A2A2A2A2A2A2A2A2A2A2A2A2A2A2A2A8C
:104490002A2A2A2A2A2A2A2A2A2A2A2A2A2A2A2A7C
:1044A0002A2A2A2A2A2A2A2A002A2A2A2A2A2A2A96
:1044B0002A2A2A2A2A2A2A2A535441434B204F5671
:1044C0004552464C4F572044455445435445442A91
:1044D0002A2A2A2A2A2A2A2A2A2A2A2A2A2A2A2A3C
:1044E0002A2A2A00205461736B2048616E646C652F
:1044F000202D20256420232323205461736B204E1C
:10450000616D65202D2025730052756E6E696E6792
:10451000204469737061746368205461736B207305
:1045200075636365737366756C6C79004D4F4445B4
:104530004D20444154412055415254202853455266
:10454000434F4D332920696E697469616C697A65DE
:1045500064004661696C656420746F20696E6974DB
:1045600069616C697A6520746865204D4F44454DDA
:10457000204441544120554152540052756E6E6999
:104580006E67204D6F64656D2050726F6365737345
:10459000205461736B207375636365737366756C08
:1045A0006C790052756E6E696E67204D6F64656D33
:1045B000205278205461736B207375636365737345
:1045C00066756C6C790052756E6E696E67204D6F02
:1045D00064656D205478205461736B207375636338
:1045E00065737366756C6C790054782073657269B5
:1045F000616C20446562756720446F6E650D0A002A
:10460000527820446F6E650D0A00257320257300D3
:1046100053657420746865205744542074696D652F
:104620006F7574207375636365737366756C6C79ED
:10463000004661696C656420746F20736574207432
:104640006865205744542074696D65206F75740047
:10465000456E61626C65642074686520574454003F
:104660004661696C656420746F20656E61626C657B
:10467000205744540057445420496E697469616C52
:104680006973656400574454204661696C65642011
:10469000746F20696E697469616C697A65000000E5
:1046A000C0000200830000190000000000000000AC
:1046B00000000100010000000000000000000000F8
:1046C00000000000000000000000000000000000EA
:1046D00000000000000000000000000000000000DA
:1046E00000000000000000000000000000000000CA
:1046F00000000000000000000000000000000000BA
:1048D0000030004000340040002001410040014110
:1048E00000000043000400430300000004002040D7
:1048F00000000300020070002BF600000000000022
:104900000400000084013040000303000200700036
:104910002EFF0000000000000500000004003040F1
:1049200000000300020070002BF6000000000000F1
:104930000000000000000000000000000000000077
:104940000000000000000000006001410080014103
:10495000000C004200100042001000430000000064
:1049600000030000000000000000000070170000BD
:104970000000000000000000000000000000000037
:104980000100000000030000000000000000000023
:104990007017000000000000000000000000000090
:1049A0000000000002000000000300000000000002
:1049B0000000000070170000000000000000000070
:1049C00000000000000000000300000000030000E1
:1049D0000000000000000000701700000000000050
:1049E00000000000000000000000000004000000C3
:1049F000000300000000000000000000701700002D
:104A000000000000000000000000000000000000A6
:104A1000555C61656800000000380040003C0040C3
:104A200000A0014100C001410014004200180042F2
:104A300044697370617463685461736B004D6F6493
:104A4000656D5461736B004D6F64656D5278546190
:104A5000736B004D6F64656D50726F636573735453
:104A600061736B005375636365737366756C6C7902
:104A700020437265617465642074686520546173B5
:104A80006B73004661696C656420746F20637265A6
:104A9000617465207461736B73004572726F723A52
:104AA000205363686564756C657220657869746508
:104AB000640049444C45000925630925750925759D
:104AC0000925750D0A00546D7220537663000000AD
:104AD00000000000000000000000000000000000D6
:104AE00000000000000000000000000000000000C6
:104AF00000000000000000000000000000000000B6
:104B000000000000000000000000000000000000A5
:104B10000000000000000000000000000000000095
:104B20000000000000000000000000000000000085
:104B3000232D302B2000686C4C0065666745464786
:104B40000030313233343536373839414243444509
:104B50004600303132333435363738396162636478
:104B600065660000F8B500BFF8BC08BC9E467047FB
:104B700089020000F8B500BFF8BC08BC9E4670472B
:044B800065020000CA
:104B84000000000000000000000000000000000021
:104B94000000000000000000004001416906000020
:104BA40000000000C90600006F06000000000000BD
:104BB40000000000000400430000F4010100E803C9
:104BC40002001027211B0000751C00000D1B0000B3
:104BD400251C0000B91A0000BF1A0000371C000091
:104BE400491C000000006B000000000000000032BF
:104BF4007FBB0000BF5D000001006C0000000000EE
:104C0400000000327FBB0000BF5D000002006D00A9
:104C140000000000000000327FBB0000BF5D000008
:104C240003006E000803000000000000701700007D
:104C34000000000004006F000803000000000000F2
:104C44007017000000000000050070000803000059
:104C5400000000007017000000000000191F000091
:104C6400F51F0000891D0000A51D0000B11D0000F6
:104C7400DF1D0000111E000035200000AAAAAAAA08
:104C84000401002000000000F04A0000104B000066
:104C9400D04A0000000000000000000000000000F6
:104CA4000000000000000000000000000000000000
:104CB40000000000000000000000000000000000F0
:104CC40000000000000000000000000000000000E0
:104CD40000000000000000000000000000000000D0
:044CE40000000000CC
:00000001FF
