S00E000053414D4435312E737265638B
S1130000603E0120DD180000D9180000D918000056
S1130010D9180000D9180000D91800000000000009
S11300200000000000000000000000009136000005
S1130030D9180000000000002137000085370000B7
S1130040D9180000D9180000D9180000D9180000E8
S1130050D9180000D9180000D9180000D9180000D8
S1130060D9180000D9180000D9180000D9180000C8
S1130070D9180000D9180000D9180000D9180000B8
S1130080D9180000D9180000D9180000D9180000A8
S1130090D9180000D9180000D9180000D918000098
S11300A0D9180000D9180000D9180000D918000088
S11300B0D918000011280000E527000011260000CF
S11300C01926000021260000292600003126000000
S11300D0D9180000D9180000D9180000D918000058
S11300E0D9180000D9180000D9180000D918000048
S11300F000000000DD280000D9180000D918000015
S1130100D9180000D9180000D9180000D918000027
S1130110D9180000D9180000D9180000D918000017
S1130120D9180000D9180000FD0E0000090F0000C6
S1130130150F0000D9180000D9180000D9180000C4
S1130140D9180000D9180000D9180000D9180000E7
S1130150E5170000D91800000000000000000000AE
S1130160000000000000000000000000000000008B
S1130170000000000000000000000000000000007B
S1130180D9180000D9180000D9180000D9180000A7
S113019000000000D12D0000D9180000D91800007B
S11301A0D9180000D9180000D9180000D918000087
S11301B0E12D0000D9180000D9180000D91800005A
S11301C0D9180000F12D0000D9180000D91800003A
S11301D0D9180000012E0000D9180000D918000019
S11301E0112E0000D9180000D9180000393200007F
S11301F049320000593200006932000079320000AF
S1130200893200000000000000000000D91800003E
S1130210D9180000D9180000D9180000D918000016
S1130220D9180000D9180000D9180000D918000006
S1130230D9180000D9180000D9180000D9180000F6
S1130240D9180000D9180000D9180000D9180000E6
S1130250D9180000D9180000D9180000D9180000D6
S11302600000000010B5054C237833B9044B13B1DA
S11302700448AFF300800123237010BD90010020D7
S113028000000000087200000C4B43B10C480D49FB
S113029010B5AFF300800C48036823B910BD0A48B9
S11302A0036833B97047094B002BF7D0BDE8104001
S11302B01847064B002BF5D0184700BF000000007C
S11302C00872000094010020087200000000000081
S11302D000B589B01E2230210C4B0D4C05466846F2
S11302E098470C48A0470C48A0470A48A0470B4829
S11302F0A0470B490B4B2A46684698470A4B684669
S113030098470A4B81B268469847FEE7515300006C
S1130310991700007E5C0000B95C0000DF670000F4
S1130320F45C0000D95400004F550000551700003C
S113033073B5064B064E074D984702AC44F8040DBE
S1130340B0474FF42F712046A847F9E7494600000B
S1130350A51800002D480000054B30B5142404FBFB
S113036000340D460FCC0FC523682B6030BD00BF91
S1130370085D00000378313B082B0AD8DFE803F05E
S1130380050A0D101316191C1F000E4B3122DA73C7
S11303905A7770470B4B3222F9E70A4B3322F6E7C0
S11303A0084B3422F3E7074B3522F0E7054B36229E
S11303B0EDE7044B3722EAE7024B3822E7E7014B2B
S11303C03922E4E70000002010B5064C0649074B2B
S11303D020460F22984720460549064BBDE81040A9
S11303E0184700BFAC010020110000208355000015
S11303F0B8610000215500002DE9F04186B001A943
S11304002B4B2C4D9847BDF814009DF80C70A84751
S11304108046002847D0BDF81410274B984706465D
S113042000283DD09DF80C200298244B4146984763
S11304300446002832D1BDF80E000130A847054615
S1130440F8B10237204658FA87F7BDF80E30421C3F
S1130450C0B2984211D300232B54BDF80E209DF84E
S11304600400049B013292B2294698471448154B64
S11304709847154B2846984707E03B5C2B54104699
S1130480E3E712480F4B9847002640460E4B984727
S11304900F4B9847304606B0BDE8F0810D48F1E7B0
S11304A00D48084BE7E70D48064B98474646EFE7EB
S11304B05903000045390000D90F00005F550000C2
S11304C0DF67000099170000053A0000A2630000EE
S11304D021100000D663000012640000566400007E
S11304E0014B1870704700BF20000020014B1870AA
S11304F0704700BFE8010020014B1878704700BF27
S1130500E80100200138092807D8DFE800F00508D1
S11305100A0C0E10121416180A23184670470B23DF
S1130520FBE70C23F9E70D23F7E70E23F5E70F2389
S1130530F3E71023F1E71123EFE71223EDE7132389
S1130540EBE70000074B00221A705A709A70DA70B9
S11305501A7105211A725A81DA60302259711A749B
S1130560704700BFEC0100202DE9F7439C4C6378F1
S1130570052B3FD8DFE813F006007300B900FF0035
S11305808501C401A378002B43D16379002B3AD0B1
S1130590944E954B306898470546002831D1DFF8D2
S11305A0A492924B0146D9F800009847012824D11F
S11305B08DF800008E4B6079DFF8808298472B46D7
S11305C08DF801004FF4FA72306801956946C0470E
S11305D001280746874E07D12B462A462946D9F8D3
S11305E00000C047A77002E08348844B98474FF44B
S11305F0FA70B04703B0BDE8F08381487F4B984759
S1130600F8E78048FAE77D4B7F48984701236370F9
S1130610F0E7012BEED17D4B7D4918687D4B4FF4FB
S11306209672984701280646E4D16179704B257A81
S1130630084698478542784D0DD121B10139617141
S11306400023A37004E01F217448754B667098471B
S1130650E068A847CEE77348684B9847F0E7A3786B
S11306601BBB604E604B3068984705460028C8D1D4
S1130670DFF8D0915D4B0146D9F800009847012876
S1130680BBD114238DF800008DF801303068DFF8F9
S1130690AC8101952B464FF4FA726946C047012894
S11306A00746544E98D060489FE7012BA2D1574B80
S11306B057491868574B4FF496729847012899D1B7
S11306C0237A554E142B40F01781554D5748182165
S11306D0A8476189E068A84702215548A847022332
S11306E063700023A370E06883E7A3782BBB3D4EBF
S11306F03D4B306898470546002882D1DFF8449185
S11307003A4B0146D9F80000984701287FF475AFA9
S113071015238DF800008DF801303068DFF81C8156
S113072001952B464FF4FA726946C04701280746E3
S1130730304E3FF451AF3F4857E7012B7FF45AAF97
S1130740324B33491868334B4FF49672984701285B
S11307507FF450AF237A304E152B40F0CD80304DCE
S113076035481921A8476189E068A8470221304823
S1130770A8470323B4E7A378002B65D1194E1A4B7D
S113078030689847054600287FF43BAFDFF8B48013
S1130790164B0146D8F80000984701287FF42DAF86
S11307A08DF8000016238DF801303068234F019531
S11307B02B464FF4FA726946B8470128064607D11A
S11307C02B462A462946D8F80000B847A67002E00E
S11307D01B480A4B98474FF4FA70064B0FE700BFCB
S11307E0EC01002074340020DD42000029410000A7
S11307F005050000CD4800008D6400009917000035
S1130800C1640000EA640000066500005034002062
S1130810F4010020BD3F0000053A00002A650000F5
S1130820551700004A6500007B650000A5650000BF
S1130830DF670000BE650000E9650000013D0000BF
S1130840036600007C340020012B7FF4D3AE574BA9
S113085057491868574B4FF49672984701287FF40C
S1130860C9AE237A544E162B46D1544D54481E21FA
S1130870A8476189E068A84702215248A847042391
S11308802EE7A378ABB9504E504B306898470546D5
S113089000287FF4B6AEDFF86C814D4B0146D8F8E2
S11308A00000984701287FF4A8AE8DF800000923C2
S11308B079E7012B7FF49EAE3C4B3D4918683D4BD4
S11308C04FF49672984701287FF494AE237A3A4EF7
S11308D0092B11D1394D3F481921A8476189E06896
S11308E0A84738480221A847E068C37A237405233F
S11308F063700023A3707CE63748384B9847F0E6D2
S1130900A378C3B9304E3648364B984730682F4BDE
S11309109847054600287FF474AEDFF8E8802C4B36
S11309200146D8F80000984701287FF466AE8DF898
S11309300000172337E7012B7FF45CAE1B4B1C49E7
S113094018681C4B4FF49672984701287FF452AEF6
S1130950237A194F172B22D16189E068174EB047CB
S113096002211848B04707221F49E0681F4B9847E7
S11309700546B8B910211E4B1E4898471E4B984790
S113098002231E48237035216570A570E570B047B9
S113099040F2DC501A4B9847E068B8472AE60E4804
S11309A00E4B98470023A370F6E700BF5034002095
S11309B0F4010020BD3F0000053A00005517000077
S11309C032660000DF67000074340020DD4200005E
S11309D029410000516600004A6500009917000093
S11309E0FC010020750300006B660000E952000062
S11309F0B10F000074630000211000007366000052
S1130A00CD4800007C3400202DE9F3419C4D2B7827
S1130A10012B2C4613D004D3022B13D002B0BDE813
S1130A20F081984B98470028F8D001232B700023BD
S1130A306B70AB701C219448944B9847EEE7944B31
S1130A409847EBE7EB78062BE8D801A252F823F09D
S1130A506D0A00001D0A0000770A0000870A0000E2
S1130A60EF0A00003F0B00005D0B0000894B984724
S1130A700223E370D2E7884B98470323EB704FF4CB
S1130A80FA70864B31E0864E864B306898470546AF
S1130A9048BBDFF86882844B0146D8F800009847C9
S1130AA0012840F0B38018238DF800008DF8013040
S1130AB030687E4F01952B464FF4FA726946B84769
S1130AC00128764E0BD12B462A462946D8F8000039
S1130AD0B8470423E37040F6C410B0479EE7744857
S1130AE0744B9847F7E77448724B984796E7734BF3
S1130AF073491868734B694E4FF4FA62984701289A
S1130B001AD12A7ADFF8E481182A11D16F89172FB4
S1130B1007D9ED686C496D4B28469847002800F0CA
S1130B2078810523E068E370C04741F65830D4E784
S1130B306748604B9847F4E70523EB70F5E7062315
S1130B40EB70052200231F216248504C2B716A71FF
S1130B50AB70A04721216048A04790E72E79012E71
S1130B6000F0CE801AD3022E7FF458AFAB78002B5E
S1130B7040F008814A4E4B4B3068984705460028A0
S1130B80B1D1DFF87881484B0146D8F80000984786
S1130B9001283BD18DF800001B23C8E0AB78002B63
S1130BA03DD16B79002B33D03D4E3E4B3068984796
S1130BB00546002897D1DFF844813B4B0146D8F81D
S1130BC000009847012821D18DF80000434B60793B
S1130BD098478DF801003068344F01952B464FF447
S1130BE0FA726946B8470128064609D12B462A46B7
S1130BF02946D8F80000B8470623A670E37002E03F
S1130C0037482C4B984740F6C4103AE735486BE711
S1130C10284B3548984701232B71062329E7012BDC
S1130C207FF4FCAE254B26491868264B4FF47A62B4
S1130C309847012806461BD16179284B2D7A08462E
S1130C4098478542294D0FD121B1013961710023A3
S1130C50A37006E00623E3701F2125480B4B267181
S1130C609847E068A847D9E61948124B9847EEE739
S1130C7029212048054B98471F4B9847CEE600BFD3
S1130C80EC01002065120000A96600005517000061
S1130C906905000021100000C9030000CD480000D0
S1130CA074340020DD42000029410000013D0000B1
S1130CB00366000099170000EA6400005034002025
S1130CC0F4010020BD3F0000C6660000E9520000A8
S1130CD04A650000DF6600000167000005050000AA
S1130CE08D640000C164000006650000053A000040
S1130CF02A65000022670000C51800007C3400202B
S1130D00AB78BBB9494E4A4B306898470546002832
S1130D107FF4E9AEDFF85C81464B0146D8F8000069
S1130D20984701287FF472AF8DF800001A238DF8DC
S1130D30013050E7012B7FF471AE3F4B3F491868F7
S1130D403F4B4FF47A629847012891D12B7A3D4E5C
S1130D501A2B11D13C4D3D482121A8476189E068F7
S1130D60A84702213A48A847022323710023A3700D
S1130D700623E370E068B0E6364B37489847002313
S1130D80AB70F7E7012B7FF449AE2B4B2B49186866
S1130D902B4B4FF47A62984701287FF469AF2B7A82
S1130DA0284F1B2B2BD1284D2C481521A84761898E
S1130DB0E068A84731462648A847002605231C2199
S1130DC0274863712671A670E67026706670A8477E
S1130DD036212448A8472B212348A847637CE06890
S1130DE001336374B847637C022B7FF617AE31215D
S1130DF01E48A84731211E48A84766743CE7164898
S1130E00144B98470023AB70E8680623EB70B8478F
S1130E1004E6284639460C4DA84702210C48A84749
S1130E2002210B48A84703237CE600BF743400204A
S1130E30DD4200002941000050340020F40100206C
S1130E40BD3F0000053A0000551700005767000039
S1130E50DF670000991700004A6500007967000009
S1130E608F670000AC670000E26700000E680000B6
S1130E70406800007C34002010B512491248134B1E
S1130E80134C9847C8B94FF4006212491248134BE7
S1130E90984790B9012211460B48114B9847114BC2
S1130EA0094898471048A047104B114893F83C1341
S1130EB0104B4909BDE81040184723460E48BDE8C9
S1130EC0104018470040014124000020892A0000F6
S1130ED09917000086340020883C00208D220000F1
S1130EE01F2B0000E12A00007268000000E100E00E
S1130EF0986800009D170000A9680000014B0122BA
S1130F001A76704700400141014B02221A7670475D
S1130F100040014130B51A4D1A4C89B02846A0470B
S1130F200028FBD0184B16489847184B0146184820
S1130F309847184B9847C4B204B303A92046164BEC
S1130F409847164B12489847BDF81C30984215D361
S1130F5002AB134800932146002303220068114C7E
S1130F60A047029B3BB1104B4FF080521A60BFF375
S1130F704F8FBFF36F8F00200C4B984709B030BDE3
S1130F8024000020152B0000032B0000C7220000C2
S1130F90883C0020F904000059030000ED22000001
S1130FA068340020C94D000004ED00E0ED040000A9
S1130FB070B5064C064B0E46054620469847324609
S1130FC029462046034BBDE8704018472400002002
S1130FD0E12A0000CD160000F7B50C4B04460C487E
S1130FE00D469847A8420AD301A80A4B084E0A4F57
S1130FF098472544AC4204D101A8084B984703B054
S1131000F0BD21463046B8470134F3E7ED22000035
S1131010883C00207D200000A52200008B200000D9
S11310200148024B184700BF883C0020F52200000D
S11310302DE9F74F504E514D514FDFF870A1334613
S1131040002403F8014BA6F8014010229C702146AD
S1131050301D2C70B8470F22214606F11400B84702
S1131060D046C6F82340474B98470428FBD1DAF80A
S11310700000454B454E98470146002834D1444F63
S1131080444B3868984701282ED12B78424C032BC7
S11310906BD8DFE803F0022F424A04238DF80030B6
S11310A04FF0000901238DF8013064224B46694654
S11310B0D8F80000CDF80490A047834601280DD14C
S11310C03648374B98474B464A4649463868A04706
S11310D04FF4FA60B04785F800B005E03148304B72
S11310E098474FF4FA60B0472F4B98474FF4167067
S11310F0B047B8E704234FF0020B8DF800308DF8A9
S113110001B04FF000094B4664226946D8F800004C
S1131110CDF80490A0470128D1E74FF0040B072332
S11311208DF800B08DF80130EBE704238DF8003022
S11311304FF0000903238DF8013064224B466946C1
S1131140D8F80000CDF80490A0470128C6D1134870
S1131150134B98474B464A4649463868A0474FF4D4
S1131160FA60B04764232B70BEE700231A46194681
S11311703868A047B8E700BFFE010020983C002073
S11311805153000099120000DD420000CD480000D8
S11311907C34002029410000013D0000D268000099
S11311A099170000F0680000A518000074340020AE
S11311B00B78013B70B5062B1CD8DFE803F01E2F1B
S11311C01A1B1B1B04001F4C00254A88EBB2073A6C
S11311D0934205F1010530DD1B4B1C481C4E0125D3
S11311E0257098470F211B48B04702211A48B04781
S11311F0257070BD0023012BFBD2124A0188A2F88E
S11312000110531C82789A7003211846104CA04791
S1131210234602211048BDE8704018470F4B00F1E7
S1131220100250F8041B43F8041B9042F9D10C48F7
S1131230054B984710210948E8E7C2182344D2799E
S11312401A75C2E7FE0100209917000038690000F2
S11312505517000012020020DF6700000202002080
S113126018690000014B1878704700BFFE01002088
S113127000F01F024009C00100F1824000F5004067
S11312800123934083609AB21B0C42F0804243F0E6
S11312904043826283627047014B1878704700BFF5
S11312A025020020034B00221A705A7001229A7002
S11312B0DA7070472502002049490B78062B70B577
S11312C00C466ED0072B45D0002B40F088804B781D
S11312D0032B00F28480DFE803F0022C353A414D01
S11312E03020A847404991F8D0304FF4803603F0BD
S11312F0FE0381F8D0301320C1F89460A84791F818
S1131300533003F0FE0381F853304FF400234B6154
S11313101020A84791F8503003F0FE0381F85030B4
S113132001234E614FF4FA706370304BBDE8704096
S113133018472D4B4FF48032C3F8982002234B708A
S11313403220F2E703234B7040F6B830EDE7042374
S11313500B7070BD8B7813B1012B11D070BD214B74
S113136013209847204B93F8532002F0FE0283F891
S113137053204FF400229A6101238B701920D4E783
S1131380184B13209847184B93F8532002F0FE0291
S113139083F853204FF400225A6100230B704B70E2
S11313A070BDCB78DBB9104C0E4D3020A84794F8B3
S11313B0D03003F0FE0384F8D0304FF48033C4F807
S11313C094301320A84794F8533003F0FE0384F8B4
S11313D053304FF40023A3610123CB70CEE770BDDB
S11313E0250200207112000000800041CD48000059
S11313F010B5044B04483C219847044BBDE8104009
S1131400184700BF551700005A690000C5180000AE
S113141073B5164B164C9847164B9847164B0093CA
S11314200122002315491648A047044670B1154B04
S1131430984700230246009320460121124CA047FE
S1131440012803D128211148114B9847114D124E00
S1131450124CA847B0470428FBD1A047104B98472B
S11314604FF4C8700F4B9847F3E700BFA512000074
S1131470A14F000045050000F113000080EE360086
S11314809769000049460000F54F0000B06900006C
S113149055170000B912000099120000090A000053
S11314A0A5180000CD4800002DE9F0472F4C304B23
S11314B00F4621468146154626469847002F50D0B0
S11314C0617819B1012918D0BDE8F0874FF42F7263
S11314D004F11C00274B84F81490E58298473946A0
S11314E02A4604F11C00244B984704F1140104F12A
S11314F01C00224BBDE8F0471847214C214B2068C3
S11315004FF0FF319847012808D11F481F4B9847D7
S1131510002320681E4C1A461946A0471D4C1E4B3A
S1131520206898478046C8B928461C4B86F8149012
S1131530F5829847B061B0B12A4639460E4B9847B8
S1131540434620681649124C6422A04701280F4BD9
S11315500CBF14481448BDE8F047184713480B4B18
S1131560F9E71348FBE7BDE8F08700BF2C02002031
S1131570590300005153000007530000B11100004B
S11315807834002029410000D9690000991700002F
S1131590013D000050340020DD42000045390000C8
S11315A040020020006A0000316A0000616A000005
S11315B08D6A0000F0B50F4D0F4E104F87B04FF0FD
S11315C0FF330DF1030219460020A84701280DD16D
S11315D001A99DF803000A4CB0473846A0479DF87E
S11315E00400084B984708B90748A047074B984799
S11315F0E5E700BF2D4D000059030000186C000002
S113160099170000F9030000426C0000A5180000BF
S11316102DE9F0471E4C1F4D2068DFF8A8901E4EA0
S1131620DFF8A4A000231A461946A847A846C847CD
S11316300428FCD13068D04720B300212068174B20
S1131640984701281ED1164D3068164B642229464E
S11316509847012816D16F78134B05F108013846D5
S11316609847124B9847297C114BE8689847114BCF
S113167038469847104B0020984700231A461946CD
S11316802068C0470D4B984764200D4B9847CEE720
S11316907C340020013D0000743400202941000006
S11316A008050020BD3F0000590300002110000080
S11316B0B10F0000ED040000E1040000A5180000D3
S11316C0CD48000099120000DD4200002DE9F047EA
S11316D00F4C06460D461746A1463046A047002843
S11316E0FBD0DFF83080DFF830A0013D00246B78B8
S11316F004F80830304615F8011FD0473046C84773
S11317000028FBD00134BC42F1D32046BDE8F08769
S11317100B2B000024050020FD2A00000223037681
S1131720704780230376704710B5064C0649074B73
S113173020469847012220461146054BBDE810403B
S1131740184700BF4000002000040043892A00001D
S11317501F2B000070B5064C064B0E46054620466E
S11317609847324629462046034BBDE87040184747
S113177040000020E12A0000CD16000010B5044B03
S113178004461621034898470123237610BD00BF61
S113179055170000606C00007047000030B59BB026
S11317A00C4605466422002101A8094B984764B100
S11317B023460849084C2A4601A8A047074B01A81C
S11317C09847074B81B201A898471BB030BD00BFB2
S11317D051530000816C0000D95400004F550000A3
S11317E0551700000C4B10B504220C4C1A760C480B
S11317F0A0470028FBD00B4B094898470A4900230F
S113180008704B7009480A4B984705210748094B53
S1131810BDE81040184700BF00040043152B00002A
S113182040000020032B0000993C00209B3C00203A
S11318303F55000055170000044B03EB80004FF4A4
S11318407A714288024B0348184700BF5C000020AD
S1131850D7320000743D002010B50220034B984796
S11318600348044BBDE81040184700BF3918000076
S1131870743D0020BB33000010B5064B9847064B5F
S11318804FF47A709847054B00221A70BDE8104057
S1131890034B18474D1F0000C12000002E050020F7
S11318A059180000044B1B7813B90448044B18471B
S11318B06FF01000704700BF2E050020743D00201B
S11318C0CF330000024B01221A700020014B18474D
S11318D02E05002039180000FEE7000008B5144A60
S11318E0144B9A4218D1144B144A002193421CD32E
S11318F0134A144B22F07F029A60D3F8882042F4F2
S11319007002C3F88820BFF34F8FBFF36F8F0E4B65
S113191098470E4B9847FEE70D49043A8B42E2D2B2
S113192052F8040F43F8040BF8E743F8041BDDE70F
S1131930087200000000002090010020603E00209A
S11319400000000000ED00E0A15200005D34000042
S11319508C01002030B54A1CC4B2C0F347121648AB
S113196004F01F0300EBC21007D1184490F8403074
S113197003F0FE0380F8403030BDC5185B0895F8CD
S1131980402002F0FE02184442F0010285F8402093
S113199090F8303014F0010F19BF03F00F0343EA3D
S11319A0011101F00F0103F0F00314BFC9B2194390
S11319B080F8301030BD00BF0080004100F01F02ED
S11319C04009C00100F1824000F50040012393402A
S11319D043609AB21B0C42F0804243F0404382625F
S11319E083627047044AD36943F48073D361034B21
S11319F04022C3F80021704700080040001C00404A
S1131A0010B5044B984704490448054BBDE8104001
S1131A10184700BFE519000000200042403D0020A7
S1131A206D20000070B50220154D164CA8471649CC
S1131A300220A0470320A84714490320A0472820D8
S1131A40A84713492820A0472920A847114929203D
S1131A50A0470420A84710490420A0470520A84710
S1131A600E490520A0470620A8470D490620A04797
S1131A700720A84723460B490720BDE870401847B4
S1131A80BD19000055190000010002000100030007
S1131A9001002800010029000100040001000500E4
S1131AA00100060001000700044A136A43F08003A2
S1131AB01362034B4122C3F8202170470008004001
S1131AC0001C004010B5054B9847054B9847002271
S1131AD004490548054BBDE810401847A91A000001
S1131AE0251A0000001C0043503D00207520000012
S1131AF0044A136A43F480731362034B4022C3F80D
S1131B002421704700080040001C004010B5044B1D
S1131B109847002203490448044BBDE81040184785
S1131B20F11A000000200043083E00207520000048
S1131B30044A136A43F400731362034B4022C3F84C
S1131B402821704700080040001C004010B5044BD9
S1131B50984704490448054BBDE81040184700BFA6
S1131B60311B000000240043783D00209920000030
S1131B70054B4022C3F89020044A536943F4806320
S1131B805361034B184700BF001C0040000800408D
S1131B901D210000034A936943F080039361024BC3
S1131BA0184700BF00080040E5200000024A1369FE
S1131BB043F04003136170470008004010B5044B24
S1131BC0984704490448054BBDE81040184700BF36
S1131BD0AD1B000000400041043D00204D210000E9
S1131BE010B5054C05491120A0472346044912208D
S1131BF0BDE81040184700BF55190000030011004C
S1131C0003001200064B4022C3F8E0204A22C3F826
S1131C108C20044A936943F480639361704700BF46
S1131C20001C00400008004010B5044B9847044BCA
S1131C309847044BBDE81040184700BF051C00003E
S1131C40790E0000E11B000010B5054C0549172072
S1131C50A047234604493720BDE81040184700BF79
S1131C60551900000300170003003700064B4022FB
S1131C70C3F80C214A22C3F88C20044A136A43F0A7
S1131C8002031362704700BF001C004000080040BC
S1131C9010B5044B9847044B9847044BBDE81040DB
S1131CA0184700BF6D1C000029170000491C0000E4
S1131CB00148024B184700BF10E000E0B1200000CB
S1131CC0044A536943F480435361034B4022C3F8ED
S1131CD0A420704700080040001C004010B5054BCC
S1131CE09847054B98470549054B0246BDE8104007
S1131CF004481847C11C0000353200000038004079
S1131D007D210000CC3C0020044A536943F4004385
S1131D105361034B4022C3F8A420704700080040DD
S1131D20001C004010B5054B9847054B98470549E2
S1131D30054B0246BDE8104004481847091D000041
S1131D4035320000003C00407D210000EC3D0020C5
S1131D50044A936943F400539361034B4022C3F84C
S1131D60E820704700080040001C004010B5054BF7
S1131D709847054B98470549054B0246BDE8104076
S1131D8004481847511D00003532000000A00141ED
S1131D907D210000E83C0020044A936943F4006379
S1131DA09361034B4022C3F8E420704700080040CD
S1131DB0001C004010B5054B9847054B9847054952
S1131DC0054B0246BDE8104004481847991D000021
S1131DD0C92D000000600141552200000C3E002086
S1131DE0044A936943F480539361034B4022C3F83C
S1131DF0E420704700080040001C004010B5054B6B
S1131E009847054B98470549054B0246BDE81040E5
S1131E1004481847E11D0000C92D0000008001415D
S1131E2055220000543D0020044AD36943F00803BE
S1131E30D361034B4022C3F8F420704700080040EC
S1131E40001C004010B5054B9847054B98470549C1
S1131E50054B0246BDE8104004481847291E0000FF
S1131E60C92D0000000C004255220000AC3D0020AA
S1131E70044AD36943F01003D361034B4022C3F8EF
S1131E80F420704700080040001C004010B5054BCA
S1131E909847054B98470549054B0246BDE8104055
S1131EA004481847711E0000C92D000000100042AC
S1131EB055220000CC3D0020044A136A43F010036D
S1131EC01362034B4022C3F81821704700080040F6
S1131ED0001C004010B5054B9847054B9847054931
S1131EE0054B0246BDE8104004481847B91E0000DF
S1131EF0C92D00000010004355220000203D0020A1
S1131F00024A536943F480735361704700080040E8
S1131F1010B5074B98470748074B0360074B984792
S1131F20074B18B90748BDE8104018470648FAE7B8
S1131F30011F0000743D0020002000409932000081
S1131F40991700008C6C00009C6C00002DE9F04196
S1131F50284B294C294F2A4E2A4D98472A4B9847FB
S1131F602A4B98472A4B98472A4B98472A4B98471D
S1131F702A4B98472A4B98472A4B98472A4B98470D
S1131F802A4B98472A4B98472A4B98472A4B9847FD
S1131F90A3694FF0400843F48043A361C7F8E88085
S1131FA0B047264902462648A847E36943F0200380
S1131FB0E361C7F8F880B047224902462248A8479F
S1131FC0E36943EA0803E361C7F8F880B0471F49AF
S1131FD002461F48A8471F4B98471F4B98471F4B63
S1131FE098471F4B98471F4B98471F4BBDE8F0413C
S1131FF0184700BF5124000000080040001C0040A6
S11320002D32000055220000B11C0000011A00000E
S1132010C51A00000D1B00004D1B0000711B0000C1
S1132020951B0000BD1B0000911C0000291C000032
S1132030DD1C0000251D00006D1D000000C00141D5
S11320402C3E0020001400428C3D00200018004269
S1132050AC3C0020B51D0000FD1D0000451E000025
S11320608D1E0000D51E0000111F0000004B1847F4
S113207061230000004B18470D240000EFF3108388
S1132080036072B6BFF35F8F7047BFF35F8F03685F
S113209083F310887047000010B5044B044698473A
S11320A018B96060A060E060206110BDED240000FC
S11320B0014B1860014B184730050020512B0000DC
S11320C0054B10B51C68054B9847054B0146204647
S11320D0BDE81040184700BF300500204924000027
S11320E0652B0000004B1847A52600000A4B30B4AE
S11320F05D68012100228C18640801D030BC70474F
S1132100854204D11B68002BF8D030BC18472CBF83
S1132110FF210122EFE700BF34050020044B0548EE
S113212000214FF0FF3283E80600034B184700BF3D
S113213034050020ED20000039260000436903B176
S113214018477047836903B11847704710B5044BAB
S11321500446984718B9034B2360034B636010BDD2
S1132160992700003D21000045210000436903B187
S113217018477047836903B11847704710B5044B7B
S113218004469847034B2360034B6360002010BD53
S1132190693100006D21000075210000F0B505686B
S11321A01DB90F4BBDE8F0401847D1F808E02C46A4
S11321B00026C2F1010C6368A768934295BFDB193E
S11321C063449B1ADB19734507D22368264613B967
S11321D03046044BE6E71C46EDE7A542F8D1E0E7BC
S11321E071220000792200002DE9F0470669037E80
S11321F044690136DA070546066110D4037E9B075D
S11322000DD4DFF84880DFF8489000F1140724B1BA
S11322106368A268F31A934207D2BDE8F0872B7E65
S113222043F002032B76BDE8F0873846C047237C91
S1132230012B04D16660324621463846C847D5F89A
S113224014A0E368204698475446E0E78122000042
S11322509D21000010B51368044640F8042B9847EC
S11322600020024B6061636010BD00BFE9210000E3
S113227003680B600160704703680B60016070477E
S113228003680BB11A68026018467047531E1A405F
S113229001BF43608260C26001600CBF10466FF0F2
S11322A00C0070478368C2689A4209D042681340A0
S11322B00268D35C0B70836801338360002070472D
S11322C06FF009007047C368426813400268D15434
S11322D0C36881684268591A914288BF9A1A03F107
S11322E0010388BF8260C36000207047C2688068B1
S11322F0101A7047C368836000207047044B196844
S1132300024609B903491960186802441A60704703
S11323103C050020603E0120036A0B42FCD170475B
S113232038B501210D4DA8470321A8470478C4F30B
S1132330400484B90121A847037843F001030370E2
S11323400121A8474FF4C0630361047343614473DC
S11323504480204638BD6FF0100038BD19230000BA
S11323600160014B0846184721230000036B0B4210
S1132370FCD1704708B50121034B984703889BB2F1
S113238043F00103038008BD6D23000000F13D40CC
S1132390A0F5E050C0F38720431E584258417047CF
S11323A070B5174E0C460121B0470321B04705888C
S11323B0C5F340050DBB134B98470121B0471249A3
S11323C0162303FB04118B88C3808B790372CB79AA
S11323D083700B8983808B7A8372CB7AC3728B89E7
S11323E08381CB89C3810B8A03824B8A43820B7D11
S11323F0C3704B880380284670BD6FF0100070BD19
S11324006D23000075230000B66C000010B5054B69
S1132410016008460A469847034B0146BDE8104050
S1132420104618478D230000A12300004309012210
S113243000F01F0002FA00F04033024A42F8230081
S1132440704700BF00E100E04BF68033584370470B
S113245010B50D4A0D4C13889BB213800C4B984752
S11324600C4B98474FF40060A0470B4B984740F241
S1132470FF70A047094A136943F400731361BDE870
S11324801040074B184700BF00400041FD260000E4
S1132490192800008D2700003D2800000008004096
S11324A04925000083680B42FCD1704738B50121EF
S11324B00D4DA8470321A8470278C2F340027AB918
S11324C00121A847037843F0010303700121A847C1
S11324D00123427082708281C2810376104638BD26
S11324E06FF0030038BD00BFA52400000160014B5C
S11324F008461847AD24000010B4114B114C198C38
S113250001F01F0103EB01130C224A4393F84E1010
S1132510C90704EB020006D5012283F84E20436864
S11325205DF8044B184793F84E10890704D502212F
S113253083F84E10A358F3E75DF8044B704700BFCF
S113254000A000414005002030B52E4B1A8822F02F
S113255002021204120C1A805A8822F47C521204C9
S1132560120C5A801A8892B242F001021A801A8818
S113257012F00102FBD14FF470611980597B22489B
S113258001F0FE01597300F500715A6158639963B3
S11325901E491346A0F5C0701C0104F1824202F5E5
S11325A020420D6815640D7982F845504D7982F802
S11325B0465004440133CA88A4F88021202B01F139
S11325C00801E9D11F22012053099B0003F1604354
S11325D002F01F0103F5614300FA01F1C3F8801012
S11325E0BFF34F8FBFF36F8F0132242AC3F88011DA
S11325F01960E9D1034A13889BB243F002031380A4
S1132600002030BD00A00041C0060020E46C0000A2
S1132610004B1847F9240000004B1847F924000028
S1132620004B1847F9240000004B1847F924000018
S1132630004B1847F9240000194A13465168C9078A
S1132640FCD45A689007FCD11B78990725D4144B05
S113265019465A68D207FCD41A7842F001021A705B
S11326604B68DB07FCD40E4B5A6812F00302FBD113
S1132670197801F0EF0119705A709A609A611A631F
S11326805A63DA611A62064B586810F00300FBD1F2
S11326901A7842F002021A7070476FF01000704707
S11326A00028004010B5124A124C0023185D03F1B3
S11326B048010133432B42F82100F7D10E48002290
S11326C000F14004D30003F1824303F5604330F882
S11326D01210196214F8221083F825100132C9432C
S11326E0C9B2202A83F82410ECD1002010BD00BF09
S11326F000E00041E46D0000286E0000C10742BF05
S11327001D4B1E4A1A62820742BF1B4B1C4A5A6267
S1132710430742BF184B194A9A62010742BF164B3E
S1132720164ADA62C20642BF134B144A1A6383067E
S113273042BF114B114A5A63410642BF0E4B0F4A26
S11327409A63020642BF0C4B0C4ADA63C30542BFCC
S1132750094B0A4A1A64810542BF074B074A5A6467
S1132760420542BF044B074A9A64030542BF024B29
S1132770054ADA64704700BF001C0040062B0100C4
S113278006230100052B0100053B0100014B01223A
S11327905A7170470008004001610B8823F0C003A0
S11327A09B049B0C0B800D4B18600D4B4FF000519C
S11327B0C3F88010BFF34F8FBFF36F8F4FF0804289
S11327C0C3F88020BFF34F8FBFF36F8F0020C3F88F
S11327D08011C3F8802119601A607047C00A002074
S11327E000E100E0094B186803691A8AD20704D58E
S11327F001221A82036843B118471A8A92B222B19D
S113280040F25E221A824368F5E77047C00A00204E
S1132810004B1847E5270000074B42F24E029A820C
S113282001229A75DA75DA690022DA61DA68D20768
S1132830FCD504221A74704700140040244A136A19
S113284023F00F0343F004031362224B00221A7790
S1132850214A9A6293F82C2012F01002FAD183F8DC
S113286020201C4A134692F82C104907FBD442211D
S1132870117793F82C209207FBD45A6A5A62154BAD
S11328801A4693F82C100807FBD4822183F82010F1
S113289092F82C305907FBD492F820300D4A13F0EB
S11328A0010F10D0136903F41063B3F5106FF9D15D
S11328B0074A5368002BFCD1136A23F00F0343F03B
S11328C00603136270471369DB05FCD5F0E700BF0C
S11328D0001C0040001000400000010407B50C4A31
S11328E09378DBB20193019B990707D5094B1B68C9
S11328F023B15068984703B05DF804FB019BDB07E4
S1132900F9D5044B5B68002BF5D0014AF1E700BF11
S1132910000002414C3E0020002808DB420901234C
S113292000F01F0003FA00F0014B43F82200704747
S113293000E100E000280DDB4309012200F01F0044
S113294002FA00F02033044A42F82300BFF34F8F09
S1132950BFF36F8F704700BF00E100E0002809DB80
S11329604309012200F01F0002FA00F06033024A1A
S113297042F82300704700BF00E100E0C3690B4246
S1132980FCD1704708B50321024B98470068C0F397
S1132990400008BD7D29000070B50B4D06460FCDE3
S11329A086B06C460FC495E8030084E80300002059
S11329B05DF82030B34202D1C0B206B070BD013020
S11329C00628F5D10020F8E7E86E000038B5254B5D
S11329D00446984703283ED004283ED0052814BF57
S11329E000220222204601211F4DA84720461F4BEA
S11329F09847002833D120460121A847236843F093
S1132A000103236020460121A8471949182303FB29
S1132A100213D8691D6A206065605D6AA56010F4C0
S1132A20C04F1BBFA0891D8D1B8D65F30C001FBFFC
S1132A30A08193F82A00A38960F34F33A38118235C
S1132A4003FB0212002092F82B30A37392F82C306F
S1132A5084F8303038BD0022C4E70122C2E76FF0A9
S1132A60100038BD992900007D2900008529000047
S1132A70E86E000008B5034B984780002E3000F044
S1132A80FE0008BD9929000070B5104B06460846A3
S1132A900C4698470546B0B9B46120460C4B98479C
S1132AA00230C1B20CB220460A4B984720460A4B6A
S1132AB0984701F1604000F56140E02380F800335D
S1132AC02046064B9847284670BD00BFCD2900001C
S1132AD0752A0000352900005D290000192900002D
S1132AE0826908B50321044B10469847136843F0E4
S1132AF00203136008BD00BF7D2900008369996249
S1132B0070478369986AC0B270478369187E00F081
S1132B10010070478369187EC0F38000704711F08C
S1132B20FD0F09D183690221012012B918751975A5
S1132B307047987599757047012904D183690421F8
S1132B40002AF7D1F3E70329F5D183698021F7E758
S1132B50034B6FF07F425A6005221A60704700BF32
S1132B6010E000E00B0E0C4A30B5D8B26FF07F4491
S1132B700138C0B2FF2808D1A3EB036319445160A4
S1132B8091601368DB03FCD530BD54609460156814
S1132B90ED03FCD5ECE700BF10E000E000280DDBFE
S1132BA04309012200F01F0002FA00F02033044A16
S1132BB042F82300BFF34F8FBFF36F8F704700BFFE
S1132BC000E100E0C36819647047C368186C70477B
S1132BD0C268D16AC90703D50121D16203681847C5
S1132BE07047000070B50B4D06460FCD86B001ACA2
S1132BF00FC42B682360002001AB53F82020B2429D
S1132C0002D1C0B206B070BD01300528F5D1002054
S1132C10F8E700BF606F0000C3689A689207FCD1B0
S1132C201A6842F002021A607047000038B505467F
S1132C30364B08460C46984738B1012805D002287F
S1132C4003D0032801D0042841D143B2EC60A26828
S1132C50D207FCD4A2689107FCD12268920751D410
S1132C60A268D107FCD4226842F001022260A26863
S1132C70D207FCD4264A242101FB0323996921604D
S1132C80197F6171597FA177196A5B6A2162236494
S1132C900123A3621F4B9C421CD11F4B1D600428BF
S1132CA096BF8018892190F8C8101C4B0846984795
S1132CB001F01F024909890001F1604101F56141F8
S1132CC001239340C1F8803100200B6038BD4FF0E0
S1132CD0FF33BBE7124B9C4202D10F4B5D60DEE732
S1132CE0104B9C4202D10C4B9D60D8E70E4B9C428A
S1132CF002D1094BDD60D2E70C4B9C4204BF064B6A
S1132D001D61CCE76FF0100038BD00BFE52B00005B
S1132D10606F000000600141C40A00209D2B000088
S1132D2000800141000C00420010004200100043EA
S1132D30C3689A689207FCD11A6822F002021A60EA
S1132D407047C3689A689207FCD11868C0F34000C2
S1132D5070470000074BC06810B5984704289BBF14
S1132D60054BC018892090F8C800044BBDE81040FA
S1132D70184700BFE52B0000606F00002D24000001
S1132D8010B5C4680D4B2046984704289BBF0C4BD4
S1132D90C018892090F8C8000A4B9847A3689A077E
S1132DA0FCD1236823F002032360A368DB07FCD46F
S1132DB0236843F00103236010BD00BFE52B00002E
S1132DC0606F00009D2B00000048704768000020E1
S1132DD0014B1868014B1847C40A0020D12B00008E
S1132DE0014B5868014B1847C40A0020D12B00003E
S1132DF0014B9868014B1847C40A0020D12B0000EE
S1132E00014BD868014B1847C40A0020D12B00009D
S1132E10014B1869014B1847C40A0020D12B00004C
S1132E2000280DDB4309012200F01F0002FA00F024
S1132E302033044A42F82300BFF34F8FBFF36F8F50
S1132E40704700BF00E100E003690B42FCD170470A
S1132E5008B50121034B9847036843F0010303605D
S1132E6008BD00BF492E000008B50321024B984756
S1132E700068C0F3400008BD492E000008B50321D6
S1132E80034B9847036823F00203036008BD00BFA7
S1132E90492E0000C26808B50321044B1046984728
S1132EA0136843F00203136008BD00BF492E0000FD
S1132EB0C068014B184700BF7D2E0000C3681A6824
S1132EC0C2F38102022A01D1D96170471A6812F053
S1132ED00C0F02D189B2998370471A68C2F3810238
S1132EE0012A04BFC9B2D9767047C3681A68C2F30D
S1132EF08102022A01D1D86970471A6812F00C0FB6
S1132F0002D1988B80B270471A68C2F38102012AF9
S1132F1006BFD87EC0B2002070470000C068014BD5
S1132F20184700BF692E0000C268917AC90703D50B
S1132F300121917203681847704770B50569AB7A2F
S1132F40DA07044604D50123AB72036803B198473A
S1132F506B7A9B0707D50223AB7263681BB12046CB
S1132F60BDE87040184770BD114B984207D1114B12
S1132F701960114B984204BF0E4B596170470F4BB7
S1132F80984202D10B4B5960F3E70D4B984202D1A2
S1132F90084B996070470B4B984202D1054BD9609E
S1132FA07047094B9842E4D1024B1961704700BF46
S1132FB000380040D80A002000180042003C0040BD
S1132FC000A0014100C001410014004270B5134D3E
S1132FD006460FCD86B06C460FC495E8030084E81E
S1132FE0030000235DF82320B2420BD1DBB20C4A6C
S1132FF00020142101FB00F4A45C9C4207D140B2E0
S113300006B070BD0133062BECD10023EFE701308D
S11330100628EFD14FF0FF30F2E700BF3070000018
S1133020880000202DE9F0412E4B074608460C4647
S11330309847FC600646012120462B4A90472046CB
S11330402A4B9847002848D1294B2046984701210C
S1133050204690472749142303FB061388465A68E1
S11330602260987AE0731889E08002F00C02012053
S1133070082A207322D1DA68E2611B6923620125E0
S1133080394620461C4B65729847142303FB068679
S11330901A4BB6F902100846984700290BDB01F0D9
S11330A01F034909890001F1604101F561419D4017
S11330B0C1F880510D600020BDE8F08122B99A89E1
S11330C0A2831B8AE383DAE7042AD8D11A7B227706
S11330D01A7C6277DB7AE376D1E76FF01000BDE803
S11330E0F08100BFCD2F0000492E0000692E0000A2
S11330F0512E000088000020692F0000212E0000BE
S113310010B5C468094B20469847094A142303FBA9
S11331100020084BB0F9020098472046064B984718
S11331202046064BBDE81040184700BFCD2F0000D5
S113313088000020212E00007D2E0000512E00006A
S113314010B5064BC0689847054A142303FB0020BA
S1133150BDE810408078034B184700BFCD2F000016
S1133160880000202D240000F8B5294B06460846A7
S11331700C4698473461054601212046254A90476C
S11331802046254B984700283CD1244B244F204609
S11331909847204601219047142303FB05735A687E
S11331A02260987AE0731889E08002F00C02032010
S11331B0082A207320D1DA68E2611B692362314650
S11331C02046184B9847142303FB0575164BB5F995
S11331D002100846984700290CDB01F01F02490938
S11331E0890001F1604101F5614101239340C1F877
S11331F080310B600020F8BD3AB99A89A2831B8AFA
S1133200E383DCE76FF01000F8BD4FF0FF30F8BD4A
S1133210CD2F0000492E0000692E0000512E000021
S113322088000020692F0000212E0000004870470C
S11332300001002000207047014B1868014B18471B
S1133240D80A00203B2F0000014B5868014B184757
S1133250D80A00203B2F0000014B9868014B184707
S1133260D80A00203B2F0000014BD868014B1847B7
S1133270D80A0020292F0000014B1869014B184778
S1133280D80A0020292F0000014B5869014B184728
S1133290D80A0020292F000003689A6812F00E0F44
S11332A0FBD11A78D20913D19A6812F00E0FFBD110
S11332B01A7892070CD4986810F00E00FBD11A7893
S11332C002F0FB021A705A7802F0F0025A7070474A
S11332D06FF010007047D0B50468A36813F00E0FA8
S11332E0FBD1237803F0FD032370A36813F00E0FC2
S11332F0FBD1237803F07F032370A36813F00E0F30
S1133300FBD12378DB0955D1A36813F00E0FFBD151
S11333102378C3F34003002B4CD1A2FB01010E46DA
S11333201F4656EA07020DD1B0F57A3F38D014D8BB
S1133330B0F5FA4F30D008D8B0F5FA5F25D0B0F523
S11333407A5F21D06FF00C00D0BDB0F57A4F25D054
S1133350B0F5FA3FF6D1042317E0B0F5FA1F23D0F5
S113336007D8B0F5FA2F1DD0B0F57A2FEAD107238C
S11333700BE0B0F5FA0F19D0B0F57A0F18D0B0F50C
S11333807A1FDFD1092300E00123627802F0F00202
S1133390134363700020D0BD0223F6E70323F4E750
S11333A00523F2E70623F0E70823EEE70A23ECE718
S11333B00B23EAE76FF01000D0BD0368986810F0A3
S11333C00E00FBD11A7842F002021A7070470368AB
S11333D0A5221A730020704770B50022154C164EB2
S11333E0164D08210120A047012130600022084623
S11333F0A0470022286008210120A047104B186034
S11334003368ABB12B689BB190B10E480E4DA84701
S1133410032200210120A0470C4C0D4B2060012009
S113342098470C4B1860236813B108B10A48A847A1
S113343070BD00BFAD3C0000743400208034002017
S11334405034002048700000991700007C3400209C
S1133450AD3E0000783400206370000083B5284B33
S1133460284D294C98470227284B01939622002384
S1133470274900972748A8470126274B2060019336
S113348096220023254900962548A847254B6060CD
S1133490019396220023244900972448A847244BEB
S11334A0A060019396220023224900962248A8474F
S11334B0224BE06001930096002396222049214884
S11334C0A8472368204DB34217D1E368B34214D10F
S11334D06368B34211D1A368B3420ED1B0420CD198
S11334E01A48A8471A4B984720B11A4B98471A48CC
S11334F0A847FEE71948A847F9E71948FBE700BFC2
S11335007918000015440000F00A00206C340020F3
S113351086700000310300005434002093700000D2
S113352011160000683400209D700000B5150000DD
S11335305C340020A97000001114000060340020E5
S1133540BA7000003110000099170000C870000024
S1133550D9330000B54500001E710000E77000007B
S11335600771000000F1080343604FF0FF32C360AD
S11335700361002382600360704700230361704786
S113358043684B609A688A609A68516099600368DE
S113359008610133036070470A68531C30B50AD1CF
S11335A003695A684A6091608B60596003680861D6
S11335B00133036030BD00F108035C682568AA424A
S11335C0EFD32346F9E74168826803698A60826819
S11335D051605968884208BF5A60002202611A6823
S11335E0013A1A601868704782B0002301930D4BAA
S11335F01B68013308D04FF0800383F31188BFF3B5
S11336006F8FBFF34F8FFEE74FF0800383F3118872
S1133610BFF36F8FBFF34F8F019B002BFCD002B021
S1133620704700BF2001002008480068006880F34C
S113363008884FF0000080F3148862B661B6BFF3C7
S11336404F8FBFF36F8F00DF00BF000008ED00E075
S1133650DFF80C00016841F470010160704700005C
S113366088ED00E04FF0807340F8043C074B40F8CD
S11336700C3C21F001016FF0020340F8081C40F8F3
S1133680202C40F8243C4438704700BFE935000042
S1133690074B19680868B0E8F04F80F30988BFF356
S11336A06F8F4FF0000080F311887047AFF30080F4
S11336B08C3300204FF0800383F31188BFF36F8FA6
S11336C0BFF34F8F0A4A13680133012B13600DD1E6
S11336D0084B1B6813F0FF0F08D04FF0800383F3EF
S11336E01188BFF36F8FBFF34F8FFEE7704700BFA2
S11336F02001002004ED00E0084A136843B94FF0AC
S1133700800383F31188BFF36F8FBFF34F8FFEE7FE
S1133710013B13600BB983F311887047200100202B
S1133720EFF30980BFF36F8F154B1A681EF0100F6B
S113373008BF20ED108A20E9F04F10602DE9090040
S11337404FF0800080F31188BFF34F8FBFF36F8F6A
S113375001F0E8F84FF0000080F3118809BC196803
S11337600868B0E8F04F1EF0100F08BFB0EC108AE4
S113377080F30988BFF36F8F704700BFAFF30080F9
S11337808C33002008B54FF0800383F31188BFF316
S11337906F8FBFF34F8F054B984718B1044B4FF011
S11337A080521A60002383F3118808BD5546000037
S11337B004ED00E0054B064900221A600A60054A40
S11337C04BF67F31116007221A60704710E000E069
S11337D018E000E014E000E0384B394A13B51968EA
S11337E0914208D14FF0800383F31188BFF36F8FA8
S11337F0BFF34F8FFEE71A68324B9A4208D14FF05D
S1133800800383F31188BFF36F8FBFF34F8FFEE7FD
S11338102D4B1A78D2B20192FF221A701B78DBB2B8
S11338208DF803309DF80320284B02F080021A70B3
S113383007225A6000219DF80300000602F1FF34BC
S11338400DD401B15A605A68042A11D04FF0800394
S113385083F31188BFF36F8FBFF34F8FFEE79DF89B
S113386003205200D2B28DF8032001212246E2E760
S1133870120202F4E0625A60019B134ADBB2137035
S1133880134B1A6842F460021A601A6842F06042EC
S11338901A60104B9847104B00241C600F4B98473C
S11338A00F4A136843F0404313600E4B98470E4B86
S11338B098470E4B9847204602B010BD00ED00E03B
S11338C071C20F4170C20F4100E400E0000B002000
S11338D020ED00E0B5370000200100205136000043
S11338E034EF00E02936000025490000E9350000E6
S11338F0EFF305830F2B104A0DD910495B5C117847
S1133900994208D94FF0800383F31188BFF36F8F76
S1133910BFF34F8FFEE70A4B52681B6803F4E06362
S1133920934208D94FF0800383F31188BFF36F8F5C
S1133930BFF34F8FFEE77047000B0020F0E300E079
S11339400CED00E070B5294B04469847284B986865
S113395090B92849586003F1140222F0070242F298
S1133960F875C1F82056C1F81C0601F21C611A60F2
S11339705560116001229A602CB1083462071CBFA3
S113398024F007040834611E42F2F672914207D80B
S11339901B6817495A68944204D81748834207D1D0
S11339A000251DE018680028F7D019460346F1E702
S11339B00D6818680860121B102A05F108050AD959
S11339C019194A605C604E68094A10684468A64246
S11339D00AD80860116009495B680A68D21A0A604B
S11339E0074B9847284670BD0246EEE7354600006F
S11339F0080B0020F82C00201433002024010020A0
S1133A004147000070B50446B8B10C4BA0F108055D
S1133A10984754F8040C0A4A11684B6898420AD82B
S1133A2044F8081C1560074A136803441360BDE892
S1133A307040054B18470A46EEE770BD3546000056
S1133A40080B0020240100204147000010B5044663
S1133A50044B9847A46B044B9847B4FA84F040098C
S1133A6010BD00BFB5360000F936000070B515462C
S1133A70026C866B044642B905689DB94068144BD4
S1133A80984765600136A66370BD124B65B98068BE
S1133A909847A368226C13446268A360934201D3DD
S1133AA02368A3600020EDE7C0689847236CE268B0
S1133AB021685B421A448A42E2603EBF62689B18F6
S1133AC0E360022DEED10EB1013EEBE73046D9E7BB
S1133AD0F54B000007530000034610B41A6C084667
S1133AE062B1D9685C681144A142D96024BF1968E5
S1133AF0D960D9685DF8044B024B18475DF8044B54
S1133B00704700BF075300004FF0800383F3118810
S1133B10BFF36F8FBFF34F8FFEE7000073B5846C64
S1133B2001900A460CB9174B9847A16BE36B994275
S1133B3008D34FF0800383F31188BFF36F8FBFF373
S1133B404F8FFEE7A16B8B421AD994F845500E4B68
S1133B5001A9204698476DB26B1C06460BD1636AD7
S1133B6033B104F12400094B9847002818BF0126FB
S1133B70304602B070BD01356DB284F84550F7E7A8
S1133B800026F5E7093B00006D3A0000294A0000D1
S1133B902DE9F04704461F4F1F4EDFF88480DFF8FD
S1133BA08490B84794F845506DB2002D17DCFF237C
S1133BB084F84530194EDFF86080DFF86490B04730
S1133BC0B84794F8445004F110076DB2002D17DC87
S1133BD0FF2384F844303346BDE8F0471847A36C0C
S1133BE03BB100212046C84700B1C047013D6DB23A
S1133BF0DBE7636A002BDAD004F12400B047F3E773
S1133C002369002BE4D03846C04700B1C847013DC2
S1133C106DB2DBE7B5360000294A0000F936000032
S1133C20414B00001D3B000038B50D46044608B961
S1133C30184B9847184B9847206CE36B2268A26096
S1133C404343D1181B1A13446160E3600021FF232E
S1133C50A16384F8443084F8453095B9236963B18D
S1133C6004F110000D4B984738B10D4B4FF08052C2
S1133C701A60BFF34F8FBFF36F8F0A4B9847012031
S1133C8038BD04F11000084DA84704F12400A847EA
S1133C90F3E700BF093B0000B5360000294A0000E5
S1133CA004ED00E0F936000065350000F8B50D4676
S1133CB01746064640B94FF0800383F31188BFF3DB
S1133CC06F8FBFF34F8FFEE7484354300A4B98473A
S1133CD0044658B165B92060084BE66325640121A8
S1133CE020469847002384F85070A3642046F8BD0A
S1133CF000F154030360EFE745390000293C00005C
S1133D002DE9F04F87B08A4603921F46044640B916
S1133D104FF0800383F31188BFF36F8FBFF34F8F8E
S1133D20FEE7002940F08F80036C002B00F08B80AD
S1133D304FF0800383F31188BFF36F8FBFF34F8F6E
S1133D40FEE7039B002B00F089804FF0800383F390
S1133D501188BFF36F8FBFF34F8FFEE7636A002BA9
S1133D605BD004F12400444B984756E0039D15B9F9
S1133D70B04700205CE013B904A8404B9847B04713
S1133D803F4BDFF820B13F4D9847C04794F844308B
S1133D90FF2B04BF002384F8443094F84530FF2BF4
S1133DA004BF002384F84530B04703A904A8364B68
S1133DB09847002843D1C047A16BE26B029101925E
S1133DC0B047019A0299914235D103992F4A04F1DF
S1133DD0100090472046D847A84738B92C4A4FF0DE
S1133DE080531360BFF34F8FBFF36F8F0123019391
S1133DF0C847A16BE26B274E914202D3022F019B6D
S1133E00B4D1254B3A46514620469847A36C002B23
S1133E10A4D039462046214B984738B11C4B4FF06B
S1133E2080521A60BFF34F8FBFF36F8FB0470120EA
S1133E3007B0BDE8F08F2046D847A847D6E720460C
S1133E40D847A84795E7022F02D1E36B012B09D18C
S1133E50134B984700283FF474AF0023DFF84890D1
S1133E60C846C4E74FF0800383F31188BFF36F8F14
S1133E70BFF34F8FFEE700BF294A0000AD4A0000A0
S1133E803546000041470000C14A0000A94900002E
S1133E9004ED00E0F93600006D3A00001D3B00001F
S1133EA0514B0000913B0000B536000038B5024686
S1133EB000210120064B9847044638B10023436093
S1133EC00360C3601A461946024DA847204638BD10
S1133ED0AD3C0000013D00002DE9F84388469146C1
S1133EE01F46044640B94FF0800383F31188BFF3A3
S1133EF06F8FBFF34F8FFEE719BB036C0BB34FF00B
S1133F00800383F31188BFF36F8FBFF34F8FFEE7F6
S1133F10B9F1000F3FD00120C9F8000086F31188E1
S1133F20BDE8F883636A002B35D004F124001F4BED
S1133F3098472EE001356DB284F845502BE00020FF
S1133F40ECE7022F02D1E36B012B26D1184B9847E3
S1133F50EFF311864FF0800383F31188BFF36F8F63
S1133F60BFF34F8FA26BE36B9A4201D3022FE6D1CA
S1133F7094F845500F4B6DB23A4641462046984757
S1133F806B1CD7D1A36C002BCCD0394620460A4BEE
S1133F9098470028BCD10120C0E74FF0800383F389
S1133FA01188BFF36F8FBFF34F8FFEE7294A0000DC
S1133FB0F13800006D3A00001D3B00002DE9F04F80
S1133FC085B089460192044640B94FF0800383F3DB
S1133FD01188BFF36F8FBFF34F8FFEE700297DD1A8
S1133FE0036C002B7AD04FF0800383F31188BFF366
S1133FF06F8FBFF34F8FFEE7019E002E73D04FF0FB
S1134000800383F31188BFF36F8FBFF34F8FFEE7F5
S1134010019D15B9B847002051E016B902A8354BE7
S11340209847B847344B354E354D9847D84794F8A0
S11340304430FF2B04BF002384F8443094F8453007
S1134040FF2B04BF002384F84530B84701A902A818
S11340502C4B2D4F9847002838D12046B8470028CC
S113406030D00199294B04F1240098472046B047E9
S1134070A84738B94FF08053CAF80030BFF34F8FC8
S1134080BFF36F8F0126C047A56B214F002DBFD012
S1134090204B49462046013D9847A563236963B1F7
S11340A004F110001C4B984738B11C4B4FF0805260
S11340B01A60BFF34F8FBFF36F8FB847012005B06D
S11340C0BDE8F08F2046B047A847DBE72046B0475D
S11340D0A8472046B8470028D4D09CE7104B9847FF
S11340E0002889D00026DFF83C80DFF830A0C346E2
S11340F0C9E700BFAD4A000035460000913B00000F
S113410041470000C14A00004D3A0000A94900009F
S1134110F9360000D93A0000294A000004ED00E015
S1134120514B0000B53600002DE9F04F85B0044630
S1134130019140B94FF0800383F31188BFF36F8F6F
S1134140BFF34F8FFEE7056C45B14FF0800383F357
S11341501188BFF36F8FBFF34F8FFEE7504B984723
S113416018B9019D002D40F09180DFF86491DFF8CB
S11341703CA12E464F46C847A36BE3B1013BA36362
S1134180236813B9474B98476060236963B104F10E
S11341901000454B984738B1444B4FF080521A6099
S11341A0BFF34F8FBFF36F8F414B984701252846CC
S11341B005B0BDE8F08F019B63B945B14FF08003B2
S11341C083F31188BFF36F8FBFF34F8FFEE7384B34
S11341D09847ECE716B902A8364B9847344EDFF8F7
S11341E0F4B0DFF8F480B047334B9847B84794F8FD
S11341F04430FF2B04BF002384F8443094F8453046
S1134200FF2B04BF002384F84530B0472B4B01A992
S113421002A898472A4B08BB20469847D0B1236888
S11342202BB9B8476068274B98470546B0470199B2
S1134230254B04F1240098472046D847C04738B995
S11342404FF08053CAF80030BFF34F8FBFF36F8F26
S1134250012690E72046D847C047F9E72046009357
S1134260D847C0472046009B98470028F0D0002D2F
S11342709DD0B847616A19B1236B1968C1F1050172
S11342806068124B98470025B04790E74FF08003D1
S113429083F31188BFF36F8FBFF34F8FFEE700BF27
S11342A0514B0000154D0000294A000004ED00E0C8
S11342B0F9360000AD4A000035460000C14A00004E
S11342C04D3A0000714B0000A9490000794C0000F0
S11342D0B5360000913B00004147000010B504468C
S11342E040B94FF0800383F31188BFF36F8FBFF39E
S11342F04F8FFEE7034B9847A46B034B9847204628
S113430010BD00BFB5360000F936000070B5044694
S1134310104B0D461646984794F84430FF2B04BFC3
S1134320002384F8443094F84530FF2B04BF002365
S113433084F84530084B9847A36B2BB9324629467D
S113434004F12400054B98472046054BBDE8704016
S1134350184700BFB5360000F9360000E5490000F3
S1134360913B00000649074B4FF080520868012832
S1134370FCD91A60BFF34F8FBFF36F8FF6E700BF0E
S11343801C33002004ED00E0064B5A6E12681AB983
S11343904FF0FF329A6670475A6ED268D2685268FC
S11343A0F8E700BF1C3300202DE9F041154E164BF1
S11343B0F76E0546306F0430884698476B1C3446C8
S11343C00AD1B8F1000F07D0316F104B043106F158
S11343D07400BDE8F04118473D44236FAF425D606F
S11343E00B4B04D9D4F88800216F0431F1E7606ED7
S11343F0216F04319847A36E9D4238BFA566BDE87E
S1134400F08100BF1C330020C73500008135000057
S1134410993500002DE9F84F940080465A4D204606
S11344200F469946A8470646002800F09E8054206F
S1134430A8470546002800F0958022460663534BA2
S1134440A521304698472B6B043C1C4424F0070AF2
S11344507B1E05F134020737597802F8011B13F863
S1134460011F09B1BB42F7D10A9C494E042C28BF55
S113447004244FF0000B2F1DEC626C64384685F861
S11344803BB0C5F848B0B047C4F1050405F11800C5
S1134490B047C5F84CB03F4B2D61AC616D6285F8F7
S11344A050B04A464146504698470B9B286003B19A
S11344B01D60394C394B9847D4F8A0300133C4F807
S11344C0A030236F002B54D12567D4F8A030012BE2
S11344D020D1334E2046B04704F11400B04704F114
S11344E02800B04704F13C00B04704F1A40904F1EA
S11344F05000B04704F1B8084846B0474046B047BA
S113450004F18C00B04704F17400B047C4F864901F
S1134510C4F88880D4F8D030D4F8D4200133C4F857
S1134520D030EB63EB6A1420934288BFC4F8D430D4
S113453000FB034039461B4B98471B4B9847D4F864
S1134540CC3063B1236FDA6AEB6A9A4207D2174B15
S11345504FF080521A60BFF34F8FBFF36F8F01206B
S1134560BDE8F88F3046124B98474FF0FF30BDE856
S1134570F88FD4F8CC30002BCCD1236FDA6AEB6AF5
S11345809A4298BF2567C5E745390000515300009A
S11345907B350000653600001C330020B536000072
S11345A06535000081350000F936000004ED00E0B7
S11345B0053A000073B5194C19491A481A4E04F10A
S11345C0DC030025019300952B468022B047012887
S11345D016D1164B9847012812D14FF0800383F36C
S11345E01188BFF36F8FBFF34F8F4FF0FF33A36674
S11345F00F4BC4F8CC00E56602B0BDE87040184724
S1134600013008D14FF0800383F31188BFF36F8F1B
S1134610BFF34F8FFEE702B070BD00BF1C33002014
S1134620367100006543000015440000514F00003E
S1134630D9370000034AD2F8D8300133C2F8D83051
S1134640704700BF1C330020014BD86E704700BF79
S11346501C3300202DE9F84F354BD3F8D8201C46E5
S1134660002A3DD1DE6E0136DE66C6B95B6E1B687C
S113467043B14FF0800383F31188BFF36F8FBFF30F
S11346804F8FFEE7636ED4F888206266C4F88830E2
S1134690D4F8E0300133C4F8E030264B9847A36ED9
S11346A09E424FF000050BD3DFF88C80DFF88CB00E
S11346B04FF0140A636E1B68CBB94FF0FF33A36647
S11346C0236FDA6A14235343E358022B28BF0125CE
S11346D0D4F8E830002B18BF01252846BDE8F88F30
S11346E0D3F8E4300133C4F8E4300025F0E7636E16
S11346F0DB68DF687B689E42E1D307F10409484622
S1134700C047BB6A13B107F11800C047F86AD4F870
S1134710D430984288BFC4F8D40049460AFB00400C
S1134720D847236FFA6ADB6A9A4228BF0125C1E79A
S11347301C33002089430000C73500008135000088
S11347402DE9F843314CD4F8D83043B94FF0800305
S113475083F31188BFF36F8FBFF34F8FFEE72C4BAA
S11347609847D4F8D830013BC4F8D830D4F8D8509E
S11347702DB10024274B98472046BDE8F883D4F890
S1134780A030002BF5D0244FDFF89C904FF0140894
S1134790D4F88C30EBB90DB1204B9847D4F8E450E1
S11347A04DB11F4E0127B04708B1C4F8E870013D70
S11347B0F9D1C4F8E450D4F8E830002BD9D0194B1F
S11347C04FF080521A60BFF34F8FBFF36F8F0124F5
S11347D0D0E7D4F89830DD682E1D05F11800B847ED
S11347E03046B847E86AD4F8D430984288BFC4F851
S11347F0D400314608FB0040C847236FEA6ADB6AED
S11348009A4224BF0123C4F8E830C1E71C330020D6
S1134810B5360000F9360000C735000089430000B2
S11348205546000004ED00E08135000038B540B97C
S11348304FF0800383F31188BFF36F8FBFF34F8F63
S1134840FEE741B94FF0800383F31188BFF36F8F04
S1134850BFF34F8FFEE7184DD5F8D84044B14FF061
S1134860800383F31188BFF36F8FBFF34F8FFEE78D
S1134870124B9847ED6E0268954201EB020317D282
S11348809A4203D99D422CBF0024012403601CB129
S1134890581B00210A4B98470A4B984738B90A4BD2
S11348A04FF080521A60BFF34F8FBFF36F8F38BD44
S11348B09A42E7D90124E9E71C3300203546000079
S11348C0A94300004147000004ED00E008B540B9E9
S11348D00F4B4FF080521A60BFF34F8FBFF36F8FAF
S11348E008BD0C4BD3F8D81041B14FF0800383F3CB
S11348F01188BFF36F8FBFF34F8FFEE7064B9847C6
S1134900064B9847064B98470028E1D008BD00BFE6
S113491004ED00E01C33002035460000A9430000EC
S11349204147000038B51E4BD3F8D8201C461AB1B5
S11349300122C3F8E82038BDC3F8E8201A6F1B6FC2
S113494012681B6B9A4204D8206F216F154B3431C7
S11349509847D4F8D420142505FB02F3E118E05855
S113496088B148680833406848602344984204BFCB
S113497043684B60142303FB02435B68DB682367D3
S1134980C4F8D42038BD42B94FF0800383F31188B2
S1134990BFF36F8FBFF34F8FFEE7013ADCE700BF31
S11349A01C330020D102000010B50C4640B94FF072
S11349B0800383F31188BFF36F8FBFF34F8FFEE73C
S11349C0054B196F054B1831984720460121044BBC
S11349D0BDE81040184700BF1C3300209935000083
S11349E0A943000070B50D46144640B94FF080034A
S11349F083F31188BFF36F8FBFF34F8FFEE7074B2D
S1134A00196F074B18319847002C21460CBF2846D4
S1134A104FF0FF30034BBDE8704018471C330020B3
S1134A2081350000A9430000C3682DE9F041D3F8A3
S1134A300C80B8F1000F08D14FF0800383F3118884
S1134A40BFF36F8FBFF34F8FFEE708F11806144CC6
S1134A50144F154D3046B847D4F8D830E3B908F1AF
S1134A6004063046B847D8F82C30D4F8D4201420A3
S1134A70934288BFC4F8D430314600FB0340A847B2
S1134A80236FD8F82C20DB6A9A4286BF0120C4F831
S1134A90E8000020BDE8F081314604F18C00EEE727
S1134AA01C330020C735000081350000034BD3F8C8
S1134AB0E020DB6E02604360704700BF1C330020BF
S1134AC070B50C46054640B94FF0800383F3118856
S1134AD0BFF36F8FBFF34F8FFEE741B94FF08003F1
S1134AE083F31188BFF36F8FBFF34F8FFEE7104B33
S1134AF0984723680F486968C26E5E1C0ED0D0F8D0
S1134B00E0002E68864201D08A420ED2521A9A429E
S1134B1009D29B1A23602846074B98470024074B69
S1134B209847204670BD002323600124F7E700BFA7
S1134B30B53600001C330020AD4A0000F9360000F1
S1134B40024B0122C3F8E820704700BF1C33002049
S1134B50064BD3F8CC2032B1D3F8D830002B0CBF9D
S1134B600220002070470120704700BF1C33002042
S1134B7070B50446002831D01B4AC36A116FC96A54
S1134B808B42154622D28269002AA1BF2A6FD26ABB
S1134B90C2F105028261142202FB035342699A4264
S1134BA01DD1061D114B304698472B6FD5F8D420E4
S1134BB0DB6AE362934201D9C5F8D430142000FBC8
S1134BC0035031460A4B9847012070BD136F406C67
S1134BD0DC6AA0422CBF0020012070BD70BD2B6F89
S1134BE0DB6AC362F0E700BF1C330020C735000056
S1134BF08135000070B5044608B9002070BD1B4D16
S1134C002B6F984208D04FF0800383F31188BFF3D1
S1134C106F8FBFF34F8FFEE7836C43B94FF0800370
S1134C2083F31188BFF36F8FBFF34F8FFEE7C16A21
S1134C30426C013B91428364DFD0002BDDD1061D21
S1134C4030460B4B9847636CE362C3F10502A261E3
S1134C50D5F8D4201420934200FB035088BFC5F834
S1134C60D4303146034B9847012070BD1C330020DB
S1134C70C73500008135000070B50446002841D0D6
S1134C80826C42B94FF0800383F31188BFF36F8FB6
S1134C90BFF34F8FFEE7436C994238BF1946C36A8E
S1134CA08B422FD0012A2DD1174D2A6F904208D163
S1134CB04FF0800383F31188BFF36F8FBFF34F8FDF
S1134CC0FEE78269C162002A4FF0140202FB03531B
S1134CD04269A4BFC1F1050181619A4212D1061D46
S1134CE00A4B30469847E36AD5F8D420934201D959
S1134CF0C5F8D430142000FB03503146044BBDE802
S1134D007040184770BD00BF1C330020C735000039
S1134D1081350000044B1A6F1AB1196F8A6C013285
S1134D208A64186F704700BF1C3300202DE9F843D4
S1134D30204C214F1D4681460E469046B847236FAE
S1134D4093F85030022B14D0236FDA6C22EA090254
S1134D50DA64236F012183F8501055B12846174BAC
S1134D609847174B4FF080521A60BFF34F8FBFF331
S1134D706F8F144DA847B8472A46B8F1000F03D0E7
S1134D80236FDB6CC8F80030236F93F85030022B8C
S1134D9001BF236FD96CB143D964236F4FF0000175
S1134DA00CBF0125002583F8501090472846BDE824
S1134DB0F88300BF1C330020B5360000A94300006F
S1134DC004ED00E0F93600002DE9F843089F884619
S1134DD015469946044640B94FF0800383F3118881
S1134DE0BFF36F8FBFF34F8FFEE7334B9847EFF35B
S1134DF011864FF0800383F31188BFF36F8FBFF3E5
S1134E004F8FB9F1000F02D0E36CC9F8003094F869
S1134E105030022284F850206A1EDBB2032A07D8DD
S1134E20DFE802F0020D1210E26C42EA0802E264CA
S1134E30012B0CD0012086F31188BDE8F883E26CC5
S1134E400132F4E7022B35D0C4F84C80F0E7A36AB2
S1134E5043B14FF0800383F31188BFF36F8FBFF327
S1134E604F8FFEE7154DDFF85C80D5F8D830CBB90D
S1134E7004F10409124B48469847E36AD5F8D42054
S1134E801420934288BFC5F8D430494600FB035030
S1134E90C0472B6FE26ADB6A9A42CBD9012037B153
S1134EA03860C8E704F1180105F18C00F0E7C5F893
S1134EB0E800C0E70020BEE7F13800001C33002002
S1134EC0C7350000813500002DE9F0410C4C0D4B35
S1134ED09847256885B9271D3846DFF8348004F1E2
S1134EE01806C0473046C0472A460C211420064BFA
S1134EF0E762266398472060044BBDE8F0411847F9
S1134F0008340020B5360000AD3C0000F93600003E
S1134F1065350000914208B5416000610AD8D21A93
S1134F2083699A420ED2084B011D186B074B9847B0
S1134F30002008BD9A4201D2994203D2024B011DBE
S1134F40D86AF3E7012008BD083400209935000031
S1134F500E4B13B598470E4B1A6842B94FF08003B5
S1134F6083F31188BFF36F8FBFF34F8FFEE73433A2
S1134F700193032300938022002306490648074C2B
S1134F80A0470028EAD002B010BD00BFC94E0000FF
S1134F90083400204A710000D95000001544000074
S1134FA02DE9F04180461E462C200F4B0D46174636
S1134FB098470446A8B145B94FF0800383F311889C
S1134FC0BFF36F8FBFF34F8FFEE7084B9847069BE5
S1134FD06362C4F80080A561E7612662201D044B6A
S1134FE098472046BDE8F08145390000C94E0000CD
S1134FF07B35000030B5154685B01A46034640B9E6
S11350004FF0800383F31188BFF36F8FBFF34F8F8B
S1135010FEE70D4C206880B10529019102950393A8
S11350200DDC0A4B0A4D98470023022808BF089A52
S1135030206818BF1A4601A9A84705B030BD00234F
S113504001A9044CA047F8E708340020514B0000A4
S1135050013D0000D93E00002DE9F3411A4D1B4FDC
S1135060EB6A1A682AB92A6BEA622B6302B0BDE8BC
S1135070F081DB68DC681E6804F104084046B84728
S1135080636A20469847E369012BE9D1A369334455
S11350909E4206D2636024614146E86A0C4B9847FD
S11350A0DEE700232046009332461946094CA04708
S11350B00028D5D14FF0800383F31188BFF36F8F9D
S11350C0BFF34F8FFEE700BF08340020C735000050
S11350D099350000F54F00002DE9F04F87B0644D7D
S11350E0EA6AD2F80090A846B9F1000F3BD0D26822
S11350F01668604A604F9047B847AA6B9042824650
S113510033D25E4A90470124C5F838A0DFF88CB149
S1135110002C73D1B9F1000F58D056456CD8D8473C
S1135120EB6ADB68DD68564B281D9847EB69012B59
S11351301DD1A9695246334631442846DFF858A1A7
S1135140D047A0B1009423462146324628464D4C10
S1135150A04760B94FF0800383F31188BFF36F8FCA
S1135160BFF34F8FFEE74E46C3E70024CCE76B6ADC
S113517028469847444D414ED8F80000002203A920
S1135180A8470028ABD0039B002BF5DB059C636983
S113519013B1201D3A4B9847B847D8F83830984295
S11351A0834600D2B047039AC8F838B0092AE3D836
S11351B00123934013F4047A46D113F0C70F1FD18F
S11351C09B06D9D52046314B9847D4E72B6B1A68F8
S11351D0B2FA82F25209A6EB0A0128682C4B9847CE
S11351E0D8470028C6D12B4B4FF080521A60BFF32A
S11351F04F8FBFF36F8FBDE72246ECE7D847B9E77F
S1135200A169049B244E5A4619442046B0470028FD
S1135210B1D0636A20469847E369012BABD1A269F8
S11352200499CDF800A00A44204653465146154C33
S1135230A04700289FD14FF0800383F31188BFF368
S11352406F8FBFF34F8FFEE70499A16141B94FF00F
S1135250800383F31188BFF36F8FBFF34F8FFEE793
S11352605B465A46594420460B4CA04783E700BF8F
S1135270083400203546000049460000595000001B
S1135280C7350000F54F0000BD3F0000053A00009F
S11352900D43000004ED00E0154F000041470000FD
S11352A070B50D4E0D4CA41BA4100025A54209D1C8
S11352B00B4E0C4C01F098FFA41BA4100025A54232
S11352C005D170BD56F8253098470135EEE756F8FC
S11352D0253098470135F2E7F4710000F4710000BD
S11352E0F4710000F871000010B5013902449042D5
S11352F001D1002010BD10F8013B11F8014FA34269
S1135300F5D0181B10BD10B5431E0A44914200D1BC
S113531010BD11F8014B03F8014FF7E7884210B5AF
S113532001EB020303D8421E99420CD110BD9842EE
S1135330F9D28118D21AD34200D110BD13F8014D0D
S113534001F8014DF7E711F8014B02F8014FEBE7C3
S113535002440346934200D1704703F8011BF9E766
S113536038B50546002945D051F8043C0C1F002BE4
S1135370B8BFE41800F01AF91F4A1368104633B98D
S1135380636014602846BDE8384000F010B9A342B9
S11353900CD921686218934204BF1A685B68636081
S11353A004BF521822600460ECE713465A680AB13D
S11353B0A242FAD919685818A0420BD120680144B6
S11353C0581882421960DDD1106852685A6001444D
S11353D01960D7E702D90C232B60D3E72068211882
S11353E08A4204BF11685268626004BF09182160D0
S11353F05C60C7E738BD00BF4434002070B5CD1CE5
S113540025F0030508350C2D38BF0C25002D064664
S113541001DBA94203D90C233360002070BD00F0E6
S1135420C5F8234A1468214691B9224C23681BB954
S1135430304600F041F820602946304600F03CF840
S1135440431C26D10C233360304600F0B0F8E4E767
S11354500B685B1B1AD40B2B0FD90B60CD50CC18E7
S1135460304600F0A4F804F10B00231D20F00700DF
S1135470C31A1BD05A42E25070BD8C420DBF636800
S11354804B686360136018BF0C46E9E70C46496833
S1135490CAE7C41C24F00304A04205D0211A3046F4
S11354A000F00AF80130CDD02560D9E770BD00BF07
S11354B0443400204834002038B5064C0023054607
S11354C008462360FCF71AFF431C02D1236803B18A
S11354D02B6038BD5C3E00200EB400B59CB04FF488
S11354E002711DABADF81410029006906FF00041EC
S11354F00A48049107914FF6FF7153F8042BADF855
S113550016100068019302A900F0AEF8029B002275
S11355101A701CB05DF804EB03B07047280100203A
S113552010B50246134601321C78002CFAD1013B17
S113553011F8012B03F8012F002AF9D110BD0346FD
S113554011F8012B03F8012B002AF9D17047034607
S113555013F8012B002AFBD1181A0138704710B533
S11355606AB10139841810F8013B11F8012F9342F4
S113557003D1A04201D0002BF5D1981A10BD1046DA
S113558010BD70B5044602B970BD234611F8015B25
S113559003F8015B561E1DB91444A34203D170BD28
S11355A01C463246EFE703F8015BF6E770477047A5
S11355B02DE9F0478E689E4282460C4691469846F5
S11355C035D88A8912F4906F31D0256809696F1A29
S11355D06569022305EB450595FBF3F508F1010325
S11355E03B449D4238BF1D46530531D52946FFF73C
S11355F005FF064650B90C23CAF80030A38943F0CE
S11356004003A3814FF0FF30BDE8F0873A4621699B
S1135610FFF779FEA38923F4906343F08003A38109
S1135620266165613E44ED1B2660A56046464645FD
S113563028BF4646324649462068FFF76FFEA368F6
S11356409B1BA36023681E4426600020BDE8F087EE
S11356502A4600F0E5FA06460028E1D121695046C1
S1135660FFF77EFEC7E700002DE9F04F9DB08046AE
S113567003938B891C060D4616460FD50B696BB92F
S11356804021FFF7BBFE2860286128B90C23C8F825
S113569000304FF0FF30C5E040236B6100230993D5
S11356A020238DF8293030238DF82A304FF0010B58
S11356B037463C4614F8013B002B3CD1B7EB060AB5
S11356C00BD05346324629464046FFF771FF01305E
S11356D000F0A380099B534409933B78002B00F00E
S11356E09C8000234FF0FF320493079305920693A6
S11356F08DF853301A9305222178504800F040FA6F
S1135700671C049BD8B9D90644BF20228DF85320C6
S11357101A0744BF2B228DF8532022782A2A16D048
S1135720079A00210A20274601343B78303B092B95
S113573051D9C9B111E0252BC0D02746B9E73F4A5A
S1135740801A0BFA00F0184304903C46D3E7039AFE
S1135750111D12680391002A01DB079204E05242F2
S113576043F00203079204933B782E2B0ED17B78EF
S11357702A2B07F1010132D1039B1A1D1B680392E6
S1135780002BB8BF4FF0FF33023705932C4C397808
S11357900322204600F0F4F938B14023001B03FA39
S11357A000F0049B034304930137397825488DF8AE
S11357B0281006227E1C00F0E3F9002835D0224B85
S11357C0FBB9039B073323F0070308330393099BB7
S11357D04B4409936CE700FB02320121A3E7002349
S11357E0059318460A240F4601313A78303A092ABB
S11357F003D9002BCAD00590C8E704FB002001237D
S1135800F1E703AB00932A46104B04A94046AFF3DB
S11358100080B0F1FF3F8146D9D1AB895B063FF5EB
S113582038AF09981DB0BDE8F08F03AB00932A464A
S1135830064B04A9404600F081F8EAE7B471000081
S1135840BA710000BE71000000000000B1550000F4
S11358502DE9F04791461F468A680B69DDF82080E0
S11358609342B8BF1346C9F8003091F84320064666
S11358700C4612B10133C9F800302368990642BFBF
S1135880D9F800300233C9F80030256815F0060550
S113589007D104F1190AE368D9F800209B1A9D4244
S11358A029DB94F843302268003318BF01239206A1
S11358B02ED404F1430239463046C047013021D08A
S11358C02368E568D9F8002003F00603042B08BF19
S11358D0AD1AA36822690CBF25EAE5750025934239
S11358E0C4BF9B1AED184FF000091A344D451BD163
S11358F00020BDE8F0870123524639463046C047B0
S1135900013003D14FF0FF30BDE8F0870135C2E725
S1135910E1185A1C302081F84300224494F84510C1
S113592082F843100233C4E7012322463946304645
S1135930C0470130E6D009F10109D7E72DE9F0436A
S113594017460A7E85B06E2A984606460C460C9B7E
S113595001F1430E00F0BC801AD8632A2ED00AD875
S1135960002A00F0C880582A00F08A8004F1420519
S113597084F842202AE0642A01D0692AF6D12168F9
S11359801A6811F0800F23D0111D1960136827E0E5
S1135990732A00F0B48008D86F2A2AD0702AE5D17F
S11359A00A6842F020020A6003E0752A21D0782AAE
S11359B0DCD1782284F845206E4964E01A6801F14C
S11359C04205111D1960136884F842300123A3E0D5
S11359D011F0400F02F104011960D7D0B2F9003080
S11359E0002B03DA2D225B4284F8432062490A2209
S11359F017E02068196810F0800F03D0081D1860A4
S1135A000B6806E010F0400F01F104001860F7D0B5
S1135A100B8859496F2A14BF0A220822002084F8EF
S1135A2043006568A560002DC0F29C80206820F0CA
S1135A3004002060002B3FD1002D40F09580754676
S1135A40082A0BD12368DA0708D5236962689A42C9
S1135A50DEBF302305F8013C05F1FF35AEEB05034D
S1135A602361CDF800803B4603AA21463046FFF768
S1135A70EFFE013055D14FF0FF3005B0BDE8F083A3
S1135A8081F845203C492268186812F0800F00F123
S1135A9004051D6001D0036802E05506FBD50388A8
S1135AA0D00744BF42F0200222601BB9226822F0D2
S1135AB0200222601022B1E77546B3FBF2F002FB2C
S1135AC01033CB5C05F8013D03460028F5D1B7E758
S1135AD008681A68496910F0800F04D0101D186016
S1135AE01368196007E010F0400F02F10400186019
S1135AF01368F6D01980002323617546B1E71A684C
S1135B00111D1960156862680021284600F038F8F4
S1135B1008B1401B606063682361002384F843304C
S1135B209FE723692A4639463046C0470130A2D050
S1135B3023689B0707D5002504F11909E368039A34
S1135B409B1A9D4205DBE068039B9842B8BF184648
S1135B5093E701234A4639463046C04701308AD08C
S1135B600135EBE7002BA7D10B7884F8423004F120
S1135B70420565E7D6710000C57100000000000011
S1135B8001F0FF01102A2BDB10F0070F08D010F8EA
S1135B90013B013A8B422DD010F0070F42B3F6D1EE
S1135BA0F0B441EA012141EA014122F007047FF007
S1135BB000070023F0E80256083C85EA010586EA5E
S1135BC0010685FA47F5A3FA87F586FA47F6A5FA9A
S1135BD087F68EB9EED1F0BC01F0FF0102F00702A6
S1135BE032B110F8013B013A83EA010313B1F8D151
S1135BF00020704701387047002D06BF3546033832
S1135C00073815F0010F07D1013015F4807F02BF6A
S1135C10013015F4C03F0130F0BC0138704700BFBB
S1135C20F8B5074614460E4621B91146BDE8F840BA
S1135C30FFF7E4BB22B9FFF793FB25462846F8BDDE
S1135C4000F014F884420FD921463846FFF7D6FBFA
S1135C5005460028F2D031462246FFF754FB314670
S1135C603846FFF77DFBE9E73546E7E751F8040CD2
S1135C700028A0F10400BCBF0B58C01870472A2AA2
S1135C802A2A2A2A2A2A2A2A2A2A2A2A2A2A2A2A70
S1135C902A2A2A2A2A2A2A2A2A2A2A2A2A2A2A2A60
S1135CA02A2A2A2A2A2A2A2A2A2A2A2A2A2A2A2A50
S1135CB02A2A2A2A2A2A2A2A002A2A2A2A2A2A2A6A
S1135CC02A2A2A2A2A2A2A2A535441434B204F5645
S1135CD04552464C4F572044455445435445442A65
S1135CE02A2A2A2A2A2A2A2A2A2A2A2A2A2A2A2A10
