:10000000603E01203D1D0000391D0000391D00002B
:10001000391D0000391D0000391D000000000000DE
:10002000000000000000000000000000913A000005
:10003000391D000000000000213B0000853B00004E
:10004000391D0000391D0000391D0000391D000058
:10005000391D0000391D0000391D0000391D000048
:10006000391D0000391D0000391D0000391D000038
:10007000391D0000391D0000391D0000391D000028
:10008000391D0000391D0000391D0000391D000018
:10009000391D0000391D0000391D0000391D000008
:1000A000391D0000391D0000391D0000391D0000F8
:1000B000391D0000092C0000DD2B0000092A00007A
:1000C000112A0000192A0000212A0000292A000014
:1000D000391D0000391D0000391D0000391D0000C8
:1000E000391D0000391D0000391D0000391D0000B8
:1000F00000000000D52C0000391D0000391D000053
:10010000391D0000391D0000391D0000391D000097
:10011000391D0000391D0000391D0000391D000087
:10012000391D0000391D0000A9120000B5120000A1
:10013000C1120000391D0000391D0000391D0000EA
:10014000391D0000391D0000391D0000391D000057
:10015000151C0000391D0000000000000000000018
:10016000000000000000000000000000000000008F
:10017000000000000000000000000000000000007F
:10018000391D0000391D0000391D0000391D000017
:1001900000000000C9310000391D0000391D0000B9
:1001A000391D0000391D0000391D0000391D0000F7
:1001B000D9310000391D0000391D0000391D000033
:1001C000391D0000E9310000391D0000391D000013
:1001D000391D0000F9310000391D0000391D0000F3
:1001E00009320000391D0000391D000031360000C1
:1001F00041360000513600006136000071360000C3
:10020000813600000000000000000000391D0000E1
:10021000391D0000391D0000391D0000391D000086
:10022000391D0000391D0000391D0000391D000076
:10023000391D0000391D0000391D0000391D000066
:10024000391D0000391D0000391D0000391D000056
:10025000391D0000391D0000391D0000391D000046
:100260000000000010B5054C237833B9044B13B1DE
:100270000448AFF300800123237010BD90010020DB
:1002800000000000D47600000C4B43B10C480D492F
:1002900010B5AFF300800C48036823B910BD0A48BD
:1002A000036833B97047094B002BF7D0BDE8104005
:1002B0001847064B002BF5D0184700BF0000000080
:1002C000D476000094010020D476000000000000E5
:1002D00000B589B01E2230210C4B0D4C05466846F6
:1002E00098470C48A0470C48A0470A48A0470B482D
:1002F000A0470B490B4B2A46684698470A4B68466D
:1003000098470A4B81B268469847FEE7515700006C
:10031000851B00007E600000B9600000BF71000016
:10032000F4600000D95800004F590000411B000044
:1003300000F01F034009C00100F1824000F50040B9
:1003400001229A400344426093F8401041F00401B6
:1003500083F840108261704700F01F0201234009BA
:100360009340C0019AB200F1824000F5004042F093
:10037000804242F4003243608262024A42EA1343FE
:1003800083627047000002C070B52D20294C2A4EB0
:100390002A4DB0472D20A84794F8CD3003F0FE0336
:1003A00084F8CD302C20B0472C20A84794F8CC30CE
:1003B00003F0FE0384F8CC302B20B0472B20A84755
:1003C00094F8CB3003F0FE0384F8CB302A20B047FA
:1003D0002A20A84794F8CA3003F0FE0384F8CA30F4
:1003E0000B20B0470B20A84794F84B3003F0FE03D6
:1003F00084F84B300A20B0470A20A84794F84A30C6
:1004000003F0FE0384F84A300920B0470920A847CA
:1004100094F8493003F0FE0384F849300820B047CF
:100420000820A84794F8483003F0FE0384F84830C9
:1004300070BD00BF0080004159030000310300007F
:10044000004B1847251F000073B5084B084E094D97
:10045000984702AC084B44F8040D9847074B98475F
:10046000B04741F288312046A847F9E7494A0000E1
:10047000D51C00002D4C0000890300004104000041
:10048000054B30B5142404FB00340D460FCC0FC5CA
:1004900023682B6030BD00BF086100000378313B4A
:1004A000082B0AD8DFE803F0050A0D101316191CF3
:1004B0001F000E4B3122DA735A7770470B4B3222F2
:1004C000F9E70A4B3322F6E7084B3422F3E7074BF0
:1004D0003522F0E7054B3622EDE7044B3722EAE7F9
:1004E000024B3822E7E7014B3922E4E70000002005
:1004F00010B5064C0649074B20460F229847204668
:100500000549064BBDE81040184700BFAC0100206C
:100510001100002083590000B86500002159000037
:100520002DE9F04186B001A9294B2A4D9847BDF825
:1005300014009DF80C70A8478046002843D0BDF8F1
:100540001410254B98470646002839D09DF80C20FA
:100550000298224B41469847044678BBBDF80E00EE
:100560000130A8470546E0B10237204658FA87F720
:10057000BDF80E30421CC0B298420ED300232B545B
:10058000BDF80E209DF80400049B013292B229466A
:100590009847134B2846984707E03B5C2B5410467E
:1005A000E6E71048104B9847002640460C4B98470A
:1005B0000E4B9847304606B0BDE8F0810C48F1E795
:1005C0000C48094BE7E70C48074B98474646EFE7CE
:1005D00081040000453D0000851300005F590000C4
:1005E000053E0000A2670000851B0000CD1300003F
:1005F000D66700001268000056680000014B1870B2
:10060000704700BF20000020014B1870704700BFEA
:10061000E8010020014B1878704700BFE801002076
:100620000138092807D8DFE800F005080A0C0E1089
:10063000121416180A23184670470B23FBE70C23E5
:10064000F9E70D23F7E70E23F5E70F23F3E7102370
:10065000F1E71123EFE71223EDE71323EBE70000A7
:1006600008B502220349044B9847B0FA80F04009CC
:1006700008BD00BF3D6D0000E9560000074B002299
:100680001A705A709A70DA701A7105211A725A81AA
:10069000DA60302259711A74704700BFEC010020F3
:1006A00010B50548054CA0470548A047054B98479D
:1006B000054BBDE8104018478D680000851B000001
:1006C000B3680000511600007D0600002DE9F743D5
:1006D000994C6378072B4AD8DFE813F008007200C2
:1006E000C5006601B601FB013E02DC02A378002BC7
:1006F00040D16579002D32D0904E914B30689847AB
:10070000054650BBDFF89C828E4B0146D8F80000AE
:10071000984701281DD18DF800008B4B60798B4FD5
:1007200098472B468DF801004FF4FA723068019516
:100730006946B8470128064607D12B462A4629466E
:10074000D8F80000B847A67064E08148814B98470C
:1007500060E081487F4B984709E08048FAE780488D
:100760007C4EB0477F48B04701236370A57003B04B
:10077000BDE8F083012BFAD17B4B7C4918687C4B98
:100780004FF47A62984701280646F0D161796E4BA2
:10079000257A084698478542764D0DD121B1013919
:1007A00061710023A37004E073486A4B6670A17006
:1007B0009847E068A847DAE77048664B9847F0E743
:1007C000A3785BBB5D4E5E4B3068984705460028BA
:1007D000C3D1DFF8D0815B4B0146D8F800009847C1
:1007E0000128B6D11A238DF800008DF80130306849
:1007F000564F01952B464FF4FA726946B8470128C7
:100800000646A2D12B462A462946D8F80000B8470A
:10081000A67066704FF4FA70594B9CE7012BA6D175
:10082000514B52491868524B4FF47A62984701284D
:100830009DD1237A474D4F4E1A2B40F0EC81E06852
:10084000504B9847074600286DD04F48A8474F4B5C
:100850006189E06898474348A8470023A3700223B2
:100860006370E06831E0A378002B34D1334E344B11
:1008700030689847054600287FF46FAFDFF8249171
:10088000304B0146D9F80000984701287FF461AF4A
:100890001B238DF800008DF801303068DFF8AC8044
:1008A00001952B464FF4FA726946C0470128074666
:1008B000334E0CD12B462A462946D9F80000C047B2
:1008C0000223A77063704FF4FA70B0474FE73048C7
:1008D000204B9847F7E7012B7FF449AF224B234980
:1008E0001868234B4FF47A62984701287FF43FAF92
:1008F000237A184D1F4E1B2B40F08D81E068214B51
:100900009847074678B12348A847204B6189E0689B
:1009100098471448A8472048A8471248A8470023EA
:10092000A37003239CE71D48A8470E48A8471C4B0B
:10093000A770984795E700BFEC01002070340020B5
:10094000DD460000294500002106000001410000AD
:10095000F6680000851B00002A690000536900004A
:100960006F690000BF71000050340020F4010020C6
:10097000BD430000053E000093690000B16900001E
:10098000CD4C000061060000E2690000411B000040
:10099000246A0000546A0000686A0000026A0000CD
:1009A000A10600007C340020A3786BBB9B4E9C4BBF
:1009B00030689847054600287FF4CFAEDFF8D09224
:1009C000984B0146D9F80000984701287FF4C1AE42
:1009D00014238DF800008DF801303068DFF878823C
:1009E00001952B464FF4FA726946C0470128074625
:1009F0008D4E07D12B462A462946D9F80000C0471C
:100A0000A77060E7894863E7012B7FF4B0AE884B9D
:100A100088491868884B4FF47A62984701287FF418
:100A2000A6AE237A854D864E142B40F0F48085487F
:100A3000A847854B6189E06898478448A847042304
:100A400063700023A3700CE7A3782BBB734E744B29
:100A500030689847054600287FF47FAEDFF8309273
:100A6000704B0146D9F80000984701287FF471AE19
:100A700015238DF800008DF801303068DFF8D8813B
:100A800001952B464FF4FA726946C0470128074684
:100A9000654EAFD06E481BE7012B7FF468AE644B08
:100AA00064491868644B4FF47A62984701287FF4D0
:100AB0005EAE237A614D624E152B40F0AC806548E6
:100AC000A847614B6189E06898476048A8470523BB
:100AD000B6E7A37823BB514E514B30689847054683
:100AE00000287FF43AAEDFF8A8814E4B0146D8F8D3
:100AF0000000984701287FF42CAE8DF800001623E3
:100B00008DF801303068544F01952B464FF4FA723E
:100B10006946B847012806463FF40FAE4F4815E630
:100B2000012B7FF424AE424B42491868424B4FF4EC
:100B30007A62984701287FF41AAE237A3F4D404EDF
:100B4000162B68D14648A8473F4B6189E068984713
:100B50003E48A847062373E7A378ABB92F4E304B26
:100B600030689847054600287FF4F7ADDFF820810C
:100B70002C4B0146D8F80000984701287FF4E9ADD6
:100B80008DF800000923BBE7012B7FF4F0AD284B63
:100B900028491868284B4FF47A62984701287FF457
:100BA000E6AD237A254D264E092B34D1E0686189C4
:100BB000C37A2374244B98472448A847E36893F8E2
:100BC0003730303B062B07D8DFE803F004131B1D3A
:100BD0001F2123002348A8472348A8472348A847A4
:100BE0001A48A8470023A3700623E370022323704A
:100BF00037E61F48A8471F48A8471448A8470723B7
:100C00001EE71D48E7E71D48E5E71D48E3E71D48E7
:100C1000E1E71D48DFE71D48A84712E770340020D0
:100C2000DD46000029450000CD4C00009E6A000012
:100C300050340020F4010020BD430000851B00005B
:100C4000053E0000C86A0000411B0000BF710000A3
:100C5000DF6A00000A6B000001410000226B000007
:100C6000516B00006E6B0000C56C0000E06C000072
:100C70009E6B0000BC6B0000EC6B0000126C00006F
:100C8000386C0000636C00009C6C0000B1690000CF
:100C90007C340020A378C3B9274E2848284B9847B6
:100CA0003068284B9847054600287FF456ADDFF89A
:100CB000D480254B0146D8F80000984701287FF4DE
:100CC00048AD8DF8000017231AE7012B7FF44FADD4
:100CD0001E4B1F4918681F4B4FF47A629847012832
:100CE0007FF445AD237A1C4E1C4F172B1FD1618911
:100CF0001B4BE06898471B48B04707221A49E06839
:100D00001A4B98470546A0B91021194B1948984726
:100D1000194B98470223134823706570A570E5703E
:100D2000B0476420154B9847E068B8471FE5144862
:100D3000B0470023A370F7E770340020FC010020C7
:100D40009D040000DD4600002945000050340020CD
:100D5000F4010020BD430000851B0000053E00009B
:100D6000411B0000BF7100000A6C0000E956000042
:100D70005D13000074670000CD130000CD4C00002F
:100D8000B16900007C3400202DE9F7439A4D2B789F
:100D9000012B2C4612D004D3022B12D003B0BDE895
:100DA000F083964B98470028F8D001232B70944885
:100DB00000236B70AB70934B9847EFE7924B9847CB
:100DC000ECE7EB78072BE9D8DFE803F004090F1113
:100DD000154874818D4B98470123E370DEE78C4BF7
:100DE00098470028DAD00223F7E70323F5E7894B79
:100DF00098470423F1E7884E884B306898470546AA
:100E0000002840F0BC80DFF86C82854B0146D8F8A2
:100E10000000984701281FD118238DF800008DF895
:100E2000013030687F4F01952B464FF4FA726946C6
:100E3000B84701287C4E0BD12B462A462946D8F8C4
:100E40000000B8470523E37040F6C410B047A5E79B
:100E500076486C4B9847F7E77548ACE7754B764991
:100E60001868764B704D41F2883298470128064643
:100E70001DD1227ADFF8EC91182A14D1B4F80A8037
:100E8000B8F1170F07D9E7686D496E4B3846984798
:100E9000002800F09B810623E370E068C8474FF408
:100EA0007A70A8477AE76848564B9847F3E70623D5
:100EB000E370F4E70723EB70052200236348514CED
:100EC0002B716A71AB70A0476148A04766E72B7928
:100ED000012B00F0DB801AD3022B7FF45FAFAB78DD
:100EE000002B40F020814C4E4C4B30689847054613
:100EF000002844D1DFF87C81494B0146D8F8000036
:100F000098470128A8D18DF800001B23D5E0AB78C5
:100F1000002B3DD16B79002B33D03F4E3F4B3068D7
:100F20009847054658BBDFF84C813D4B0146D8F841
:100F30000000984701288FD18DF80000454B60795B
:100F400098478DF801003068364F01952B464FF4D5
:100F5000FA726946B8470128064609D12B462A4647
:100F60002946D8F80000B8470723A670E37002E0CE
:100F70003948244B98474FF4FA702B4B1CE73748FD
:100F800019E7204B3648984701232B71072324E7A4
:100F9000012B7FF403AF274B27491868274B4FF4E9
:100FA0007A6298470128064619D16179294B2D7A32
:100FB0000846984785422B4D0DD121B10139617109
:100FC0000023A37005E00723E37027480D4B26712B
:100FD0009847E06865E71C480A4B9847F0E76B7C48
:100FE000032B49D82148074DA8472148A847637CCF
:100FF00001336374D9E000BFEC010020111600003A
:101000000C6D0000851B0000CD060000CD13000014
:10101000D1180000F104000070340020DD4600000B
:101020002945000001410000CD4C0000226B00006A
:101030002A69000050340020F4010020BD43000064
:10104000276D0000E9560000B1690000406D000006
:10105000626D000021060000F66800005369000080
:101060006F690000053E000093690000806D00007C
:101070009A6D00007C3400205A485B4DA8475B48BD
:10108000A847002363745A4B984787E6AB78BBB9EF
:10109000584E594B30689847054600287FF46FAF8B
:1010A000DFF8A881554B0146D8F800009847012881
:1010B0007FF4D2AE8DF800001A238DF8013042E79C
:1010C000012B7FF46BAE4E4B4E4918684E4B464D8C
:1010D0004FF47A629847012872D1237A4B4E1A2B2B
:1010E0001CD1E0684A4B9847074678B14948A84761
:1010F000494B6189E06898474848A8470223237113
:101100000023A3700723E370E0689FE64448A847E4
:101110004248A847434BA7709847F5E74248A8477D
:101120000023A370F0E7012B7FF438AE344B354930
:101130001868354B2C4D4FF47A62984701283FD1FF
:10114000237A324F1B2B32D1E068314B9847064649
:1011500020B33648A84761892F4BE06898472F484D
:10116000A84700260523324863712671A670E670F1
:1011700026706670A8472F48A8472F48A847A37C29
:10118000E0680133A374B847A37C022B7FF606AE58
:101190002A48A8472A48A847A67474E72048A847C1
:1011A0001E48A847E068A670B8471E4B07E61E48D1
:1011B000A8470023A370E0680723E370B847EDE574
:1011C000637C032B3FF658AF1E480DE74146384677
:1011D000114B98471148044B98471B4B9847E670B2
:1011E0005BE600BFDE6D0000851B0000106E000096
:1011F000F51C000070340020DD4600002945000089
:1012000050340020F4010020BD430000053E0000E2
:1012100061060000E2690000411B0000BF71000090
:10122000026A0000A1060000B1690000546A0000D3
:101230005B6E0000766E0000AA6E0000D46E0000A7
:10124000046F0000806D0000C51800007C34002091
:1012500008B50C490C480D4B984788B94FF400620B
:101260000B490C480C4B984750B9012211460648CF
:101270000A4B98470A4B044898470A4B93F83C336B
:1012800008BD00BF0040014124000020812E000065
:1012900086340020883C002085260000172F00009F
:1012A000D92E000000E100E0014B01221A767047C0
:1012B00000400141014B02221A7670470040014173
:1012C00030B51A4D1A4C89B02846A0470028FBD0EB
:1012D000184B16489847184B014618489847184B22
:1012E0009847C4B204B303A92046164B9847164B3F
:1012F00012489847BDF81C30984215D302AB1348EA
:1013000000932146002303220068114CA047029B52
:101310003BB1104B4FF080521A60BFF34F8FBFF3B9
:101320006F8F00200C4B984709B030BD240000207F
:101330000D2F0000FB2E0000BF260000883C00207F
:101340001506000081040000E52600006834002036
:10135000C951000004ED00E00906000070B5064C1C
:10136000064B0E46054620469847324629462046FB
:10137000034BBDE87040184724000020D92E000020
:10138000B91A0000F7B50C4B04460C480D469847B7
:10139000A8420AD301A80A4B084E0A4F9847254491
:1013A000AC4204D101A8084B984703B0F0BD2146D8
:1013B0003046B8470134F3E7E5260000883C0020BA
:1013C000752400009D260000832400000148024B84
:1013D000184700BF883C0020ED2600002DE9F74F9C
:1013E0004D4E4E4D4E4FDFF860A13346002403F8BA
:1013F000014BA6F8014010229C702146301D2C7034
:10140000B8470F22214606F11400B847D046C6F867
:101410002340444B98470428FBD1DAF80000424BA4
:10142000424E98470146002831D1414F414B386820
:10143000984701282BD12B783F4C032B65D8DFE848
:1014400003F0022C3F4704238DF800304FF00009D1
:1014500001238DF8013064224B466946D8F800001C
:10146000CDF80490A047834601280AD14B464A464E
:1014700049463868A0474FF4FA70B04785F800B085
:1014800005E02E482E4B98474FF4FA70B0472D4B8D
:1014900098474FF41670B047BBE704234FF0020B98
:1014A0008DF800308DF801B04FF000094B466422F2
:1014B0006946D8F80000CDF80490A0470128D4E789
:1014C0004FF0040B07238DF800B08DF80130EBE7E7
:1014D00004238DF800304FF0000903238DF801300C
:1014E00064224B466946D8F80000CDF80490A04726
:1014F0000128C6D14B464A4649463868A0474FF4B2
:10150000FA70B04764232B70C1E700231A461946CE
:101510003868A047BBE700BFFF010020983C0020CF
:101520005157000045160000DD460000CD4C00007C
:101530007C3400202945000001410000366F000086
:10154000851B0000D51C0000703400200B78013B87
:1015500070B5062B1BD8DFE803F01D32191A1A1AD2
:101560000400214C00254A88EBB2073A934205F16A
:10157000010533DD01251D481D4E2570B0470F21A3
:101580001C481D4B98471D48B047257070BD00236F
:10159000012BFBD2144B0288A3F801205D1C837839
:1015A000AB701748124CA0471648A04703212846A5
:1015B000114B984723461148BDE870401847124B1D
:1015C00000F1100250F8041B43F8041B9042F9D1BB
:1015D0000E48074CA04710210B48E9E7C2182344E6
:1015E000D2791A75BFE700BFFF010020EE6F00003F
:1015F000851B000013020020411B0000BF7100008A
:101600005E6F0000886F000003020020CE6F0000B4
:10161000014B1878704700BFFF01002000F01F0247
:101620004009C00100F1824000F5004001239340D1
:1016300083609AB21B0C42F0804243F040438262C6
:1016400083627047014B1878704700BF2602002064
:10165000044B07221A7000225A709A700122DA7025
:10166000704700BF260200204F490B78062B70B54B
:101670000C467AD0072B45D0002B40F094804B7855
:10168000032B00F29080DFE803F00229353A474D42
:101690003020A847464991F8D0304FF4803603F007
:1016A000FE0381F8D0301320C1F89460A84791F868
:1016B000533003F0FE0381F853304FF400234B61A5
:1016C0001020A84791F8503003F0FE0381F8503005
:1016D00001234E6163704FF4FA7007E0344B4FF40E
:1016E0008032C3F8982002234B703220314BBDE882
:1016F0007040184703234B7040F6B830F6E70423D8
:101700000B7070BD8B7813B1012B1DD070BD284CB0
:10171000264D3020A84794F8D03003F0FE0384F81B
:10172000D0304FF48033C4F898301320A84794F891
:10173000533003F0FE0384F853304FF40023A361C9
:1017400001238B701920D1E7184B13209847184BB1
:1017500093F8532002F0FE0283F853204FF4002246
:101760005A6100230B704B70B5E7CB78DBB9104C96
:101770000E4D3020A84794F8D03003F0FE0384F8D3
:10178000D0304FF48033C4F894301320A84794F835
:10179000533003F0FE0384F853304FF40023A36169
:1017A0000123CB70CEE770BD260200201D1600007D
:1017B00000800041CD4C0000014B01221A7070479F
:1017C0002A02002010B5034B03489847034BBDE89D
:1017D00010401847851B000010700000F51C000029
:1017E0002DE9F743234B244D9847244B9847244B2E
:1017F0002449254800241C70244B009301222346D1
:10180000A847234B009306462346012241F27071FC
:101810002048A847204D074630B32EB3DFF8A090EC
:10182000C847009402462346304601211B4EB0476C
:101830000128804618D1C8470094024623464146F5
:101840003846B04701280FD11548A847154E164D08
:10185000164CB047A8470428FBD1A047144B984723
:101860006420144B9847F4E71348A847134B984754
:10187000ECE700BF51160000A15300007D060000F8
:101880002A02002080EE36004D700000C5170000CF
:10189000B917000066700000851B0000F5530000BA
:1018A000827000006916000045160000890D0000D6
:1018B000D51C0000CD4C00009B700000F51C000002
:1018C000494A0000014B00221A7070472A0200208A
:1018D000014B1878704700BF2A0200202DE9F0471D
:1018E000254C264B0E462146814615469847002E2C
:1018F0003ED0617819B1012918D0BDE8F0874FF4C6
:101900002F7204F11C001E4B84F81490E582984756
:1019100031462A4604F11C001A4B984704F1140181
:1019200004F11C00184BBDE8F0471847174F184B3F
:10193000386898478046C8B92846164B84F81490F2
:10194000E5829847A061A8B12A4631460D4B9847D9
:1019500004F114014346642238680F4CA047012863
:1019600008D00E480E4BBDE8F04718470D48F9E780
:101970000D48F7E7BDE8F0872C0200208104000045
:1019800051570000075700004D150000503400204B
:10199000DD460000453D000001410000D770000019
:1019A000851B0000077100003371000070B50D4CFD
:1019B0000D4D0E4E86B04FF0FF330DF10302194668
:1019C0000020A04701280AD19DF8030001A9A847DB
:1019D0009DF80400B04710B90548064B9847064BE0
:1019E0009847E8E72D510000810400002105000020
:1019F00078710000851B0000D51C00002DE9F04720
:101A00001E4C1F4D2068DFF8A8901E4EDFF8A4A0E2
:101A100000231A461946A847A846C8470428FCD1FF
:101A20003068D04720B300212068174B9847012821
:101A30001ED1164D3068164B64222946984701285E
:101A400016D16F78134B05F1080138469847124BB1
:101A50009847297C114BE8689847114B38469847BE
:101A6000104B0020984700231A4619462068C047AB
:101A70000D4B984764200D4B9847CEE77C340020EF
:101A800001410000703400202945000008050020B5
:101A9000BD43000081040000CD1300005D13000071
:101AA00009060000FD050000D51C0000CD4C00001B
:101AB00045160000DD4600002DE9F0470F4C0646B4
:101AC0000D461746A1463046A0470028FBD0DFF858
:101AD0003080DFF830A0013D00246B7804F8083036
:101AE000304615F8011FD0473046C8470028FBD0C4
:101AF0000134BC42F1D32046BDE8F087032F00003B
:101B000024050020F52E0000022303767047802371
:101B10000376704710B5064C0649074B2046984798
:101B2000012220461146054BBDE81040184700BF72
:101B30004000002000040043812E0000172F000009
:101B400070B5064C064B0E46054620469847324671
:101B500029462046034BBDE870401847400000204E
:101B6000D92E0000B91A000010B5044B0446162106
:101B7000034898470123237610BD00BF411B000096
:101B8000967100002DE9F041184E194F8046B0477C
:101B90004FF4FA710546174B38689847012822D14F
:101BA000EDB22846144B9847044698B12A460021C6
:101BB000124B134D9847134B4146204698472046F9
:101BC000B04781B22046A8470F480221A8472046C7
:101BD0000E4B98470E4C38680023A4461A46194607
:101BE000BDE8F0416047BDE8F08100BF4F590000FB
:101BF0007834002029450000453D00005157000081
:101C0000411B00003F590000BF710000053E00006D
:101C1000014100000C4B10B504220C4C1A760C4804
:101C2000A0470028FBD00B4B094898470A490023DE
:101C300008704B7009480A4B984705210748094B23
:101C4000BDE81040184700BF000400430D2F0000FE
:101C500040000020FB2E0000993C00209B3C00200F
:101C60003F590000411B0000044B03EB80004FF480
:101C70007A714288024B0348184700BF5C0000207D
:101C8000CF360000743D002010B50220034B98476A
:101C90000348044BBDE81040184700BF691C000012
:101CA000743D0020B337000010B5064B9847064B33
:101CB0004FF47A709847054B01221A73BDE8104023
:101CC000034B184755230000B92400005C00002096
:101CD000891C0000044B1B7B012B02D10348044BE1
:101CE00018476FF0100070475C000020743D002022
:101CF000EF37000070B50948094B0A4C98470A4B6A
:101D000000251D732046094B98472846084B9847E5
:101D10002046084BBDE87040184700BFC271000064
:101D2000851B0000743D00205C000020C7370000C8
:101D3000691C0000B3370000FEE7000008B5144A34
:101D4000144B9A4218D1144B144A002193421CD3CD
:101D5000134A144B22F07F029A60D3F8882042F491
:101D60007002C3F88820BFF34F8FBFF36F8F0E4B05
:101D700098470E4B9847FEE70D49043A8B42E2D252
:101D800052F8040F43F8040BF8E743F8041BDDE7AF
:101D9000D47600000000002090010020603E00206A
:101DA0000000000000ED00E0A156000061380000D6
:101DB0009001002030B54A1CC4B2C0F34712164847
:101DC00004F01F0300EBC21007D1184490F8403014
:101DD00003F0FE0380F8403030BDC5185B0895F86D
:101DE000402002F0FE02184442F0010285F8402033
:101DF00090F8303014F0010F19BF03F00F0343EADD
:101E0000011101F00F0103F0F00314BFC9B219432F
:101E100080F8301030BD00BF0080004100F01F028C
:101E20004009C00100F1824000F5004001239340C9
:101E300043609AB21B0C42F0804243F040438262FE
:101E400083627047044AD36943F48073D361034BC0
:101E50004022C3F80021704700080040001C0040E9
:101E600010B5044B984704490448054BBDE81040A1
:101E7000184700BF451E000000200042403D0020E2
:101E80006524000070B50220154D164CA847164970
:101E90000220A0470320A84714490320A047282078
:101EA000A84713492820A0472920A84711492920DD
:101EB000A0470420A84710490420A0470520A847B0
:101EC0000E490520A0470620A8470D490620A04737
:101ED0000720A84723460B490720BDE87040184754
:101EE0001D1E0000B51D00000100020001000300DE
:101EF0000100280001002900010004000100050084
:101F00000100060001000700044A136A43F0800341
:101F10001362034B4122C3F82021704700080040A0
:101F2000001C004010B5054B9847054B9847002210
:101F300004490548054BBDE810401847091F00003B
:101F4000851E0000001C0043503D00206D24000051
:101F5000044A136A43F400731362034B4022C3F82C
:101F60002821704700080040001C004010B5044BB9
:101F7000984704490448054BBDE81040184700BF86
:101F8000511F000000240043783D002091240000F0
:101F9000054B4022C3F89020044A536943F4806300
:101FA0005361034B184700BF001C0040000800406D
:101FB00015250000034A936943F080039361024BA7
:101FC000184700BF00080040DD240000024A1369E2
:101FD00043F04003136170470008004010B5044B04
:101FE000984704490448054BBDE81040184700BF16
:101FF000CD1F000000400041043D002045250000A9
:1020000010B5054C05491120A0472346044912206C
:10201000BDE81040184700BFB51D000003001100C7
:1020200003001200064B4022C3F8E0204A22C3F806
:102030008C20044A936943F480639361704700BF26
:10204000001C00400008004010B5044B9847044BAA
:102050009847044BBDE81040184700BF25200000FA
:10206000511200000120000010B5054C0549172051
:10207000A047234604493720BDE81040184700BF59
:10208000B51D00000300170003003700064B402277
:10209000C3F80C214A22C3F88C20044A136A43F087
:1020A00002031362704700BF001C0040000800409C
:1020B00010B5044B9847044B9847044BBDE81040BB
:1020C000184700BF8D200000151B0000692000008C
:1020D0000148024B184700BF10E000E0A9240000AF
:1020E000044A536943F480435361034B4022C3F8CD
:1020F000A420704700080040001C004010B5054BAC
:102100009847054B98470549054B0246BDE81040E6
:1021100004481847E12000002D3600000038004038
:1021200075250000CC3C0020044A536943F4004369
:102130005361034B4022C3F8A420704700080040BD
:10214000001C004010B5054B9847054B98470549C2
:10215000054B0246BDE810400448184729210000FD
:102160002D360000003C004075250000EC3D0020AD
:10217000044A936943F400539361034B4022C3F82C
:10218000E820704700080040001C004010B5054BD7
:102190009847054B98470549054B0246BDE8104056
:1021A00004481847712100002D36000000A00141AD
:1021B00075250000E83C0020044A936943F400635D
:1021C0009361034B4022C3F8E420704700080040AD
:1021D000001C004010B5054B9847054B9847054932
:1021E000054B0246BDE8104004481847B9210000DD
:1021F000C1310000006001414D2600000C3E00206E
:10220000044A936943F480539361034B4022C3F81B
:10221000E420704700080040001C004010B5054B4A
:102220009847054B98470549054B0246BDE81040C5
:102230000448184701220000C1310000008001411C
:102240004D260000543D0020044AD36943F00803A2
:10225000D361034B4022C3F8F420704700080040CC
:10226000001C004010B5054B9847054B98470549A1
:10227000054B0246BDE810400448184749220000BB
:10228000C1310000000C00424D260000AC3D002092
:10229000044AD36943F01003D361034B4022C3F8CF
:1022A000F420704700080040001C004010B5054BAA
:1022B0009847054B98470549054B0246BDE8104035
:1022C0000448184791220000C1310000001000426C
:1022D0004D260000CC3D0020044A136A43F0100351
:1022E0001362034B4022C3F81821704700080040D6
:1022F000001C004010B5054B9847054B9847054911
:10230000054B0246BDE8104004481847D92200009A
:10231000C1310000001000434D260000203D002088
:10232000024A536943F480735361704700080040C8
:1023300010B5044B98470448044B0360BDE81040B7
:10234000034B184721230000743D0020002000406B
:10235000913600002DE9F041264B274C274F284E9F
:10236000284D9847284B9847284B9847284B984723
:10237000284B9847284B9847284B9847284B984715
:10238000284B9847284B9847284B9847284B984705
:10239000A3694FF0400843F48043A361C7F8E88085
:1023A000B047244902462448A847E36943F0200384
:1023B000E361C7F8F880B047204902462048A847A3
:1023C000E36943EA0803E361C7F8F880B0471D49B1
:1023D00002461D48A8471D4B98471D4B98471D4B6B
:1023E00098471D4B98471D4B98471D4BBDE8F04142
:1023F000184700BF4928000000080040001C0040AA
:10240000253600004D260000D1200000611E00008E
:102410006D1F0000911F0000B51F0000DD1F0000B0
:10242000B120000049200000FD20000045210000EF
:102430008D21000000C001412C3E0020001400420C
:102440008C3D002000180042AC3C0020D52100004B
:102450001D22000065220000AD220000F5220000D0
:1024600031230000004B184759270000004B184744
:1024700005280000EFF31083036072B6BFF35F8F8F
:102480007047BFF35F8F036883F3108870470000C5
:1024900010B5044B0446984718B96060A060E0602E
:1024A000206110BDE5280000014B1860014B184762
:1024B00030050020492F0000054B10B51C68054B66
:1024C0009847054B01462046BDE81040184700BF1D
:1024D00030050020412800005D2F0000004B184708
:1024E0009D2A00000A4B30B45D68012100228C183F
:1024F000640801D030BC7047854204D11B68002BB2
:10250000F8D030BC18472CBFFF210122EFE700BFF5
:1025100034050020044B054800214FF0FF3283E8CA
:102520000600034B184700BF34050020E5240000D7
:10253000312A0000436903B118477047836903B12A
:102540001847704710B5044B0446984718B9034B19
:102550002360034B636010BD912B00003525000004
:102560003D250000436903B118477047836903B1F3
:102570001847704710B5044B04469847034B236037
:10258000034B6360002010BD61350000652500002D
:102590006D250000F0B505681DB90F4BBDE8F04092
:1025A0001847D1F808E02C460026C2F1010C6368F8
:1025B000A768934295BFDB1963449B1ADB197345E7
:1025C00007D22368264613B93046044BE6E71C467B
:1025D000EDE7A542F8D1E0E769260000712600008A
:1025E0002DE9F0470669037E44690136DA0705469E
:1025F000066110D4037E9B070DD4DFF84880DFF816
:10260000489000F1140724B16368A268F31A93425A
:1026100007D2BDE8F0872B7E43F002032B76BDE89E
:10262000F0873846C047237C012B04D166603246D0
:1026300021463846C847D5F814A0E3682046984795
:102640005446E0E7792600009525000010B5136890
:10265000044640F8042B98470020024B60616360F9
:1026600010BD00BFE125000003680B6001607047EA
:1026700003680B600160704703680BB11A68026061
:1026800018467047531E1A4001BF43608260C26003
:1026900001600CBF10466FF00C0070478368C26881
:1026A0009A4209D0426813400268D35C0B70836879
:1026B00001338360002070476FF009007047C368E2
:1026C000426813400268D154C36881684268591A4D
:1026D000914288BF9A1A03F1010388BF8260C360E8
:1026E00000207047C2688068101A7047C368836012
:1026F00000207047044B1968024609B90349196064
:10270000186802441A6070473C050020603E0120B2
:10271000036A0B42FCD1704738B501210D4DA84723
:102720000321A8470478C4F3400484B90121A847D1
:10273000037843F0010303700121A8474FF4C063FD
:1027400003610473436144734480204638BD6FF0D5
:10275000100038BD112700000160014B08461847E2
:1027600019270000036B0B42FCD1704708B501210B
:10277000034B984703889BB243F00103038008BDD5
:102780006527000000F13D40A0F5E050C0F3872030
:10279000431E58425841704770B5174E0C460121F0
:1027A000B0470321B0470588C5F340050DBB134B67
:1027B00098470121B0471249162303FB04118B8867
:1027C000C3808B790372CB7983700B8983808B7A7A
:1027D0008372CB7AC3728B898381CB89C3810B8A45
:1027E00003824B8A43820B7DC3704B88038028464B
:1027F00070BD6FF0100070BD652700006D270000F0
:10280000DE71000010B5054B016008460A46984786
:10281000034B0146BDE810401046184785270000CD
:10282000992700004309012200F01F0002FA00F07E
:102830004033024A42F82300704700BF00E100E045
:102840004BF680335843704710B50D4A0D4C138832
:102850009BB213800C4B98470C4B98474FF4006089
:10286000A0470B4B984740F2FF70A047094A1369F5
:1028700043F400731361BDE81040074B184700BFD5
:1028800000400041F52A0000112C0000852B0000BB
:10289000352C0000000800404129000083680B42ED
:1028A000FCD1704738B501210D4DA8470321A84739
:1028B0000278C2F340027AB90121A847037843F0B5
:1028C000010303700121A8470123427082708281B5
:1028D000C2810376104638BD6FF0030038BD00BFDB
:1028E0009D2800000160014B08461847A5280000FC
:1028F00010B4114B114C198C01F01F0103EB0113A3
:102900000C224A4393F84E10C90704EB020006D587
:10291000012283F84E2043685DF8044B184793F872
:102920004E10890704D5022183F84E10A358F3E70F
:102930005DF8044B704700BF00A000414005002037
:1029400030B52E4B1A8822F002021204120C1A80A3
:102950005A8822F47C521204120C5A801A8892B2BD
:1029600042F001021A801A8812F00102FBD14FF4E2
:1029700070611980597B224801F0FE01597300F5FE
:1029800000715A61586399631E491346A0F5C070DF
:102990001C0104F1824202F520420D6815640D7994
:1029A00082F845504D7982F8465004440133CA8874
:1029B000A4F88021202B01F10801E9D11F22012078
:1029C00053099B0003F1604302F01F0103F56143CB
:1029D00000FA01F1C3F88010BFF34F8FBFF36F8F80
:1029E0000132242AC3F880111960E9D1034A1388FF
:1029F0009BB243F002031380002030BD00A00041D1
:102A0000C00600200C720000004B1847F12800009F
:102A1000004B1847F1280000004B1847F128000030
:102A2000004B1847F1280000004B1847F128000020
:102A3000194A13465168C907FCD45A689007FCD15B
:102A40001B78990725D4144B19465A68D207FCD431
:102A50001A7842F001021A704B68DB07FCD40E4B67
:102A60005A6812F00302FBD1197801F0EF011970D6
:102A70005A709A609A611A635A63DA611A62064B55
:102A8000586810F00300FBD11A7842F002021A7065
:102A900070476FF0100070470028004010B5124AD0
:102AA000124C0023185D03F148010133432B42F817
:102AB0002100F7D10E48002200F14004D30003F1B9
:102AC000824303F5604330F81210196214F82210A3
:102AD00083F825100132C943C9B2202A83F8241093
:102AE000ECD1002010BD00BF00E000410C730000DD
:102AF00050730000C10742BF1D4B1E4A1A62820775
:102B000042BF1B4B1C4A5A62430742BF184B194A2B
:102B10009A62010742BF164B164ADA62C20642BFEA
:102B2000134B144A1A63830642BF114B114A5A636E
:102B3000410642BF0E4B0F4A9A63020642BF0C4B3E
:102B40000C4ADA63C30542BF094B0A4A1A6481057D
:102B500042BF074B074A5A64420542BF044B074A2B
:102B60009A64030542BF024B054ADA64704700BF0E
:102B7000001C0040062B010006230100052B01006C
:102B8000053B0100014B01225A71704700080040CB
:102B900001610B8823F0C0039B049B0C0B800D4B41
:102BA00018600D4B4FF00051C3F88010BFF34F8FEA
:102BB000BFF36F8F4FF08042C3F88020BFF34F8F79
:102BC000BFF36F8F0020C3F88011C3F88021196014
:102BD0001A607047C00A002000E100E0094B186845
:102BE00003691A8AD20704D501221A82036843B105
:102BF00018471A8A92B222B140F25E221A824368C2
:102C0000F5E77047C00A0020004B1847DD2B000095
:102C1000074B42F24E029A8201229A75DA75DA69FE
:102C20000022DA61DA68D207FCD504221A747047F0
:102C300000140040244A136A23F00F0343F00403F6
:102C40001362224B00221A77214A9A6293F82C20B1
:102C500012F01002FAD183F820201C4A134692F891
:102C60002C104907FBD44221117793F82C209207AE
:102C7000FBD45A6A5A62154B1A4693F82C1008076F
:102C8000FBD4822183F8201092F82C305907FBD412
:102C900092F820300D4A13F0010F10D0136903F49D
:102CA0001063B3F5106FF9D1074A5368002BFCD1BC
:102CB000136A23F00F0343F006031362704713698E
:102CC000DB05FCD5F0E700BF001C00400010004011
:102CD0000000010407B50C4A9378DBB20193019B15
:102CE000990707D5094B1B6823B15068984703B073
:102CF0005DF804FB019BDB07F9D5044B5B68002BF7
:102D0000F5D0014AF1E700BF000002414C3E00202F
:102D1000002808DB4209012300F01F0003FA00F03D
:102D2000014B43F82200704700E100E000280DDB72
:102D30004309012200F01F0002FA00F02033044A88
:102D400042F82300BFF34F8FBFF36F8F704700BF70
:102D500000E100E0002809DB4309012200F01F0028
:102D600002FA00F06033024A42F82300704700BFC5
:102D700000E100E0C3690B42FCD1704708B50321B4
:102D8000024B98470068C0F3400008BD752D000055
:102D900070B50B4D06460FCD86B06C460FC495E856
:102DA000030084E8030000205DF82030B34202D124
:102DB000C0B206B070BD01300628F5D10020F8E79A
:102DC0001074000038B5254B0446984703283ED0C0
:102DD00004283ED0052814BF0022022220460121EB
:102DE0001F4DA84720461F4B9847002833D1204647
:102DF0000121A847236843F00103236020460121F5
:102E0000A8471949182303FB0213D8691D6A2060DB
:102E100065605D6AA56010F4C04F1BBFA0891D8D61
:102E20001B8D65F30C001FBFA08193F82A00A389B6
:102E300060F34F33A381182303FB0212002092F8A2
:102E40002B30A37392F82C3084F8303038BD002238
:102E5000C4E70122C2E76FF0100038BD912D0000D9
:102E6000752D00007D2D00001074000008B5034B87
:102E7000984780002E3000F0FE0008BD912D000024
:102E800070B5104B064608460C4698470546B0B943
:102E9000B46120460C4B98470230C1B20CB22046B8
:102EA0000A4B984720460A4B984701F1604000F5CD
:102EB0006140E02380F800332046064B98472846BF
:102EC00070BD00BFC52D00006D2E00002D2D00002F
:102ED000552D0000112D0000826908B50321044B17
:102EE00010469847136843F00203136008BD00BF03
:102EF000752D00008369996270478369986AC0B232
:102F000070478369187E00F0010070478369187E5E
:102F1000C0F38000704711F0FD0F09D183690221D1
:102F2000012012B918751975704798759975704711
:102F3000012904D183690421002AF7D1F3E7032989
:102F4000F5D183698021F7E7034B6FF07F425A6028
:102F500005221A60704700BF10E000E00B0E0C4A1B
:102F600030B5D8B26FF07F440138C0B2FF2808D125
:102F7000A3EB03631944516091601368DB03FCD534
:102F800030BD546094601568ED03FCD5ECE700BFDC
:102F900010E000E000280DDB4309012200F01F00D3
:102FA00002FA00F02033044A42F82300BFF34F8FA7
:102FB000BFF36F8F704700BF00E100E0C368196482
:102FC0007047C368186C7047C268D16AC90703D5D7
:102FD0000121D162036818477047000070B50B4D9E
:102FE00006460FCD86B001AC0FC42B6823600020CD
:102FF00001AB53F82020B24202D1C0B206B070BD7E
:1030000001300528F5D10020F8E700BF88740000E2
:10301000C3689A689207FCD11A6842F002021A60EB
:103020007047000038B50546364B08460C469847B1
:1030300038B1012805D0022803D0032801D0042884
:1030400041D143B2EC60A268D207FCD4A2689107D8
:10305000FCD12268920751D4A268D107FCD422681F
:1030600042F001022260A268D207FCD4264A242141
:1030700001FB032399692160197F6171597FA17751
:10308000196A5B6A216223640123A3621F4B9C427D
:103090001CD11F4B1D60042896BF8018892190F811
:1030A000C8101C4B0846984701F01F0249098900C7
:1030B00001F1604101F5614101239340C1F8803184
:1030C00000200B6038BD4FF0FF33BBE7124B9C4232
:1030D00002D10F4B5D60DEE7104B9C4202D10C4BDE
:1030E0009D60D8E70E4B9C4202D1094BDD60D2E7D0
:1030F0000C4B9C4204BF064B1D61CCE76FF01000E7
:1031000038BD00BFDD2F0000887400000060014161
:10311000C40A0020952F000000800141000C0042ED
:103120000010004200100043C3689A689207FCD167
:103130001A6822F002021A607047C3689A68920700
:10314000FCD11868C0F3400070470000074BC0680E
:1031500010B5984704289BBF054BC018892090F8EC
:10316000C800044BBDE81040184700BFDD2F000029
:10317000887400002528000010B5C4680D4B204657
:10318000984704289BBF0C4BC018892090F8C800B2
:103190000A4B9847A3689A07FCD1236823F00203DF
:1031A0002360A368DB07FCD4236843F0010323609A
:1031B00010BD00BFDD2F000088740000952F0000B7
:1031C000004870476C000020014B1868014B1847FD
:1031D000C40A0020C92F0000014B5868014B184752
:1031E000C40A0020C92F0000014B9868014B184702
:1031F000C40A0020C92F0000014BD868014B1847B2
:10320000C40A0020C92F0000014B1869014B184760
:10321000C40A0020C92F000000280DDB4309012249
:1032200000F01F0002FA00F02033044A42F82300A5
:10323000BFF34F8FBFF36F8F704700BF00E100E017
:1032400003690B42FCD1704708B50121034B984735
:10325000036843F00103036008BD00BF4132000072
:1032600008B50321024B98470068C0F3400008BD31
:103270004132000008B50321034B9847036823F04F
:103280000203036008BD00BF41320000C26808B5F8
:103290000321044B10469847136843F00203136060
:1032A00008BD00BF41320000C068014B184700BF95
:1032B00075320000C3681A68C2F38102022A01D184
:1032C000D96170471A6812F00C0F02D189B2998344
:1032D00070471A68C2F38102012A04BFC9B2D976C5
:1032E0007047C3681A68C2F38102022A01D1D86903
:1032F00070471A6812F00C0F02D1988B80B2704799
:103300001A68C2F38102012A06BFD87EC0B200202B
:1033100070470000C068014B184700BF61320000D1
:10332000C268917AC90703D50121917203681847D1
:10333000704770B50569AB7ADA07044604D50123F6
:10334000AB72036803B198476B7A9B0707D50223DA
:10335000AB7263681BB12046BDE87040184770BD72
:10336000114B984207D1114B1960114B984204BF81
:103370000E4B596170470F4B984202D10B4B59606D
:10338000F3E70D4B984202D1084B996070470B4B05
:10339000984202D1054BD9607047094B9842E4D15D
:1033A000024B1961704700BF00380040D80A002066
:1033B00000180042003C004000A0014100C0014153
:1033C0000014004270B5134D06460FCD86B06C4612
:1033D0000FC495E8030084E8030000235DF8232070
:1033E000B2420BD1DBB20C4A0020142101FB00F4E5
:1033F000A45C9C4207D140B206B070BD0133062BDD
:10340000ECD10023EFE701300628EFD14FF0FF3079
:10341000F2E700BF587500008C0000202DE9F04154
:103420002E4B074608460C469847FC60064601218D
:1034300020462B4A904720462A4B9847002848D1DF
:10344000294B2046984701212046904727491423BD
:1034500003FB061388465A682260987AE07318893D
:10346000E08002F00C020120082A207322D1DA68E1
:10347000E2611B6923620125394620461C4B6572B7
:103480009847142303FB06861A4BB6F90210084628
:10349000984700290BDB01F01F034909890001F15E
:1034A000604101F561419D40C1F880510D600020EF
:1034B000BDE8F08122B99A89A2831B8AE383DAE707
:1034C000042AD8D11A7B22771A7C6277DB7AE376DA
:1034D000D1E76FF01000BDE8F08100BFC5330000F8
:1034E0004132000061320000493200008C000020AF
:1034F000613300001932000010B5C468094B204642
:103500009847094A142303FB0020084BB0F9020036
:1035100098472046064B98472046064BBDE810408A
:10352000184700BFC53300008C000020193200008E
:10353000753200004932000010B5064BC06898474C
:10354000054A142303FB0020BDE810408078034B9C
:10355000184700BFC53300008C000020252800005C
:10356000F8B5294B064608460C469847346105468F
:1035700001212046254A90472046254B98470028A0
:103580003CD1244B244F20469847204601219047A8
:10359000142303FB05735A682260987AE073188934
:1035A000E08002F00C020320082A207320D1DA68A0
:1035B000E2611B69236231462046184B9847142369
:1035C00003FB0575164BB5F902100846984700290C
:1035D0000CDB01F01F024909890001F1604101F58E
:1035E000614101239340C1F880310B600020F8BD98
:1035F0003AB99A89A2831B8AE383DCE76FF0100053
:10360000F8BD4FF0FF30F8BDC53300004132000077
:1036100061320000493200008C000020613300005C
:103620001932000000487047040100200020704754
:10363000014B1868014B1847D80A002033330000AB
:10364000014B5868014B1847D80A0020333300005B
:10365000014B9868014B1847D80A0020333300000B
:10366000014BD868014B1847D80A002021330000CD
:10367000014B1869014B1847D80A0020213300007C
:10368000014B5869014B1847D80A0020213300002C
:1036900003689A6812F00E0FFBD11A78D20913D181
:1036A0009A6812F00E0FFBD11A7892070CD4986822
:1036B00010F00E00FBD11A7802F0FB021A705A7853
:1036C00002F0F0025A7070476FF010007047D0B5EA
:1036D0000468A36813F00E0FFBD1237803F0FD03F9
:1036E0002370A36813F00E0FFBD1237803F07F0340
:1036F0002370A36813F00E0FFBD12378DB0955D19B
:10370000A36813F00E0FFBD12378C3F34003002B03
:103710004CD1A2FB01010E461F4656EA07020DD10D
:10372000B0F57A3F38D014D8B0F5FA4F30D008D879
:10373000B0F5FA5F25D0B0F57A5F21D06FF00C00BC
:10374000D0BDB0F57A4F25D0B0F5FA3FF6D10423BD
:1037500017E0B0F5FA1F23D007D8B0F5FA2F1DD027
:10376000B0F57A2FEAD107230BE0B0F5FA0F19D0A4
:10377000B0F57A0F18D0B0F57A1FDFD1092300E039
:103780000123627802F0F002134363700020D0BD81
:103790000223F6E70323F4E70523F2E70623F0E725
:1037A0000823EEE70A23ECE70B23EAE76FF01000AB
:1037B000D0BD0368986810F00E00FBD11A7842F073
:1037C00002021A70704703689A6812F00E0FFBD15C
:1037D0001A78D20908D1986810F00E00FBD11A7837
:1037E00002F0FD021A7070476FF010007047036816
:1037F000A5221A730020704770B50022114C124E9A
:10380000124D08210120A047012130600022084606
:10381000A0470022286008210120A0470C4B186017
:1038200033686BB12B685BB150B1032200210120DA
:10383000A047084B1860084B01209847074B1860B9
:1038400070BD00BFAD400000703400208034002007
:10385000503400207C340020AD4200007834002039
:1038600083B5274B274D284C98470226274B0193B9
:1038700096220023264900962648A8470127264B72
:103880002060019396220023244900972448A847EA
:10389000244B60600193962200232349009623481D
:1038A000A847234BA060019396220023214900964C
:1038B0002148A847214BE0600193009700239622FE
:1038C0001F492048A84723681F4DBB4215D1E36814
:1038D000BB4212D16368BB420FD1A368BB420CD17B
:1038E000B8420AD1194B984720B1194B984719484B
:1038F000A847FEE71848A847F9E71848FBE700BFC4
:10390000A91C000015480000F00A002074340020B3
:103910007075000049040000543400207B750000DD
:10392000FD1900006834002087750000AD19000003
:103930005C34002093750000E11700006034002023
:10394000A4750000DD130000851B0000F93700009E
:10395000B5490000E9750000B2750000D27500009D
:1039600000F1080343604FF0FF32C360036100239E
:1039700082600360704700230361704743684B60B7
:103980009A688A609A685160996003680861013397
:10399000036070470A68531C30B50AD103695A683E
:1039A0004A6091608B60596003680861013303606D
:1039B00030BD00F108035C682568AA42EFD32346B6
:1039C000F9E74168826803698A60826851605968D2
:1039D000884208BF5A60002202611A68013A1A60E0
:1039E0001868704782B0002301930D4B1B680133A8
:1039F00008D04FF0800383F31188BFF36F8FBFF3BC
:103A00004F8FFEE74FF0800383F31188BFF36F8F72
:103A1000BFF34F8F019B002BFCD002B0704700BF5B
:103A20002401002008480068006880F308884FF0EF
:103A3000000080F3148862B661B6BFF34F8FBFF306
:103A40006F8F00DF00BF000008ED00E0DFF80C0022
:103A5000016841F4700101607047000088ED00E0EA
:103A60004FF0807340F8043C074B40F80C3C21F0C9
:103A700001016FF0020340F8081C40F8202C40F8C8
:103A8000243C4438704700BFE539000000000000C6
:103A9000074B19680868B0E8F04F80F30988BFF356
:103AA0006F8F4FF0000080F311887047AFF30080F4
:103AB0008C3300204FF0800383F31188BFF36F8FA6
:103AC000BFF34F8F0A4A13680133012B13600DD1E6
:103AD000084B1B6813F0FF0F08D04FF0800383F3EF
:103AE0001188BFF36F8FBFF34F8FFEE7704700BFA2
:103AF0002401002004ED00E0084A136843B94FF0A8
:103B0000800383F31188BFF36F8FBFF34F8FFEE7FE
:103B1000013B13600BB983F3118870472401002027
:103B2000EFF30980BFF36F8F154B1A681EF0100F6B
:103B300008BF20ED108A20E9F04F10602DE9090040
:103B40004FF0800080F31188BFF34F8FBFF36F8F6A
:103B500001F0E8F84FF0000080F3118809BC196803
:103B60000868B0E8F04F1EF0100F08BFB0EC108AE4
:103B700080F30988BFF36F8F704700BFAFF30080F9
:103B80008C33002008B54FF0800383F31188BFF316
:103B90006F8FBFF34F8F054B984718B1044B4FF011
:103BA00080521A60002383F3118808BD554A000033
:103BB00004ED00E0054B064900221A600A60054A40
:103BC0004BF67F31116007221A60704710E000E069
:103BD00018E000E014E000E0384B394A13B51968EA
:103BE000914208D14FF0800383F31188BFF36F8FA8
:103BF000BFF34F8FFEE71A68324B9A4208D14FF05D
:103C0000800383F31188BFF36F8FBFF34F8FFEE7FD
:103C10002D4B1A78D2B20192FF221A701B78DBB2B8
:103C20008DF803309DF80320284B02F080021A70B3
:103C300007225A6000219DF80300000602F1FF34BC
:103C40000DD401B15A605A68042A11D04FF0800394
:103C500083F31188BFF36F8FBFF34F8FFEE79DF89B
:103C600003205200D2B28DF8032001212246E2E760
:103C7000120202F4E0625A60019B134ADBB2137035
:103C8000134B1A6842F460021A601A6842F06042EC
:103C90001A60104B9847104B00241C600F4B98473C
:103CA0000F4A136843F0404313600E4B98470E4B86
:103CB00098470E4B9847204602B010BD00ED00E03B
:103CC00071C20F4170C20F4100E400E0000B002000
:103CD00020ED00E0B53B0000240100204D3A00003B
:103CE00034EF00E0253A0000254D0000E5390000E2
:103CF000EFF305830F2B104A0DD910495B5C117847
:103D0000994208D94FF0800383F31188BFF36F8F76
:103D1000BFF34F8FFEE70A4B52681B6803F4E06362
:103D2000934208D94FF0800383F31188BFF36F8F5C
:103D3000BFF34F8FFEE77047000B0020F0E300E079
:103D40000CED00E070B5294B04469847284B986865
:103D500090B92849586003F1140222F0070242F298
:103D6000F875C1F82056C1F81C0601F21C611A60F2
:103D70005560116001229A602CB1083462071CBFA3
:103D800024F007040834611E42F2F672914207D80B
:103D90001B6817495A68944204D81748834207D1D0
:103DA00000251DE018680028F7D019460346F1E702
:103DB0000D6818680860121B102A05F108050AD959
:103DC00019194A605C604E68094A10684468A64246
:103DD0000AD80860116009495B680A68D21A0A604B
:103DE000074B9847284670BD0246EEE7354A00006B
:103DF000080B0020F82C002014330020280100209C
:103E0000414B000070B50446B8B10C4BA0F1080559
:103E1000984754F8040C0A4A11684B6898420AD82B
:103E200044F8081C1560074A136803441360BDE892
:103E30007040054B18470A46EEE770BD354A000052
:103E4000080B002028010020414B000010B504465B
:103E5000044B9847A46B044B9847B4FA84F040098C
:103E600010BD00BFB53A0000F93A000070B5154624
:103E7000026C866B044642B905689DB94068144BD4
:103E8000984765600136A66370BD124B65B98068BE
:103E90009847A368226C13446268A360934201D3DD
:103EA0002368A3600020EDE7C0689847236CE268B0
:103EB00021685B421A448A42E2603EBF62689B18F6
:103EC000E360022DEED10EB1013EEBE73046D9E7BB
:103ED000F54F000007570000034610B41A6C08465F
:103EE00062B1D9685C681144A142D96024BF1968E5
:103EF000D960D9685DF8044B024B18475DF8044B54
:103F0000704700BF075700004FF0800383F311880C
:103F1000BFF36F8FBFF34F8FFEE7000073B5846C64
:103F200001900A460CB9174B9847A16BE36B994275
:103F300008D34FF0800383F31188BFF36F8FBFF373
:103F40004F8FFEE7A16B8B421AD994F845500E4B68
:103F500001A9204698476DB26B1C06460BD1636AD7
:103F600033B104F12400094B9847002818BF0126FB
:103F7000304602B070BD01356DB284F84550F7E7A8
:103F80000026F5E7093F00006D3E0000294E0000C5
:103F90002DE9F04704461F4F1F4EDFF88480DFF8FD
:103FA0008490B84794F845506DB2002D17DCFF237C
:103FB00084F84530194EDFF86080DFF86490B04730
:103FC000B84794F8445004F110076DB2002D17DC87
:103FD000FF2384F844303346BDE8F0471847A36C0C
:103FE0003BB100212046C84700B1C047013D6DB23A
:103FF000DBE7636A002BDAD004F12400B047F3E773
:104000002369002BE4D03846C04700B1C847013DC2
:104010006DB2DBE7B53A0000294E0000F93A000026
:10402000414F00001D3F000038B50D46044608B959
:10403000184B9847184B9847206CE36B2268A26096
:104040004343D1181B1A13446160E3600021FF232E
:10405000A16384F8443084F8453095B9236963B18D
:1040600004F110000D4B984738B10D4B4FF08052C2
:104070001A60BFF34F8FBFF36F8F0A4B9847012031
:1040800038BD04F11000084DA84704F12400A847EA
:10409000F3E700BF093F0000B53A0000294E0000D9
:1040A00004ED00E0F93A000061390000F8B50D4672
:1040B0001746064640B94FF0800383F31188BFF3DB
:1040C0006F8FBFF34F8FFEE7484354300A4B98473A
:1040D000044658B165B92060084BE66325640121A8
:1040E00020469847002384F85070A3642046F8BD0A
:1040F00000F154030360EFE7453D00002940000054
:104100002DE9F04F87B08A4603921F46044640B916
:104110004FF0800383F31188BFF36F8FBFF34F8F8E
:10412000FEE7002940F08F80036C002B00F08B80AD
:104130004FF0800383F31188BFF36F8FBFF34F8F6E
:10414000FEE7039B002B00F089804FF0800383F390
:104150001188BFF36F8FBFF34F8FFEE7636A002BA9
:104160005BD004F12400444B984756E0039D15B9F9
:10417000B04700205CE013B904A8404B9847B04713
:104180003F4BDFF820B13F4D9847C04794F844308B
:10419000FF2B04BF002384F8443094F84530FF2BF4
:1041A00004BF002384F84530B04703A904A8364B68
:1041B0009847002843D1C047A16BE26B029101925E
:1041C000B047019A0299914235D103992F4A04F1DF
:1041D000100090472046D847A84738B92C4A4FF0DE
:1041E00080531360BFF34F8FBFF36F8F0123019391
:1041F000C847A16BE26B274E914202D3022F019B6D
:10420000B4D1254B3A46514620469847A36C002B23
:10421000A4D039462046214B984738B11C4B4FF06B
:1042200080521A60BFF34F8FBFF36F8FB0470120EA
:1042300007B0BDE8F08F2046D847A847D6E720460C
:10424000D847A84795E7022F02D1E36B012B09D18C
:10425000134B984700283FF474AF0023DFF84890D1
:10426000C846C4E74FF0800383F31188BFF36F8F14
:10427000BFF34F8FFEE700BF294E0000AD4E000098
:10428000354A0000414B0000C14E0000A94D00001E
:1042900004ED00E0F93A00006D3E00001D3F000013
:1042A000514F0000913F0000B53A000038B502467A
:1042B00000210120064B9847044638B10023436093
:1042C0000360C3601A461946024DA847204638BD10
:1042D000AD400000014100002DE9F84388469146B9
:1042E0001F46044640B94FF0800383F31188BFF3A3
:1042F0006F8FBFF34F8FFEE719BB036C0BB34FF00B
:10430000800383F31188BFF36F8FBFF34F8FFEE7F6
:10431000B9F1000F3FD00120C9F8000086F31188E1
:10432000BDE8F883636A002B35D004F124001F4BED
:1043300098472EE001356DB284F845502BE00020FF
:10434000ECE7022F02D1E36B012B26D1184B9847E3
:10435000EFF311864FF0800383F31188BFF36F8F63
:10436000BFF34F8FA26BE36B9A4201D3022FE6D1CA
:1043700094F845500F4B6DB23A4641462046984757
:104380006B1CD7D1A36C002BCCD0394620460A4BEE
:1043900098470028BCD10120C0E74FF0800383F389
:1043A0001188BFF36F8FBFF34F8FFEE7294E0000D8
:1043B000F13C00006D3E00001D3F00002DE9F04F74
:1043C00085B089460192044640B94FF0800383F3DB
:1043D0001188BFF36F8FBFF34F8FFEE700297DD1A8
:1043E000036C002B7AD04FF0800383F31188BFF366
:1043F0006F8FBFF34F8FFEE7019E002E73D04FF0FB
:10440000800383F31188BFF36F8FBFF34F8FFEE7F5
:10441000019D15B9B847002051E016B902A8354BE7
:104420009847B847344B354E354D9847D84794F8A0
:104430004430FF2B04BF002384F8443094F8453007
:10444000FF2B04BF002384F84530B84701A902A818
:104450002C4B2D4F9847002838D12046B8470028CC
:1044600030D00199294B04F1240098472046B047E9
:10447000A84738B94FF08053CAF80030BFF34F8FC8
:10448000BFF36F8F0126C047A56B214F002DBFD012
:10449000204B49462046013D9847A563236963B1F7
:1044A00004F110001C4B984738B11C4B4FF0805260
:1044B0001A60BFF34F8FBFF36F8FB847012005B06D
:1044C000BDE8F08F2046B047A847DBE72046B0475D
:1044D000A8472046B8470028D4D09CE7104B9847FF
:1044E000002889D00026DFF83C80DFF830A0C346E2
:1044F000C9E700BFAD4E0000354A0000913F000003
:10450000414B0000C14E00004D3E0000A94D00008F
:10451000F93A0000D93E0000294E000004ED00E009
:10452000514F0000B53A00002DE9F04F85B0044628
:10453000019140B94FF0800383F31188BFF36F8F6F
:10454000BFF34F8FFEE7056C45B14FF0800383F357
:104550001188BFF36F8FBFF34F8FFEE7504B984723
:1045600018B9019D002D40F09180DFF86491DFF8CB
:104570003CA12E464F46C847A36BE3B1013BA36362
:10458000236813B9474B98476060236963B104F10E
:104590001000454B984738B1444B4FF080521A6099
:1045A000BFF34F8FBFF36F8F414B984701252846CC
:1045B00005B0BDE8F08F019B63B945B14FF08003B2
:1045C00083F31188BFF36F8FBFF34F8FFEE7384B34
:1045D0009847ECE716B902A8364B9847344EDFF8F7
:1045E000F4B0DFF8F480B047334B9847B84794F8FD
:1045F0004430FF2B04BF002384F8443094F8453046
:10460000FF2B04BF002384F84530B0472B4B01A992
:1046100002A898472A4B08BB20469847D0B1236888
:104620002BB9B8476068274B98470546B0470199B2
:10463000254B04F1240098472046D847C04738B995
:104640004FF08053CAF80030BFF34F8FBFF36F8F26
:10465000012690E72046D847C047F9E72046009357
:10466000D847C0472046009B98470028F0D0002D2F
:104670009DD0B847616A19B1236B1968C1F1050172
:104680006068124B98470025B04790E74FF08003D1
:1046900083F31188BFF36F8FBFF34F8FFEE700BF27
:1046A000514F000015510000294E000004ED00E0BC
:1046B000F93A0000AD4E0000354A0000C14E00003E
:1046C0004D3E0000714F0000A94D000079500000E0
:1046D000B53A0000913F0000414B000010B5044680
:1046E00040B94FF0800383F31188BFF36F8FBFF39E
:1046F0004F8FFEE7034B9847A46B034B9847204628
:1047000010BD00BFB53A0000F93A000070B504468C
:10471000104B0D461646984794F84430FF2B04BFC3
:10472000002384F8443094F84530FF2B04BF002365
:1047300084F84530084B9847A36B2BB9324629467D
:1047400004F12400054B98472046054BBDE8704016
:10475000184700BFB53A0000F93A0000E54D0000E7
:10476000913F00000649074B4FF08052086801282E
:10477000FCD91A60BFF34F8FBFF36F8FF6E700BF0E
:104780001C33002004ED00E0064B5A6E12681AB983
:104790004FF0FF329A6670475A6ED268D2685268FC
:1047A000F8E700BF1C3300202DE9F041154E164BF1
:1047B000F76E0546306F0430884698476B1C3446C8
:1047C0000AD1B8F1000F07D0316F104B043106F158
:1047D0007400BDE8F04118473D44236FAF425D606F
:1047E0000B4B04D9D4F88800216F0431F1E7606ED7
:1047F000216F04319847A36E9D4238BFA566BDE87E
:10480000F08100BF1C330020C33900007D39000057
:10481000953900002DE9F84F940080465A4D204606
:104820000F469946A8470646002800F09E8054206F
:10483000A8470546002800F0958022460663534BA2
:10484000A521304698472B6B043C1C4424F0070AF2
:104850007B1E05F134020737597802F8011B13F863
:10486000011F09B1BB42F7D10A9C494E042C28BF55
:1048700004244FF0000B2F1DEC626C64384685F861
:104880003BB0C5F848B0B047C4F1050405F11800C5
:10489000B047C5F84CB03F4B2D61AC616D6285F8F7
:1048A00050B04A464146504698470B9B286003B19A
:1048B0001D60394C394B9847D4F8A0300133C4F807
:1048C000A030236F002B54D12567D4F8A030012BE2
:1048D00020D1334E2046B04704F11400B04704F114
:1048E0002800B04704F13C00B04704F1A40904F1EA
:1048F0005000B04704F1B8084846B0474046B047BA
:1049000004F18C00B04704F17400B047C4F864901F
:10491000C4F88880D4F8D030D4F8D4200133C4F857
:10492000D030EB63EB6A1420934288BFC4F8D430D4
:1049300000FB034039461B4B98471B4B9847D4F864
:10494000CC3063B1236FDA6AEB6A9A4207D2174B15
:104950004FF080521A60BFF34F8FBFF36F8F01206B
:10496000BDE8F88F3046124B98474FF0FF30BDE856
:10497000F88FD4F8CC30002BCCD1236FDA6AEB6AF5
:104980009A4298BF2567C5E7453D00005157000092
:1049900077390000613A00001C330020B53A00006E
:1049A000613900007D390000F93A000004ED00E0B3
:1049B000053E000073B5194C19491A481A4E04F106
:1049C000DC030025019300952B468022B047012887
:1049D00016D1164B9847012812D14FF0800383F36C
:1049E0001188BFF36F8FBFF34F8F4FF0FF33A36674
:1049F0000F4BC4F8CC00E56602B0BDE87040184724
:104A0000013008D14FF0800383F31188BFF36F8F1B
:104A1000BFF34F8FFEE702B070BD00BF1C33002014
:104A20000176000065470000154800005153000062
:104A3000D93B0000034AD2F8D8300133C2F8D8304D
:104A4000704700BF1C330020014BD86E704700BF79
:104A50001C3300202DE9F84F354BD3F8D8201C46E5
:104A6000002A3DD1DE6E0136DE66C6B95B6E1B687C
:104A700043B14FF0800383F31188BFF36F8FBFF30F
:104A80004F8FFEE7636ED4F888206266C4F88830E2
:104A9000D4F8E0300133C4F8E030264B9847A36ED9
:104AA0009E424FF000050BD3DFF88C80DFF88CB00E
:104AB0004FF0140A636E1B68CBB94FF0FF33A36647
:104AC000236FDA6A14235343E358022B28BF0125CE
:104AD000D4F8E830002B18BF01252846BDE8F88F30
:104AE000D3F8E4300133C4F8E4300025F0E7636E16
:104AF000DB68DF687B689E42E1D307F10409484622
:104B0000C047BB6A13B107F11800C047F86AD4F870
:104B1000D430984288BFC4F8D40049460AFB00400C
:104B2000D847236FFA6ADB6A9A4228BF0125C1E79A
:104B30001C33002089470000C33900007D39000084
:104B40002DE9F843314CD4F8D83043B94FF0800305
:104B500083F31188BFF36F8FBFF34F8FFEE72C4BAA
:104B60009847D4F8D830013BC4F8D830D4F8D8509E
:104B70002DB10024274B98472046BDE8F883D4F890
:104B8000A030002BF5D0244FDFF89C904FF0140894
:104B9000D4F88C30EBB90DB1204B9847D4F8E450E1
:104BA0004DB11F4E0127B04708B1C4F8E870013D70
:104BB000F9D1C4F8E450D4F8E830002BD9D0194B1F
:104BC0004FF080521A60BFF34F8FBFF36F8F0124F5
:104BD000D0E7D4F89830DD682E1D05F11800B847ED
:104BE0003046B847E86AD4F8D430984288BFC4F851
:104BF000D400314608FB0040C847236FEA6ADB6AED
:104C00009A4224BF0123C4F8E830C1E71C330020D6
:104C1000B53A0000F93A0000C339000089470000A6
:104C2000554A000004ED00E07D39000038B540B978
:104C30004FF0800383F31188BFF36F8FBFF34F8F63
:104C4000FEE741B94FF0800383F31188BFF36F8F04
:104C5000BFF34F8FFEE7184DD5F8D84044B14FF061
:104C6000800383F31188BFF36F8FBFF34F8FFEE78D
:104C7000124B9847ED6E0268954201EB020317D282
:104C80009A4203D99D422CBF0024012403601CB129
:104C9000581B00210A4B98470A4B984738B90A4BD2
:104CA0004FF080521A60BFF34F8FBFF36F8F38BD44
:104CB0009A42E7D90124E9E71C330020354A000075
:104CC000A9470000414B000004ED00E008B540B9E1
:104CD0000F4B4FF080521A60BFF34F8FBFF36F8FAF
:104CE00008BD0C4BD3F8D81041B14FF0800383F3CB
:104CF0001188BFF36F8FBFF34F8FFEE7064B9847C6
:104D0000064B9847064B98470028E1D008BD00BFE6
:104D100004ED00E01C330020354A0000A9470000E4
:104D2000414B000038B51E4BD3F8D8201C461AB1B1
:104D30000122C3F8E82038BDC3F8E8201A6F1B6FC2
:104D400012681B6B9A4204D8206F216F154B3431C7
:104D50009847D4F8D420142505FB02F3E118E05855
:104D600088B148680833406848602344984204BFCB
:104D700043684B60142303FB02435B68DB682367D3
:104D8000C4F8D42038BD42B94FF0800383F31188B2
:104D9000BFF36F8FBFF34F8FFEE7013ADCE700BF31
:104DA0001C330020D102000010B50C4640B94FF072
:104DB000800383F31188BFF36F8FBFF34F8FFEE73C
:104DC000054B196F054B1831984720460121044BBC
:104DD000BDE81040184700BF1C3300209539000083
:104DE000A947000070B50D46144640B94FF0800346
:104DF00083F31188BFF36F8FBFF34F8FFEE7074B2D
:104E0000196F074B18319847002C21460CBF2846D4
:104E10004FF0FF30034BBDE8704018471C330020B3
:104E20007D390000A9470000C3682DE9F041D3F89F
:104E30000C80B8F1000F08D14FF0800383F3118884
:104E4000BFF36F8FBFF34F8FFEE708F11806144CC6
:104E5000144F154D3046B847D4F8D830E3B908F1AF
:104E600004063046B847D8F82C30D4F8D4201420A3
:104E7000934288BFC4F8D430314600FB0340A847B2
:104E8000236FD8F82C20DB6A9A4286BF0120C4F831
:104E9000E8000020BDE8F081314604F18C00EEE727
:104EA0001C330020C33900007D390000034BD3F8C8
:104EB000E020DB6E02604360704700BF1C330020BF
:104EC00070B50C46054640B94FF0800383F3118856
:104ED000BFF36F8FBFF34F8FFEE741B94FF08003F1
:104EE00083F31188BFF36F8FBFF34F8FFEE7104B33
:104EF000984723680F486968C26E5E1C0ED0D0F8D0
:104F0000E0002E68864201D08A420ED2521A9A429E
:104F100009D29B1A23602846074B98470024074B69
:104F20009847204670BD002323600124F7E700BFA7
:104F3000B53A00001C330020AD4E0000F93A0000E5
:104F4000024B0122C3F8E820704700BF1C33002049
:104F5000064BD3F8CC2032B1D3F8D830002B0CBF9D
:104F60000220002070470120704700BF1C33002042
:104F700070B50446002831D01B4AC36A116FC96A54
:104F80008B42154622D28269002AA1BF2A6FD26ABB
:104F9000C2F105028261142202FB035342699A4264
:104FA0001DD1061D114B304698472B6FD5F8D420E4
:104FB000DB6AE362934201D9C5F8D430142000FBC8
:104FC000035031460A4B9847012070BD136F406C67
:104FD000DC6AA0422CBF0020012070BD70BD2B6F89
:104FE000DB6AC362F0E700BF1C330020C339000056
:104FF0007D39000070B5044608B9002070BD1B4D16
:105000002B6F984208D04FF0800383F31188BFF3D1
:105010006F8FBFF34F8FFEE7836C43B94FF0800370
:1050200083F31188BFF36F8FBFF34F8FFEE7C16A21
:10503000426C013B91428364DFD0002BDDD1061D21
:1050400030460B4B9847636CE362C3F10502A261E3
:10505000D5F8D4201420934200FB035088BFC5F834
:10506000D4303146034B9847012070BD1C330020DB
:10507000C33900007D39000070B50446002841D0D6
:10508000826C42B94FF0800383F31188BFF36F8FB6
:10509000BFF34F8FFEE7436C994238BF1946C36A8E
:1050A0008B422FD0012A2DD1174D2A6F904208D163
:1050B0004FF0800383F31188BFF36F8FBFF34F8FDF
:1050C000FEE78269C162002A4FF0140202FB03531B
:1050D0004269A4BFC1F1050181619A4212D1061D46
:1050E0000A4B30469847E36AD5F8D420934201D959
:1050F000C5F8D430142000FB03503146044BBDE802
:105100007040184770BD00BF1C330020C339000039
:105110007D390000044B1A6F1AB1196F8A6C013285
:105120008A64186F704700BF1C3300202DE9F843D4
:10513000204C214F1D4681460E469046B847236FAE
:1051400093F85030022B14D0236FDA6C22EA090254
:10515000DA64236F012183F8501055B12846174BAC
:105160009847174B4FF080521A60BFF34F8FBFF331
:105170006F8F144DA847B8472A46B8F1000F03D0E7
:10518000236FDB6CC8F80030236F93F85030022B8C
:1051900001BF236FD96CB143D964236F4FF0000175
:1051A0000CBF0125002583F8501090472846BDE824
:1051B000F88300BF1C330020B53A0000A947000067
:1051C00004ED00E0F93A00002DE9F843089F884615
:1051D00015469946044640B94FF0800383F3118881
:1051E000BFF36F8FBFF34F8FFEE7334B9847EFF35B
:1051F00011864FF0800383F31188BFF36F8FBFF3E5
:105200004F8FB9F1000F02D0E36CC9F8003094F869
:105210005030022284F850206A1EDBB2032A07D8DD
:10522000DFE802F0020D1210E26C42EA0802E264CA
:10523000012B0CD0012086F31188BDE8F883E26CC5
:105240000132F4E7022B35D0C4F84C80F0E7A36AB2
:1052500043B14FF0800383F31188BFF36F8FBFF327
:105260004F8FFEE7154DDFF85C80D5F8D830CBB90D
:1052700004F10409124B48469847E36AD5F8D42054
:105280001420934288BFC5F8D430494600FB035030
:10529000C0472B6FE26ADB6A9A42CBD9012037B153
:1052A0003860C8E704F1180105F18C00F0E7C5F893
:1052B000E800C0E70020BEE7F13C00001C330020FE
:1052C000C33900007D3900002DE9F0410C4C0D4B35
:1052D0009847256885B9271D3846DFF8348004F1E2
:1052E0001806C0473046C0472A460C211420064BFA
:1052F000E762266398472060044BBDE8F0411847F9
:1053000008340020B53A0000AD400000F93A000032
:1053100061390000914208B5416000610AD8D21A93
:1053200083699A420ED2084B011D186B074B9847B0
:10533000002008BD9A4201D2994203D2024B011DBE
:10534000D86AF3E7012008BD083400209539000031
:105350000E4B13B598470E4B1A6842B94FF08003B5
:1053600083F31188BFF36F8FBFF34F8FFEE73433A2
:105370000193032300938022002306490648074C2B
:10538000A0470028EAD002B010BD00BFC9520000FB
:105390000834002015760000D9540000154800009C
:1053A0002DE9F04180461E462C200F4B0D46174636
:1053B00098470446A8B145B94FF0800383F311889C
:1053C000BFF36F8FBFF34F8FFEE7084B9847069BE5
:1053D0006362C4F80080A561E7612662201D044B6A
:1053E00098472046BDE8F081453D0000C9520000C5
:1053F0007739000030B5154685B01A46034640B9E6
:105400004FF0800383F31188BFF36F8FBFF34F8F8B
:10541000FEE70D4C206880B10529019102950393A8
:105420000DDC0A4B0A4D98470023022808BF089A52
:10543000206818BF1A4601A9A84705B030BD00234F
:1054400001A9044CA047F8E708340020514F0000A0
:1054500001410000D94200002DE9F3411A4D1B4FD4
:10546000EB6A1A682AB92A6BEA622B6302B0BDE8BC
:10547000F081DB68DC681E6804F104084046B84728
:10548000636A20469847E369012BE9D1A369334455
:105490009E4206D2636024614146E86A0C4B9847FD
:1054A000DEE700232046009332461946094CA04708
:1054B0000028D5D14FF0800383F31188BFF36F8F9D
:1054C000BFF34F8FFEE700BF08340020C339000050
:1054D00095390000F55300002DE9F04F87B0644D79
:1054E000EA6AD2F80090A846B9F1000F3BD0D26822
:1054F0001668604A604F9047B847AA6B9042824650
:1055000033D25E4A90470124C5F838A0DFF88CB149
:10551000002C73D1B9F1000F58D056456CD8D8473C
:10552000EB6ADB68DD68564B281D9847EB69012B59
:105530001DD1A9695246334631442846DFF858A1A7
:10554000D047A0B1009423462146324628464D4C10
:10555000A04760B94FF0800383F31188BFF36F8FCA
:10556000BFF34F8FFEE74E46C3E70024CCE76B6ADC
:1055700028469847444D414ED8F80000002203A920
:10558000A8470028ABD0039B002BF5DB059C636983
:1055900013B1201D3A4B9847B847D8F83830984295
:1055A000834600D2B047039AC8F838B0092AE3D836
:1055B0000123934013F4047A46D113F0C70F1FD18F
:1055C0009B06D9D52046314B9847D4E72B6B1A68F8
:1055D000B2FA82F25209A6EB0A0128682C4B9847CE
:1055E000D8470028C6D12B4B4FF080521A60BFF32A
:1055F0004F8FBFF36F8FBDE72246ECE7D847B9E77F
:10560000A169049B244E5A4619442046B0470028FD
:10561000B1D0636A20469847E369012BABD1A269F8
:105620000499CDF800A00A44204653465146154C33
:10563000A04700289FD14FF0800383F31188BFF368
:105640006F8FBFF34F8FFEE70499A16141B94FF00F
:10565000800383F31188BFF36F8FBFF34F8FFEE793
:105660005B465A46594420460B4CA04783E700BF8F
:1056700008340020354A0000494A0000595400000F
:10568000C3390000F5530000BD430000053E000093
:105690000D47000004ED00E015530000414B0000F1
:1056A00070B50D4E0D4CA41BA4100025A54209D1C8
:1056B0000B4E0C4C01F0FEFFA41BA4100025A542CC
:1056C00005D170BD56F8253098470135EEE756F8FC
:1056D000253098470135F2E7C0760000C07600001B
:1056E000C0760000C476000010B501390244904233
:1056F00001D1002010BD10F8013B11F8014FA34269
:10570000F5D0181B10BD10B5431E0A44914200D1BC
:1057100010BD11F8014B03F8014FF7E7884210B5AF
:1057200001EB020303D8421E99420CD110BD9842EE
:10573000F9D28118D21AD34200D110BD13F8014D0D
:1057400001F8014DF7E711F8014B02F8014FEBE7C3
:1057500002440346934200D1704703F8011BF9E766
:1057600038B50546002945D051F8043C0C1F002BE4
:10577000B8BFE41800F01AF91F4A1368104633B98D
:10578000636014602846BDE8384000F010B9A342B9
:105790000CD921686218934204BF1A685B68636081
:1057A00004BF521822600460ECE713465A680AB13D
:1057B000A242FAD919685818A0420BD120680144B6
:1057C000581882421960DDD1106852685A6001444D
:1057D0001960D7E702D90C232B60D3E72068211882
:1057E0008A4204BF11685268626004BF09182160D0
:1057F0005C60C7E738BD00BF4434002070B5CD1CE5
:1058000025F0030508350C2D38BF0C25002D064664
:1058100001DBA94203D90C233360002070BD00F0E6
:10582000C5F8234A1468214691B9224C23681BB954
:10583000304600F041F820602946304600F03CF840
:10584000431C26D10C233360304600F0B0F8E4E767
:105850000B685B1B1AD40B2B0FD90B60CD50CC18E7
:10586000304600F0A4F804F10B00231D20F00700DF
:10587000C31A1BD05A42E25070BD8C420DBF636800
:105880004B686360136018BF0C46E9E70C46496833
:10589000CAE7C41C24F00304A04205D0211A3046F4
:1058A00000F00AF80130CDD02560D9E770BD00BF07
:1058B000443400204834002038B5064C0023054607
:1058C00008462360FCF716FF431C02D1236803B18E
:1058D0002B6038BD5C3E00200EB400B59CB04FF488
:1058E00002711DABADF81410029006906FF00041EC
:1058F0000A48049107914FF6FF7153F8042BADF855
:1059000016100068019302A900F0AEF8029B002275
:105910001A701CB05DF804EB03B070472C01002036
:1059200010B50246134601321C78002CFAD1013B17
:1059300011F8012B03F8012F002AF9D110BD0346FD
:1059400011F8012B03F8012B002AF9D17047034607
:1059500013F8012B002AFBD1181A0138704710B533
:105960006AB10139841810F8013B11F8012F9342F4
:1059700003D1A04201D0002BF5D1981A10BD1046DA
:1059800010BD70B5044602B970BD234611F8015B25
:1059900003F8015B561E1DB91444A34203D170BD28
:1059A0001C463246EFE703F8015BF6E770477047A5
:1059B0002DE9F0478E689E4282460C4691469846F5
:1059C00035D88A8912F4906F31D0256809696F1A29
:1059D0006569022305EB450595FBF3F508F1010325
:1059E0003B449D4238BF1D46530531D52946FFF73C
:1059F00005FF064650B90C23CAF80030A38943F0CE
:105A00004003A3814FF0FF30BDE8F0873A4621699B
:105A1000FFF779FEA38923F4906343F08003A38109
:105A2000266165613E44ED1B2660A56046464645FD
:105A300028BF4646324649462068FFF76FFEA368F6
:105A40009B1BA36023681E4426600020BDE8F087EE
:105A50002A4600F0E5FA06460028E1D121695046C1
:105A6000FFF77EFEC7E700002DE9F04F9DB08046AE
:105A700003938B891C060D4616460FD50B696BB92F
:105A80004021FFF7BBFE2860286128B90C23C8F825
:105A900000304FF0FF30C5E040236B6100230993D5
:105AA00020238DF8293030238DF82A304FF0010B58
:105AB00037463C4614F8013B002B3CD1B7EB060AB5
:105AC0000BD05346324629464046FFF771FF01305E
:105AD00000F0A380099B534409933B78002B00F00E
