S00E000053414D4435312E737265638B
S1130000E0310120491100004511000045110000B4
S113001045110000451100004511000000000000DA
S1130020000000000000000000000000D12E0000CD
S11300304511000000000000612F0000C52F0000E2
S11300404511000045110000451100004511000054
S11300504511000045110000451100004511000044
S11300604511000045110000451100004511000034
S11300704511000045110000451100004511000024
S11300804511000045110000451100004511000014
S11300904511000045110000451100004511000004
S11300A045110000451100004511000045110000F4
S11300B0451100007D200000512000007D1E00003D
S11300C0851E00008D1E0000951E00009D1E000070
S11300D045110000451100004511000045110000C4
S11300E045110000451100004511000045110000B4
S11300F000000000492100004511000045110000E6
S11301004511000045110000451100004511000093
S11301104511000045110000451100004511000083
S11301204511000045110000A9060000B5060000B5
S1130130C1060000451100004511000045110000F2
S11301404511000045110000451100004511000053
S11301507D100000451100000000000000000000B8
S1130160000000000000000000000000000000008B
S1130170000000000000000000000000000000007B
S11301804511000045110000451100004511000013
S1130190000000003D26000045110000451100004C
S11301A045110000451100004511000045110000F3
S11301B04D260000451100004511000045110000C6
S11301C0451100005D2600004511000045110000A6
S11301D0451100006D260000451100004511000086
S11301E07D2600004511000045110000A52A0000ED
S11301F0B52A0000C52A0000D52A0000E52A00001F
S1130200F52A000000000000000000004511000075
S11302104511000045110000451100004511000082
S11302204511000045110000451100004511000072
S11302304511000045110000451100004511000062
S11302404511000045110000451100004511000052
S11302504511000045110000451100004511000042
S11302600000000010B5054C237833B9044B13B1DA
S11302700448AFF300800123237010BD90010020D7
S113028000000000246400000C4B43B10C480D49ED
S113029010B5AFF300800C48036823B910BD0A48B9
S11302A0036833B97047094B002BF7D0BDE8104001
S11302B01847064B002BF5D0184700BF000000007C
S11302C02464000094010020246400000000000065
S11302D000B59BB064220E4B0E4C05460E4601A899
S11302E0002198470C48A0470C48A0470A48A0475B
S11302F00B48A0470B490C4C33462A4601A8A0479B
S11303000A4B01A898470A4B81B201A89847FEE717
S1130310E1480000ED0F00000E52000049520000B9
S1130320B25E000084520000694A0000DF4A000007
S1130330A90F000073B5074B074E084D084C9847AA
S113034001903046A847A04742F2107101A8054B1E
S11303509847F6E7C93D0000A9520000ED0F0000E0
S113036035110000AD3F0000054B30B5142404FBEB
S113037000340D460FCC0FC523682B6030BD00BF81
S1130380CC52000010B50378244C313B072B42D8E3
S1130390DFE803F004171D23292F353B204B2148A8
S11303A03122DA735A77A0471F48A0471F49204BD0
S11303B020480F22984720491E48204BBDE8104092
S11303C01847174B1E483222DA735A77EBE7144B5F
S11303D01C483322DA735A77E5E7114B1A48342262
S11303E0DA735A77DFE70E4B18483522DA735A77F7
S11303F0D9E70B4B16483622DA735A77D3E7084B02
S113040014483722DA735A77CDE7054B124838225D
S1130410DA735A77C7E71148C5E700BFED0F00004C
S1130420000000207C5700001B5800001100002031
S1130430134B0000AC01002033580000B14A000007
S11304408B5700009A570000A9570000B8570000C6
S1130450C7570000D6570000E5570000F4570000C6
S113046010B586B0044601A90C4B9847182C03D14B
S113047002210B480B4B98470B4B98479DF80C10E7
S113048002980A4B98470A4B1C700A4B00221A70B8
S11304904FF47A70084B984706B010BD690300000A
S11304A0B25E0000A90F0000DD0700006D07000028
S11304B0E8010020200000202D19000070B5ADF5E2
S11304C0347D164B0E4669469847BDF81010144B00
S11304D09DF8084005A89847054690B19DF8082066
S11304E00198104B05A99847A8B9023405AABDF88C
S11304F00A3052FA84F4421CC0B2984207D3002353
S11305003354094B984728460DF5347D70BD215C62
S113051031541046EFE70025F3E700BF69030000FC
S113052095070000EF4A0000DD070000F0B5264CF7
S1130530264B207887B001A99847207800283FD01F
S1130540611C234B984780B19DF8042023789A427C
S113055007D1049B9DF80E10601C98471D4B012287
S11305601A700023237007B0F0BD1B481B4DA84729
S11305702378182BF5D11A481A4F1B4EA8471B484D
S1130580A8470A20B8474FF47A70B047FFF7CEFF68
S11305901A20B8474FF47A70B047FFF7C7FF1B2003
S11305A0B8474FF47A70B047FFF7C0FF40F6B83051
S11305B0B0470F4B98470F48A8470F48A847D0E7C4
S11305C00E48064B9847CEE7E80100206903000077
S11305D0BD040000200000201D5A0000ED0F0000A3
S11305E0455A0000610400002D190000835A0000E0
S11305F0DD080000AE5A0000D45A0000F25A000090
S1130600014B1870704700BF20000020014B187088
S1130610704700BFE8010020014B1878704700BF05
S1130620E801002010B512491248134B134C9847A7
S1130630C8B94FF4006212491248134B984790B955
S1130640012211460B48114B9847114B0948984712
S11306501048A047104B114893F83C13104B49091C
S1130660BDE81040184723460E48BDE8104018471F
S11306700040014124000020F5220000ED0F00009D
S11306800228002004300020F91A00008B23000007
S11306904D230000295B000000E100E04F5B0000F7
S11306A035100000605B0000014B01221A76704790
S11306B000400141014B02221A767047004001417B
S11306C030B51D4D1D4C89B02846A0470028FBD0ED
S11306D01B4B194898471B4B01461B4898471B4B1B
S11306E09847C4B234B303A92046194B9847194B11
S11306F015489847BDF81C3098421BD38DF8044028
S1130700154C164B20689847034680B92068144C52
S113071002AA01A9A047012809D1029B3BB1114BB0
S11307204FF080521A60BFF34F8FBFF36F8F0020DA
S11307300D4B984709B030BD2400002081230000F0
S11307406F230000331B0000043000201906000052
S113075069030000591B0000FC2700205D3A0000DB
S11307605936000004ED00E00D06000070B5064C9B
S1130770064B0E46054620469847324629462046F3
S1130780034BBDE870401847240000204D230000AF
S1130790210F0000F7B50C4B04460C480D46984752
S11307A0A8420AD301A80A4B084E0A4F9847254489
S11307B0AC4204D101A8084B984703B0F0BD2146D0
S11307C03046B8470134F3E7591B000004300020D9
S11307D0E9180000111B0000F71800000148024B43
S11307E0184700BF04300020611B00002DE9F74FBB
S11307F02B4CDFF8D8902B4E002323702A4B9847BC
S113080004288246FAD199F80030284F002B35D1BC
S113081023789BBBDFF8B88041F65830B047D8F84E
S11308200000234B9847054640BBDFF8A8B0214B96
S11308300146DBF80000984701282DD102238DF8EA
S113084000A08DF80130D8F80000DFF88CA00195E5
S11308502B4664226946D0470128804616D11648A3
S1130860B8472B462A462946DBF80000D0474FF408
S1130870FA70B04784F8008089F800800F4B9847DD
S11308800F48B84740F6AC50B047B7E70D48B847F3
S11308904FF4FA70B047F1E70B48B847EEE700BFF2
S11308A0143000204D400000A5090000ED0F0000A9
S11308B05D3A0000A9380000895B00003511000092
S11308C0ED5B0000A75B0000CF5B0000153000204B
S11308D0F4270020F8270020AD34000070B50A206A
S11308E0224E234C234DB0474FF47A70A047A847BB
S11308F04FF47A70A0470B20B0474FF47A70A047AA
S1130900A8474FF47A70A0471420B0474FF4FA6018
S1130910A047A8474FF4FA60A0471520B0474FF40A
S1130920FA60A047A8474FF4FA60A0471620B047E2
S11309304FF4FA60A047A8474FF4FA60A047092093
S1130940B0474FF4FA60A047A8474FF4FA60A047B5
S11309501720B0474FF4FA60A047A8474FF4FA6055
S1130960A047054BBDE87040184700BF6104000074
S11309702D1900002D050000DD07000000F01F0206
S11309804009C00100F1824000F50040012393407A
S113099083609AB21B0C42F0804243F0404382626F
S11309A083627047014B1878704700BFA50400208C
S11309B0034B00221A705A7001229A70DA70704741
S11309C0A504002049490B78062B70B50C466ED05F
S11309D0072B45D0002B40F088804B78032B00F286
S11309E08480DFE803F0022C353A414D3020A847DB
S11309F0404991F8D0304FF4803603F0FE0381F87B
S1130A00D0301320C1F89460A84791F8533003F014
S1130A10FE0381F853304FF400234B611020A847A4
S1130A2091F8503003F0FE0381F8503001234E61F9
S1130A304FF4FA706370304BBDE8704018472D4B8B
S1130A404FF48032C3F8982002234B703220F2E72F
S1130A5003234B7040F6B830EDE704230B7070BDF0
S1130A608B7813B1012B11D070BD214B1320984703
S1130A70204B93F8532002F0FE0283F853204FF4E6
S1130A8000229A6101238B701920D4E7184B13209C
S1130A909847184B93F8532002F0FE0283F8532032
S1130AA04FF400225A6100230B704B7070BDCB7859
S1130AB0DBB9104C0E4D3020A84794F8D03003F029
S1130AC0FE0384F8D0304FF48033C4F894301320FC
S1130AD0A84794F8533003F0FE0384F853304FF4DE
S1130AE00023A3610123CB70CEE770BDA5040020D1
S1130AF07D090000008000414D40000070B5094BA5
S1130B00094D0A4E0A4C9847A847B0470428FBD120
S1130B102046084B9847084B984741F28830074BCA
S1130B209847F1E7B1090000C5090000A5090000D4
S1130B30145C0000ED0F0000351100004D40000072
S1130B4070B5074C05460E4606480F21A0473146AE
S1130B502846A047234602210348BDE870401847B1
S1130B60A90F00003C5C0000B25E0000704700006A
S1130B7070B5054B04460D4604489847294620465F
S1130B80034BBDE870401847ED0F00004C5C0000BB
S1130B90A90F00002DE9F0410378144C4F2B1FD10D
S1130BA0134B144F144D154E98471548A0471A205F
S1130BB0B8474FF47A70A847B0474FF4FA70A84783
S1130BC01B20B8474FF47A70A847B0474FF4FA7027
S1130BD0A8470C4B984723460B48BDE8F0411847FB
S1130BE00A48A0470A48A047F5E700BFED0F0000F8
S1130BF0A90F0000610400002D1900002D0500005C
S1130C005C5C0000DD070000B25E00007A5C00005E
S1130C10B55C000070B505460E46064C0648A04774
S1130C2028463146054B984723460548BDE87040A1
S1130C30184700BFED0F0000F05C0000A90F000092
S1130C40B25E000070B505460E46064C0648A04745
S1130C5028463146054B984723460548BDE8704071
S1130C60184700BFED0F0000045D0000A90F00004D
S1130C70B25E000070B505460E46064C0648A04715
S1130C8028463146054B984723460548BDE8704041
S1130C90184700BFED0F0000175D0000A90F00000A
S1130CA0B25E000070B504460E46084D0848A847D9
S1130CB031462046074B98470748A8470748E37A38
S1130CC00370BDE87040064B184700BFED0F0000ED
S1130CD02C5D0000A90F0000B25E0000A9040020F2
S1130CE08503000070B505460E461448144CA04711
S1130CF031462846134B98471348A04728460722F5
S1130D001249134B134D984778B9012612486E7057
S1130D10A0471021114B12489847124B4FF47A7098
S1130D209847114B9847AE7070BD00236B70AB7041
S1130D300E482346BDE87040184700BF405D0000E0
S1130D40ED0F0000A90F0000B25E0000585D000026
S1130D5079480000A9040020605D00006D070000D0
S1130D60EF5900002D190000DD070000735D00003D
S1130D7008B50348034B9847034B01229A7008BDFA
S1130D808A5D0000ED0F0000A90400202DE9F04366
S1130D9087B000231C4FDFF8A080DFF8A0908DF807
S1130DA000304FF4FA6269463868184CC04701A90C
S1130DB006469DF80000C847012E23D1BDF80E0059
S1130DC0134B98470546D0B11248A04729469DF8D1
S1130DD00400114B984778B1049B9DF80E102846E7
S1130DE098470E48A04730460D4B984728460D4B70
S1130DF098470D4B9847D4E70C48A047F6E70C48B2
S1130E00A047F6E70B48FBE7FC270020ED0F0000A6
S1130E1085310000AA5D0000BD040000DD5D000016
S1130E2001060000E131000035110000F15D000011
S1130E30195E0000375E00003D37000069030000C2
S1130E402DE9F047234C244D2068DFF8CC90234E45
S1130E50DFF8C8A0002386B01A461946A847A8465A
S1130E60C8470428FCD13068D04700282AD0002184
S1130E7020681B4B9847012824D11A4D1A4B30681F
S1130E804FF0FF32294698476F78184B01A938462E
S1130E909847174B98479DF80C10164B02989847A3
S1130EA0154B38469847154B002098472978144825
S1130EB0144B98471448154B984700231A46194673
S1130EC02068C047124B98474FF47A70114B9847EB
S1130ED0C6E700BFF8270020AD340000F427002047
S1130EE0A9380000AC0400203D370000690300006D
S1130EF0DD0700006D0700000D060000010600007C
S1130F005C5E000035100000645E0000ED0F000020
S1130F10351100004D400000A50900005D3A0000B5
S1130F202DE9F0470F4C06460D461746A1463046BC
S1130F30A0470028FBD0DFF83080DFF830A0013D67
S1130F4000246B7804F80830304615F8011FD047A8
S1130F503046C8470028FBD00134BC42F1D32046B8
S1130F60BDE8F08777230000B40400206923000063
S1130F7002230376704780230376704710B5064C2E
S1130F800649074B20469847012220461146054B47
S1130F90BDE81040184700BF400000200004004393
S1130FA0F52200008B23000070B5064C064B0E465C
S1130FB0054620469847324629462046034BBDE85D
S1130FC070401847400000204D230000210F00000E
S1130FD010B5044B04461621034898470123237691
S1130FE010BD00BFA90F0000835E000010B59AB0C9
S1130FF004466422002101A8084B98472246084968
S1131000084B094C01A8A04701A8084B9847084B76
S113101081B201A898471AB010BD00BFE148000092
S1131020A45E0000B25E0000694A0000DF4A0000CE
S1131030A90F000030B59BB00C4605466422002180
S113104001A8094B984764B123460849084C2A462D
S113105001A8A047074B01A89847074B81B201A8F4
S113106098471BB030BD00BFE1480000AA5E0000F5
S1131070694A0000DF4A0000A90F00000C4B10B5BC
S113108004220C4C1A760C48A0470028FBD00B4BCA
S1131090094898470A49002308704B7009480A4BCD
S11310A0984705210748094BBDE81040184700BF81
S11310B00004004381230000400000206F2300004F
S11310C01630002018300020CF4A0000A90F00007D
S11310D0044B03EB80004FF47A714288024B0348BF
S11310E0184700BF5C000020432B0000F4300020B0
S11310F010B50220034B98470348044BBDE8104049
S1131100184700BFD1100000F4300020272C000045
S113111010B5054B9847054B4FF47A709847044B2C
S1131120BDE81040184700BFB91700002D19000092
S1131130F11000000148024B184700BFF4300020B2
S11311403B2C0000FEE7000008B5144A144B9A42F9
S113115018D1144B144A002193421CD3134A144B44
S113116022F07F029A60D3F8882042F47002C3F818
S11311708820BFF34F8FBFF36F8F0E4B98470E4BF2
S11311809847FEE70D49043A8B42E2D252F8040F25
S113119043F8040BF8E743F8041BDDE7246400007C
S11311A00000002090010020E03100200000000039
S11311B000ED00E0314800009D2C00008801002073
S11311C030B54A1CC4B2C0F34712164804F01F03DA
S11311D000EBC21007D1184490F8403003F0FE032E
S11311E080F8403030BDC5185B0895F8402002F007
S11311F0FE02184442F0010285F8402090F8303095
S113120014F0010F19BF03F00F0343EA011101F0B9
S11312100F0103F0F00314BFC9B2194380F8301072
S113122030BD00BF0080004100F01F024009C00132
S113123000F1824000F500400123934043609AB2DC
S11312401B0C42F0804243F0404382628362704749
S1131250044AD36943F48073D361034B4022C3F837
S11312600021704700080040001C004010B5044BEA
S1131270984704490448054BBDE81040184700BF8F
S11312805112000000200042C0300020D918000094
S113129070B50220154D164CA84716490220A047E8
S11312A00320A84714490320A0472820A84713492E
S11312B02820A0472920A84711492920A047042015
S11312C0A84710490420A0470520A8470E49052037
S11312D0A0470620A8470D490620A0470720A84795
S11312E023460B490720BDE8704018472912000027
S11312F0C1110000010002000100030001002800E8
S1131300010029000100040001000500010006009D
S113131001000700044A136A43F080031362034B7D
S11313204122C3F82021704700080040001C0040FF
S113133010B5054B9847054B9847002204490548CA
S1131340054BBDE81040184715130000911200002A
S1131350001C0043D0300020E1180000044A136A46
S113136043F480731362034B4022C3F82421704773
S113137000080040001C004010B5044B98470022B0
S113138003490448044BBDE8104018475D130000AE
S11313900020004388310020E1180000044A136A49
S11313A043F400731362034B4022C3F828217047AF
S11313B000080040001C004010B5044B9847044945
S11313C00448054BBDE81040184700BF9D130000BA
S11313D000240043F830002005190000054B40228A
S11313E0C3F89020044A536943F480635361034B68
S11313F0184700BF001C0040000800408919000085
S1131400034A936943F080039361024B184700BF7A
S11314100008004051190000024A136943F04003D8
S1131420136170470008004010B5044B9847044905
S11314300448054BBDE81040184700BF19140000CC
S11314400040004184300020B919000010B5054C5B
S113145005491120A047234604491220BDE8104045
S1131460184700BFC111000003001100030012005F
S1131470064B4022C3F8E0204A22C3F88C20044AD9
S1131480936943F480639361704700BF001C00407C
S11314900008004010B5044B9847044B9847044B90
S11314A0BDE81040184700BF711400002506000075
S11314B04D14000010B5054C05491720A0472346DC
S11314C004493720BDE81040184700BFC11100008F
S11314D00300170003003700064B4022C3F80C2119
S11314E04A22C3F88C20044A136A43F002031362AD
S11314F0704700BF001C00400008004010B5044BBA
S11315009847044B9847044BBDE81040184700BF68
S1131510D91400007D0F0000B51400000148024BEF
S1131520184700BF10E000E01D190000044A536989
S113153043F480435361034B4022C3F8A420704713
S113154000080040001C004010B5054B9847054BAF
S113155098470549054B0246BDE810400448184722
S11315602D150000A12A000000380040E9190000F0
S11315704C300020044A536943F400435361034B45
S11315804022C3F8A420704700080040001C00401B
S113159010B5054B9847054B98470549054B02463E
S11315A0BDE810400448184775150000A12A000042
S11315B0003C0040E91900006C310020044A9369A2
S11315C043F400539361034B4022C3F8E82070476F
S11315D000080040001C004010B5054B9847054B1F
S11315E098470549054B0246BDE810400448184792
S11315F0BD150000A12A000000A00141E919000066
S113160068300020044A936943F400639361034BF8
S11316104022C3F8E420704700080040001C00404A
S113162010B5054B9847054B98470549054B0246AD
S1131630BDE8104004481847051600003526000090
S113164000600141C11A00008C310020044A9369F2
S113165043F480539361034B4022C3F8E420704762
S113166000080040001C004010B5054B9847054B8E
S113167098470549054B0246BDE810400448184701
S11316804D1600003526000000800141C11A0000FB
S1131690D4300020044AD36943F00803D361034BD8
S11316A04022C3F8F420704700080040001C0040AA
S11316B010B5054B9847054B98470549054B02461D
S11316C0BDE8104004481847951600003526000070
S11316D0000C0042C11A00002C310020044AD369D6
S11316E043F01003D361034B4022C3F8F420704746
S11316F000080040001C004010B5054B9847054BFE
S113170098470549054B0246BDE810400448184770
S1131710DD1600003526000000100042C11A00004A
S11317204C310020044A136A43F010031362034B44
S11317304022C3F81821704700080040001C0040F4
S113174010B5054B9847054B98470549054B02468C
S1131750BDE810400448184725170000352600004E
S113176000100043C11A0000A0300020024A53694F
S113177043F48073536170470008004010B5074B71
S113178098470748074B0360074B9847074B18B91E
S11317900748BDE8104018470648FAE76D170000EF
S11317A0F430002000200040052B0000ED0F000065
S11317B0B55E0000C55E00002DE9F041284B294CC0
S11317C0294F2A4E2A4D98472A4B98472A4B984727
S11317D02A4B98472A4B98472A4B98472A4B9847B5
S11317E02A4B98472A4B98472A4B98472A4B9847A5
S11317F02A4B98472A4B98472A4B9847A3694FF09E
S1131800400843F48043A361C7F8E880B047264901
S113181002462648A847E36943F02003E361C7F87A
S1131820F880B047224902462248A847E36943EAC0
S11318300803E361C7F8F880B0471F4902461F4810
S1131840A8471F4B98471F4B98471F4B98471F4B60
S113185098471F4B98471F4BBDE8F041184700BFFE
S1131860BD1C000000080040001C0040992A000034
S1131870C11A00001D1500006D1200003113000094
S113188079130000B9130000DD13000001140000F7
S113189029140000FD1400009514000049150000EF
S11318A091150000D915000000C00141AC310020A1
S11318B0001400420C310020001800422C3000209B
S11318C02116000069160000B1160000F916000088
S11318D0411700007D170000004B1847CD1B000086
S11318E0004B1847791C0000EFF31083036072B6B5
S11318F0BFF35F8F7047BFF35F8F036883F3108874
S11319007047000010B5044B0446984718B960604E
S1131910A060E060206110BD591D0000014B1860FB
S1131920014B1847C0040020BD230000054B10B52F
S11319301C68054B9847054B01462046BDE81040FE
S1131940184700BFC0040020B51C0000D1230000CC
S1131950004B1847111F00000A4B30B45D68012189
S113196000228C18640801D030BC7047854204D131
S11319701B68002BF8D030BC18472CBFFF21012274
S1131980EFE700BFC4040020044B054800214FF0DA
S1131990FF3283E80600034B184700BFC40400204D
S11319A059190000A51E0000436903B11847704788
S11319B0836903B11847704710B5044B0446984730
S11319C018B9034B2360034B636010BD052000006E
S11319D0A9190000B1190000436903B11847704701
S11319E0836903B11847704710B5044B0446984700
S11319F0034B2360034B6360002010BDD529000016
S1131A00D9190000E1190000F0B505681DB90F4BA4
S1131A10BDE8F0401847D1F808E02C460026C2F192
S1131A20010C6368A768934295BFDB1963449B1A52
S1131A30DB19734507D22368264613B93046044B95
S1131A40E6E71C46EDE7A542F8D1E0E7DD1A000021
S1131A50E51A00002DE9F0470669037E4469013662
S1131A60DA070546066110D4037E9B070DD4DFF820
S1131A704880DFF8489000F1140724B16368A26835
S1131A80F31A934207D2BDE8F0872B7E43F002039A
S1131A902B76BDE8F0873846C047237C012B04D160
S1131AA06660324621463846C847D5F814A0E36834
S1131AB0204698475446E0E7ED1A0000091A000052
S1131AC010B51368044640F8042B98470020024BD5
S1131AD06061636010BD00BF551A000003680B60AD
S1131AE00160704703680B600160704703680BB1C5
S1131AF01A68026018467047531E1A4001BF4360BB
S1131B008260C26001600CBF10466FF00C00704729
S1131B108368C2689A4209D0426813400268D35C61
S1131B200B70836801338360002070476FF00900F5
S1131B307047C368426813400268D154C36881681F
S1131B404268591A914288BF9A1A03F1010388BF67
S1131B508260C36000207047C2688068101A7047B2
S1131B60C368836000207047044B1968024609B9B2
S1131B7003491960186802441A607047CC040020B5
S1131B80E0310120036A0B42FCD1704738B50121D2
S1131B900D4DA8470321A8470478C4F3400484B931
S1131BA00121A847037843F0010303700121A847EA
S1131BB04FF4C0630361047343614473448020465B
S1131BC038BD6FF0100038BD851B00000160014B6B
S1131BD0084618478D1B0000036B0B42FCD170476D
S1131BE008B50121034B984703889BB243F00103D6
S1131BF0038008BDD91B000000F13D40A0F5E05072
S1131C00C0F38720431E58425841704770B5174EA1
S1131C100C460121B0470321B0470588C5F34005B0
S1131C200DBB134B98470121B0471249162303FB00
S1131C3004118B88C3808B790372CB7983700B89F1
S1131C4083808B7A8372CB7AC3728B898381CB89AD
S1131C50C3810B8A03824B8A43820B7DC3704B88FA
S1131C600380284670BD6FF0100070BDD91B0000C2
S1131C70E11B0000DE5E000010B5054B0160084664
S1131C800A469847034B0146BDE8104010461847E2
S1131C90F91B00000D1C00004309012200F01F0085
S1131CA002FA00F04033024A42F82300704700BFB2
S1131CB000E100E04BF680335843704710B50D4AFD
S1131CC00D4C13889BB213800C4B98470C4B9847D0
S1131CD04FF40060A0470B4B984740F2FF70A047B9
S1131CE0094A136943F400731361BDE81040074BBC
S1131CF0184700BF00400041691F00008520000014
S1131D00F91F0000A920000000080040B51D0000D4
S1131D1083680B42FCD1704738B501210D4DA847AB
S1131D200321A8470278C2F340027AB90121A847E7
S1131D30037843F0010303700121A8470123427093
S1131D4082708281C2810376104638BD6FF0030031
S1131D5038BD00BF111D00000160014B0846184743
S1131D60191D000010B4114B114C198C01F01F0106
S1131D7003EB01130C224A4393F84E10C90704EBFA
S1131D80020006D5012283F84E2043685DF8044B17
S1131D90184793F84E10890704D5022183F84E1092
S1131DA0A358F3E75DF8044B704700BF00A000415F
S1131DB0D004002030B52E4B1A8822F002021204FF
S1131DC0120C1A805A8822F47C521204120C5A8083
S1131DD01A8892B242F001021A801A8812F00102A3
S1131DE0FBD14FF470611980597B224801F0FE0148
S1131DF0597300F500715A61586399631E4913467B
S1131E00A0F5C0701C0104F1824202F520420D6865
S1131E1015640D7982F845504D7982F84650044492
S1131E200133CA88A4F88021202B01F10801E9D1EB
S1131E301F22012053099B0003F1604302F01F019C
S1131E4003F5614300FA01F1C3F88010BFF34F8F2B
S1131E50BFF36F8F0132242AC3F880111960E9D1CE
S1131E60034A13889BB243F002031380002030BD61
S1131E7000A00041500600200C5F0000004B1847F2
S1131E80651D0000004B1847651D0000004B1847F6
S1131E90651D0000004B1847651D0000004B1847E6
S1131EA0651D0000194A13465168C907FCD45A68D5
S1131EB09007FCD11B78990725D4144B19465A680E
S1131EC0D207FCD41A7842F001021A704B68DB077F
S1131ED0FCD40E4B5A6812F00302FBD1197801F0BE
S1131EE0EF0119705A709A609A611A635A63DA6141
S1131EF01A62064B586810F00300FBD11A7842F0BE
S1131F0002021A7070476FF01000704700280040FA
S1131F1010B5124A124C0023185D03F14801013335
S1131F20432B42F82100F7D10E48002200F140046F
S1131F30D30003F1824303F5604330F812101962B1
S1131F4014F8221083F825100132C943C9B2202A9B
S1131F5083F82410ECD1002010BD00BF00E0004144
S1131F600C60000050600000C10742BF1D4B1E4AB8
S1131F701A62820742BF1B4B1C4A5A62430742BF84
S1131F80184B194A9A62010742BF164B164ADA6285
S1131F90C20642BF134B144A1A63830642BF114B55
S1131FA0114A5A63410642BF0E4B0F4A9A63020616
S1131FB042BF0C4B0C4ADA63C30542BF094B0A4AC1
S1131FC01A64810542BF074B074A5A64420542BF5F
S1131FD0044B074A9A64030542BF024B054ADA647C
S1131FE0704700BF001C0040062B010006230100BF
S1131FF0052B0100053B0100014B01225A7170477A
S11320000008004001610B8823F0C0039B049B0C73
S11320100B800D4B18600D4B4FF00051C3F880102E
S1132020BFF34F8FBFF36F8F4FF08042C3F8802010
S1132030BFF34F8FBFF36F8F0020C3F88011C3F835
S1132040802119601A607047500A002000E100E006
S1132050094B186803691A8AD20704D501221A8227
S1132060036843B118471A8A92B222B140F25E2241
S11320701A824368F5E77047500A0020004B18475E
S113208051200000074B42F24E029A8201229A75B7
S1132090DA75DA690022DA61DA68D207FCD504223B
S11320A01A74704700140040244A136A23F00F0383
S11320B043F004031362224B00221A77214A9A62E6
S11320C093F82C2012F01002FAD183F820201C4A35
S11320D0134692F82C104907FBD44221117793F848
S11320E02C209207FBD45A6A5A62154B1A4693F86D
S11320F02C100807FBD4822183F8201092F82C308E
S11321005907FBD492F820300D4A13F0010F10D078
S1132110136903F41063B3F5106FF9D1074A5368D8
S1132120002BFCD1136A23F00F0343F00603136260
S113213070471369DB05FCD5F0E700BF001C0040C5
S1132140001000400000010407B50C4A9378DBB28C
S11321500193019B990707D5094B1B6823B150686C
S1132160984703B05DF804FB019BDB07F9D5044BEA
S11321705B68002BF5D0014AF1E700BF0000024183
S1132180CC310020002808DB4209012300F01F00A5
S113219003FA00F0014B43F82200704700E100E02D
S11321A000280DDB4309012200F01F0002FA00F0B1
S11321B02033044A42F82300BFF34F8FBFF36F8FDD
S11321C0704700BF00E100E0002809DB4309012259
S11321D000F01F0002FA00F06033024A42F82300C4
S11321E0704700BF00E100E0C3690B42FCD17047B7
S11321F008B50321024B98470068C0F3400008BDAE
S1132200E921000070B50B4D06460FCD86B06C4633
S11322100FC495E8030084E8030000205DF8203033
S1132220B34202D1C0B206B070BD01300628F5D168
S11322300020F8E71061000038B5254B04469847A4
S113224003283ED004283ED0052814BF00220222D1
S1132250204601211F4DA84720461F4B98470028C0
S113226033D120460121A847236843F001032360AA
S113227020460121A8471949182303FB0213D869F2
S11322801D6A206065605D6AA56010F4C04F1BBFC5
S1132290A0891D8D1B8D65F30C001FBFA08193F8D1
S11322A02A00A38960F34F33A381182303FB02128E
S11322B0002092F82B30A37392F82C3084F830303D
S11322C038BD0022C4E70122C2E76FF0100038BD18
S11322D005220000E9210000F12100001061000046
S11322E008B5034B984780002E3000F0FE0008BD6F
S11322F00522000070B5104B064608460C46984768
S11323000546B0B9B46120460C4B98470230C1B2BF
S11323100CB220460A4B984720460A4B984701F1D5
S1132320604000F56140E02380F800332046064B0E
S11323309847284670BD00BF39220000E122000002
S1132340A1210000C921000085210000826908B58F
S11323500321044B10469847136843F002031360AB
S113236008BD00BFE9210000836999627047836951
S1132370986AC0B270478369187E00F00100704704
S11323808369187EC0F38000704711F0FD0F09D1F6
S113239083690221012012B918751975704798755F
S11323A099757047012904D183690421002AF7D162
S11323B0F3E70329F5D183698021F7E7034B6FF035
S11323C07F425A6005221A60704700BF10E000E0A7
S11323D00B0E0C4A30B5D8B26FF07F440138C0B24E
S11323E0FF2808D1A3EB036319445160916013687B
S11323F0DB03FCD530BD546094601568ED03FCD557
S1132400ECE700BF10E000E000280DDB43090122E7
S113241000F01F0002FA00F02033044A42F82300BF
S1132420BFF34F8FBFF36F8F704700BF00E100E031
S1132430C36819647047C368186C7047C268D16A6E
S1132440C90703D50121D16203681847704700000A
S113245070B50B4D06460FCD86B001AC0FC42B688A
S11324602360002001AB53F82020B24202D1C0B255
S113247006B070BD01300528F5D10020F8E700BF93
S113248088610000C3689A689207FCD11A6842F018
S113249002021A607047000038B50546364B0846FC
S11324A00C46984738B1012805D0022803D00328E8
S11324B001D0042841D143B2EC60A268D207FCD415
S11324C0A2689107FCD12268920751D4A268D1076F
S11324D0FCD4226842F001022260A268D207FCD434
S11324E0264A242101FB032399692160197F617124
S11324F0597FA177196A5B6A216223640123A3626D
S11325001F4B9C421CD11F4B1D60042896BF801892
S1132510892190F8C8101C4B0846984701F01F0207
S11325204909890001F1604101F5614101239340AA
S1132530C1F8803100200B6038BD4FF0FF33BBE79A
S1132540124B9C4202D10F4B5D60DEE7104B9C4264
S113255002D10C4B9D60D8E70E4B9C4202D1094B33
S1132560DD60D2E70C4B9C4204BF064B1D61CCE7F7
S11325706FF0100038BD00BF5124000088610000D6
S113258000600141540A0020092400000080014138
S1132590000C00420010004200100043C3689A6817
S11325A09207FCD11A6822F002021A607047C368CD
S11325B09A689207FCD11868C0F340007047000085
S11325C0074BC06810B5984704289BBF054BC0183B
S11325D0892090F8C800044BBDE81040184700BF9C
S11325E05124000088610000991C000010B5C468E3
S11325F00D4B2046984704289BBF0C4BC0188920DC
S113260090F8C8000A4B9847A3689A07FCD123683E
S113261023F002032360A368DB07FCD4236843F0A0
S11326200103236010BD00BF512400008861000035
S1132630092400000048704768000020014B186816
S1132640014B1847540A00203D240000014B5868F0
S1132650014B1847540A00203D240000014B9868A0
S1132660014B1847540A00203D240000014BD86850
S1132670014B1847540A00203D240000014B1869FF
S1132680014B1847540A00203D24000000280DDBAC
S11326904309012200F01F0002FA00F02033044A2B
S11326A042F82300BFF34F8FBFF36F8F704700BF13
S11326B000E100E003690B42FCD1704708B5012139
S11326C0034B9847036843F00103036008BD00BF50
S11326D0B526000008B50321024B98470068C0F3F3
S11326E0400008BDB526000008B50321034B9847F8
S11326F0036823F00203036008BD00BFB526000091
S1132700C26808B50321044B10469847136843F088
S11327100203136008BD00BFB5260000C068014B6A
S1132720184700BFE9260000C3681A68C2F3810293
S1132730022A01D1D96170471A6812F00C0F02D134
S113274089B2998370471A68C2F38102012A04BFCF
S1132750C9B2D9767047C3681A68C2F38102022AE3
S113276001D1D86970471A6812F00C0F02D1988B06
S113277080B270471A68C2F38102012A06BFD87E6C
S1132780C0B2002070470000C068014B184700BF6A
S1132790D5260000C268917AC90703D50121917238
S11327A003681847704770B50569AB7ADA070446C1
S11327B004D50123AB72036803B198476B7A9B0776
S11327C007D50223AB7263681BB12046BDE8704095
S11327D0184770BD114B984207D1114B1960114B2A
S11327E0984204BF0E4B596170470F4B984202D177
S11327F00B4B5960F3E70D4B984202D1084B99609B
S113280070470B4B984202D1054BD9607047094B76
S11328109842E4D1024B1961704700BF0038004070
S1132820680A002000180042003C004000A001415A
S113283000C001410014004270B5134D06460FCD8F
S113284086B06C460FC495E8030084E803000023B7
S11328505DF82320B2420BD1DBB20C4A00201421D4
S113286001FB00F4A45C9C4207D140B206B070BDE9
S11328700133062BECD10023EFE701300628EFD11A
S11328804FF0FF30F2E700BF5862000088000020DC
S11328902DE9F0412E4B074608460C469847FC604C
S11328A00646012120462B4A904720462A4B98474A
S11328B0002848D1294B20469847012120469047BB
S11328C02749142303FB061388465A682260987A22
S11328D0E0731889E08002F00C020120082A2073BA
S11328E022D1DA68E2611B69236201253946204658
S11328F01C4B65729847142303FB06861A4BB6F9E2
S113290002100846984700290BDB01F01F03490910
S1132910890001F1604101F561419D40C1F8805198
S11329200D600020BDE8F08122B99A89A2831B8A38
S1132930E383DAE7042AD8D11A7B22771A7C6277F8
S1132940DB7AE376D1E76FF01000BDE8F08100BFD9
S113295039280000B5260000D5260000BD26000059
S113296088000020D52700008D26000010B5C4681B
S1132970094B20469847094A142303FB0020084BBF
S1132980B0F9020098472046064B98472046064B6C
S1132990BDE81040184700BF392800008800002017
S11329A08D260000E9260000BD26000010B5064B68
S11329B0C0689847054A142303FB0020BDE8104073
S11329C08078034B184700BF392800008800002096
S11329D0991C0000F8B5294B064608460C46984752
S11329E03461054601212046254A90472046254B5F
S11329F0984700283CD1244B244F20469847204632
S1132A0001219047142303FB05735A682260987AC6
S1132A10E0731889E08002F00C020320082A207376
S1132A2020D1DA68E2611B69236231462046184BE3
S1132A309847142303FB0575164BB5F90210084695
S1132A40984700290CDB01F01F024909890001F1B4
S1132A50604101F5614101239340C1F880310B606D
S1132A600020F8BD3AB99A89A2831B8AE383DCE784
S1132A706FF01000F8BD4FF0FF30F8BD39280000AA
S1132A80B5260000D5260000BD26000088000020E1
S1132A90D52700008D260000004870470001002063
S1132AA000207047014B1868014B1847680A002042
S1132AB0A7270000014B5868014B1847680A0020FB
S1132AC0A7270000014B9868014B1847680A0020AB
S1132AD0A7270000014BD868014B1847680A00205B
S1132AE095270000014B1869014B1847680A00201C
S1132AF095270000014B5869014B1847680A0020CC
S1132B009527000003689A6812F00E0FFBD11A781B
S1132B10D20913D19A6812F00E0FFBD11A789207DA
S1132B200CD4986810F00E00FBD11A7802F0FB0266
S1132B301A705A7802F0F0025A7070476FF0100061
S1132B407047D0B50468A36813F00E0FFBD1237847
S1132B5003F0FD032370A36813F00E0FFBD1237859
S1132B6003F07F032370A36813F00E0FFBD12378C7
S1132B70DB0955D1A36813F00E0FFBD12378C3F3FF
S1132B804003002B4CD1A2FB01010E461F4656EA1E
S1132B9007020DD1B0F57A3F38D014D8B0F5FA4F0A
S1132BA030D008D8B0F5FA5F25D0B0F57A5F21D0DF
S1132BB06FF00C00D0BDB0F57A4F25D0B0F5FA3FD8
S1132BC0F6D1042317E0B0F5FA1F23D007D8B0F5E7
S1132BD0FA2F1DD0B0F57A2FEAD107230BE0B0F518
S1132BE0FA0F19D0B0F57A0F18D0B0F57A1FDFD1EB
S1132BF0092300E00123627802F0F00213436370BA
S1132C000020D0BD0223F6E70323F4E70523F2E70F
S1132C100623F0E70823EEE70A23ECE70B23EAE7B1
S1132C206FF01000D0BD0368986810F00E00FBD15F
S1132C301A7842F002021A7070470368A5221A73C8
S1132C400020704738B5002208210D4C0D4D01209D
S1132C50A0470121286000220846A0470A4B1860BB
S1132C602B6863B158B10948094DA84703220021D4
S1132C700120A047074B186008B10748A84738BD92
S1132C8059340000F4270020FC2700207062000063
S1132C90ED0F0000F82700208B62000083B5284B5D
S1132CA0284D294C98470227284B0193962200234C
S1132CB0274900972748A8470126274B20600193FE
S1132CC096220023254900962548A847254B606095
S1132CD0019396220023244900972448A847244BB3
S1132CE0A060019396220023224900962248A84717
S1132CF0224BE0600193009600239622204921484C
S1132D00A8472368204DB34217D1E368B34214D1D6
S1132D106368B34211D1A368B3420ED1B0420CD15F
S1132D201A48A8471A4B984720B11A4B98471A4893
S1132D30A847FEE71948A847F9E71948FBE700BF89
S1132D4011110000953B0000800A0020EC270020B0
S1132D50A262000035030000D4270020AF62000007
S1132D60410E0000E8270020B96200008D0D00002C
S1132D70DC270020C5620000FD0A0000E0270020D7
S1132D80D6620000ED070000ED0F0000E4620000D1
S1132D90452C0000353D00003A6300000363000049
S1132DA02363000000F1080343604FF0FF32C36067
S1132DB0036100238260036070470023036170474E
S1132DC043684B609A688A609A68516099600368A6
S1132DD008610133036070470A68531C30B50AD197
S1132DE003695A684A6091608B605960036808619E
S1132DF00133036030BD00F108035C682568AA4212
S1132E00EFD32346F9E74168826803698A608268E0
S1132E1051605968884208BF5A60002202611A68EA
S1132E20013A1A601868704782B0002301930D4B71
S1132E301B68013308D04FF0800383F31188BFF37C
S1132E406F8FBFF34F8FFEE74FF0800383F311883A
S1132E50BFF36F8FBFF34F8F019B002BFCD002B0E9
S1132E60704700BF2001002008480068006880F314
S1132E7008884FF0000080F3148862B661B6BFF38F
S1132E804F8FBFF36F8F00DF00BF000008ED00E03D
S1132E90DFF80C00016841F4700101607047000024
S1132EA088ED00E04FF0807340F8043C074B40F895
S1132EB00C3C21F001016FF0020340F8081C40F8BB
S1132EC0202C40F8243C4438704700BF292E0000D1
S1132ED0074B19680868B0E8F04F80F30988BFF31E
S1132EE06F8F4FF0000080F311887047AFF30080BC
S1132EF0102700204FF0800383F31188BFF36F8FF6
S1132F00BFF34F8F0A4A13680133012B13600DD1AD
S1132F10084B1B6813F0FF0F08D04FF0800383F3B6
S1132F201188BFF36F8FBFF34F8FFEE7704700BF69
S1132F302001002004ED00E0084A136843B94FF073
S1132F40800383F31188BFF36F8FBFF34F8FFEE7C6
S1132F50013B13600BB983F31188704720010020F3
S1132F60EFF30980BFF36F8F154B1A681EF0100F33
S1132F7008BF20ED108A20E9F04F10602DE9090008
S1132F804FF0800080F31188BFF34F8FBFF36F8F32
S1132F9001F088F84FF0000080F3118809BC19682B
S1132FA00868B0E8F04F1EF0100F08BFB0EC108AAC
S1132FB080F30988BFF36F8F704700BFAFF30080C1
S1132FC01027002008B54FF0800383F31188BFF366
S1132FD06F8FBFF34F8F054B984718B1044B4FF0D9
S1132FE080521A60002383F3118808BDD53D000088
S1132FF004ED00E0054B064900221A600A60054A08
S11330004BF67F31116007221A60704710E000E030
S113301018E000E014E000E0384B394A13B51968B1
S1133020914208D14FF0800383F31188BFF36F8F6F
S1133030BFF34F8FFEE71A68324B9A4208D14FF024
S1133040800383F31188BFF36F8FBFF34F8FFEE7C5
S11330502D4B1A78D2B20192FF221A701B78DBB280
S11330608DF803309DF80320284B02F080021A707B
S113307007225A6000219DF80300000602F1FF3484
S11330800DD401B15A605A68042A11D04FF080035C
S113309083F31188BFF36F8FBFF34F8FFEE79DF863
S11330A003205200D2B28DF8032001212246E2E728
S11330B0120202F4E0625A60019B134ADBB21370FD
S11330C0134B1A6842F460021A601A6842F06042B4
S11330D01A60104B9847104B00241C600F4B984704
S11330E00F4A136843F0404313600E4B98470E4B4E
S11330F098470E4B9847204602B010BD00ED00E003
S113310071C20F4170C20F4100E400E0900A002038
S113311020ED00E0F52F000020010020912E00009A
S113312034EF00E0692E0000A5400000292E0000C5
S1133130EFF305830F2B104A0DD910495B5C11780E
S1133140994208D94FF0800383F31188BFF36F8F3E
S1133150BFF34F8FFEE70A4B52681B6803F4E0632A
S1133160934208D94FF0800383F31188BFF36F8F24
S1133170BFF34F8FFEE77047900A0020F0E300E0B2
S11331800CED00E038B543070446114B1CBF20F09A
S11331900704083498470F4B1A6822B903F10C024C
S11331A022F007021A600C49D1F80C2B41F6F730D3
S11331B01444844209D8A24207D21D68C1F80C4BBA
S11331C01544064B9847284638BD0025F9E700BF4B
S11331D0B53D0000980A0020901B0020C13E00006D
S11331E040B14FF0800383F31188BFF36F8FBFF3B7
S11331F04F8FFEE77047000010B50446044B984714
S1133200A46B044B9847B4FA84F0400910BD00BF86
S1133210F52E0000392F000070B51546026C866B40
S1133220044642B905689DB94068144B98476560E7
S11332300136A66370BD124B65B980689847A368D0
S1133240226C13446268A360934201D32368A36091
S11332500020EDE7C0689847236CE26821685B4270
S11332601A448A42E2603EBF62689B18E360022D02
S1133270EED10EB1013EEBE73046D9E775430000CD
S113328097480000034610B41A6C084662B1D96826
S11332905C681144A142D96024BF1968D960D96817
S11332A05DF8044B024B18475DF8044B704700BFB0
S11332B0974800004FF0800383F31188BFF36F8FAA
S11332C0BFF34F8FFEE7000073B5846C01900A468C
S11332D00CB9174B9847A16BE36B994208D34FF095
S11332E0800383F31188BFF36F8FBFF34F8FFEE723
S11332F0A16B8B421AD994F845500E4B01A9204674
S113330098476DB26B1C06460BD1636A33B104F166
S11333102400094B9847002818BF0126304602B004
S113332070BD01356DB284F84550F7E70026F5E726
S1133330B532000019320000A94100002DE9F04720
S113334004461F4F1F4EDFF88480DFF88490B8478F
S113335094F845506DB2002D17DCFF2384F84530F6
S1133360194EDFF86080DFF86490B047B84794F8EE
S1133370445004F110076DB2002D17DCFF2384F8CC
S113338044303346BDE8F0471847A36C3BB10021F5
S11333902046C84700B1C047013D6DB2DBE7636A10
S11333A0002BDAD004F12400B047F3E72369002BA3
S11333B0E4D03846C04700B1C847013D6DB2DBE7F1
S11333C0F52E0000A9410000392F0000C142000081
S11333D0C932000038B50D46044608B9184B984761
S11333E0184B9847206CE36B2268A2604343D118C2
S11333F01B1A13446160E3600021FF23A16384F876
S1133400443084F8453095B9236963B104F1100060
S11334100D4B984738B10D4B4FF080521A60BFF3F3
S11334204F8FBFF36F8F0A4B9847012038BD04F1CB
S11334301000084DA84704F12400A847F3E700BF93
S1133440B5320000F52E0000A941000004ED00E0B3
S1133450392F0000A52D0000F8B50D461746064685
S113346040B94FF0800383F31188BFF36F8FBFF32C
S11334704F8FFEE7484354300A4B9847044658B1EF
S113348065B92060084BE66325640121204698470E
S1133490002384F85070A3642046F8BD00F154035F
S11334A00360EFE785310000D53300002DE9F04FCC
S11334B087B08A4603921F46044640B94FF0800302
S11334C083F31188BFF36F8FBFF34F8FFEE700299B
S11334D040F08F80036C002B00F08B804FF0800352
S11334E083F31188BFF36F8FBFF34F8FFEE7039B06
S11334F0002B00F089804FF0800383F31188BFF321
S11335006F8FBFF34F8FFEE7636A002B5BD004F12C
S11335102400444B984756E0039D15B9B04700205A
S11335205CE013B904A8404B9847B0473F4BDFF821
S113353020B13F4D9847C04794F84430FF2B04BF57
S1133540002384F8443094F84530FF2B04BF002353
S113355084F84530B04703A904A8364B984700289F
S113356043D1C047A16BE26B02910192B047019A2B
S11335700299914235D103992F4A04F110009047E2
S11335802046D847A84738B92C4A4FF080531360D7
S1133590BFF34F8FBFF36F8F01230193C847A16B14
S11335A0E26B274E914202D3022F019BB4D1254BEB
S11335B03A46514620469847A36C002BA4D039467E
S11335C02046214B984738B11C4B4FF080521A606B
S11335D0BFF34F8FBFF36F8FB047012007B0BDE833
S11335E0F08F2046D847A847D6E72046D847A847B3
S11335F095E7022F02D1E36B012B09D1134B9847B6
S113360000283FF474AF0023DFF84890C846C4E7AD
S11336104FF0800383F31188BFF36F8FBFF34F8F95
S1133620FEE700BFA94100002D420000B53D0000A7
S1133630C13E0000414200002941000004ED00E0C9
S1133640392F000019320000C9320000D1420000B5
S11336503D330000F52E00002DE9F84388469146DD
S11336601F46044640B94FF0800383F31188BFF32B
S11336706F8FBFF34F8FFEE719BB036C0BB34FF093
S1133680800383F31188BFF36F8FBFF34F8FFEE77F
S1133690B9F1000F3FD00120C9F8000086F311886A
S11336A0BDE8F883636A002B35D004F124001F4B76
S11336B098472EE001356DB284F845502BE0002088
S11336C0ECE7022F02D1E36B012B26D1184B98476C
S11336D0EFF311864FF0800383F31188BFF36F8FEC
S11336E0BFF34F8FA26BE36B9A4201D3022FE6D153
S11336F094F845500F4B6DB23A46414620469847E0
S11337006B1CD7D1A36C002BCCD0394620460A4B76
S113371098470028BCD10120C0E74FF0800383F311
S11337201188BFF36F8FBFF34F8FFEE7A9410000ED
S11337303131000019320000C93200002DE9F04F88
S113374085B089460192044640B94FF0800383F363
S11337501188BFF36F8FBFF34F8FFEE700297DD130
S1133760036C002B7AD04FF0800383F31188BFF3EE
S11337706F8FBFF34F8FFEE7019E002E73D04FF083
S1133780800383F31188BFF36F8FBFF34F8FFEE77E
S1133790019D15B9B847002051E016B902A8354B70
S11337A09847B847344B354E354D9847D84794F829
S11337B04430FF2B04BF002384F8443094F8453090
S11337C0FF2B04BF002384F84530B84701A902A8A1
S11337D02C4B2D4F9847002838D12046B847002855
S11337E030D00199294B04F1240098472046B04772
S11337F0A84738B94FF08053CAF80030BFF34F8F51
S1133800BFF36F8F0126C047A56B214F002DBFD09A
S1133810204B49462046013D9847A563236963B17F
S113382004F110001C4B984738B11C4B4FF08052E8
S11338301A60BFF34F8FBFF36F8FB847012005B0F5
S1133840BDE8F08F2046B047A847DBE72046B047E5
S1133850A8472046B8470028D4D09CE7104B984787
S1133860002889D00026DFF83C80DFF830A0C3466A
S1133870C9E700BF2D420000B53D00003D33000004
S1133880C13E000041420000F9310000294100001E
S1133890392F000085320000A941000004ED00E04A
S11338A0D1420000F52E00002DE9F04F85B004460A
S11338B0019140B94FF0800383F31188BFF36F8FF8
S11338C0BFF34F8FFEE7056C45B14FF0800383F3E0
S11338D01188BFF36F8FBFF34F8FFEE7504B9847AC
S11338E018B9019D002D40F09180DFF86491DFF854
S11338F03CA12E464F46C847A36BE3B1013BA363EB
S1133900236813B9474B98476060236963B104F196
S11339101000454B984738B1444B4FF080521A6021
S1133920BFF34F8FBFF36F8F414B98470125284654
S113393005B0BDE8F08F019B63B945B14FF080033A
S113394083F31188BFF36F8FBFF34F8FFEE7384BBC
S11339509847ECE716B902A8364B9847344EDFF87F
S1133960F4B0DFF8F480B047334B9847B84794F885
S11339704430FF2B04BF002384F8443094F84530CE
S1133980FF2B04BF002384F84530B0472B4B01A91B
S113399002A898472A4B08BB20469847D0B1236811
S11339A02BB9B8476068274B98470546B04701993B
S11339B0254B04F1240098472046D847C04738B91E
S11339C04FF08053CAF80030BFF34F8FBFF36F8FAF
S11339D0012690E72046D847C047F9E720460093E0
S11339E0D847C0472046009B98470028F0D0002DB8
S11339F09DD0B847616A19B1236B1968C1F10501FB
S1133A006068124B98470025B04790E74FF0800359
S1133A1083F31188BFF36F8FBFF34F8FFEE700BFAF
S1133A20D142000095440000A941000004ED00E0EB
S1133A30392F00002D420000B53D00004142000036
S1133A40F9310000F142000029410000F94300006F
S1133A50F52E00003D330000C13E000010B50446C1
S1133A6040B94FF0800383F31188BFF36F8FBFF326
S1133A704F8FFEE7034B9847A46B034B98472046B0
S1133A8010BD00BFF52E0000392F000070B50446AC
S1133A90104B0D461646984794F84430FF2B04BF4C
S1133AA0002384F8443094F84530FF2B04BF0023EE
S1133AB084F84530084B9847A36B2BB93246294606
S1133AC004F12400054B98472046054BBDE870409F
S1133AD0184700BFF52E0000392F00006541000093
S1133AE03D3300000649074B4FF080520868012817
S1133AF0FCD91A60BFF34F8FBFF36F8FF6E700BF97
S1133B00A026002004ED00E0064B5A6E12681AB994
S1133B104FF0FF329A6670475A6ED268D268526884
S1133B20F8E700BFA02600202DE9F041154E164B02
S1133B30F76E0546306F0430884698476B1C344650
S1133B400AD1B8F1000F07D0316F104B043106F1E0
S1133B507400BDE8F04118473D44236FAF425D60F7
S1133B600B4B04D9D4F88800216F0431F1E7606E5F
S1133B70216F04319847A36E9D4238BFA566BDE806
S1133B80F08100BFA0260020072E0000C12D0000F8
S1133B90D92D00002DE9F84F940080465A4D204657
S1133BA00F469946A8470646002800F09E805420F8
S1133BB0A8470546002800F0958022460663534B2B
S1133BC0A521304698472B6B043C1C4424F0070A7B
S1133BD07B1E05F134020737597802F8011B13F8EC
S1133BE0011F09B1BB42F7D10A9C494E042C28BFDE
S1133BF004244FF0000B2F1DEC626C64384685F8EA
S1133C003BB0C5F848B0B047C4F1050405F118004D
S1133C10B047C5F84CB03F4B2D61AC616D6285F87F
S1133C2050B04A464146504698470B9B286003B122
S1133C301D60394C394B9847D4F8A0300133C4F88F
S1133C40A030236F002B54D12567D4F8A030012B6A
S1133C5020D1334E2046B04704F11400B04704F19C
S1133C602800B04704F13C00B04704F1A40904F172
S1133C705000B04704F1B8084846B0474046B04742
S1133C8004F18C00B04704F17400B047C4F86490A8
S1133C90C4F88880D4F8D030D4F8D4200133C4F8E0
S1133CA0D030EB63EB6A1420934288BFC4F8D4305D
S1133CB000FB034039461B4B98471B4B9847D4F8ED
S1133CC0CC3063B1236FDA6AEB6A9A4207D2174B9E
S1133CD04FF080521A60BFF34F8FBFF36F8F0120F4
S1133CE0BDE8F88F3046124B98474FF0FF30BDE8DF
S1133CF0F88FD4F8CC30002BCCD1236FDA6AEB6A7E
S1133D009A4298BF2567C5E785310000E148000065
S1133D10BB2D0000A52E0000A0260020F52E0000DB
S1133D20A52D0000C12D0000392F000004ED00E096
S1133D30E131000073B5194C19491A481A4E04F1BF
S1133D40DC030025019300952B468022B04701280F
S1133D5016D1164B9847012812D14FF0800383F3F4
S1133D601188BFF36F8FBFF34F8F4FF0FF33A366FC
S1133D700F4BC4F8CC00E56602B0BDE870401847AC
S1133D80013008D14FF0800383F31188BFF36F8FA4
S1133D90BFF34F8FFEE702B070BD00BFA026002026
S1133DA052630000E53A0000953B000035450000F1
S1133DB019300000034AD2F8D8300133C2F8D830A1
S1133DC0704700BFA0260020014BD86E704700BF8B
S1133DD0A02600202DE9F84F354BD3F8D8201C46F7
S1133DE0002A3DD1DE6E0136DE66C6B95B6E1B6805
S1133DF043B14FF0800383F31188BFF36F8FBFF398
S1133E004F8FFEE7636ED4F888206266C4F888306A
S1133E10D4F8E0300133C4F8E030264B9847A36E61
S1133E209E424FF000050BD3DFF88C80DFF88CB096
S1133E304FF0140A636E1B68CBB94FF0FF33A366CF
S1133E40236FDA6A14235343E358022B28BF012556
S1133E50D4F8E830002B18BF01252846BDE8F88FB8
S1133E60D3F8E4300133C4F8E4300025F0E7636E9E
S1133E70DB68DF687B689E42E1D307F104094846AA
S1133E80C047BB6A13B107F11800C047F86AD4F8F9
S1133E90D430984288BFC4F8D40049460AFB004095
S1133EA0D847236FFA6ADB6A9A4228BF0125C1E723
S1133EB0A0260020093B0000072E0000C12D0000B1
S1133EC02DE9F843314CD4F8D83043B94FF080038E
S1133ED083F31188BFF36F8FBFF34F8FFEE72C4B33
S1133EE09847D4F8D830013BC4F8D830D4F8D85027
S1133EF02DB10024274B98472046BDE8F883D4F819
S1133F00A030002BF5D0244FDFF89C904FF014081C
S1133F10D4F88C30EBB90DB1204B9847D4F8E45069
S1133F204DB11F4E0127B04708B1C4F8E870013DF8
S1133F30F9D1C4F8E450D4F8E830002BD9D0194BA7
S1133F404FF080521A60BFF34F8FBFF36F8F01247D
S1133F50D0E7D4F89830DD682E1D05F11800B84775
S1133F603046B847E86AD4F8D430984288BFC4F8D9
S1133F70D400314608FB0040C847236FEA6ADB6A75
S1133F809A4224BF0123C4F8E830C1E7A0260020E8
S1133F90F52E0000392F0000072E0000093B000019
S1133FA0D53D000004ED00E0C12D000038B540B956
S1133FB04FF0800383F31188BFF36F8FBFF34F8FEC
S1133FC0FEE741B94FF0800383F31188BFF36F8F8D
S1133FD0BFF34F8FFEE7184DD5F8D84044B14FF0EA
S1133FE0800383F31188BFF36F8FBFF34F8FFEE716
S1133FF0124B9847ED6E0268954201EB020317D20B
S11340009A4203D99D422CBF0024012403601CB1B1
S1134010581B00210A4B98470A4B984738B90A4B5A
S11340204FF080521A60BFF34F8FBFF36F8F38BDCC
S11340309A42E7D90124E9E7A0260020B53D000013
S1134040293B0000C13E000004ED00E008B540B982
S11340500F4B4FF080521A60BFF34F8FBFF36F8F37
S113406008BD0C4BD3F8D81041B14FF0800383F353
S11340701188BFF36F8FBFF34F8FFEE7064B98474E
S1134080064B9847064B98470028E1D008BD00BF6F
S113409004ED00E0A0260020B53D0000293B00000F
S11340A0C13E000038B51E4BD3F8D8201C461AB1C7
S11340B00122C3F8E82038BDC3F8E8201A6F1B6F4B
S11340C012681B6B9A4204D8206F216F154B343150
S11340D09847D4F8D420142505FB02F3E118E058DE
S11340E088B148680833406848602344984204BF54
S11340F043684B60142303FB02435B68DB6823675C
S1134100C4F8D42038BD42B94FF0800383F311883A
S1134110BFF36F8FBFF34F8FFEE7013ADCE700BFB9
S1134120A0260020D102000010B50C4640B94FF083
S1134130800383F31188BFF36F8FBFF34F8FFEE7C4
S1134140054B196F054B1831984720460121044B44
S1134150BDE81040184700BFA0260020D92D00005C
S1134160293B000070B50D46144640B94FF080035A
S113417083F31188BFF36F8FBFF34F8FFEE7074BB5
S1134180196F074B18319847002C21460CBF28465D
S11341904FF0FF30034BBDE870401847A0260020C5
S11341A0C12D0000293B0000C3682DE9F041D3F87C
S11341B00C80B8F1000F08D14FF0800383F311880D
S11341C0BFF36F8FBFF34F8FFEE708F11806144C4F
S11341D0144F154D3046B847D4F8D830E3B908F138
S11341E004063046B847D8F82C30D4F8D42014202C
S11341F0934288BFC4F8D430314600FB0340A8473B
S1134200236FD8F82C20DB6A9A4286BF0120C4F8B9
S1134210E8000020BDE8F081314604F18C00EEE7AF
S1134220A0260020072E0000C12D0000034BD3F868
S1134230E020DB6E02604360704700BFA0260020D0
S113424070B50C46054640B94FF0800383F31188DE
S1134250BFF36F8FBFF34F8FFEE741B94FF0800379
S113426083F31188BFF36F8FBFF34F8FFEE7104BBB
S1134270984723680F486968C26E5E1C0ED0D0F858
S1134280E0002E68864201D08A420ED2521A9A4227
S113429009D29B1A23602846074B98470024074BF2
S11342A09847204670BD002323600124F7E700BF30
S11342B0F52E0000A02600202D420000392F00001A
S11342C0024B0122C3F8E820704700BFA02600205B
S11342D0064BD3F8CC2032B1D3F8D830002B0CBF26
S11342E00220002070470120704700BFA026002054
S11342F070B50446002831D01B4AC36A116FC96ADD
S11343008B42154622D28269002AA1BF2A6FD26A43
S1134310C2F105028261142202FB035342699A42EC
S11343201DD1061D114B304698472B6FD5F8D4206C
S1134330DB6AE362934201D9C5F8D430142000FB50
S1134340035031460A4B9847012070BD136F406CEF
S1134350DC6AA0422CBF0020012070BD70BD2B6F11
S1134360DB6AC362F0E700BFA0260020072E00002E
S1134370C12D000070B5044608B9002070BD1B4D66
S11343802B6F984208D04FF0800383F31188BFF35A
S11343906F8FBFF34F8FFEE7836C43B94FF08003F9
S11343A083F31188BFF36F8FBFF34F8FFEE7C16AAA
S11343B0426C013B91428364DFD0002BDDD1061DAA
S11343C030460B4B9847636CE362C3F10502A2616C
S11343D0D5F8D4201420934200FB035088BFC5F8BD
S11343E0D4303146034B9847012070BDA0260020ED
S11343F0072E0000C12D000070B50446002841D0EE
S1134400826C42B94FF0800383F31188BFF36F8F3E
S1134410BFF34F8FFEE7436C994238BF1946C36A16
S11344208B422FD0012A2DD1174D2A6F904208D1EB
S11344304FF0800383F31188BFF36F8FBFF34F8F67
S1134440FEE78269C162002A4FF0140202FB0353A3
S11344504269A4BFC1F1050181619A4212D1061DCE
S11344600A4B30469847E36AD5F8D420934201D9E1
S1134470C5F8D430142000FB03503146044BBDE88A
S11344807040184770BD00BFA0260020072E000012
S1134490C12D0000044B1A6F1AB1196F8A6C0132D6
S11344A08A64186F704700BFA02600202DE9F041F0
S11344B00C4C0D4B9847256885B9271D3846DFF805
S11344C0348004F11806C0473046C0472A460C2100
S11344D01420064BE762266398472060044BBDE82E
S11344E0F04118478C270020F52E000059340000B5
S11344F0392F0000A52D0000914208B541600061EC
S11345000AD8D21A83699A420ED2084B011D186B3D
S1134510074B9847002008BD9A4201D2994203D222
S1134520024B011DD86AF3E7012008BD8C27002047
S1134530D92D00000E4B13B598470E4B1A6842B99B
S11345404FF0800383F31188BFF36F8FBFF34F8F56
S1134550FEE73433019303230093802200230649AA
S11345600648074CA0470028EAD002B010BD00BF9F
S1134570AD4400008C2700206663000069460000FB
S1134580953B000030B5154685B01A46034640B940
S11345904FF0800383F31188BFF36F8FBFF34F8F06
S11345A0FEE70D4C206880B1052901910295039323
S11345B00DDC0A4B0A4D98470023022808BF089ACD
S11345C0206818BF1A4601A9A84705B030BD0023CA
S11345D001A9044CA047F8E78C270020D142000031
S11345E0AD340000593600002DE9F3411A4D1B4F3C
S11345F0EB6A1A682AB92A6BEA622B6302B0BDE837
S1134600F081DB68DC681E6804F104084046B847A2
S1134610636A20469847E369012BE9D1A3693344CF
S11346209E4206D2636024614146E86A0C4B984777
S1134630DEE700232046009332461946094CA04782
S11346400028D5D14FF0800383F31188BFF36F8F17
S1134650BFF34F8FFEE700BF8C270020072E00001A
S1134660D92D0000854500002DE9F04F87B0644D39
S1134670EA6AD2F80090A846B9F1000F3BD0D2689C
S11346801668604A604F9047B847AA6B90428246CA
S113469033D25E4A90470124C5F838A0DFF88CB1C4
S11346A0002C73D1B9F1000F58D056456CD8D847B7
S11346B0EB6ADB68DD68564B281D9847EB69012BD4
S11346C01DD1A9695246334631442846DFF858A122
S11346D0D047A0B1009423462146324628464D4C8B
S11346E0A04760B94FF0800383F31188BFF36F8F45
S11346F0BFF34F8FFEE74E46C3E70024CCE76B6A57
S113470028469847444D414ED8F80000002203A99A
S1134710A8470028ABD0039B002BF5DB059C6369FD
S113472013B1201D3A4B9847B847D8F8383098420F
S1134730834600D2B047039AC8F838B0092AE3D8B0
S11347400123934013F4047A46D113F0C70F1FD109
S11347509B06D9D52046314B9847D4E72B6B1A6872
S1134760B2FA82F25209A6EB0A0128682C4B984748
S1134770D8470028C6D12B4B4FF080521A60BFF3A4
S11347804F8FBFF36F8FBDE72246ECE7D847B9E7F9
S1134790A169049B244E5A4619442046B047002878
S11347A0B1D0636A20469847E369012BABD1A26973
S11347B00499CDF800A00A44204653465146154CAE
S11347C0A04700289FD14FF0800383F31188BFF3E3
S11347D06F8FBFF34F8FFEE70499A16141B94FF08A
S11347E0800383F31188BFF36F8FBFF34F8FFEE70E
S11347F05B465A46594420460B4CA04783E700BF0A
S11348008C270020B53D0000C93D0000E9450000AB
S1134810072E0000854500003D370000E13100000F
S11348208D3A000004ED00E0F9440000C13E0000B0
S113483070B50D4E0D4CA41BA4100025A54209D142
S11348400B4E0C4C01F0DEFDA41BA4100025A54268
S113485005D170BD56F8253098470135EEE756F876
S1134860253098470135F2E7106400001064000019
S1134870106400001464000010B501390244904231
S113488001D1002010BD10F8013B11F8014FA342E3
S1134890F5D0181B10BD10B5431E0A44914200D137
S11348A010BD11F8014B03F8014FF7E7884210B52A
S11348B001EB020303D8421E99420CD110BD984269
S11348C0F9D28118D21AD34200D110BD13F8014D88
S11348D001F8014DF7E711F8014B02F8014FEBE73E
S11348E002440346934200D1704703F8011BF9E7E1
S11348F038B50546002945D051F8043C0C1F002B5F
S1134900B8BFE41800F01AF91F4A1368104633B907
S1134910636014602846BDE8384000F010B9A34233
S11349200CD921686218934204BF1A685B686360FB
S113493004BF521822600460ECE713465A680AB1B7
S1134940A242FAD919685818A0420BD12068014430
S1134950581882421960DDD1106852685A600144C7
S11349601960D7E702D90C232B60D3E720682118FC
S11349708A4204BF11685268626004BF091821604A
S11349805C60C7E738BD00BFC827002070B5CD1CE8
S113499025F0030508350C2D38BF0C25002D0646DF
S11349A001DBA94203D90C233360002070BD00F061
S11349B0C5F8234A1468214691B9224C23681BB9CF
S11349C0304600F041F820602946304600F03CF8BB
S11349D0431C26D10C233360304600F0B0F8E4E7E2
S11349E00B685B1B1AD40B2B0FD90B60CD50CC1862
S11349F0304600F0A4F804F10B00231D20F007005A
S1134A00C31A1BD05A42E25070BD8C420DBF63687A
S1134A104B686360136018BF0C46E9E70C464968AD
S1134A20CAE7C41C24F00304A04205D0211A30466E
S1134A3000F00AF80130CDD02560D9E770BD00BF81
S1134A40C8270020CC27002038B5064C0023054693
S1134A5008462360FDF788F8431C02D1236803B19C
S1134A602B6038BDDC3100200EB400B59CB04FF48F
S1134A7002711DABADF81410029006906FF0004166
S1134A800A48049107914FF6FF7153F8042BADF8CF
S1134A9016100068019302A900F0AEF8029B0022F0
S1134AA01A701CB05DF804EB03B0704724010020B9
S1134AB010B50246134601321C78002CFAD1013B92
S1134AC011F8012B03F8012F002AF9D110BD034678
S1134AD011F8012B03F8012B002AF9D17047034682
S1134AE013F8012B002AFBD1181A0138704710B5AE
S1134AF06AB10139841810F8013B11F8012F93426F
S1134B0003D1A04201D0002BF5D1981A10BD104654
S1134B1010BD70B5044602B970BD234611F8015B9F
S1134B2003F8015B561E1DB91444A34203D170BDA2
S1134B301C463246EFE703F8015BF6E7704770471F
S1134B402DE9F0478E689E4282460C46914698466F
S1134B5035D88A8912F4906F31D0256809696F1AA3
S1134B606569022305EB450595FBF3F508F101039F
S1134B703B449D4238BF1D46530531D52946FFF7B6
S1134B8005FF064650B90C23CAF80030A38943F048
S1134B904003A3814FF0FF30BDE8F0873A46216916
S1134BA0FFF779FEA38923F4906343F08003A38184
S1134BB0266165613E44ED1B2660A5604646464578
S1134BC028BF4646324649462068FFF76FFEA36871
S1134BD09B1BA36023681E4426600020BDE8F08769
S1134BE02A4600F0E5FA06460028E1D1216950463C
S1134BF0FFF77EFEC7E700002DE9F04F9DB0804629
S1134C0003938B891C060D4616460FD50B696BB9A9
S1134C104021FFF7BBFE2860286128B90C23C8F89F
S1134C2000304FF0FF30C5E040236B61002309934F
S1134C3020238DF8293030238DF82A304FF0010BD2
S1134C4037463C4614F8013B002B3CD1B7EB060A2F
S1134C500BD05346324629464046FFF771FF0130D8
S1134C6000F0A380099B534409933B78002B00F088
S1134C709C8000234FF0FF32049307930592069320
S1134C808DF853301A9305222178504800F040FAE9
S1134C90671C049BD8B9D90644BF20228DF8532041
S1134CA01A0744BF2B228DF8532022782A2A16D0C3
S1134CB0079A00210A20274601343B78303B092B10
S1134CC051D9C9B111E0252BC0D02746B9E73F4AD5
S1134CD0801A0BFA00F0184304903C46D3E7039A79
S1134CE0111D12680391002A01DB079204E052426D
S1134CF043F00203079204933B782E2B0ED17B786A
S1134D002A2B07F1010132D1039B1A1D1B68039260
S1134D10002BB8BF4FF0FF33023705932C4C397882
S1134D200322204600F0F4F938B14023001B03FAB3
S1134D3000F0049B034304930137397825488DF828
S1134D40281006227E1C00F0E3F9002835D0224BFF
S1134D50FBB9039B073323F0070308330393099B31
S1134D604B4409936CE700FB02320121A3E70023C3
S1134D70059318460A240F4601313A78303A092A35
S1134D8003D9002BCAD00590C8E704FB00200123F7
S1134D90F1E703AB00932A46104B04A94046AFF356
S1134DA00080B0F1FF3F8146D9D1AB895B063FF566
S1134DB038AF09981DB0BDE8F08F03AB00932A46C5
S1134DC0064B04A9404600F081F8EAE7D0630000EE
S1134DD0D6630000DA63000000000000414B0000CD
S1134DE02DE9F04791461F468A680B69DDF820805B
S1134DF09342B8BF1346C9F8003091F843200646E1
S1134E000C4612B10133C9F800302368990642BF39
S1134E10D9F800300233C9F80030256815F00605CA
S1134E2007D104F1190AE368D9F800209B1A9D42BE
S1134E3029DB94F843302268003318BF012392061B
S1134E402ED404F1430239463046C047013021D004
S1134E502368E568D9F8002003F00603042B08BF93
S1134E60AD1AA36822690CBF25EAE57500259342B3
S1134E70C4BF9B1AED184FF000091A344D451BD1DD
S1134E800020BDE8F0870123524639463046C0472A
S1134E90013003D14FF0FF30BDE8F0870135C2E7A0
S1134EA0E1185A1C302081F84300224494F845103C
S1134EB082F843100233C4E70123224639463046C0
S1134EC0C0470130E6D009F10109D7E72DE9F043E5
S1134ED017460A7E85B06E2A984606460C460C9BF9
S1134EE001F1430E00F0BC801AD8632A2ED00AD8F0
S1134EF0002A00F0C880582A00F08A8004F1420594
S1134F0084F842202AE0642A01D0692AF6D1216873
S1134F101A6811F0800F23D0111D1960136827E05F
S1134F20732A00F0B48008D86F2A2AD0702AE5D1F9
S1134F300A6842F020020A6003E0752A21D0782A28
S1134F40DCD1782284F845206E4964E01A6801F1C6
S1134F504205111D1960136884F842300123A3E04F
S1134F6011F0400F02F104011960D7D0B2F90030FA
S1134F70002B03DA2D225B4284F8432062490A2283
S1134F8017E02068196810F0800F03D0081D18601E
S1134F900B6806E010F0400F01F104001860F7D030
S1134FA00B8859496F2A14BF0A220822002084F86A
S1134FB043006568A560002DC0F29C80206820F045
S1134FC004002060002B3FD1002D40F095807546F1
S1134FD0082A0BD12368DA0708D5236962689A4244
S1134FE0DEBF302305F8013C05F1FF35AEEB0503C8
S1134FF02361CDF800803B4603AA21463046FFF7E3
S1135000EFFE013055D14FF0FF3005B0BDE8F0831D
S113501081F845203C492268186812F0800F00F19D
S113502004051D6001D0036802E05506FBD5038822
S1135030D00744BF42F0200222601BB9226822F04C
S1135040200222601022B1E77546B3FBF2F002FBA6
S11350501033CB5C05F8013D03460028F5D1B7E7D2
S113506008681A68496910F0800F04D0101D186090
S11350701368196007E010F0400F02F10400186093
S11350801368F6D01980002323617546B1E71A68C6
S1135090111D1960156862680021284600F038F86F
S11350A008B1401B606063682361002384F84330C7
S11350B09FE723692A4639463046C0470130A2D0CB
S11350C023689B0707D5002504F11909E368039AAF
S11350D09B1A9D4205DBE068039B9842B8BF1846C3
S11350E093E701234A4639463046C04701308AD007
S11350F00135EBE7002BA7D10B7884F8423004F19B
S1135100420565E7F2630000E1630000000000006F
S113511001F0FF01102A2BDB10F0070F08D010F864
S1135120013B013A8B422DD010F0070F42B3F6D168
S1135130F0B441EA012141EA014122F007047FF081
S113514000070023F0E80256083C85EA010586EAD8
S1135150010685FA47F5A3FA87F586FA47F6A5FA14
S113516087F68EB9EED1F0BC01F0FF0102F0070220
S113517032B110F8013B013A83EA010313B1F8D1CB
S11351800020704701387047002D06BF35460338AC
S1135190073815F0010F07D1013015F4807F02BFE5
S11351A0013015F4C03F0130F0BC0138704700BF36
S11351B0F8B5074614460E4621B91146BDE8F84035
S11351C0FFF7E4BB22B9FFF793FB25462846F8BD59
S11351D000F014F884420FD921463846FFF7D6FB75
S11351E005460028F2D031462246FFF754FB3146EB
S11351F03846FFF77DFBE9E73546E7E751F8040C4D
S11352000028A0F10400BCBF0B58C01870472A2A1C
S11352102A2A2A2A2A2A2A2A2A2A2A2A2A2A2A2AEA
S11352202A2A2A2A2A2A2A2A2A2A2A2A2A2A2A2ADA
S11352302A2A2A2A2A2A2A2A2A2A2A2A2A2A2A2ACA
S11352402A2A2A2A2A2A2A2A002A2A2A2A2A2A2AE4
S11352502A2A2A2A2A2A2A2A535441434B204F56BF
S11352604552464C4F572044455445435445442ADF
S11352702A2A2A2A2A2A2A2A2A2A2A2A2A2A2A2A8A
S11352802A2A2A00205461736B2048616E646C657D
S1135290202D20256420232323205461736B204E6A
S11352A0616D65202D2025730052756E6E696E67E1
S11352B0204469737061746368205461736B207354
S11352C075636365737366756C6C79000000000028
S11352D08D5D0000000000006D0B00000000000068
S11352E0010000006058000003000200410B0000B0
S11352F009000000020000006458000008000F00CC
S1135300710B00001B000000030000006D5800003A
S11353100C0003006D0B00001300000004000000EB
S11353207A58000008000C006D0B00001800000003
S11353300500000083580000050008006D0B000004
S113534011000000060000008D5800000A000B0048
S11353506D0B0000190000000700000098580000C1
S11353600A0015006D0B0000230000000800000077
S1135370A3580000050002006D0B00000B000000A4
S113538009000000A958000027000C00A50C00002B
S1135390370000000A000000D1580000120002008B
S11353A0950B0000180000000B000000E4580000FA
S11353B012000200950B0000180000000C00000011
S11353C0F758000012000200950B000018000000BE
S11353D00D0000000A59000012000200950B0000A5
S11353E0180000000E0000001D5900001200020009
S11353F0950B0000180000000F0000003059000059
S113540012000200950B00001800000010000000BC
S11354104359000012000200950B00001800000020
S1135420110000005659000012000200950B000004
S11354301800000012000000695900001200020068
S1135440950B000018000000130000007C590000B8
S113545013000200950B0000190000001400000066
S1135460905900001F000200150C000025000000E8
S113547015000000B059000023000200450C000094
S11354802900000016000000D45900001A00020090
S1135490750C000020000000170000000000002030
S11354A011000700E50C00001C00000018000000BB
S11354B0AC0100203A00BF00710D0000FD000000A7
S11354C019000000EF59000010000200710D0000E7
S11354D0160000001A000000005A0000100002002C
S11354E06D0B0000160000001B000000115A0000A4
S11354F00B0002006D0B0000110000000000000012
S11355000000000000000000000000000000000097
S11355100000000000000000000000000000000087
S11355200000000000000000000000000000000077
S11355300000000000000000000000000000000067
S11357700000000000000000000000005365737387
S1135780696F6E204944202D20310053657373697D
S11357906F6E204944202D20320053657373696F66
S11357A06E204944202D20330053657373696F6E56
S11357B0204944202D20340053657373696F6E2093
S11357C04944202D20350053657373696F6E204959
S11357D044202D20360053657373696F6E2049444D
S11357E0202D20370053657373696F6E2049442060
S11357F02D20380053657373696F6E2049442076F9
S1135800616C75652065786365656473207468658B
S1135810206D61782076616C7565004B4854545056
S11358202048454144455220537472696E6720698B
S1135830732000223F693D333539393938303730E8
S113584032323837363426643D4131593532584185
S11358503259333626623D333626733D32220D00EB
S113586041540D0041542B4347534E0D0041542BDA
S113587057434152524945520D0041542B4950520D
S11358803F0D0041542B4350494E3F0D0041542BD2
S113589043475245473F0D0041542B4B47534E3D20
S11358A0330D00415445310D0041542B4B485454A1
S11358B0504346473D332C22696E67657374312E1D
S11358C0726573706F6E73652E636C6F7564220DF1
S11358D00041542B4B48545450434C4F53453D3195
S11358E02C300D0041542B4B48545450434C4F53CF
S11358F0453D322C300D0041542B4B4854545043F9
S11359004C4F53453D332C300D0041542B4B4854E0
S11359105450434C4F53453D342C300D0041542BCF
S11359204B48545450434C4F53453D352C300D0097
S113593041542B4B48545450434C4F53453D362C03
S1135940300D0041542B4B48545450434C4F534555
S11359503D372C300D0041542B4B48545450434C8C
S11359604F53453D382C300D0041542B4B48545473
S113597050434C4F53453D392C300D0041542B4B73
S113598048545450434C4F53453D31302C300D0056
S113599041542B4B5041545445524E3D222D2D45DC
S11359A04F462D2D5061747465726E2D2D220D009D
S11359B041542B4B434E584346473D332C202247FA
S11359C0505253222C22565A57494E5445524E4552
S11359D054220D0041542B4B434E5854494D4552CB
S11359E03D332C36302C322C37302C36300D002DF4
S11359F02D454F462D2D5061747465726E2D2D000A
S1135A0041542B4B434E58444F574E3D332C310D8C
S1135A100041542B43474154543D300D00457870A8
S1135A206563746564206D6F64656D207265737061
S1135A306F6E7365206973206E6F74207265636581
S1135A4069766564004E6F20526573706F6E73657E
S1135A502066726F6D205765622053657665722EDD
S1135A602E2E2E506F7374696E67206461746120EA
S1135A70746F207365766572206973206661696C42
S1135A80656400506572666F726D696E6720746834
S1135A9065204572726F72205265636F7665727904
S1135AA02050726F636564757265732E2E00436CAB
S1135AB06F73656420616E642052656F70656E65F6
S1135AC064207468652073657373696F6E2E2E2E5F
S1135AD02E2E2E004175746F207265636F76657289
S1135AE07920636F6D706C657465642E2E2E2E2E76
S1135AF02E004572726F72203A2050726F63657384
S1135B007320726573706F6E7365206661696C656E
S1135B1064202D204C61737420436F6D6D616E643D
S1135B2020496E76616C6964004D4F44454D2044B4
S1135B3041544120554152542028534552434F4D1E
S1135B40332920696E697469616C697A65640053EC
S1135B504552434F4D33205052494F5249545900F6
S1135B604661696C656420746F20696E697469614B
S1135B706C697A6520746865204D4F44454D204416
S1135B8041544120554152540053656E7420746849
S1135B90652044696167206461746120746F2054D6
S1135BA078205461736B004661696C656420746F7E
S1135BB02073656E7420746865204469616720648D
S1135BC061746120746F205478205461736B0043B6
S1135BD06F756C646E2774206F627461696E2074D3
S1135BE068652073656D6170686F72650052756ECB
S1135BF06E696E6720446961672050726F636573D4
S1135C0073205461736B2073756363657373667576
S1135C106C6C790052756E6E696E67204D6F6465A9
S1135C206D2050726F63657373205461736B2073BE
S1135C3075636365737366756C6C7900496E204196
S1135C40542068616E646C65720D0A00496E2043CD
S1135C5047534E2068616E646C6572000D0A436C94
S1135C606F73656420616E20616374697665206377
S1135C706F6E6E656374696F6E005468657265203B
S1135C806973206E6F20636F6E6E656374696F6EE7
S1135C902065737461626C697368656420776974E4
S1135CA06820746869732073657373696F6E204923
S1135CB0442E2E2E00436865636B696E6720666F01
S1135CC07220616E2061637469766520636F6E6E05
S1135CD0656374696F6E2077697468206E65787483
S1135CE02073657373696F6E2049442E2E2E0A004B
S1135CF0496E204B5041545445524E2068616E64A5
S1135D006C657200496E204B434E584346472068E9
S1135D10616E646C657200496E204B434E58544961
S1135D204D45522068616E646C657200496E204B6B
S1135D30485454504346472068616E646C65720051
S1135D40496E204B48545450204845414445522004
S1135D5068616E646C657200434F4E4E4543540057
S1135D6048656164657220526573706F6E73652057
S1135D704F6B0048656164657220526573706F6E85
S1135D807365204E6F74204F6B000D0A0A00496E34
S1135D90205445524D494E415445204845414445BF
S1135DA0522068616E646C6572004E6F7469666936
S1135DB0636174696F6E20526563656976656420FA
S1135DC0746F205278205461736B2E204D656D6F73
S1135DD0727920416C6C6F63617465640043616C1B
S1135DE06C656420526573702048616E646C6572E2
S1135DF0004552524F523A20536F6C69636974657F
S1135E006420436F6D6D616E642050617273696EBE
S1135E1067204661696C6564004572726F723A204E
S1135E204865617020416C6C6F636174696F6E20AA
S1135E304661696C6564004E6F7469666963617478
S1135E40696F6E204E6F7420526563656976656470
S1135E5020746F205278205461736B005461736B0B
S1135E60204944005472616E736D697474656420D2
S1135E706120636F6D6D616E6420746F204D6F647B
S1135E80656D0054782073657269616C20446562A5
S1135E90756720446F6E650D0A00527820446F6E5A
S1135EA0650D0A002573202573002573202D2025F8
S1135EB064200D0A0057445420496E697469616C6A
S1135EC06973656400574454204661696C656420B5
S1135ED0746F20696E697469616C697A6500000089
S1135EE0C000020083000019000000000000000050
S1135EF0000001000100000000000000000000009C
S1135F00000000000000000000000000000000008D
S1135F10000000000000000000000000000000007D
