:1000000028120120D5060000D1060000D10600000C
:10001000D1060000D1060000D1060000000000005B
:10002000000000000000000000000000512100005E
:10003000D10600000000000081210000E521000041
:10004000D1060000D1060000D1060000D106000054
:10005000D1060000D1060000D1060000D106000044
:10006000D1060000D1060000D1060000D106000034
:10007000D1060000D1060000D1060000D106000024
:10008000D1060000D1060000D1060000D106000014
:10009000D1060000D1060000D1060000D106000004
:1000A000D1060000D1060000D1060000D1060000F4
:1000B000D1060000D5150000A9150000D5130000D9
:1000C000DD130000E5130000ED130000F513000040
:1000D000D1060000D1060000D1060000D1060000C4
:1000E000D1060000D1060000D1060000D1060000B4
:1000F000000000009D160000D1060000D10600009F
:10010000D1060000D1060000D1060000D106000093
:10011000D1060000D1060000D1060000D106000083
:10012000D1060000D1060000E10300001104000028
:1001300041040000D1060000D1060000D1060000F5
:10014000D1060000D1060000D1060000D106000053
:1001500075060000D106000000000000000000004D
:10016000000000000000000000000000000000008F
:10017000000000000000000000000000000000007F
:10018000D1060000D1060000D1060000D106000013
:1001900000000000811B0000D1060000D106000015
:1001A000D1060000D1060000D1060000D1060000F3
:1001B000911B0000D1060000D1060000D10600000E
:1001C000D1060000A11B0000D1060000D1060000EE
:1001D000D1060000B11B0000D1060000D1060000CE
:1001E000C11B0000D1060000D1060000E91F00007D
:1001F000F91F00000920000019200000292000003C
:10020000392000000000000000000000D1060000BE
:10021000D1060000D1060000D1060000D106000082
:10022000D1060000D1060000D1060000D106000072
:10023000D1060000D1060000D1060000D106000062
:10024000D1060000D1060000D1060000D106000052
:10025000D1060000D1060000D1060000D106000042
:100260000000000010B5054C237833B9044B13B1DE
:100270000448AFF300800123237010BDF00000207C
:1002800000000000B82A00000C4B43B10C480D4997
:1002900010B5AFF300800C48036823B910BD0A48BD
:1002A000036833B97047094B002BF7D0BDE8104005
:1002B0001847064B002BF5D0184700BF0000000080
:1002C000B82A0000F4000020B82A00000000000056
:1002D000F0B5134B142606FB00308FB00F46447860
:1002E0008578017C0F4B01A8984798B12346254497
:1002F000AB42A3EB040205DB0023BB540A4B984737
:100300000FB0F0BD0EA91944013311F8341CB954D3
:10031000DBB2EDE73146054B05489847EEE700BFF5
:10032000F02300009D040000F104000031060000ED
:1003300080250000034A142303FB0020024B017AAE
:1003400040681847F02300007504000038B5054BDD
:10035000142404FB00341546E3689847A3782B70F7
:1003600038BD00BFF023000070B510491048114B94
:10037000114D124C9847B8B94FF40062104911481A
:10038000114B984780B90122114609480F4B9847F5
:1003900007480F4B98470F490F48A8472346282185
:1003A0000D48BDE8704018470C49F5E70040014191
:1003B0000000002049180000E12300003106000081
:1003C000CE070020D00F00206D100000CF180000D5
:1003D00091180000DF250000E00F00200726000034
:1003E00008B5064B064A074918469047064B282190
:1003F0009847064B01221A7608BD00BFE00F002087
:10040000E1230000212600003106000000400141E8
:1004100008B5064B064A074918469047064B28215F
:100420009847064B02221A7608BD00BFE00F002055
:10043000E123000049260000310600000040014190
:1004400010B5074C0748A0470028FBD0064B0548CD
:100450009847064B0146BDE810400548184700BFC5
:10046000C518000000000020B3180000A71000000D
:10047000D00F002070B5064C064B0E4605462046B0
:100480009847324629462046034BBDE8704018473E
:100490000000002091180000A90500002DE9F3419B
:1004A0000E4B06460E480C469847A0420DD301A8B5
:1004B0000C4B0B4FDFF83480984700214D1CC9B21C
:1004C000A14205D301A8084B984702B0BDE8F081CE
:1004D00031443846C0472946F0E700BFCD10000040
:1004E000D00F00205D0E00006B0E00008510000094
:1004F0000148024B184700BFD00F0020D510000064
:10050000C00100F1824000F500408BB28160090C0F
:1005100043F0804341F040418362816270470000B4
:1005200070B51C4C1C4A1D4E4FF480310120904781
:1005300094F8D0304FF4803503F0FE0384F8D030C7
:100540004FF40021C4F894500020904794F85330A1
:1005500003F0FE0384F853304FF40023294663610F
:100560000020904794F8503003F0FE0384F8503098
:100570004FF4FA706561B047C4F898503220B04724
:1005800040F6B830B04729210548064BBDE8704019
:10059000184700BF0080004101050000A10E0000C7
:1005A0008E260000310600002DE9F0470F4C06466C
:1005B0000D461746A1463046A0470028FBD0DFF87D
:1005C0003080DFF830A0013D00246B7804F808305B
:1005D000304615F8011FD0473046C8470028FBD0E9
:1005E0000134BC42F1D32046BDE8F087BB180000BF
:1005F0000C010020AD180000022303767047802311
:100600000376704710B5064C0649074B20469847BD
:10061000012220461146054BBDE81040184700BF97
:100620001C0000200004004349180000CF180000FF
:1006300070B5064C064B0E46054620469847324696
:1006400029462046034BBDE8704018471C00002097
:1006500091180000A905000010B5044B04461621AE
:10066000034898470123237610BD00BF31060000E0
:10067000E42600000C4B10B504220C4C1A760C48F2
:10068000A0470028FBD00B4B094898470A49002394
:1006900008704B7009480A4B984705210748094BD9
:1006A000BDE81040184700BF00040043C518000013
:1006B0001C000020B3180000201000202210002091
:1006C000E123000031060000004B18472D0D00000B
:1006D000FEE7000008B5144A144B9A4218D1144B97
:1006E000144A002193421CD3134A144B22F07F0278
:1006F0009A60D3F8882042F47002C3F88820BFF3D0
:100700004F8FBFF36F8F0E4B98470E4B9847FEE706
:100710000D49043A8B42E2D252F8040F43F8040B1D
:10072000F8E743F8041BDDE7B82A000000000020CA
:10073000F0000020241200200000000000ED00E086
:1007400089230000ED200000F000002030B54A1C95
:10075000C4B2C0F34712164804F01F0300EBC210E6
:1007600007D1184490F8403003F0FE0380F8403081
:1007700030BDC5185B0895F8402002F0FE02184411
:1007800042F0010285F8402090F8303014F0010F5B
:1007900019BF03F00F0343EA011101F00F0103F049
:1007A000F00314BFC9B2194380F8301030BD00BF48
:1007B0000080004100F01F024009C00100F18240AA
:1007C00000F500400123934043609AB21B0C42F0B5
:1007D000804243F04043826283627047044AD36997
:1007E00043F48073D361034B4022C3F80021704768
:1007F00000080040001C004010B5044B9847044915
:100800000448054BBDE81040184700BFDD07000055
:1008100000200042C81000204D0E000070B50220DC
:10082000154D164CA84716490220A0470320A8479B
:1008300014490320A0472820A84713492820A0478F
:100840002920A84711492920A0470420A84710497A
:100850000420A0470520A8470E490520A0470620F0
:10086000A8470D490620A0470720A84723460B4963
:100870000720BDE870401847B50700004D0700008D
:10088000010002000100030001002800010029000E
:10089000010004000100050001000600010007003E
:1008A000044A136A43F080031362034B4122C3F8E6
:1008B0002021704700080040001C004010B5054B87
:1008C0009847054B9847002204490548054BBDE869
:1008D00010401847A10800001D080000001C00433C
:1008E000D8100020550E0000044A136A43F48073A8
:1008F0001362034B4022C3F82421704700080040D4
:10090000001C004010B5044B9847002203490448DE
:10091000044BBDE810401847E908000000200043E0
:1009200090110020550E0000044A136A43F400732E
:100930001362034B4022C3F828217047000800408F
:10094000001C004010B5044B984704490448054B6F
:10095000BDE81040184700BF2909000000240043EB
:1009600000110020790E0000054B4022C3F89020B2
:10097000044A536943F480635361034B184700BF33
:10098000001C004000080040FD0E0000034A93696F
:1009900043F080039361024B184700BF00080040FA
:1009A000C50E0000024A136943F04003136170470B
:1009B0000008004010B5044B984704490448054B13
:1009C000BDE81040184700BFA509000000400041E5
:1009D0008C1000202D0F000010B5054C054911208A
:1009E000A047234604491220BDE81040184700BF25
:1009F0004D0700000300110003001200064B4022C7
:100A0000C3F8E0204A22C3F88C20044A936943F4D7
:100A100080639361704700BF001C004000080040E5
:100A200010B5044B9847044B9847044BBDE8104061
:100A3000184700BFFD09000069030000D909000044
:100A400010B5054C05491720A04723460449372017
:100A5000BDE81040184700BF4D0700000300170015
:100A600003003700064B4022C3F80C214A22C3F88A
:100A70008C20044A136A43F002031362704700BFDC
:100A8000001C00400008004010B5044B9847044B80
:100A90009847044BBDE81040184700BF650A0000A6
:100AA00005060000410A00000148024B184700BF3C
:100AB00010E000E0910E0000044A536943F48043C3
:100AC0005361034B4022C3F8A42070470008004044
:100AD000001C004010B5054B9847054B9847054949
:100AE000054B0246BDE8104004481847B90A00000B
:100AF000E51F0000003800405D0F0000541000208A
:100B0000044A536943F400435361034B4022C3F842
:100B1000A420704700080040001C004010B5054BA1
:100B20009847054B98470549054B0246BDE81040DC
:100B300004481847010B0000E51F0000003C00407E
:100B40005D0F000074110020044A936943F40053C0
:100B50009361034B4022C3F8E8207047000800402F
:100B6000001C004010B5054B9847054B98470549B8
:100B7000054B0246BDE8104004481847490B0000E9
:100B8000E51F000000A001415D0F00007010002073
:100B9000044A936943F400639361034B4022C3F812
:100BA000E420704700080040001C004010B5054BD1
:100BB0009847054B98470549054B0246BDE810404C
:100BC00004481847910B0000791B000000600141A8
:100BD0003510000094110020044A936943F48053B7
:100BE0009361034B4022C3F8E420704700080040A3
:100BF000001C004010B5054B9847054B9847054928
:100C0000054B0246BDE8104004481847D90B0000C8
:100C1000791B00000080014135100000DC1000202D
:100C2000044AD36943F00803D361034B4022C3F85D
:100C3000F420704700080040001C004010B5054B30
:100C40009847054B98470549054B0246BDE81040BB
:100C500004481847210C0000791B0000000C0042DA
:100C60003510000034110020044AD36943F010030A
:100C7000D361034B4022C3F8F420704700080040C2
:100C8000001C004010B5054B9847054B9847054997
:100C9000054B0246BDE8104004481847690C0000A7
:100CA000791B000000100042351000005411002094
:100CB000044A136A43F010031362034B4022C3F843
:100CC0001821704700080040001C004010B5054B7B
:100CD0009847054B98470549054B0246BDE810402B
:100CE00004481847B10C0000791B000000100043B5
:100CF00035100000A8100020024A536943F48073A5
:100D0000536170470008004010B5044B98470448F1
:100D1000044B0360BDE81040034B1847F90C00007A
:100D2000FC10002000200040492000002DE9F04187
:100D3000284B294C294F2A4E2A4D98472A4B984731
:100D40002A4B98472A4B98472A4B98472A4B984753
:100D50002A4B98472A4B98472A4B98472A4B984743
:100D60002A4B98472A4B98472A4B98472A4B984733
:100D7000A3694FF0400843F48043A361C7F8E880BB
:100D8000B047264902462648A847E36943F02003B6
:100D9000E361C7F8F880B047224902462248A847D5
:100DA000E36943EA0803E361C7F8F880B0471F49E5
:100DB00002461F48A8471F4B98471F4B98471F4B99
:100DC00098471F4B98471F4B98471F4BBDE8F04172
:100DD000184700BF1512000000080040001C00402A
:100DE000DD1F000035100000F9070000BD080000FD
:100DF0000509000045090000690900008D0900008F
:100E0000B5090000890A0000210A0000A90A0000B3
:100E1000D50A00001D0B0000650B000000C0014159
:100E2000B4110020001400421411002000180042E8
:100E300034100020AD0B0000F50B00003D0C00004D
:100E4000850C0000CD0C0000090D0000004B184778
:100E500025110000004B1847D1110000EFF310835B
:100E6000036072B6BFF35F8F7047BFF35F8F036895
:100E700083F310887047000010B5044B0446984770
:100E800018B96060A060E060206110BDB112000080
:100E9000014B1860014B1847180100200119000090
:100EA000054B10B51C68054B9847054B014620467D
:100EB000BDE81040184700BF180100200D120000C7
:100EC00015190000004B1847691400000A4B30B494
:100ED0005D68012100228C18640801D030BC704785
:100EE000854204D11B68002BF8D030BC18472CBFBA
:100EF000FF210122EFE700BF1C010020044B054841
:100F000000214FF0FF3283E80600034B184700BF73
:100F10001C010020CD0E0000FD130000436903B149
:100F200018477047836903B11847704710B5044BE1
:100F30000446984718B9034B2360034B636010BD08
:100F40005D1500001D0F0000250F0000436903B16F
:100F500018477047836903B11847704710B5044BB1
:100F600004469847034B2360034B6360002010BD89
:100F7000191F00004D0F0000550F0000F0B5056867
:100F80001DB90F4BBDE8F0401847D1F808E02C46DA
:100F90000026C2F1010C6368A768934295BFDB1974
:100FA00063449B1ADB19734507D22368264613B99D
:100FB0003046044BE6E71C46EDE7A542F8D1E0E7F2
:100FC00051100000591000002DE9F0470669037E1A
:100FD00044690136DA070546066110D4037E9B0793
:100FE0000DD4DFF84880DFF8489000F1140724B1F1
:100FF0006368A268F31A934207D2BDE8F0872B7E9C
:1010000043F002032B76BDE8F0873846C047237CC7
:10101000012B04D16660324621463846C847D5F8D0
:1010200014A0E368204698475446E0E761100000AA
:101030007D0F000010B51368044640F8042B984754
:101040000020024B6061636010BD00BFC90F00004B
:1010500003680B600160704703680B6001607047B4
:1010600003680BB11A68026018467047531E1A4095
:1010700001BF43608260C26001600CBF10466FF028
:101080000C0070478368C2689A4209D042681340D6
:101090000268D35C0B708368013383600020704763
:1010A0006FF009007047C368426813400268D1546A
:1010B000C36881684268591A914288BF9A1A03F13D
:1010C000010388BF8260C36000207047C2688068E7
:1010D000101A7047C368836000207047036A0B4290
:1010E000FCD1704738B501210D4DA8470321A84711
:1010F0000478C4F3400484B90121A847037843F07D
:10110000010303700121A8474FF4C0630361047316
:10111000436144734480204638BD6FF0100038BDF1
:10112000DD1000000160014B08461847E510000083
:10113000036B0B42FCD1704708B50121034B984764
:1011400003889BB243F00103038008BD3111000006
:1011500000F13D40A0F5E050C0F38720431E584207
:101160005841704770B5174E0C460121B047032116
:10117000B0470588C5F340050DBB134B98470121C7
:10118000B0471249162303FB04118B88C3808B7967
:101190000372CB7983700B8983808B7A8372CB7ACD
:1011A000C3728B898381CB89C3810B8A03824B8A6B
:1011B00043820B7DC3704B880380284670BD6FF05F
:1011C000100070BD31110000391100000627000029
:1011D00010B5054B016008460A469847034B014687
:1011E000BDE810401046184751110000651100007D
:1011F0004309012200F01F0002FA00F04033024AC6
:1012000042F82300704700BF00E100E04BF6803356
:101210005843704710B50D4A0D4C13889BB213808C
:101220000C4B98470C4B98474FF40060A0470B4B72
:10123000984740F2FF70A047094A136943F40073CE
:101240001361BDE81040074B184700BF0040004144
:10125000C1140000DD15000051150000FD1500004F
:10126000000800400D13000083680B42FCD170475A
:1012700038B501210D4DA8470321A8470278C2F3D4
:1012800040027AB90121A847037843F001030370B3
:101290000121A8470123427082708281C2810376B6
:1012A000104638BD6FF0030038BD00BF6912000062
:1012B0000160014B084618477112000010B4114B31
:1012C000114C198C01F01F0103EB01130C224A434E
:1012D00093F84E10C90704EB020006D5012283F8EB
:1012E0004E2043685DF8044B184793F84E10890769
:1012F00004D5022183F84E10A358F3E75DF8044BA0
:10130000704700BF00A000413001002030B52E4BD7
:101310001A8822F002021204120C1A805A8822F44F
:101320007C521204120C5A801A8892B242F00102C6
:101330001A801A8812F00102FBD14FF470611980F3
:10134000597B224801F0FE01597300F500715A6182
:10135000586399631E491346A0F5C0701C0104F13F
:10136000824202F520420D6815640D7982F84550DD
:101370004D7982F8465004440133CA88A4F880218C
:10138000202B01F10801E9D11F22012053099B0004
:1013900003F1604302F01F0103F5614300FA01F11C
:1013A000C3F88010BFF34F8FBFF36F8F0132242A31
:1013B000C3F880111960E9D1034A13889BB243F046
:1013C00002031380002030BD00A00041B0020020C5
:1013D00034270000004B1847BD120000004B18478F
:1013E000BD120000004B1847BD120000004B18470B
:1013F000BD120000004B1847BD120000194A1346E9
:101400005168C907FCD45A689007FCD11B7899072A
:1014100025D4144B19465A68D207FCD41A7842F0E6
:1014200001021A704B68DB07FCD40E4B5A6812F0AD
:101430000302FBD1197801F0EF0119705A709A601C
:101440009A611A635A63DA611A62064B586810F09F
:101450000300FBD11A7842F002021A7070476FF055
:10146000100070470028004010B5124A124C0023AB
:10147000185D03F148010133432B42F82100F7D1F5
:101480000E48002200F14004D30003F1824303F52B
:10149000604330F81210196214F8221083F82510F6
:1014A0000132C943C9B2202A83F82410ECD10020AC
:1014B00010BD00BF00E00041342800007828000083
:1014C000C10742BF1D4B1E4A1A62820742BF1B4B17
:1014D0001C4A5A62430742BF184B194A9A620107D5
:1014E00042BF164B164ADA62C20642BF134B144A79
:1014F0001A63830642BF114B114A5A63410642BF29
:101500000E4B0F4A9A63020642BF0C4B0C4ADA6339
:10151000C30542BF094B0A4A1A64810542BF074B03
:10152000074A5A64420542BF044B074A9A640305BE
:1015300042BF024B054ADA64704700BF001C0040FE
:10154000062B010006230100052B0100053B0100CD
:10155000014B01225A7170470008004001610B885D
:1015600023F0C0039B049B0C0B800D4B18600D4BAC
:101570004FF00051C3F88010BFF34F8FBFF36F8F50
:101580004FF08042C3F88020BFF34F8FBFF36F8FBF
:101590000020C3F88011C3F8802119601A607047D9
:1015A000B006002000E100E0094B186803691A8AC0
:1015B000D20704D501221A82036843B118471A8A58
:1015C00092B222B140F25E221A824368F5E7704778
:1015D000B0060020004B1847A9150000064B42F248
:1015E0004E029A8201229A75DA75DA68D207FCD522
:1015F00005221A74704700BF00140040244A136A81
:1016000023F00F0343F004031362224B00221A77E6
:10161000214A9A6293F82C2012F01002FAD183F832
:1016200020201C4A134692F82C104907FBD4422173
:10163000117793F82C209207FBD45A6A5A62154B03
:101640001A4693F82C100807FBD4822183F8201047
:1016500092F82C305907FBD492F820300D4A13F041
:10166000010F10D0136903F41063B3F5106FF9D1B3
:10167000074A5368002BFCD1136A23F00F0343F091
:101680000603136270471369DB05FCD5F0E700BF62
:10169000001C0040001000400000010407B50C4A87
:1016A0009378DBB20193019B990707D5094B1B681F
:1016B00023B15068984703B05DF804FB019BDB073A
:1016C000F9D5044B5B68002BF5D0014AF1E700BF68
:1016D00000000241D4110020002808DB4209012348
:1016E00000F01F0003FA00F0014B43F8220070479E
:1016F00000E100E000280DDB4309012200F01F009B
:1017000002FA00F02033044A42F82300BFF34F8F5F
:10171000BFF36F8F704700BF00E100E0002809DBD6
:101720004309012200F01F0002FA00F06033024A70
:1017300042F82300704700BF00E100E0C3690B429C
:10174000FCD1704708B50321024B98470068C0F3ED
:10175000400008BD3D17000070B50B4D06460FCD8B
:1017600086B06C460FC495E8030084E803000020AF
:101770005DF82030B34202D1C0B206B070BD013076
:101780000628F5D10020F8E73829000038B5254BA8
:101790000446984703283ED004283ED0052814BFAD
:1017A00000220222204601211F4DA84720461F4B40
:1017B0009847002833D120460121A847236843F0E9
:1017C0000103236020460121A8471949182303FB80
:1017D0000213D8691D6A206065605D6AA56010F417
:1017E000C04F1BBFA0891D8D1B8D65F30C001FBF53
:1017F000A08193F82A00A38960F34F33A3811823B3
:1018000003FB0212002092F82B30A37392F82C30C5
:1018100084F8303038BD0022C4E70122C2E76FF0FF
:10182000100038BD591700003D1700004517000093
:101830003829000008B5034B984780002E3000F08F
:10184000FE0008BD5917000070B50C4B064608464F
:101850000C469847054670B9094BB4612046984735
:101860000230C1B20846074B9847074B08469847D5
:10187000064B08469847284670BD00BF8D170000EC
:1018800035180000F51600001D170000D9160000DD
:10189000826908B50321044B10469847136843F04A
:1018A0000203136008BD00BF3D1700008369996201
:1018B00070478369986AC0B270478369187E00F0E8
:1018C000010070478369187EC0F38000704711F0F3
:1018D000FD0F09D183690221012012B9187519750C
:1018E0007047987599757047012904D1836904215F
:1018F000002AF7D1F3E70329F5D183698021F7E7BF
:10190000034B6FF07F425A6005221A60704700BF98
:1019100010E000E00B0E0C4A30B5D8B26FF07F44F7
:101920000138C0B2FF2808D1A3EB0363194451600A
:1019300091601368DB03FCD530BD5460946015687A
:10194000ED03FCD5ECE700BF10E000E000280DDB64
:101950004309012200F01F0002FA00F02033044A7C
:1019600042F82300BFF34F8FBFF36F8F704700BF64
:1019700000E100E0C36819647047C368186C7047E1
:10198000C268D16AC90703D50121D162036818472B
:101990007047000070B50B4D06460FCD86B001AC08
:1019A0000FC42B682360002001AB53F82020B24203
:1019B00002D1C0B206B070BD01300528F5D10020BB
:1019C000F8E700BFB0290000C3689A689207FCD10D
:1019D0001A6842F002021A607047000038B50546E6
:1019E000364B08460C46984738B1012805D00228E6
:1019F00003D0032801D0042841D143B2EC60A2688F
:101A0000D207FCD4A2689107FCD12268920751D476
:101A1000A268D107FCD4226842F001022260A268C9
:101A2000D207FCD4264A242101FB032399692160B3
:101A3000197F6171597FA177196A5B6A21622364FA
:101A40000123A3621F4B9C421CD11F4B1D60042825
:101A500096BF8018892190F8C8101C4B08469847FB
:101A600001F01F024909890001F1604101F561415E
:101A700001239340C1F8803100200B6038BD4FF046
:101A8000FF33BBE7124B9C4202D10F4B5D60DEE798
:101A9000104B9C4202D10C4B9D60D8E70E4B9C42F0
:101AA00002D1094BDD60D2E70C4B9C4204BF064BD0
:101AB0001D61CCE76FF0100038BD00BF9519000024
:101AC000B029000000600141B40600204D1900005B
:101AD00000800141000C0042001000420010004351
:101AE000C3689A689207FCD11A6822F002021A6051
:101AF0007047C3689A689207FCD11868C0F3400029
:101B000070470000074BC06810B5984704289BBF7A
:101B1000054BC018892090F8C800044BBDE8104060
:101B2000184700BF95190000B0290000F11100000E
:101B300010B5C4680D4B2046984704289BBF0C4B3A
:101B4000C018892090F8C8000A4B9847A3689A07E4
:101B5000FCD1236823F002032360A368DB07FCD4D5
:101B6000236843F00103236010BD00BF95190000F6
:101B7000B02900004D1900000048704738000020CF
:101B8000014B1868014B1847B4060020811900006A
:101B9000014B5868014B1847B4060020811900001A
:101BA000014B9868014B1847B406002081190000CA
:101BB000014BD868014B1847B4060020811900007A
:101BC000014B1869014B1847B40600208119000029
:101BD00000280DDB4309012200F01F0002FA00F08B
:101BE0002033044A42F82300BFF34F8FBFF36F8FB7
:101BF000704700BF00E100E003690B42FCD1704771
:101C000008B50121034B9847036843F001030360C3
:101C100008BD00BFF91B000008B50321024B98471F
:101C20000068C0F3400008BDF91B000008B503219F
:101C3000034B9847036823F00203036008BD00BF0D
:101C4000F91B0000C26808B50321044B10469847F1
:101C5000136843F00203136008BD00BFF91B0000C6
:101C6000C068014B184700BF2D1C0000C3681A68EC
:101C7000C2F38102022A01D1D96170471A6812F0B9
:101C80000C0F02D189B2998370471A68C2F381029E
:101C9000012A04BFC9B2D9767047C3681A68C2F373
:101CA0008102022A01D1D86970471A6812F00C0F1C
:101CB00002D1988B80B270471A68C2F38102012A60
:101CC00006BFD87EC0B2002070470000C068014B3C
:101CD000184700BF191C0000C268917AC90703D5D4
:101CE0000121917203681847704770B50569AB7A96
:101CF000DA07044604D50123AB72036803B19847A1
:101D00006B7A9B0707D50223AB7263681BB1204631
:101D1000BDE87040184770BD114B984207D1114B78
:101D20001960114B984204BF0E4B596170470F4B1D
:101D3000984202D10B4B5960F3E70D4B984202D108
:101D4000084B996070470B4B984202D1054BD96004
:101D50007047094B9842E4D1024B1961704700BFAC
:101D600000380040C806002000180042003C004037
:101D700000A0014100C001410014004270B5134DA4
:101D800006460FCD86B06C460FC495E8030084E884
:101D9000030000235DF82320B2420BD1DBB20C4AD2
:101DA0000020142101FB00F4A45C9C4207D140B246
:101DB00006B070BD0133062BECD10023EFE70130F4
:101DC0000628EFD14FF0FF30F2E700BF802A000075
:101DD000580000202DE9F0412E4B074608460C46DE
:101DE0009847FC600646012120462B4A9047204632
:101DF0002A4B9847002848D1294B20469847012173
:101E0000204690472749142303FB061388465A6847
:101E10002260987AE0731889E08002F00C020120B9
:101E2000082A207322D1DA68E2611B692362012546
:101E3000394620461C4B65729847142303FB0686DF
:101E40001A4BB6F902100846984700290BDB01F03F
:101E50001F034909890001F1604101F561419D407D
:101E6000C1F880510D600020BDE8F08122B99A8947
:101E7000A2831B8AE383DAE7042AD8D11A7B22776C
:101E80001A7C6277DB7AE376D1E76FF01000BDE869
:101E9000F08100BF7D1D0000F91B0000191C00002F
:101EA000011C000058000020191D0000D11B00007B
:101EB00010B5C468094B20469847094A142303FB10
:101EC0000020084BB0F9020098472046064B98477F
:101ED0002046064BBDE81040184700BF7D1D00009E
:101EE00058000020D11B00002D1C0000011C000028
:101EF00010B5064BC0689847054A142303FB002021
:101F0000BDE810408078034B184700BF7D1D0000DE
:101F100058000020F1110000F8B5294B064608468C
:101F20000C4698473461054601212046254A9047D2
:101F30002046254B984700283CD1244B244F20466F
:101F40009847204601219047142303FB05735A68E4
:101F50002260987AE0731889E08002F00C02032076
:101F6000082A207320D1DA68E2611B6923623146B6
:101F70002046184B9847142303FB0575164BB5F9FB
:101F800002100846984700290CDB01F01F0249099E
:101F9000890001F1604101F5614101239340C1F8DD
:101FA00080310B600020F8BD3AB99A89A2831B8A60
:101FB000E383DCE76FF01000F8BD4FF0FF30F8BDB1
:101FC0007D1D0000F91B0000191C0000011C000011
:101FD00058000020191D0000D11B00000048704768
:101FE000D000002000207047014B1868014B1847B3
:101FF000C8060020EB1C0000014B5868014B184735
:10200000C8060020EB1C0000014B9868014B1847E4
:10201000C8060020EB1C0000014BD868014B184794
:10202000C8060020D91C0000014B1869014B184755
:10203000C8060020D91C0000014B5869014B184705
:10204000C8060020D91C000003689A6812F00E0F21
:10205000FBD11A78D20913D19A6812F00E0FFBD176
:102060001A7892070CD4986810F00E00FBD11A78F9
:1020700002F0FB021A705A7802F0F0025A707047B0
:102080006FF010007047000070B5104B104C114DF0
:10209000114E012098474FF4FA60A84732220021E0
:1020A00020460E4B984732460D4B2146012098475B
:1020B000317820460B4CA0470B480221A0472B4605
:1020C00040F6B830BDE87040184700BF3503000047
:1020D000F0110020A10E0000E4110020D123000027
:1020E0004D030000310600009325000008B5034BA6
:1020F000034C9847034B9847A047FDE7C9060000EB
:10210000892000002105000043684B609A688A60BE
:102110009A685160996003680861013303607047F1
:102120004168826803698A608268516059688842A0
:1021300008BF5A60002202611A68013A1A601868E2
:1021400070470000000000000000000000000000D8
:10215000074B19680868B0E8F04F80F30988BFF3AF
:102160006F8F4FF0000080F311887047AFF300804D
:1021700050070020000000000000000000000000E8
:10218000EFF30980BFF36F8F154B1A681EF0100F25
:1021900008BF20ED108A20E9F04F10602DE90900FA
:1021A0004FF0800080F31188BFF34F8FBFF36F8F24
:1021B00000F0B6F84FF0000080F3118809BC1968F0
:1021C0000868B0E8F04F1EF0100F08BFB0EC108A9E
:1021D00080F30988BFF36F8F704700BFAFF30080B3
:1021E0005007002008B54FF0800383F31188BFF338
:1021F0006F8FBFF34F8F054B984718B1044B4FF0CB
:1022000080521A60002383F3118808BD3522000034
:1022100004ED00E0064B5A6E12681AB94FF0FF3217
:102220009A6670475A6ED268D2685268F8E700BF63
:10223000E00600202DE9F84F354BD3F8D8201C4696
:10224000002A3DD1DE6E0136DE66C6B95B6E1B68C4
:1022500043B14FF0800383F31188BFF36F8FBFF357
:102260004F8FFEE7636ED4F888206266C4F888302A
:10227000D4F8E0300133C4F8E030264B9847A36E21
:102280009E424FF000050BD3DFF88C80DFF88CB056
:102290004FF0140A636E1B68CBB94FF0FF33A3668F
:1022A000236FDA6A14235343E358022B28BF012516
:1022B000D4F8E830002B18BF01252846BDE8F88F78
:1022C000D3F8E4300133C4F8E4300025F0E7636E5E
:1022D000DB68DF687B689E42E1D307F1040948466A
:1022E000C047BB6A13B107F11800C047F86AD4F8B9
:1022F000D430984288BFC4F8D40049460AFB004055
:10230000D847236FFA6ADB6A9A4228BF0125C1E7E2
:10231000E006002015220000212100000921000014
:10232000184AD2F8D81030B5134619B10123C2F8B3
:10233000E83030BDC2F8E810D2F8D410142505FBFF
:1023400001F298189C588CB1446808326468446063
:102350001A44944204BF62684260142202FB0132B4
:102360005268D2681A67C3F8D41030BD41B94FF033
:10237000800383F31188BFF36F8FBFF34F8FFEE7A6
:102380000139DCE7E006002070B50D4E0D4CA41BB2
:10239000A4100025A54209D10B4E0C4C00F07CFB8B
:1023A000A41BA4100025A54205D170BD56F8253008
:1023B00098470135EEE756F8253098470135F2E7A2
:1023C000A42A0000A42A0000A42A0000A82A0000D1
:1023D00002440346934200D1704703F8011BF9E71A
:1023E000034611F8012B03F8012B002AF9D170479D
:1023F000000502009625000003000000D102000045
:1024000009000000010A0F009A25000008000000E2
:10241000D10200001F000000020B0300A3250000F2
:102420000C000000D102000014000000030E0600A2
:10243000B025000008000000D10200001D000000CF
:1024400004070500B925000008000000D1020000C3
:102450001E000000050A0100C32500000A0000005C
:10246000D10200001C00000006070E00CE2500006F
:102470000A000000D1020000260000000700020050
:10248000D925000005000000D10200000400000072
:10249000000000000000000000000000000000003C
:1024A000000000000000000000000000000000002C
:1024B000000000000000000000000000000000001C
:1024C000000000000000000000000000000000000C
:1024D00000000000000000000000000000000000FC
:1024E00000000000000000000000000000000000EC
:1024F00000000000000000000000000000000000DC
:1025000000000000000000000000000000000000CB
:1025100000000000000000000000000000000000BB
:1025200000000000000000000000000000000000AB
:10253000000000000000000000000000000000009B
:10254000000000000000000000000000000000008B
:10255000000000000000000000000000000000007B
:10256000000000000000000000000000000000006B
:10257000000000000000000000000000000000005B
:1025800050726F626C656D20696E20506172736964
:102590006E67200D0A0041540D0041542B434753F0
:1025A0004E0D0041542B57434152524945520D00A4
:1025B00041542B4950523F0D0041542B4350494E3A
:1025C0003F0D0041542B43475245473F0D004154B6
:1025D0002B4B47534E3D330D00415445310D004DBB
:1025E0004F44454D204441544120554152542028E8
:1025F000534552434F4D332920696E697469616CAC
:10260000697A65640D0A00534552434F4D33206E7D
:102610006F7420696E697469616C697A65640D0A0A
:10262000004D6F64656D20446174612054782044CE
:102630006174612052656720456D70747920436133
:102640006C6C4261636B0D0A004D6F64656D2044D4
:10265000617461205478206279746520436F6D70D5
:102660006C6574652043616C6C6261636B0D0A007C
:10267000506F776572204F6E2057616974205469DE
:102680006D657220457870697265640D0A004D6F42
:1026900064656D20506F776572204F6E20696E699A
:1026A0007469616C697A6174696F6E20436F6D70D3
:1026B0006C657465640D0A00506F7765724F6E57D4
:1026C00061697454696D6572004D6F64656D204673
:1026D000756C6C79204F7065726174696F6E616C96
:1026E0002E0D0A0054782073657269616C20446570
:1026F00062756720446F6E650D0A00527820446F42
:102700006E650D0A00000000C00002008300001981
:1027100000000000000000000000010001000000B7
:1027200000000000000000000000000000000000A9
:102730000000000000000000000000000000000099
:102740000000000000000000000000000000000089
:102750000000000000000000000000000000000079
:1029300000000000000000000030004000340040B3
:102940000020014100400141000000430004004319
:10295000030000000400204000000300020070009B
:102960002BF600000000000004000000840130404D
:1029700000030300020070002EFF000000000000B2
:102980000500000004003040000003000200700059
:102990002BF6000000000000000000000000000016
:1029A0000000000000000000000000000000000027
:1029B0000060014100800141000C00420010004213
:1029C00000100043000000000003000000000000B1
:1029D0000000000070170000000000000000000070
:1029E00000000000000000000100000000030000E3
:1029F0000000000000000000701700000000000050
:102A000000000000000000000000000002000000C4
:102A1000000300000000000000000000701700002C
:102A200000000000000000000000000000000000A6
:102A30000300000000030000000000000000000090
:102A400070170000000000000000000000000000FF
:102A5000000000000400000000030000000000006F
:102A600000000000701700000000000000000000DF
:102A70000000000000000000555C61656800000077
:102A800000380040003C004000A0014100C001416E
:102A90000014004200180042F8B500BFF8BC08BCA2
:102AA0009E46704789020000F8B500BFF8BC08BC1C
:082AB0009E467047650200001C
:102AB800000000000000000000000000000000000E
:102AC800000000000000000000400141F90500007E
:102AD8000000000059060000FF050000000000008B
:102AE8000000000000040043DD190000311B000055
:102AF800C9190000E11A0000751900007B190000CF
:102B0800F31A0000051B000000006B000000000025
:102B1800000000327FBB0000BF5D000001006C00B8
:102B280000000000000000327FBB0000BF5D000015
:102B380002006D0000000000000000327FBB0000B2
:102B4800BF5D000003006E000803000000000000E5
:102B5800701700000000000004006F000803000068
:102B68000000000070170000000000000500700061
:102B780008030000000000007017000000000000BB
:102B8800D51D0000B11E0000451C0000611C00009E
:102B98006D1C00009B1C0000CD1C0000F11E0000F5
:00000001FF
