S00E000053414D4435312E737265638B
S113000080150120350D0000310D0000310D000078
S1130010310D0000310D0000310D00000000000022
S11300200000000000000000000000008127000024
S1130030310D000000000000B12700001528000069
S1130040310D0000310D0000310D0000310D0000B4
S1130050310D0000310D0000310D0000310D0000A4
S1130060310D0000310D0000310D0000310D000094
S1130070310D0000310D0000310D0000310D000084
S1130080310D0000310D0000310D0000310D000074
S1130090310D0000310D0000310D0000310D000064
S11300A0310D0000310D0000310D0000310D000054
S11300B0310D0000511C0000251C0000511A0000E5
S11300C0591A0000611A0000691A0000711A000030
S11300D0310D0000310D0000310D0000310D000024
S11300E0310D0000310D0000310D0000310D000014
S11300F000000000191D0000310D0000310D00004A
S1130100310D0000310D0000310D0000310D0000F3
S1130110310D0000310D0000310D0000310D0000E3
S1130120310D0000310D000091060000C1060000F1
S1130130F1060000310D0000310D0000310D00000A
S1130140310D0000310D0000310D0000310D0000B3
S1130150D50C0000310D000000000000000000007C
S1130160000000000000000000000000000000008B
S1130170000000000000000000000000000000007B
S1130180310D0000310D0000310D0000310D000073
S113019000000000FD210000310D0000310D0000C1
S11301A0310D0000310D0000310D0000310D000053
S11301B00D220000310D0000310D0000310D000052
S11301C0310D00001D220000310D0000310D000032
S11301D0310D00002D220000310D0000310D000012
S11301E03D220000310D0000310D000065260000A5
S11301F0752600008526000095260000A52600002F
S1130200B52600000000000000000000310D0000D1
S1130210310D0000310D0000310D0000310D0000E2
S1130220310D0000310D0000310D0000310D0000D2
S1130230310D0000310D0000310D0000310D0000C2
S1130240310D0000310D0000310D0000310D0000B2
S1130250310D0000310D0000310D0000310D0000A2
S11302600000000010B5054C237833B9044B13B1DA
S11302700448AFF300800123237010BD80010020E7
S1130280000000008C4400000C4B43B10C480D49A5
S113029010B5AFF300800C48036823B910BD0A48B9
S11302A0036833B97047094B002BF7D0BDE8104001
S11302B01847064B002BF5D0184700BF000000007C
S11302C08C440000840100208C44000000000000E5
S11302D07047000017282DE9F0410446104F02D161
S11302E002211048B847104B9847104A142303FBC7
S11302F004235D681E7A28463146B8470C480D4BE6
S11303009847314628460C4B98470C4B00221C70EA
S11303105A704FF47A700A4BBDE8F041184700BF99
S1130320410C00004939000095070000A03300008B
S1130330D2430000850C00002507000000000020C7
S113034001150000F8B5134C20781B2813D012496E
S113035014234343CA18CF5C104B5689D568984779
S113036050B12378BB4204D1F1B20D48A847012310
S113037063701B232370F8BD0A480B4DA8472378EC
S1130380172BF6D10948A8470948A847094B9847AD
S1130390EFE700BF00000020A03300001D040000B0
S11303A09C01002050380000850C000078380000C3
S11303B0B6380000B903000070B50920104E114C86
S11303C0114DB0474FF47A70A047A8471920B047A1
S11303D04FF47A70A047A8471A20B0474FF47A70B8
S11303E0A047A84740F6B830A047084B084C9847A8
S11303F00848A04723460848BDE87040184700BF96
S1130400D50200000115000045030000A507000007
S1130410850C0000E1380000073900002DE9F041A7
S11304202E4A142303FB0023ADF5307D1E8AD3F836
S113043004801C7A5D892A4B4FF42F7200210746F1
S113044001A89847314601A8264B98470646C8B1EB
S1130450172F2AD12448254B254C9847254B01A812
S1130460984781B201A8A04723480221A0474FF42E
S1130470FA70224B9847224B984730460DF5307D51
S1130480BDE8F081172FF6D11E48184CA0474FF451
S1130490FA701A4B98470221154B174898471A4887
S11304A0A0471A4B98470126E5E7224601A9404692
S11304B0174B984778B9023401AA164B52FA84F4C0
S11304C0421CC0B2A84202D300221A54D3E7215CD2
S11304D019541046F4E70026CDE700BFA03300000E
S11304E0692A00004D07000025390000850C000032
S11304F0410C0000672C0000493900000115000080
S1130500950700004C3900007C390000B903000055
S1130510772C00009C010020014B5870704700BFED
S11305200000002010B50378274C313B072B48D836
S1130530DFE803F0041D23292F353B41234B2448D6
S113054031225A74DA77A0472248A0471121224B5E
S1130550224898472248A0472249234B23480F2288
S1130560984723492148234BBDE810401847174BAF
S1130570214832225A74DA77E5E7144B1F483322B4
S11305805A74DA77DFE7114B1D4834225A74DA774C
S1130590D9E70E4B1B4835225A74DA77D3E70B4B55
S11305A0194836225A74DA77CDE7084B17483722B0
S11305B05A74DA77C7E7054B154838225A74DA7744
S11305C0C1E71448BFE700BF850C0000000000200D
S11305D099390000383A0000410C00000200002064
S11305E049390000130000209B2C0000580400200F
S11305F0503A0000392C0000A8390000B739000037
S1130600C6390000D5390000E4390000F339000090
S1130610023A0000113A000070B510491048114B1D
S1130620114D124C9847B8B94FF400621049114863
S1130630114B984780B90122114609480F4B98473E
S113064007480F4B98470F490F48A84723462821CE
S11306500D48BDE8704018470C49F5E700400141DA
S113066024000020C51E0000572C0000410C00008F
S1130670660B002068130020CD1600004B1F0000FD
S11306800D1F00003A3C000078130020623C00007B
S113069008B5064B064A074918469047064B2821D9
S11306A09847064B01221A7608BD00BF7813002034
S11306B0572C00007C3C0000410C0000004001412C
S11306C008B5064B064A074918469047064B2821A9
S11306D09847064B02221A7608BD00BF7813002003
S11306E0572C0000A43C0000410C000000400141D4
S11306F010B5074C0748A0470028FBD0064B054817
S11307009847064B0146BDE810400548184700BF0E
S1130710411F0000240000202F1F000007170000C5
S11307206813002070B5064C064B0E46054620465D
S11307309847324629462046034BBDE87040184787
S1130740240000200D1F0000B90B0000F7B50C4B6E
S113075004460C480D469847A8420AD301A80A4B00
S1130760084E0A4F98472544AC4204D101A8084BCF
S1130770984703B0F0BD21463046B8470134F3E74B
S11307802D17000068130020BD140000E5160000BA
S1130790CB1400000148024B184700BF6813002027
S11307A03517000070B50920224E234C234DB04765
S11307B04FF47A70A047A8474FF47A70A0470A20F4
S11307C0B0474FF47A70A047A8474FF47A70A04717
S11307D01320B0474FF4FA60A047A8474FF4FA60DB
S11307E0A0471420B0474FF4FA60A047A8474FF43D
S11307F0FA60A0471520B0474FF4FA60A047A84715
S11308004FF4FA60A0470820B0474FF4FA60A047BD
S1130810A8474FF4FA60A0471620B0474FF4FA6097
S1130820A047A8474FF4FA60A047054BBDE87040C5
S1130830184700BFD5020000011500004503000061
S11308409507000010B50E4B0E4C9847012813D1A4
S11308500D4B1720984742F22830A0470B4B00203D
S113086098470B480B4B98470B4B98474FF4FA604B
S11308702346BDE81040184742F21070F8E700BF65
S1130880A10B000001150000D5020000AD0B000013
S11308908E3D0000850C000045030000C00100F1FE
S11308A0824000F500408BB28160090C43F0804324
S11308B041F04041836281627047000070B51D4C75
S11308C01D4A1E4E4FF480310120904794F8D030D9
S11308D04FF4803503F0FE0384F8D0304FF4002148
S11308E0C4F894500020904794F8533003F0FE036A
S11308F084F853304FF40023294663610020904765
S113090094F8503003F0FE0384F850304FF4FA703A
S11309106561B047C4F898503220B04740F6B8300B
S1130920B0470748074B292198470748074BBDE8BC
S113093070401847008000419D0800000115000028
S1130940EA3D0000410C000049390000850C00001C
S113095070B5074C05460E4606480F21A0473146A0
S11309602846A047234602210348BDE870401847A3
S1130970410C0000563E00004939000070B5074C98
S113098005460E4606481221A04731462846A04790
S1130990234602210348BDE870401847410C00007B
S11309A0663E0000493900002DE9F0410378144CFB
S11309B04F2B1FD1134B144F144D154E9847154808
S11309C0A0471920B8474FF47A70A847B0474FF4AE
S11309D0FA70A8471A20B8474FF47A70A847B0476E
S11309E04FF4FA70A8470C4B984723460B48BDE8D0
S11309F0F04118470A48A0470A48A047F5E700BF56
S1130A00850C0000410C0000D50200000115000017
S1130A1045030000783E00009507000049390000B6
S1130A20963E0000D13E000070B505460E46064CC9
S1130A300648A04728463146054B984723460548B3
S1130A40BDE87040184700BF850C00000C3F000053
S1130A50410C00004939000070B505460E46064CAD
S1130A600648A04728463146054B98472346054883
S1130A70BDE87040184700BF850C0000203F00000F
S1130A80410C00004939000070B505460E46064C7D
S1130A900648A04728463146054B98472346054853
S1130AA0BDE87040184700BF850C0000333F0000CC
S1130AB0410C00004939000070B504460E46084D4B
S1130AC00848A84731462046074B98470748A84797
S1130AD00748E37A0370BDE87040064B184700BF2F
S1130AE0850C0000483F0000410C0000493900001B
S1130AF0940400202505000070B505460E461448F0
S1130B00144CA04731462846134B98471348A04736
S1130B10284607221249134B134D984778B90126EA
S1130B2012486E70A0471021114B12489847124B7F
S1130B304FF47A709847114B9847AE7070BD0023FC
S1130B406B70AB700E482346BDE87040184700BF79
S1130B505C3F0000850C0000410C00004939000096
S1130B60743F0000012A0000940400207C3F000030
S1130B70250700000C3C000001150000950700004B
S1130B808F3F000008B50348034B9847034B0122ED
S1130B909A7008BDD2430000850C00009404002024
S1130BA0014B9878704700BF94040020014B987063
S1130BB0704700BF940400202DE9F0470F4C06460F
S1130BC00D461746A1463046A0470028FBD0DFF863
S1130BD03080DFF830A0013D00246B7804F8083041
S1130BE0304615F8011FD0473046C8470028FBD0CF
S1130BF00134BC42F1D32046BDE8F087371F000022
S1130C0097040020291F00000223037670478023E5
S1130C100376704710B5064C0649074B20469847A3
S1130C20012220461146054BBDE81040184700BF7D
S1130C304000002000040043C51E00004B1F0000BC
S1130C4070B5064C064B0E4605462046984732467C
S1130C5029462046034BBDE8704018474000002059
S1130C600D1F0000B90B000010B5044B04461621FB
S1130C70034898470123237610BD00BF410C0000B0
S1130C80C23F000010B59AB004466422002101A8B6
S1130C90094B984722460949094B0A4C01A8A04729
S1130CA001A8094B9847094B81B201A89847FA203B
S1130CB0074B98471AB010BD692A0000E33F0000B3
S1130CC049390000F12B0000672C0000410C0000A2
S1130CD0011500000C4B10B504220C4C1A760C487C
S1130CE0A0470028FBD00B4B094898470A4900232A
S1130CF008704B7009480A4B984705210748094B6F
S1130D00BDE81040184700BF00040043411F000025
S1130D10400000202F1F0000B8130020BA13002049
S1130D20572C0000410C0000004B18478D130000A5
S1130D30FEE7000008B5144A144B9A4218D1144B2C
S1130D40144A002193421CD3134A144B22F07F020D
S1130D509A60D3F8882042F47002C3F88820BFF365
S1130D604F8FBFF36F8F0E4B98470E4B9847FEE79C
S1130D700D49043A8B42E2D252F8040F43F8040BB3
S1130D80F8E743F8041BDDE78C4400000000002072
S1130D9080010020801500200000000000ED00E02C
S1130DA0B9290000052700007801002030B54A1C4D
S1130DB0C4B2C0F34712164804F01F0300EBC2107C
S1130DC007D1184490F8403003F0FE0380F8403017
S1130DD030BDC5185B0895F8402002F0FE021844A7
S1130DE042F0010285F8402090F8303014F0010FF1
S1130DF019BF03F00F0343EA011101F00F0103F0DF
S1130E00F00314BFC9B2194380F8301030BD00BFDD
S1130E100080004100F01F024009C00100F182403F
S1130E2000F500400123934043609AB21B0C42F04A
S1130E30804243F04043826283627047044AD3692C
S1130E4043F48073D361034B4022C3F800217047FD
S1130E5000080040001C004010B5044B98470449AA
S1130E600448054BBDE81040184700BF3D0E000084
S1130E700020004260140020AD14000070B5022070
S1130E80154D164CA84716490220A0470320A84731
S1130E9014490320A0472820A84713492820A04725
S1130EA02920A84711492920A0470420A847104910
S1130EB00420A0470520A8470E490520A047062086
S1130EC0A8470D490620A0470720A84723460B49F9
S1130ED00720BDE870401847150E0000AD0D000056
S1130EE001000200010003000100280001002900A4
S1130EF001000400010005000100060001000700D4
S1130F00044A136A43F080031362034B4122C3F87B
S1130F102021704700080040001C004010B5054B1C
S1130F209847054B9847002204490548054BBDE8FE
S1130F3010401847010F00007D0E0000001C004304
S1130F4070140020B5140000044A136A43F480733B
S1130F501362034B4022C3F8242170470008004069
S1130F60001C004010B5044B984700220349044874
S1130F70044BBDE810401847490F0000002000430F
S1130F8028150020B5140000044A136A43F40073C2
S1130F901362034B4022C3F8282170470008004025
S1130FA0001C004010B5044B984704490448054B05
S1130FB0BDE81040184700BF890F0000002400431B
S1130FC098140020D9140000054B4022C3F8902047
S1130FD0044A536943F480635361034B184700BFC9
S1130FE0001C0040000800405D150000034A93699E
S1130FF043F080039361024B184700BF0008004090
S113100025150000024A136943F040031361704739
S11310100008004010B5044B984704490448054BA8
S1131020BDE81040184700BF051000000040004113
S1131030241400208D15000010B5054C054911201D
S1131040A047234604491220BDE81040184700BFBA
S1131050AD0D00000300110003001200064B4022F6
S1131060C3F8E0204A22C3F88C20044A936943F46D
S113107080639361704700BF001C0040000800407B
S113108010B5044B9847044B9847044BBDE81040F7
S1131090184700BF5D100000190600003910000059
S11310A010B5054C05491720A047234604493720AD
S11310B0BDE81040184700BFAD0D00000300170045
S11310C003003700064B4022C3F80C214A22C3F820
S11310D08C20044A136A43F002031362704700BF72
S11310E0001C00400008004010B5044B9847044B16
S11310F09847044BBDE81040184700BFC5100000D6
S1131100150C0000A11000000148024B184700BF55
S113111010E000E0F1140000044A536943F48043F2
S11311205361034B4022C3F8A420704700080040D9
S1131130001C004010B5054B9847054B98470549DE
S1131140054B0246BDE81040044818471911000039
S11311506126000000380040BD150000EC1300209B
S1131160044A536943F400435361034B4022C3F8D8
S1131170A420704700080040001C004010B5054B37
S11311809847054B98470549054B0246BDE8104072
S1131190044818476111000061260000003C00402B
S11311A0BD1500000C150020044A936943F4005354
S11311B09361034B4022C3F8E820704700080040C5
S11311C0001C004010B5054B9847054B984705494E
S11311D0054B0246BDE8104004481847A911000019
S11311E06126000000A00141BD1500000814002084
S11311F0044A936943F400639361034B4022C3F8A8
S1131200E420704700080040001C004010B5054B66
S11312109847054B98470549054B0246BDE81040E1
S113122004481847F1110000F52100000060014155
S1131230951600002C150020044A936943F480534A
S11312409361034B4022C3F8E42070470008004038
S1131250001C004010B5054B9847054B98470549BD
S1131260054B0246BDE810400448184739120000F7
S1131270F52100000080014195160000741400203F
S1131280044AD36943F00803D361034B4022C3F8F3
S1131290F420704700080040001C004010B5054BC6
S11312A09847054B98470549054B0246BDE8104051
S11312B00448184781120000F5210000000C004288
S11312C095160000CC140020044AD36943F010039F
S11312D0D361034B4022C3F8F42070470008004058
S11312E0001C004010B5054B9847054B984705492D
S11312F0054B0246BDE8104004481847C9120000D7
S1131300F52100000010004295160000EC140020A6
S1131310044A136A43F010031362034B4022C3F8D8
S11313201821704700080040001C004010B5054B10
S11313309847054B98470549054B0246BDE81040C0
S11313400448184711130000F52100000010004361
S11313509516000040140020024A536943F4807338
S1131360536170470008004010B5044B9847044887
S1131370044B0360BDE81040034B184759130000A9
S11313809414002000200040C52600002DE9F041FF
S1131390284B294C294F2A4E2A4D98472A4B9847C7
S11313A02A4B98472A4B98472A4B98472A4B9847E9
S11313B02A4B98472A4B98472A4B98472A4B9847D9
S11313C02A4B98472A4B98472A4B98472A4B9847C9
S11313D0A3694FF0400843F48043A361C7F8E88051
S11313E0B047264902462648A847E36943F020034C
S11313F0E361C7F8F880B047224902462248A8476B
S1131400E36943EA0803E361C7F8F880B0471F497A
S113141002461F48A8471F4B98471F4B98471F4B2E
S113142098471F4B98471F4B98471F4BBDE8F04107
S1131430184700BF9118000000080040001C00403D
S11314405926000095160000590E00001D0F0000DB
S1131450650F0000A50F0000C90F0000ED0F00008C
S113146015100000E91000008110000009110000AF
S1131470351100007D110000C511000000C00141BC
S11314804C15002000140042AC1400200018004247
S1131490CC1300200D120000551200009D12000014
S11314A0E51200002D13000069130000004B1847DB
S11314B0A1170000004B18474D180000EFF31083EC
S11314C0036072B6BFF35F8F7047BFF35F8F03682B
S11314D083F310887047000010B5044B0446984706
S11314E018B96060A060E060206110BD2D19000093
S11314F0014B1860014B1847A40400207D1F000015
S1131500054B10B51C68054B9847054B0146204612
S1131510BDE81040184700BFA4040020891800004B
S1131520911F0000004B1847E51A00000A4B30B425
S11315305D68012100228C18640801D030BC70471A
S1131540854204D11B68002BF8D030BC18472CBF4F
S1131550FF210122EFE700BFA8040020044B054847
S113156000214FF0FF3283E80600034B184700BF09
S1131570A80400202D150000791A0000436903B166
S113158018477047836903B11847704710B5044B77
S11315900446984718B9034B2360034B636010BD9E
S11315A0D91B00007D15000085150000436903B1B7
S11315B018477047836903B11847704710B5044B47
S11315C004469847034B2360034B6360002010BD1F
S11315D095250000AD150000B5150000F0B50568AF
S11315E01DB90F4BBDE8F0401847D1F808E02C4670
S11315F00026C2F1010C6368A768934295BFDB190A
S113160063449B1ADB19734507D22368264613B932
S11316103046044BE6E71C46EDE7A542F8D1E0E787
S1131620B1160000B91600002DE9F0470669037EE3
S113163044690136DA070546066110D4037E9B0728
S11316400DD4DFF84880DFF8489000F1140724B186
S11316506368A268F31A934207D2BDE8F0872B7E31
S113166043F002032B76BDE8F0873846C047237C5D
S1131670012B04D16660324621463846C847D5F866
S113168014A0E368204698475446E0E7C1160000DA
S1131690DD15000010B51368044640F8042B984784
S11316A00020024B6061636010BD00BF291600007A
S11316B003680B600160704703680B60016070474A
S11316C003680BB11A68026018467047531E1A402B
S11316D001BF43608260C26001600CBF10466FF0BE
S11316E00C0070478368C2689A4209D0426813406C
S11316F00268D35C0B7083680133836000207047F9
S11317006FF009007047C368426813400268D154FF
S1131710C36881684268591A914288BF9A1A03F1D2
S1131720010388BF8260C36000207047C26880687C
S1131730101A7047C368836000207047044B19680F
S1131740024609B903491960186802441A607047CF
S1131750B004002080150120036A0B42FCD17047BD
S113176038B501210D4DA8470321A8470478C4F3D7
S1131770400484B90121A847037843F001030370AE
S11317800121A8474FF4C0630361047343614473A8
S11317904480204638BD6FF0100038BD5917000052
S11317A00160014B0846184761170000036B0B42A8
S11317B0FCD1704708B50121034B984703889BB2BD
S11317C043F00103038008BDAD17000000F13D4064
S11317D0A0F5E050C0F38720431E5842584170479B
S11317E070B5174E0C460121B0470321B047058858
S11317F0C5F340050DBB134B98470121B04712496F
S1131800162303FB04118B88C3808B790372CB7975
S113181083700B8983808B7A8372CB7AC3728B89B2
S11318208381CB89C3810B8A03824B8A43820B7DDC
S1131830C3704B880380284670BD6FF0100070BDE4
S1131840AD170000B5170000EA3F000010B5054BC6
S1131850016008460A469847034B0146BDE810401C
S113186010461847CD170000E11700004309012274
S113187000F01F0002FA00F04033024A42F823004D
S1131880704700BF00E100E04BF6803358437047D7
S113189010B50D4A0D4C13889BB213800C4B98471E
S11318A00C4B98474FF40060A0470B4B984740F20D
S11318B0FF70A047094A136943F400731361BDE83C
S11318C01040074B184700BF004000413D1B00007B
S11318D0591C0000CD1B0000791C000000080040CA
S11318E08919000083680B42FCD1704738B5012187
S11318F00D4DA8470321A8470278C2F340027AB9E4
S11319000121A847037843F0010303700121A8478C
S11319100123427082708281C2810376104638BDF1
S11319206FF0030038BD00BFE51800000160014BF3
S113193008461847ED18000010B4114B114C198CCF
S113194001F01F0103EB01130C224A4393F84E10DC
S1131950C90704EB020006D5012283F84E20436830
S11319605DF8044B184793F84E10890704D50221FB
S113197083F84E10A358F3E75DF8044B704700BF9B
S113198000A00041C004002030B52E4B1A8822F07C
S113199002021204120C1A805A8822F47C52120495
S11319A0120C5A801A8892B242F001021A801A88E4
S11319B012F00102FBD14FF470611980597B224867
S11319C001F0FE01597300F500715A61586399637F
S11319D01E491346A0F5C0701C0104F1824202F5B1
S11319E020420D6815640D7982F845504D7982F8CE
S11319F0465004440133CA88A4F88021202B01F105
S1131A000801E9D11F22012053099B0003F160431F
S1131A1002F01F0103F5614300FA01F1C3F88010DD
S1131A20BFF34F8FBFF36F8F0132242AC3F88011A5
S1131A301960E9D1034A13889BB243F0020313806F
S1131A40002030BD00A000414006002018400000E6
S1131A50004B184739190000004B1847391900008A
S1131A60004B184739190000004B1847391900007A
S1131A70004B184739190000194A13465168C90721
S1131A80FCD45A689007FCD11B78990725D4144BD1
S1131A9019465A68D207FCD41A7842F001021A7027
S1131AA04B68DB07FCD40E4B5A6812F00302FBD1DF
S1131AB0197801F0EF0119705A709A609A611A63EB
S1131AC05A63DA611A62064B586810F00300FBD1BE
S1131AD01A7842F002021A7070476FF010007047D3
S1131AE00028004010B5124A124C0023185D03F17F
S1131AF048010133432B42F82100F7D10E4800225C
S1131B0000F14004D30003F1824303F5604330F84D
S1131B101210196214F8221083F825100132C943F7
S1131B20C9B2202A83F82410ECD1002010BD00BFD4
S1131B3000E00041184100005C410000C10742BFC1
S1131B401D4B1E4A1A62820742BF1B4B1C4A5A6233
S1131B50430742BF184B194A9A62010742BF164B0A
S1131B60164ADA62C20642BF134B144A1A6383064A
S1131B7042BF114B114A5A63410642BF0E4B0F4AF2
S1131B809A63020642BF0C4B0C4ADA63C30542BF98
S1131B90094B0A4A1A64810542BF074B074A5A6433
S1131BA0420542BF044B074A9A64030542BF024BF5
S1131BB0054ADA64704700BF001C0040062B010090
S1131BC006230100052B0100053B0100014B012206
S1131BD05A7170470008004001610B8823F0C0036C
S1131BE09B049B0C0B800D4B18600D4B4FF0005168
S1131BF0C3F88010BFF34F8FBFF36F8F4FF0804255
S1131C00C3F88020BFF34F8FBFF36F8F0020C3F85A
S1131C108011C3F8802119601A607047400A0020BF
S1131C2000E100E0094B186803691A8AD20704D559
S1131C3001221A82036843B118471A8A92B222B168
S1131C4040F25E221A824368F5E77047400A00209A
S1131C50004B1847251C0000064B42F24E029A82A4
S1131C6001229A75DA75DA68D207FCD505221A744E
S1131C70704700BF00140040244A136A23F00F0386
S1131C8043F004031362224B00221A77214A9A621A
S1131C9093F82C2012F01002FAD183F820201C4A69
S1131CA0134692F82C104907FBD44221117793F87C
S1131CB02C209207FBD45A6A5A62154B1A4693F8A1
S1131CC02C100807FBD4822183F8201092F82C30C2
S1131CD05907FBD492F820300D4A13F0010F10D0AD
S1131CE0136903F41063B3F5106FF9D1074A53680D
S1131CF0002BFCD1136A23F00F0343F00603136295
S1131D0070471369DB05FCD5F0E700BF001C0040F9
S1131D10001000400000010407B50C4A9378DBB2C0
S1131D200193019B990707D5094B1B6823B15068A0
S1131D30984703B05DF804FB019BDB07F9D5044B1E
S1131D405B68002BF5D0014AF1E700BF00000241B7
S1131D506C150020002808DB4209012300F01F0055
S1131D6003FA00F0014B43F82200704700E100E061
S1131D7000280DDB4309012200F01F0002FA00F0E5
S1131D802033044A42F82300BFF34F8FBFF36F8F11
S1131D90704700BF00E100E0002809DB430901228D
S1131DA000F01F0002FA00F06033024A42F82300F8
S1131DB0704700BF00E100E0C3690B42FCD17047EB
S1131DC008B50321024B98470068C0F3400008BDE2
S1131DD0B91D000070B50B4D06460FCD86B06C469C
S1131DE00FC495E8030084E8030000205DF8203068
S1131DF0B34202D1C0B206B070BD01300628F5D19D
S1131E000020F8E71C42000038B5254B04469847EB
S1131E1003283ED004283ED0052814BF0022022205
S1131E20204601211F4DA84720461F4B98470028F4
S1131E3033D120460121A847236843F001032360DE
S1131E4020460121A8471949182303FB0213D86926
S1131E501D6A206065605D6AA56010F4C04F1BBFF9
S1131E60A0891D8D1B8D65F30C001FBFA08193F805
S1131E702A00A38960F34F33A381182303FB0212C2
S1131E80002092F82B30A37392F82C3084F8303071
S1131E9038BD0022C4E70122C2E76FF0100038BD4C
S1131EA0D51D0000B91D0000C11D00001C4200002A
S1131EB008B5034B984780002E3000F0FE0008BDA3
S1131EC0D51D000070B50C4B064608460C469847D5
S1131ED0054670B9094BB461204698470230C1B237
S1131EE00846074B9847074B08469847064B084651
S1131EF09847284670BD00BF091E0000B11E0000AF
S1131F00711D0000991D0000551D0000826908B56F
S1131F100321044B10469847136843F002031360EF
S1131F2008BD00BFB91D00008369996270478369C9
S1131F30986AC0B270478369187E00F00100704748
S1131F408369187EC0F38000704711F0FD0F09D13A
S1131F5083690221012012B91875197570479875A3
S1131F6099757047012904D183690421002AF7D1A6
S1131F70F3E70329F5D183698021F7E7034B6FF079
S1131F807F425A6005221A60704700BF10E000E0EB
S1131F900B0E0C4A30B5D8B26FF07F440138C0B292
S1131FA0FF2808D1A3EB03631944516091601368BF
S1131FB0DB03FCD530BD546094601568ED03FCD59B
S1131FC0ECE700BF10E000E000280DDB430901222C
S1131FD000F01F0002FA00F02033044A42F8230004
S1131FE0BFF34F8FBFF36F8F704700BF00E100E076
S1131FF0C36819647047C368186C7047C268D16AB3
S1132000C90703D50121D16203681847704700004E
S113201070B50B4D06460FCD86B001AC0FC42B68CE
S11320202360002001AB53F82020B24202D1C0B299
S113203006B070BD01300528F5D10020F8E700BFD7
S113204094420000C3689A689207FCD11A6842F06F
S113205002021A607047000038B50546364B084640
S11320600C46984738B1012805D0022803D003282C
S113207001D0042841D143B2EC60A268D207FCD459
S1132080A2689107FCD12268920751D4A268D107B3
S1132090FCD4226842F001022260A268D207FCD478
S11320A0264A242101FB032399692160197F617168
S11320B0597FA177196A5B6A216223640123A362B1
S11320C01F4B9C421CD11F4B1D60042896BF8018D7
S11320D0892190F8C8101C4B0846984701F01F024C
S11320E04909890001F1604101F5614101239340EF
S11320F0C1F8803100200B6038BD4FF0FF33BBE7DF
S1132100124B9C4202D10F4B5D60DEE7104B9C42A8
S113211002D10C4B9D60D8E70E4B9C4202D1094B77
S1132120DD60D2E70C4B9C4204BF064B1D61CCE73B
S11321306FF0100038BD00BF112000009442000071
S113214000600141440A0020C91F000000800141D1
S1132150000C00420010004200100043C3689A685B
S11321609207FCD11A6822F002021A607047C36811
S11321709A689207FCD11868C0F3400070470000C9
S1132180074BC06810B5984704289BBF054BC0187F
S1132190892090F8C800044BBDE81040184700BFE0
S11321A011200000944200006D18000010B5C468AE
S11321B00D4B2046984704289BBF0C4BC018892020
S11321C090F8C8000A4B9847A3689A07FCD1236883
S11321D023F002032360A368DB07FCD4236843F0E5
S11321E00103236010BD00BF1120000094420000D1
S11321F0C91F0000004870475C000020014B1868AC
S1132200014B1847440A0020FD1F0000014B586889
S1132210014B1847440A0020FD1F0000014B986839
S1132220014B1847440A0020FD1F0000014BD868E9
S1132230014B1847440A0020FD1F0000014B186998
S1132240014B1847440A0020FD1F000000280DDB45
S11322504309012200F01F0002FA00F02033044A6F
S113226042F82300BFF34F8FBFF36F8F704700BF57
S113227000E100E003690B42FCD1704708B501217D
S1132280034B9847036843F00103036008BD00BF94
S11322907522000008B50321024B98470068C0F37B
S11322A0400008BD7522000008B50321034B984780
S11322B0036823F00203036008BD00BF7522000019
S11322C0C26808B50321044B10469847136843F0CD
S11322D00203136008BD00BF75220000C068014BF3
S11322E0184700BFA9220000C3681A68C2F381021C
S11322F0022A01D1D96170471A6812F00C0F02D179
S113230089B2998370471A68C2F38102012A04BF13
S1132310C9B2D9767047C3681A68C2F38102022A27
S113232001D1D86970471A6812F00C0F02D1988B4A
S113233080B270471A68C2F38102012A06BFD87EB0
S1132340C0B2002070470000C068014B184700BFAE
S113235095220000C268917AC90703D501219172C0
S113236003681847704770B50569AB7ADA07044605
S113237004D50123AB72036803B198476B7A9B07BA
S113238007D50223AB7263681BB12046BDE87040D9
S1132390184770BD114B984207D1114B1960114B6E
S11323A0984204BF0E4B596170470F4B984202D1BB
S11323B00B4B5960F3E70D4B984202D1084B9960DF
S11323C070470B4B984202D1054BD9607047094BBB
S11323D09842E4D1024B1961704700BF00380040B5
S11323E0580A002000180042003C004000A00141AF
S11323F000C001410014004270B5134D06460FCDD4
S113240086B06C460FC495E8030084E803000023FB
S11324105DF82320B2420BD1DBB20C4A0020142118
S113242001FB00F4A45C9C4207D140B206B070BD2D
S11324300133062BECD10023EFE701300628EFD15E
S11324404FF0FF30F2E700BF644300007C0000203F
S11324502DE9F0412E4B074608460C469847FC6090
S11324600646012120462B4A904720462A4B98478E
S1132470002848D1294B20469847012120469047FF
S11324802749142303FB061388465A682260987A66
S1132490E0731889E08002F00C020120082A2073FE
S11324A022D1DA68E2611B6923620125394620469C
S11324B01C4B65729847142303FB06861A4BB6F926
S11324C002100846984700290BDB01F01F03490955
S11324D0890001F1604101F561419D40C1F88051DD
S11324E00D600020BDE8F08122B99A89A2831B8A7D
S11324F0E383DAE7042AD8D11A7B22771A7C62773D
S1132500DB7AE376D1E76FF01000BDE8F08100BF1D
S1132510F923000075220000952200007D220000AE
S11325207C000020952300004D22000010B5C468F3
S1132530094B20469847094A142303FB0020084B03
S1132540B0F9020098472046064B98472046064BB0
S1132550BDE81040184700BFF92300007C000020AC
S11325604D220000A92200007D22000010B5064B78
S1132570C0689847054A142303FB0020BDE81040B7
S11325808078034B184700BFF92300007C0000202B
S11325906D180000F8B5294B064608460C469847C6
S11325A03461054601212046254A90472046254BA3
S11325B0984700283CD1244B244F20469847204676
S11325C001219047142303FB05735A682260987A0B
S11325D0E0731889E08002F00C020320082A2073BB
S11325E020D1DA68E2611B69236231462046184B28
S11325F09847142303FB0575164BB5F902100846DA
S1132600984700290CDB01F01F024909890001F1F8
S1132610604101F5614101239340C1F880310B60B1
S11326200020F8BD3AB99A89A2831B8AE383DCE7C8
S11326306FF01000F8BD4FF0FF30F8BDF923000033
S113264075220000952200007D2200007C000020FD
S1132650952300004D22000000487047F40000203C
S113266000207047014B1868014B1847580A002096
S113267067230000014B5868014B1847580A002093
S113268067230000014B9868014B1847580A002043
S113269067230000014BD868014B1847580A0020F3
S11326A055230000014B1869014B1847580A0020B4
S11326B055230000014B5869014B1847580A002064
S11326C05523000003689A6812F00E0FFBD11A78A4
S11326D0D20913D19A6812F00E0FFBD11A7892071F
S11326E00CD4986810F00E00FBD11A7802F0FB02AB
S11326F01A705A7802F0F0025A7070476FF01000A6
S11327007047000008B5074B074C9847074B98479C
S11327100120074B9847074B98470748074B9847B2
S1132720A047FDE7290D000045080000BD08000092
S113273019050000A50700007C430000850C00007B
S113274043684B609A688A609A685160996003682C
S113275008610133036070474168826803698A60D5
S1132760826851605968884208BF5A600022026139
S11327701A68013A1A6018687047000000000000E7
S1132780074B19680868B0E8F04F80F30988BFF375
S11327906F8F4FF0000080F311887047AFF3008013
S11327A0E00A00200000000000000000000000001B
S11327B0EFF30980BFF36F8F154B1A681EF0100FEB
S11327C008BF20ED108A20E9F04F10602DE90900C0
S11327D04FF0800080F31188BFF34F8FBFF36F8FEA
S11327E000F0B6F84FF0000080F3118809BC1968B6
S11327F00868B0E8F04F1EF0100F08BFB0EC108A64
S113280080F30988BFF36F8F704700BFAFF3008078
S1132810E00A002008B54FF0800383F31188BFF36A
S11328206F8FBFF34F8F054B984718B1044B4FF090
S113283080521A60002383F3118808BD65280000C4
S113284004ED00E0064B5A6E12681AB94FF0FF32DD
S11328509A6670475A6ED268D2685268F8E700BF29
S1132860700A00202DE9F84F354BD3F8D8201C46C8
S1132870002A3DD1DE6E0136DE66C6B95B6E1B688A
S113288043B14FF0800383F31188BFF36F8FBFF31D
S11328904F8FFEE7636ED4F888206266C4F88830F0
S11328A0D4F8E0300133C4F8E030264B9847A36EE7
S11328B09E424FF000050BD3DFF88C80DFF88CB01C
S11328C04FF0140A636E1B68CBB94FF0FF33A36655
S11328D0236FDA6A14235343E358022B28BF0125DC
S11328E0D4F8E830002B18BF01252846BDE8F88F3E
S11328F0D3F8E4300133C4F8E4300025F0E7636E24
S1132900DB68DF687B689E42E1D307F1040948462F
S1132910C047BB6A13B107F11800C047F86AD4F87E
S1132920D430984288BFC4F8D40049460AFB00401A
S1132930D847236FFA6ADB6A9A4228BF0125C1E7A8
S1132940700A002045280000592700004127000094
S1132950184AD2F8D81030B5134619B10123C2F879
S1132960E83030BDC2F8E810D2F8D410142505FBC5
S113297001F298189C588CB1446808326468446029
S11329801A44944204BF62684260142202FB01327A
S11329905268D2681A67C3F8D41030BD41B94FF0F9
S11329A0800383F31188BFF36F8FBFF34F8FFEE76C
S11329B00139DCE7700A002070B50D4E0D4CA41BE4
S11329C0A4100025A54209D10B4E0C4C01F04EFD7C
S11329D0A41BA4100025A54205D170BD56F82530CE
S11329E098470135EEE756F8253098470135F2E768
S11329F07844000078440000784400007C440000DF
S1132A0010B501390244904201D1002010BD10F8E4
S1132A10013B11F8014FA342F5D0181B10BD10B5AE
S1132A20431E0A44914200D110BD11F8014B03F832
S1132A30014FF7E7884210B501EB020303D8421EA9
S1132A4099420CD110BD9842F9D28118D21AD342BE
S1132A5000D110BD13F8014D01F8014DF7E711F84D
S1132A60014B02F8014FEBE702440346934200D1C5
S1132A70704703F8011BF9E738B50546002945D02E
S1132A8051F8043C0C1F002BB8BFE41800F01AF9ED
S1132A901F4A1368104633B9636014602846BDE8C2
S1132AA0384000F010B9A3420CD92168621893424F
S1132AB004BF1A685B68636004BF52182260046034
S1132AC0ECE713465A680AB1A242FAD919685818B1
S1132AD0A0420BD120680144581882421960DDD10C
S1132AE0106852685A6001441960D7E702D90C2370
S1132AF02B60D3E7206821188A4204BF116852680A
S1132B00626004BF091821605C60C7E738BD00BF7C
S1132B105C0B002070B5CD1C25F0030508350C2D89
S1132B2038BF0C25002D064601DBA94203D90C232E
S1132B303360002070BD00F0C5F8234A14682146B4
S1132B4091B9224C23681BB9304600F041F820604B
S1132B502946304600F03CF8431C26D10C23336050
S1132B60304600F0B0F8E4E70B685B1B1AD40B2B7B
S1132B700FD90B60CD50CC18304600F0A4F804F106
S1132B800B00231D20F00700C31A1BD05A42E25049
S1132B9070BD8C420DBF63684B686360136018BFDF
S1132BA00C46E9E70C464968CAE7C41C24F0030450
S1132BB0A04205D0211A304600F00AF80130CDD0E9
S1132BC02560D9E770BD00BF5C0B0020600B0020BE
S1132BD038B5064C0023054608462360FEF7AEFDD3
S1132BE0431C02D1236803B12B6038BD7C1500203F
S1132BF00EB400B59CB04FF402711DABADF81410C7
S1132C00029006906FF000410A48049107914FF634
S1132C10FF7153F8042BADF816100068019302A954
S1132C2000F0AEF8029B00221A701CB05DF804EBB1
S1132C3003B070471401002010B502461346013258
S1132C401C78002CFAD1013B11F8012B03F8012F59
S1132C50002AF9D110BD034611F8012B03F8012B0A
S1132C60002AF9D17047034613F8012B002AFBD13F
S1132C70181A0138704710B56AB10139841810F870
S1132C80013B11F8012F934203D1A04201D0002B44
S1132C90F5D1981A10BD104610BD70B5044602B99E
S1132CA070BD234611F8015B03F8015B561E1DB984
S1132CB01444A34203D170BD1C463246EFE703F827
S1132CC0015BF6E7704770472DE9F0478E689E4236
S1132CD082460C469146984635D88A8912F4906FFC
S1132CE031D0256809696F1A6569022305EB45052A
S1132CF095FBF3F508F101033B449D4238BF1D46A3
S1132D00530531D52946FFF705FF064650B90C2374
S1132D10CAF80030A38943F04003A3814FF0FF3089
S1132D20BDE8F0873A462169FFF779FEA38923F4C9
S1132D30906343F08003A381266165613E44ED1BEB
S1132D402660A5604646464528BF46463246494663
S1132D502068FFF76FFEA3689B1BA36023681E44D3
S1132D6026600020BDE8F0872A4600F0E9FA06460E
S1132D700028E1D121695046FFF77EFEC7E7000035
S1132D802DE9F04F9DB0804603938B891C060D46B8
S1132D9016460FD50B696BB94021FFF7BBFE2860BF
S1132DA0286128B90C23C8F800304FF0FF30C5E083
S1132DB040236B610023099320238DF829303023AD
S1132DC08DF82A304FF0010B37463C4614F8013B8E
S1132DD0002B3CD1B7EB060A0BD0534632462946AA
S1132DE04046FFF771FF013000F0A380099B534474
S1132DF009933B78002B00F09C8000234FF0FF32B6
S1132E0004930793059206938DF853301A93052281
S1132E102178504800F044FA671C049BD8B9D906BD
S1132E2044BF20228DF853201A0744BF2B228DF86B
S1132E30532022782A2A16D0079A00210A202746EE
S1132E4001343B78303B092B51D9C9B111E0252B12
S1132E50C0D02746B9E73F4A801A0BFA00F018435E
S1132E6004903C46D3E7039A111D12680391002A8B
S1132E7001DB079204E0524243F0020307920493F9
S1132E803B782E2B0ED17B782A2B07F1010132D10E
S1132E90039B1A1D1B680392002BB8BF4FF0FF332E
S1132EA0023705932C4C39780322204600F0F8F9B8
S1132EB038B14023001B03FA00F0049B034304933E
S1132EC00137397825488DF8281006227E1C00F039
S1132ED0E7F9002835D0224BFBB9039B073323F0D5
S1132EE0070308330393099B4B4409936CE700FBE6
S1132EF002320121A3E70023059318460A240F4652
S1132F0001313A78303A092A03D9002BCAD0059006
S1132F10C8E704FB00200123F1E703AB00932A4632
S1132F20104B04A94046AFF30080B0F1FF3F814647
S1132F30D9D1AB895B063FF538AF09981DB0BDE820
S1132F40F08F03AB00932A46064B04A9404600F0D9
S1132F5081F8EAE7384400003E440000424400009F
S1132F6000000000C92C00002DE9F04791461F46DF
S1132F708A680B69DDF820809342B8BF1346C9F80C
S1132F80003091F8432006460C4612B10133C9F8CB
S1132F9000302368990642BFD9F800300233C9F8DB
S1132FA00030256815F0060507D104F1190AE36815
S1132FB0D9F800209B1A9D4229DB94F843302268FB
S1132FC0003318BF012392062ED404F1430239467C
S1132FD03046C047013021D02368E568D9F8002085
S1132FE003F00603042B08BFAD1AA36822690CBFC3
S1132FF025EAE57500259342C4BF9B1AED184FF0EE
S113300000091A344D451BD10020BDE8F087012387
S1133010524639463046C047013003D14FF0FF30A5
S1133020BDE8F0870135C2E7E1185A1C302081F869
S11330304300224494F8451082F843100233C4E755
S11330400123224639463046C0470130E6D009F113
S11330500109D7E72DE9F04317460A7E85B06E2AA9
S1133060984606460C460C9B01F1430E00F0BC80CA
S11330701AD8632A2ED00AD8002A00F0C880582A09
S113308000F08A8004F1420584F842202AE0642A90
S113309001D0692AF6D121681A6811F0800F23D073
S11330A0111D1960136827E0732A00F0B48008D852
S11330B06F2A2AD0702AE5D10A6842F020020A60F9
S11330C003E0752A21D0782ADCD1782284F84520BF
S11330D06E4964E01A6801F14205111D1960136814
S11330E084F842300123A3E011F0400F02F10401FF
S11330F01960D7D0B2F90030002B03DA2D225B42DD
S113310084F8432062490A2217E02068196810F005
S1133110800F03D0081D18600B6806E010F0400F04
S113312001F104001860F7D00B8859496F2A14BFC5
S11331300A220822002084F843006568A560002D57
S1133140C0F29C80206820F004002060002B3FD156
S1133150002D40F095807546082A0BD12368DA07C4
S113316008D5236962689A42DEBF302305F8013C22
S113317005F1FF35AEEB05032361CDF800803B4636
S113318003AA21463046FFF7EFFE013055D14FF038
S1133190FF3005B0BDE8F08381F845203C49226842
S11331A0186812F0800F00F104051D6001D0036857
S11331B002E05506FBD50388D00744BF42F0200245
S11331C022601BB9226822F0200222601022B1E79B
S11331D07546B3FBF2F002FB1033CB5C05F8013DFE
S11331E003460028F5D1B7E708681A68496910F062
S11331F0800F04D0101D18601368196007E010F0E8
S1133200400F02F1040018601368F6D019800023FF
S113321023617546B1E71A68111D19601568626863
S11332200021284600F03CF808B1401B6060636848
S11332302361002384F843309FE723692A463946F3
S11332403046C0470130A2D023689B0707D500252C
S113325004F11909E368039A9B1A9D4205DBE068AF
S1133260039B9842B8BF184693E701234A46394660
S11332703046C04701308AD00135EBE7002BA7D197
S11332800B7884F8423004F1420565E75A440000A3
S1133290494400000000000000000000000000009D
S11332A001F0FF01102A2BDB10F0070F08D010F8F3
S11332B0013B013A8B422DD010F0070F42B3F6D1F7
S11332C0F0B441EA012141EA014122F007047FF010
S11332D000070023F0E80256083C85EA010586EA67
S11332E0010685FA47F5A3FA87F586FA47F6A5FAA3
S11332F087F68EB9EED1F0BC01F0FF0102F00702AF
S113330032B110F8013B013A83EA010313B1F8D159
S11333100020704701387047002D06BF354603383A
S1133320073815F0010F07D1013015F4807F02BF73
S1133330013015F4C03F0130F0BC0138704700BFC4
S1133340F8B5074614460E4621B91146BDE8F840C3
S1133350FFF7E0BB22B9FFF78FFB25462846F8BDEF
S113336000F014F884420FD921463846FFF7D2FB07
S113337005460028F2D031462246FFF750FB31467D
S11333803846FFF779FBE9E73546E7E751F8040CDF
S11333900028A0F10400BCBF0B58C01870470000FF
S11333A0000000007D3A0000030002005109000003
S11333B00900000001000000813A000008000F002D
S11333C07D0900001B000000020000008A3A000092
S11333D00C000300D10200001300000003000000F1
S11333E0973A000008000C00D10200001800000009
S11333F004000000A03A000005000800D10200000B
S11334001100000005000000AA3A00000A000B00A9
S1133410D10200001900000006000000B53A0000C7
S11334200A001500D102000023000000070000007C
S1133430C03A000005000200D10200000B000000A9
S113344008000000C63A000027000C00B90A00007A
S11334503700000009000000EE3A000012000200EC
S1133460A9090000180000000A000000013B000048
S113347012000200A9090000180000000B0000005F
S1133480143B000012000200A9090000180000000B
S11334900C000000273B000012000200A9090000F4
S11334A0180000000D0000003A3B0000120002006A
S11334B0A9090000180000000E0000004D3B0000A8
S11334C012000200A9090000180000000F0000000B
S11334D0603B000012000200A9090000180000006F
S11334E010000000733B000012000200A909000054
S11334F01800000011000000863B000012000200CA
S1133500A90900001800000012000000993B000007
S113351013000200A90900001900000013000000B4
S1133520AD3B00001F000200290A00002500000036
S113353014000000CD3B000023000200590A0000E3
S11335402900000015000000F13B00001A000200F1
S1133550890A00002000000016000000020000207C
S113356011000700F90A00001C0000001700000009
S1133570580400203A005E02850B00009C02000003
S1133580180000000C3C000010000200850B000035
S113359016000000190000001D3C0000100002008D
S11335A0D1020000160000001A0000002E3C0000AA
S11335B00B000200D1020000110000001B000000FB
S11335C0D543000000000000D1020000000000000C
S11335D000000000000000000000000000000000E7
S11335E000000000000000000000000000000000D7
S11335F000000000000000000000000000000000C7
S113360000000000000000000000000000000000B6
S11338504578706563746564206D6F64656D20726E
S11338606573706F6E7365206973206E6F74207258
S113387065636569766564004E6F20526573706F89
S11338806E73652066726F6D20576562205365768E
S113389065722E2E2E2E506F7374696E67206461CC
S11338A0746120746F207365766572206973206675
S11338B061696C656400506572666F726D696E67EC
S11338C020746865204572726F72205265636F764A
S11338D06572792050726F636564757265732E2EFC
S11338E000436C6F73656420616E642052656F7071
S11338F0656E6564207468652073657373696F6EA3
S11339002E2E2E2E2E2E004175746F207265636F3D
S11339107665727920636F6D706C657465642E2EA4
S11339202E2E2E2E005265636569766564206E65C1
S11339307720726573706F6E73652066726F6D2089
S11339407365727665722E2E2E0D0A004D6F6465B6
S11339506D2048616E6765642E204461746120693E
S113396073206E6F74207472616E736D6974746504
S11339706420746F20736572766572005065726698
S11339806F726D696E6720746865206175746F204D
S11339907265636F766572790053657373696F6ED0
S11339A0204944202D20310053657373696F6E20C4
S11339B04944202D20320053657373696F6E20498A
S11339C044202D20330053657373696F6E2049447E
S11339D0202D20340053657373696F6E2049442091
S11339E02D20350053657373696F6E204944202D73
S11339F020360053657373696F6E204944202D206F
S1133A00370053657373696F6E204944202D203845
S1133A100053657373696F6E2049442076616C7539
S1133A2065206578636565647320746865206D61DD
S1133A30782076616C7565004B4854545020484595
S1133A404144455220537472696E672069732000A3
S1133A50223F693D333539393938303730323238DD
S1133A6037363426643D4131593532584132593361
S1133A703626623D333626733D32220D0041540D05
S1133A800041542B4347534E0D0041542B5743419F
S1133A9052524945520D0041542B4950523F0D009A
S1133AA041542B4350494E3F0D0041542B43475240
S1133AB045473F0D0041542B4B47534E3D330D00BA
S1133AC0415445310D0041542B4B48545450434606
S1133AD0473D332C22696E67657374312E726573AA
S1133AE0706F6E73652E636C6F7564220D004154A4
S1133AF02B4B48545450434C4F53453D312C300DBF
S1133B000041542B4B48545450434C4F53453D3281
S1133B102C300D0041542B4B48545450434C4F53BC
S1133B20453D332C300D0041542B4B4854545043E5
S1133B304C4F53453D342C300D0041542B4B4854CD
S1133B405450434C4F53453D352C300D0041542BBC
S1133B504B48545450434C4F53453D362C300D0084
S1133B6041542B4B48545450434C4F53453D372CF0
S1133B70300D0041542B4B48545450434C4F534543
S1133B803D382C300D0041542B4B48545450434C79
S1133B904F53453D392C300D0041542B4B48545460
S1133BA050434C4F53453D31302C300D0041542B84
S1133BB04B5041545445524E3D222D2D454F462DD8
S1133BC02D5061747465726E2D2D220D0041542B9D
S1133BD04B434E584346473D332C202247505253C3
S1133BE0222C22565A57494E5445524E4554220DC2
S1133BF00041542B4B434E5854494D45523D332CB0
S1133C0036302C322C37302C36300D002D2D454FCC
S1133C10462D2D5061747465726E2D2D0041542B08
S1133C204B434E58444F574E3D332C310D004154B5
S1133C302B43474154543D300D004D4F44454D20D6
S1133C404441544120554152542028534552434F36
S1133C504D332920696E697469616C697A65640DF4
S1133C600A00534552434F4D33206E6F7420696EE2
S1133C70697469616C697A65640D0A004D6F6465E5
S1133C806D20446174612054782044617461205231
S1133C90656720456D7074792043616C6C42616383
S1133CA06B0D0A004D6F64656D204461746120548E
S1133CB078206279746520436F6D706C657465203B
S1133CC043616C6C6261636B0D0A004F4B00566577
S1133CD07269666965642074686520554152542090
S1133CE0436F6D6D756E69636174696F6E2077697A
S1133CF07468204D6F64656D2E0D0A004E6F74203C
S1133D0061626C6520746F207665726966792074CF
S1133D106865205541525420436F6D6D756E69631B
S1133D206174696F6E2077697468204D6F64656D86
S1133D302E0D0A0052454144590056657269666960
S1133D40656420746865204E6574776F726B2052C9
S1133D506567697374726174696F6E2E0D0A004E23
S1133D606F742061626C6520746F20766572696679
S1133D707920746865204E6574776F726B20526584
S1133D8067697374726174696F6E2E0D0A00506FE7
S1133D907374656420746865206461746120746F51
S1133DA0207365727665722E2E2E57616974696E62
S1133DB06720666F7220576562205365727665725C
S1133DC020526573706F6E73650D0A00506F7765CE
S1133DD072204F6E20576169742054696D6572209A
S1133DE0457870697265640D0A004D6F64656D20D5
S1133DF0506F776572204F6E20696E697469616CCB
S1133E00697A6174696F6E20436F6D706C65746557
S1133E10640D0A004D6F64656D20526573657420EE
S1133E20436F6D706C6574656400506F7765724F95
S1133E306E5761697454696D6572004D6F64656D88
S1133E402046756C6C79204F7065726174696F6E71
S1133E50616C2E0D0A00496E2041542068616E6425
S1133E606C65720D0A00496E204347534E20686109
S1133E706E646C65720D0A000D0A436C6F736564A1
S1133E8020616E2061637469766520636F6E6E6570
S1133E906374696F6E005468657265206973206E7F
S1133EA06F20636F6E6E656374696F6E20657374E3
S1133EB061626C69736865642077697468207468EA
S1133EC069732073657373696F6E2049442E2E2EB7
S1133ED000436865636B696E6720666F7220616E6C
S1133EE02061637469766520636F6E6E65637469BF
S1133EF06F6E2077697468206E65787420736573BB
S1133F0073696F6E2049442E2E2E0A00496E204B91
S1133F105041545445524E2068616E646C65720081
S1133F20496E204B434E584346472068616E646C8B
S1133F30657200496E204B434E5854494D455220FA
S1133F4068616E646C657200496E204B485454502D
S1133F504346472068616E646C657200496E204B6D
S1133F6048545450204845414445522068616E6489
S1133F706C657200434F4E4E45435400486561647E
S1133F80657220526573706F6E7365204F6B0048C5
S1133F90656164657220526573706F6E7365204E3F
S1133FA06F74204F6B00496E205445524D494E4169
S1133FB05445204845414445522068616E646C650F
S1133FC0720054782073657269616C20446562756F
S1133FD06720446F6E650D0A00527820446F6E6549
S1133FE00D0A00257320257300000000C0000200A4
S1133FF08300001900000000000000000000010020
S113400001000000000000000000000000000000AB
S1134010000000000000000000000000000000009C
S1134020000000000000000000000000000000008C
S1134030000000000000000000000000000000007C
S1134040000000000000000000000000000000006C
S1134050000000000000000000000000000000005C
S1134060000000000000000000000000000000004C
S1134070000000000000000000000000000000003C
S1134080000000000000000000000000000000002C
S1134090000000000000000000000000000000001C
S11340A0000000000000000000000000000000000C
S11340B000000000000000000000000000000000FC
S11340C000000000000000000000000000000000EC
S11340D000000000000000000000000000000000DC
S11340E000000000000000000000000000000000CC
S11340F000000000000000000000000000000000BC
S113410000000000000000000000000000000000AB
S1134110000000000000000000000000000000009B
S1134120000000000000000000000000000000008B
S1134130000000000000000000000000000000007B
S1134140000000000000000000000000000000006B
S1134150000000000000000000000000000000005B
S1134160000000000000000000000000000000004B
S1134170000000000000000000000000000000003B
S1134180000000000000000000000000000000002B
S1134190000000000000000000000000000000001B
S11341A0000000000000000000000000000000000B
S11341B000000000000000000000000000000000FB
S11341C000000000000000000000000000000000EB
S11341D000000000000000000000000000000000DB
S11341E000000000000000000000000000000000CB
S11341F000000000000000000000000000000000BB
S113420000000000000000000000000000000000AA
S1134210000000000000000000000000003000402A
S113422000340040002001410040014100000043EF
S113423000040043030000000400204000000300C9
S1134240020070002BF600000000000004000000D3
S11342508401304000030300020070002EFF0000C0
S113426000000000050000000400304000000300CE
S1134270020070002BF600000000000000000000A7
S1134280000000000000000000000000000000002A
S1134290000000000060014100800141000C004268
S11342A00010004200100043000000000003000062
S11342B00000000000000000701700000000000073
S11342C000000000000000000000000001000000E9
S11342D00003000000000000000000007017000050
S11342E000000000000000000000000000000000CA
S11342F002000000000300000000000000000000B5
S11343007017000000000000000000000000000022
S11343100000000003000000000300000000000093
S11343200000000070170000000000000000000002
S11343300000000000000000040000000003000072
S113434000000000000000007017000000000000E2
S1134350000000000000000000000000555C6165E2
S11343606800000000380040003C004000A001410B
S113437000C00141001400420018004253756363F9
S113438065737366756C6C7920436F6D706C6574BE
S113439065642074686520636F6E6E656374696F0D
S11343A06E20696E697469616C697A6174696F6E93
S11343B02E204854545020436F6E6E656374696FA9
S11343C06E2069732065737461626C6973686564D7
S11343D02E2E0D0A0A00000000000000000000005C
S11343E000000000000000000000000000000000C9
S11343F000000000000000000000000000000000B9
S113440000000000000000000000000000000000A8
S11344100000000000000000000000000000000098
S11344200000000000000000000000000000000088
S11344300000000000000000232D302B2000686CD9
S11344404C006566674546470030313233343536B3
S113445037383941424344454600303132333435EC
S1134460363738396162636465660000F8B500BFA9
S1134470F8BC08BC9E46704789020000F8B500BF2E
S10F4480F8BC08BC9E46704765020000B2
S113448C1B0141542B4B485454504845414445520C
S113449C3D300D41542B4B485454504745543D30FA
S11344AC2C000000000000000000000000000000D0
S11344BC000000000000000000000000004001416A
S11344CC090C000000000000690C00000F0C000037
S11344DC000000000000000000040043592000000C
S11344ECAD210000452000005D210000F11F0000FB
S11344FCF71F00006F2100008121000000006B00F9
S113450C00000000000000327FBB0000BF5D000013
S113451C01006C0000000000000000327FBB0000B2
S113452CBF5D000002006D000000000000000032BE
S113453C7FBB0000BF5D000003006E000803000099
S113454C00000000701700000000000004006F0061
S113455C08030000000000007017000000000000B9
S113456C0500700008030000000000007017000034
S113457C00000000512400002D250000C122000081
S113458CDD220000E922000017230000492300006B
S113459C6D2500001801002000000000F843000005
S11345AC18440000D8430000000000000000000084
S11345BC00000000000000000000000000000000EB
S11345CC00000000000000000000000000000000DB
S11345DC00000000000000000000000000000000CB
S11345EC00000000000000000000000000000000BB
S10B45FC0000000000000000B3
S9030000FC
