:10000000003F0120691F0000651F0000651F000000
:10001000651F0000651F0000651F00000000000054
:10002000000000000000000000000000613E000031
:10003000651F000000000000F13E0000553F000079
:10004000651F0000651F0000651F0000651F0000A0
:10005000651F0000651F0000651F0000651F000090
:10006000651F0000651F0000651F0000651F000080
:10007000651F0000651F0000651F0000651F000070
:10008000651F0000651F0000651F0000651F000060
:10009000651F0000651F0000651F0000651F000050
:1000A000651F0000651F0000651F0000651F000040
:1000B000651F0000C12F0000952F0000C12D00001A
:1000C000C92D0000D12D0000D92D0000E12D000028
:1000D000651F0000651F0000651F0000651F000010
:1000E000651F0000651F0000651F0000651F000000
:1000F000000000008D300000651F0000651F00003B
:10010000651F0000651F0000651F0000651F0000DF
:10011000651F0000651F0000651F0000651F0000CF
:10012000651F0000651F00006914000075140000C1
:1001300081140000651F0000651F0000651F00009E
:10014000651F0000651F0000651F0000651F00009F
:10015000351E0000651F00000000000000000000C8
:10016000000000000000000000000000000000008F
:10017000000000000000000000000000000000007F
:10018000651F0000651F0000651F0000651F00005F
:100190000000000081350000651F0000651F0000A1
:1001A000651F0000651F0000651F0000651F00003F
:1001B00091350000651F0000651F0000651F0000ED
:1001C000651F0000A1350000651F0000651F0000CD
:1001D000651F0000B1350000651F0000651F0000AD
:1001E000C1350000651F0000651F0000E9390000EF
:1001F000F9390000093A0000193A0000293A0000D4
:10020000393A00000000000000000000651F0000F7
:10021000651F0000651F00007D0400008D040000C4
:10022000651F0000651F0000651F0000651F0000BE
:10023000651F0000651F0000651F0000651F0000AE
:10024000651F0000651F0000651F0000651F00009E
:10025000651F0000651F0000651F0000651F00008E
:100260000000000010B5054C237833B9044B13B1DE
:100270000448AFF300800123237010BD90010020DB
:1002800000000000587B00000C4B43B10C480D49A6
:1002900010B5AFF300800C48036823B910BD0A48BD
:1002A000036833B97047094B002BF7D0BDE8104005
:1002B0001847064B002BF5D0184700BF0000000080
:1002C000587B000094010020587B000000000000D3
:1002D00000B589B01E2230210C4B0D4C05466846F6
:1002E00098470C48A0470C48A0470A48A0470B482D
:1002F000A0470B490B4B2A46684698470A4B68466D
:1003000098470A4B81B268469847FEE7815A000039
:100310005D1D0000AE630000E9630000DE750000B3
:1003200024640000095C00007F5C0000191D0000CF
:1003300000F01F034009C00100F1824000F50040B9
:1003400001229A400344426093F8401041F00401B6
:1003500083F840108261704700F01F0201234009BA
:100360009340C0019AB200F1824000F5004042F093
:10037000804242F4003243608262024A42EA1343FE
:1003800083627047000002C070B52D20294C2A4EB0
:100390002A4DB0472D20A84794F8CD3003F0FE0336
:1003A00084F8CD302C20B0472C20A84794F8CC30CE
:1003B00003F0FE0384F8CC302B20B0472B20A84755
:1003C00094F8CB3003F0FE0384F8CB302A20B047FA
:1003D0002A20A84794F8CA3003F0FE0384F8CA30F4
:1003E0000B20B0470B20A84794F84B3003F0FE03D6
:1003F00084F84B300A20B0470A20A84794F84A30C6
:1004000003F0FE0384F84A300920B0470920A847CA
:1004100094F8493003F0FE0384F849300820B047CF
:100420000820A84794F8483003F0FE0384F84830C9
:1004300070BD00BF0080004159030000310300007F
:10044000004B18475121000038B5084C084B0546B1
:1004500001462046984729462B4619222046054D3D
:10046000A8472046044B9847002038BDB03E0020E6
:10047000952B0000BD2B0000A12B00000148024B72
:10048000184700BF376400005D1D00000148024BA3
:10049000184700BF496400005D1D0000F7B5334DEB
:1004A0002F78012F2C460ED003D3022F40D003B05B
:1004B000F0BD2F4B4FF4FA7118682E4B9847012866
:1004C000F5D12870F3E76B7C05EB430301A85E7858
:1004D000294B984773092949DB01CA18C958136A7F
:1004E00015695D400D4006F01F065D4001A8244BD4
:1004F00007FA06F698472E42224B10D12248984719
:10050000637C0C2202FB034257750133DBB2072BDD
:100510006374CCD90223237000236374C7E71B489C
:100520009847637C0C2202FB034200215175ECE7E3
:100530006B7C0C2202FB0352527D7AB105EB430324
:100540003A4601A99878124B98470E4B0546114838
:100550009847114B114829469847637C01336374CF
:10056000637C072BA3D900232370D6E7AC010020BE
:10057000FC340020F9480000B12600000080004152
:10058000BF2600005D1D00005B6400006B6400007E
:10059000490400007C640000ED1D00008A64000036
:1005A00038B51C4B98471C4B98471C4B98471C4B25
:1005B0000B225A7204229A720A22DA7205222A2126
:1005C0001A732B225A71D971022203219A7119725E
:1005D00008222C21DA73D970072201211A741971AB
:1005E0002D2209215A7059730022062199739A709D
:1005F00003F1140110460A700132082A487048605D
:10060000087201F10C01F6D1064D074C1870A8478D
:10061000A047FCE7194E00008903000041040000D8
:10062000AC0100209D040000F51E0000054B30B514
:10063000142404FB00340D460FCC0FC523682B6037
:1006400030BD00BFA06400000378313B082B0AD8FE
:10065000DFE803F0050A0D101316191C1F000E4BDE
:100660003122DA735A7770470B4B3222F9E70A4B83
:100670003322F6E7084B3422F3E7074B3522F0E745
:10068000054B3622EDE7044B3722EAE7024B3822CE
:10069000E7E7014B3922E4E70000002010B5064CE3
:1006A0000649074B20460F22984720460549064B2E
:1006B000BDE81040184700BF2002002011000020B4
:1006C000B35C000050690000515C00002DE9F0416E
:1006D00086B001A9294B2A4D9847BDF814009DF812
:1006E0000C70A8478046002843D0BDF81410254B55
:1006F00098470646002839D09DF80C200298224BD6
:1007000041469847044678BBBDF80E000130A84723
:100710000546E0B10237204658FA87F7BDF80E309B
:10072000421CC0B298420ED300232B54BDF80E20B9
:100730009DF80400049B013292B229469847134B5E
:100740002846984707E03B5C2B541046E6E71048E4
:10075000104B9847002640460C4B98470E4B984745
:10076000304606B0BDE8F0810C48F1E70C48094B73
:10077000E7E70C48074B98474646EFE72D06000091
:1007800015410000451500008F5C0000D5410000B8
:100790003A6B00005D1D00008D1500006E6B0000BF
:1007A000AA6B0000EE6B0000014B1870704700BF91
:1007B00020000020014B1870704700BF5C02002031
:1007C000014B1878704700BF5C02002001380928EF
:1007D00007D8DFE800F005080A0C0E1012141618EE
:1007E0000A23184670470B23FBE70C23F9E70D2378
:1007F000F7E70E23F5E70F23F3E71023F1E71123C3
:10080000EFE71223EDE71323EBE7000008B5022220
:100810000349044B9847B0FA80F0400908BD00BF77
:10082000D5700000195A0000074B00221A705A7048
:100830009A70DA701A7105211A725A81DA603022C0
:1008400059711A74704700BF6002002010B5054846
:10085000054CA0470548A047054B9847054BBDE808
:1008600010401847256C00005D1D00004B6C000017
:1008700011180000290800002DE9F743994C63780E
:10088000072B4AD8DFE813F008007200C5006601A4
:10089000B601FB013E02DC02A378002B40D1657952
:1008A000002D32D0904E914B30689847054650BB92
:1008B000DFF89C828E4B0146D8F80000984701284B
:1008C0001DD18DF800008B4B60798B4F98472B46DC
:1008D0008DF801004FF4FA72306801956946B84707
:1008E0000128064607D12B462A462946D8F800009B
:1008F000B847A67064E08148814B984760E0814822
:100900007F4B984709E08048FAE780487C4EB04723
:100910007F48B04701236370A57003B0BDE8F08342
:10092000012BFAD17B4B7C4918687C4B4FF47A62DF
:10093000984701280646F0D161796E4B257A084622
:1009400098478542764D0DD121B10139617100235F
:10095000A37004E073486A4B6670A1709847E06822
:10096000A847DAE77048664B9847F0E7A3785BBB87
:100970005D4E5E4B3068984705460028C3D1DFF8CE
:10098000D0815B4B0146D8F8000098470128B6D1CA
:100990001A238DF800008DF801303068564F01950C
:1009A0002B464FF4FA726946B84701280646A2D191
:1009B0002B462A462946D8F80000B847A67066702C
:1009C0004FF4FA70594B9CE7012BA6D1514B524979
:1009D0001868524B4FF47A62984701289DD1237AC8
:1009E000474D4F4E1A2B40F0EC81E068504B984732
:1009F000074600286DD04F48A8474F4B6189E068F3
:100A000098474348A8470023A37002236370E06817
:100A100031E0A378002B34D1334E344B3068984703
:100A2000054600287FF46FAFDFF82491304B014674
:100A3000D9F80000984701287FF461AF1B238DF897
:100A400000008DF801303068DFF8AC8001952B464E
:100A50004FF4FA726946C04701280746334E0CD15D
:100A60002B462A462946D9F80000C0470223A77022
:100A700063704FF4FA70B0474FE73048204B984707
:100A8000F7E7012B7FF449AF224B23491868234B2A
:100A90004FF47A62984701287FF43FAF237A184DCC
:100AA0001F4E1B2B40F08D81E068214B9847074675
:100AB00078B12348A847204B6189E06898471448DB
:100AC000A8472048A8471248A8470023A37003233B
:100AD0009CE71D48A8470E48A8471C4BA77098479D
:100AE00095E700BF60020020F0340020AD4A00000E
:100AF000F9480000CD070000D14400008E6C0000D2
:100B00005D1D0000C26C0000EB6C0000076D000072
:100B1000DE750000D0340020680200208D47000000
:100B2000D54100002B6D0000496D0000FD4F000015
:100B30000D0800007A6D0000191D0000BC6D00005A
:100B4000EC6D0000006E00009A6D00004D08000082
:100B500000350020A3786BBB9B4E9C4B30689847B8
:100B6000054600287FF4CFAEDFF8D092984B0146BF
:100B7000D9F80000984701287FF4C1AE14238DF8FE
:100B800000008DF801303068DFF8788201952B463F
:100B90004FF4FA726946C047012807468D4E07D1C7
:100BA0002B462A462946D9F80000C047A77060E7BF
:100BB000894863E7012B7FF4B0AE884B88491868F9
:100BC000884B4FF47A62984701287FF4A6AE237AC7
:100BD000854D864E142B40F0F4808548A847854B00
:100BE0006189E06898478448A8470423637000231C
:100BF000A3700CE7A3782BBB734E744B30689847F7
:100C0000054600287FF47FAEDFF83092704B014636
:100C1000D9F80000984701287FF471AE15238DF8AC
:100C200000008DF801303068DFF8D88101952B463F
:100C30004FF4FA726946C04701280746654EAFD0A7
:100C40006E481BE7012B7FF468AE644B644918685B
:100C5000644B4FF47A62984701287FF45EAE237AA2
:100C6000614D624E152B40F0AC806548A847614B42
:100C70006189E06898476048A8470523B6E7A378EC
:100C800023BB514E514B30689847054600287FF4EE
:100C90003AAEDFF8A8814E4B0146D8F800009847DD
:100CA00001287FF42CAE8DF8000016238DF801305A
:100CB0003068544F01952B464FF4FA726946B84795
:100CC000012806463FF40FAE4F4815E6012B7FF48E
:100CD00024AE424B42491868424B4FF47A6298471F
:100CE00001287FF41AAE237A3F4D404E162B68D16F
:100CF0004648A8473F4B6189E06898473E48A84767
:100D0000062373E7A378ABB92F4E304B3068984772
:100D1000054600287FF4F7ADDFF820812C4B014613
:100D2000D8F80000984701287FF4E9AD8DF800005D
:100D30000923BBE7012B7FF4F0AD284B2849186845
:100D4000284B4FF47A62984701287FF4E6AD237A66
:100D5000254D264E092B34D1E0686189C37A23746E
:100D6000244B98472448A847E36893F83730303B32
:100D7000062B07D8DFE803F004131B1D1F212300F7
:100D80002348A8472348A8472348A8471A48A84704
:100D90000023A3700723E3700223237037E61F4864
:100DA000A8471F48A8471448A84707231EE71D481F
:100DB000E7E71D48E5E71D48E3E71D48E1E71D4873
:100DC000DFE71D48A84712E7F0340020AD4A0000D5
:100DD000F9480000FD4F0000366E0000D0340020BE
:100DE000680200208D4700005D1D0000D541000015
:100DF000606E0000191D0000DE750000776E0000B7
:100E0000A26E0000D1440000BA6E0000E96E00003E
:100E1000066F00005D70000078700000366F000003
:100E2000546F0000846F0000AA6F0000D06F0000B4
:100E3000FB6F000034700000496D00000035002099
:100E4000A378C3B9274E2848284B98473068284BC9
:100E50009847054600287FF456ADDFF8D480254B2F
:100E60000146D8F80000984701287FF448AD8DF876
:100E7000000017231AE7012B7FF44FAD1E4B1F49CB
:100E800018681F4B4FF47A62984701287FF445ADEC
:100E9000237A1C4E1C4F172B1FD161891B4BE06816
:100EA00098471B48B04707221A49E0681A4B9847F1
:100EB0000546A0B91021194B19489847194B984776
:100EC0000223134823706570A570E570B047642055
:100ED000154B9847E068B8471FE51448B047002312
:100EE000A370F7E7F03400207002002049060000EC
:100EF000AD4A0000F9480000D0340020680200200C
:100F00008D4700005D1D0000D5410000191D000047
:100F1000DE750000A26F0000195A00001D150000C8
:100F20000C6B00008D150000FD4F0000496D0000A6
:100F3000003500202DE9F743994D2B78012B2C46E5
:100F400012D004D3022B12D003B0BDE8F083954B2E
:100F500098470028F8D001232B70934800236B702A
:100F6000AB70924B9847EFE7914B9847ECE7EB78E3
:100F7000082BE9D8DFE803F0050A10191B1F527E81
:100F80008B008C4B98470123E370DDE78A4B984731
:100F90000028D9D00223F7E78848894D006800234C
:100FA0001A461946A8470323EEE70423ECE7854BCE
:100FB00098470523E8E7844E844B306898470546F8
:100FC000002840F0BC80DFF85082814B0146D8F801
:100FD0000000984701281FD118238DF800008DF8D4
:100FE00001303068764F01952B464FF4FA7269460E
:100FF000B8470128774E0BD12B462A462946D8F808
:101000000000B8470623E37040F6C410B0479BE7E2
:101010007148664B9847F7E77048A2E7704B7149F3
:101020001868714B6B4D41F288329847012806468B
:101030001DD1227ADFF8D891182A14D1B4F80A8089
:10104000B8F1170F07D9E7686849694B38469847E0
:10105000002800F099810723E370E068C8474FF447
:101060007A70A84770E76348504B9847F3E7072327
:10107000E370F4E70823EB70052200235E484B4C35
:101080002B716A71AB70A0475C48A0475CE72B7975
:10109000012B00F0D9801AD3022B7FF455AFAB7827
:1010A000002B40F01E81484E484B3068984705465B
:1010B000002844D1DFF86081454B0146D8F8000094
:1010C00098470128A8D18DF800001B23D3E0AB7806
:1010D000002B3DD16B79002B33D03B4E3B4B30681E
:1010E0009847054658BBDFF83081394B0146D8F8A0
:1010F0000000984701288FD18DF80000404B60799F
:1011000098478DF8010030682D4F01952B464FF41C
:10111000FA726946B8470128064609D12B462A4685
:101120002946D8F80000B8470823A670E37002E00B
:1011300034481E4B98474FF4FA70264B12E732485A
:101140000FE71A4B3148984701232B7108231BE7FF
:10115000012B7FF4F9AE224B22491868224B4FF441
:101160007A6298470128064658D16179244B2D7A36
:10117000084698478542264D0DD121B1013961714C
:101180000023A37005E00823E3702248074B267173
:101190009847E06865E71748044B9847F0E700BFB9
:1011A00060020020D1170000A47000005D1D000047
:1011B000790800008D150000911A0000FC34002011
:1011C000D14400009D060000F0340020AD4A00002C
:1011D000F9480000FD4F0000BA6E0000C26C00002C
:1011E000D0340020680200208D470000BF7000004E
:1011F000195A0000496D0000D870000017710000F6
:10120000CD0700008E6C0000EB6C0000076D000045
:10121000D54100002B6D0000003500206B7C032BB6
:1012200008D85F485F4DA8475F48A847637C0133F3
:10123000637498E05D485B4DA8475D48A84700236C
:1012400063745C4B98477FE6AB78BBB95A4E5B4BF7
:1012500030689847054600287FF471AFDFF8AC810D
:10126000574B0146D8F80000984701287FF4D4AEC8
:101270008DF800001A238DF8013044E7012B7FF42C
:1012800063AE504B50491868504B464D4FF47A624C
:101290009847012872D1237A4D4E1A2B1CD1E06851
:1012A0004C4B9847074678B14B48A8474B4B618950
:1012B000E06898474A48A847022323710023A37097
:1012C0000823E370E068A1E64648A8474448A847D9
:1012D000454BA7709847F5E74448A8470023A370FB
:1012E000F0E7012B7FF430AE364B37491868374BA7
:1012F0002C4D4FF47A62984701283FD1237A344F1E
:101300001B2B32D1E068334B9847064620B3384850
:10131000A8476189314BE06898473148A8470026C3
:101320000523344863712671A670E67026706670D6
:10133000A8473148A8473148A847A37CE068013353
:10134000A374B847A37C022B7FF6FEAD2C48A847B8
:101350002C48A847A67474E72248A8472048A84705
:10136000E068A670B847204BFFE52048A847002357
:10137000A370E0680823E370B847E5E5637C032BBE
:101380003FF658AF06484EE741463846134B98475C
:101390001348044B98471C4B9847E6705DE600BF26
:1013A000357100005D1D00004F7100009371000059
:1013B000C5710000151F0000F0340020AD4A000088
:1013C000F9480000D0340020680200208D4700005A
:1013D000D54100000D0800007A6D0000191D0000C5
:1013E000DE7500009A6D00004D080000496D000098
:1013F000EC6D0000107200002B7200005F720000A4
:1014000089720000B9720000851A000000350020C2
:1014100008B50C490C480D4B984788B94FF4006249
:101420000B490C480C4B984750B90122114606480D
:101430000A4B98470A4B044898470A4B93F83C33A9
:1014400008BD00BF004001412400002039320000E7
:101450000A3500200C3D0020C1280000CF320000DA
:101460009132000000E100E0014B01221A76704742
:1014700000400141014B02221A76704700400141B1
:1014800030B51A4D1A4C89B02846A0470028FBD029
:10149000184B16489847184B014618489847184B60
:1014A0009847C4B204B303A92046164B9847164B7D
:1014B00012489847BDF81C30984215D302AB134828
:1014C00000932146002303220068114CA047029B91
:1014D0003BB1104B4FF080521A60BFF34F8FBFF3F8
:1014E0006F8F00200C4B984709B030BD24000020BE
:1014F000C5320000B3320000FB2800000C3D002084
:10150000C10700002D06000021290000E83400205A
:10151000F954000004ED00E0B507000070B5064C7A
:10152000064B0E4605462046984732462946204639
:10153000034BBDE8704018472400002091320000A2
:10154000911C0000F7B50C4B04460C480D4698471B
:10155000A8420AD301A80A4B084E0A4F98472544CF
:10156000AC4204D101A8084B984703B0F0BD214616
:101570003046B8470134F3E7212900000C3D002034
:10158000B1260000D9280000BF2600000148024B08
:10159000184700BF0C3D0020292900002DE9F74F16
:1015A0004D4E4E4D4E4FDFF860A13346002403F8F8
:1015B000014BA6F8014010229C702146301D2C7072
:1015C000B8470F22214606F11400B847D046C6F8A6
:1015D0002340444B98470428FBD1DAF80000424BE3
:1015E000424E98470146002831D1414F414B38685F
:1015F000984701282BD12B783F4C032B65D8DFE887
:1016000003F0022C3F4704238DF800304FF000090F
:1016100001238DF8013064224B466946D8F800005A
:10162000CDF80490A047834601280AD14B464A468C
:1016300049463868A04740F2DC50B04785F800B012
:1016400005E02E482E4B984740F2DC50B0472D4B1A
:1016500098474FF41670B047BBE704234FF0020BD6
:101660008DF800308DF801B04FF000094B46642230
:101670006946D8F80000CDF80490A0470128D4E7C7
:101680004FF0040B07238DF800B08DF80130EBE725
:1016900004238DF800304FF0000903238DF801304A
:1016A00064224B466946D8F80000CDF80490A04764
:1016B0000128C6D14B464A4649463868A04740F201
:1016C000DC50B04764232B70C1E700231A4619464B
:1016D0003868A047BBE700BF730200201C3D002014
:1016E000815A000005180000AD4A0000FD4F0000BF
:1016F00000350020F9480000D144000012730000BA
:101700005D1D0000F51E0000F03400200B78013B49
:1017100070B5062B1BD8DFE803F01D32191A1A1A10
:101720000400214C00254A88EBB2073A934205F1A8
:10173000010533DD01251D481D4E2570B0470F21E1
:101740001C481D4B98471D48B047257070BD0023AD
:10175000012BFBD2144B0288A3F801205D1C837877
:10176000AB701748124CA0471648A04703212846E3
:10177000114B984723461148BDE870401847124B5B
:1017800000F1100250F8041B43F8041B9042F9D1F9
:101790000E48074CA04710210B48E9E7C218234424
:1017A000D2791A75BFE700BF73020020CA73000028
:1017B0005D1D000087020020191D0000DE7500007D
:1017C0003A7300006473000077020020AA730000DF
:1017D000014B1878704700BF7302002000F01F0211
:1017E0004009C00100F1824000F500400123934010
:1017F00083609AB21B0C42F0804243F04043826205
:1018000083627047014B1878704700BF9A0200202E
:10181000044B07221A7000225A709A700122DA7063
:10182000704700BF9A0200204F490B78062B70B515
:101830000C467AD0072B45D0002B40F094804B7893
:10184000032B00F29080DFE803F00229353A474D80
:101850003020A847464991F8D0304FF4803603F045
:10186000FE0381F8D0301320C1F89460A84791F8A6
:10187000533003F0FE0381F853304FF400234B61E3
:101880001020A84791F8503003F0FE0381F8503043
:1018900001234E6163704FF4FA7007E0344B4FF44C
:1018A0008032C3F8982002234B703220314BBDE8C0
:1018B0007040184703234B7040F6B830F6E7042316
:1018C0000B7070BD8B7813B1012B1DD070BD284CEF
:1018D000264D3020A84794F8D03003F0FE0384F85A
:1018E000D0304FF48033C4F898301320A84794F8D0
:1018F000533003F0FE0384F853304FF40023A36108
:1019000001238B701920D1E7184B13209847184BEF
:1019100093F8532002F0FE0283F853204FF4002284
:101920005A6100230B704B70B5E7CB78DBB9104CD4
:101930000E4D3020A84794F8D03003F0FE0384F811
:10194000D0304FF48033C4F894301320A84794F873
:10195000533003F0FE0384F853304FF40023A361A7
:101960000123CB70CEE770BD9A020020DD17000086
:1019700000800041FD4F0000014B01221A707047AA
:101980009E02002010B5034B03489847034BBDE867
:10199000104018475D1D0000EC730000151F00008B
:1019A0002DE9F743234B244D9847244B9847244B6C
:1019B0002449254800241C70244B0093012223460F
:1019C000A847234B009306462346012241F270713B
:1019D0002048A847204D074630B32EB3DFF8A0902B
:1019E000C847009402462346304601211B4EB047AB
:1019F0000128804618D1C847009402462346414634
:101A00003846B04701280FD11548A847154E164D46
:101A1000164CB047A8470428FBD1A047144B984761
:101A20006420144B9847F4E71348A847134B984792
:101A3000ECE700BF11180000D15600002908000093
:101A40009E02002080EE36002974000085190000F7
:101A500079190000427400005D1D00002557000048
:101A60005E7400002918000005180000350F000002
:101A7000F51E0000FD4F000077740000151F0000E8
:101A8000194E0000014B00221A7070479E02002080
:101A9000014B1878704700BF9E0200202DE9F047E7
:101AA000254C264B0E462146814615469847002E6A
:101AB0003ED0617819B1012918D0BDE8F0874FF404
:101AC0002F7204F11C001E4B84F81490E582984795
:101AD00031462A4604F11C001A4B984704F11401C0
:101AE00004F11C00184BBDE8F0471847174F184B7E
:101AF000386898478046C8B92846164B84F8149031
:101B0000E5829847A061A8B12A4631460D4B984717
:101B100004F114014346642238680F4CA0470128A1
:101B200008D00E480E4BBDE8F04718470D48F9E7BE
:101B30000D48F7E7BDE8F087A00200202D06000061
:101B4000815A0000375A00000D170000D0340020E1
:101B5000AD4A000015410000D1440000B3740000FC
:101B60005D1D0000E37400000F750000F0B5104D1E
:101B7000104E114F87B04FF0FF330DF1030219469D
:101B80000020A847012810D19DF8030001A9B04703
:101B90009DF80400B84740B9084C0948A0470948D7
:101BA000A0470948A047094B9847094B9847E2E7E7
:101BB0005D5400002D060000CD0600005D1D0000F4
:101BC0005475000072750000DE750000151F0000DE
:101BD000F51E00002DE9F0471E4C1F4D2068DFF870
:101BE000A8901E4EDFF8A4A000231A461946A84765
:101BF000A846C8470428FCD13068D04720B300214C
:101C00002068174B984701281ED1164D3068164B97
:101C1000642229469847012816D16F78134B05F1A5
:101C2000080138469847124B9847297C114BE868C1
:101C30009847114B38469847104B0020984700238F
:101C40001A4619462068C0470D4B984764200D4B33
:101C50009847CEE700350020D1440000F034002042
:101C6000F94800007C0500208D4700002D0600008B
:101C70008D1500001D150000B5070000A907000024
:101C8000F51E0000FD4F000005180000AD4A0000E1
:101C90002DE9F0470F4C06460D461746A146304643
:101CA000A0470028FBD0DFF83080DFF830A0013DEE
:101CB00000246B7804F80830304615F8011FD0472F
:101CC0003046C8470028FBD00134BC42F1D320463F
:101CD000BDE8F087BB32000098050020AD3200005F
:101CE00002230376704780230376704710B5064CB5
:101CF0000649074B20469847012220461146054BCE
:101D0000BDE81040184700BF400000200004004319
:101D100039320000CF32000070B5064C064B0E463B
:101D2000054620469847324629462046034BBDE8E3
:101D3000704018474000002091320000911C0000C4
:101D400010B5044B04461621034898470123237617
:101D500010BD00BF191D0000B57500002DE9F04150
:101D6000184E194F8046B0474FF4FA710546174B8D
:101D700038689847012822D1EDB22846144B98477D
:101D8000044698B12A460021124B134D9847134B35
:101D90004146204698472046B04781B22046A84792
:101DA0000F480221A84720460E4B98470E4C386832
:101DB0000023A4461A461946BDE8F0416047BDE835
:101DC000F08100BF7F5C0000F8340020F94800007B
:101DD00015410000815A0000191D00006F5C0000D1
:101DE000DE750000D5410000D144000030B59BB045
:101DF0000C4605466422002101A8094B984764B1AE
:101E000023460849084C2A4601A8A047074B01A8C9
:101E10009847074B81B201A898471BB030BD00BF5F
:101E2000815A0000D6750000095C00007F5C00004C
:101E3000191D00000C4B10B504220C4C1A760C48EE
:101E4000A0470028FBD00B4B094898470A490023BC
:101E500008704B7009480A4B984705210748094B01
:101E6000BDE81040184700BF00040043C532000021
:101E700040000020B33200001D3D00201F3D002027
:101E80006F5C0000191D0000044B03EB80004FF451
:101E90007A714288024B0348184700BF5C0000205B
:101EA000873A0000F83D002010B50220034B984708
:101EB0000348044BBDE81040184700BF891E0000CE
:101EC000F83D00206B3B000010B5064B9847064BD1
:101ED0004FF47A709847054B01221A73BDE8104001
:101EE000034B184799250000F52600005C000020F0
:101EF000A91E0000044B1B7B012B02D10348044B9D
:101F000018476FF0100070475C000020F83D00207B
:101F1000A73B000070B50B4D0B4C2846A0470B4863
:101F2000A0472846A0470A4C0A4B00251D732046AF
:101F3000094B98472846094B98472046084BBDE86F
:101F400070401847DE7500005D1D0000E17500005F
:101F5000F83D00205C0000207F3B0000891E00004F
:101F60006B3B0000FEE7000008B5144A144B9A4290
:101F700018D1144B144A002193421CD3134A144B1A
:101F800022F07F029A60D3F8882042F47002C3F8EE
:101F90008820BFF34F8FBFF36F8F0E4B98470E4BC8
:101FA0009847FEE70D49043A8B42E2D252F8040FFB
:101FB00043F8040BF8E743F8041BDDE7587B000007
:101FC0000000002090010020FC3E002000000000E6
:101FD00000ED00E0D1590000293C000090010020F4
:101FE00030B54A1CC4B2C0F34712164804F01F03B0
:101FF00000EBC21007D1184490F8403003F0FE0304
:1020000080F8403030BDC5185B0895F8402002F0DC
:10201000FE02184442F0010285F8402090F830306A
:1020200014F0010F19BF03F00F0343EA011101F08F
:102030000F0103F0F00314BFC9B2194380F8301048
:1020400030BD00BF0080004100F01F024009C00108
:1020500000F1824000F500400123934043609AB2B2
:102060001B0C42F0804243F040438262836270471F
:10207000044AD36943F48073D361034B4022C3F80D
:102080000021704700080040001C004010B5044BC0
:10209000984704490448054BBDE81040184700BF65
:1020A0007120000000200042C43D0020A92600004D
:1020B00070B50220154D164CA84716490220A047BE
:1020C0000320A84714490320A0472820A847134904
:1020D0002820A0472920A84711492920A0470420EB
:1020E000A84710490420A0470520A8470E4905200D
:1020F000A0470620A8470D490620A0470720A8476B
:1021000023460B490720BDE87040184749200000CE
:10211000E11F00000100020001000300010028008F
:102120000100290001000400010005000100060073
:1021300001000700044A136A43F080031362034B53
:102140004122C3F82021704700080040001C0040D5
:1021500010B5084B9847084B9847084B0849094861
:102160009847094B18B90948BDE810401847084876
:10217000FAE700BF35210000B1200000012B00006C
:10218000001C0043B03E00205D1D00002A760000C8
:102190004B760000044A136A43F400731362034B46
:1021A0004022C3F82821704700080040001C00406E
:1021B00010B5044B984704490448054BBDE810404E
:1021C000184700BF9521000000240043FC3D00207B
:1021D000CD260000054B4022C3F89020044A5369E5
:1021E00043F480635361034B184700BF001C004059
:1021F0000008004051270000034A936943F0800320
:102200009361024B184700BF0008004019270000E7
:10221000024A136943F0400313617047000800400D
:1022200010B5044B984704490448054BBDE81040DD
:10223000184700BF1122000000400041883D0020E7
:102240008127000010B5054C05491120A047234601
:1022500004491220BDE81040184700BFE11F0000EC
:102260000300110003001200064B4022C3F8E020D7
:102270004A22C3F88C20044A936943F48063936133
:10228000704700BF001C00400008004010B5044B20
:102290009847044B9847044BBDE81040184700BFCF
:1022A00069220000111400004522000010B5054C01
:1022B00005491720A047234604493720BDE81040B0
:1022C000184700BFE11F000003001700030037009C
:1022D000064B4022C3F80C214A22C3F88C20044A42
:1022E000136A43F002031362704700BF001C0040F2
:1022F0000008004010B5044B9847044B9847044B26
:10230000BDE81040184700BFD1220000ED1C0000BE
:10231000AD2200000148024B184700BF10E000E06A
:10232000E5260000044A536943F480435361034B9C
:102330004022C3F8A420704700080040001C004061
:1023400010B5054B9847054B98470549054B024684
:10235000BDE810400448184725230000E539000077
:1023600000380040B1270000503D0020044A536966
:1023700043F400435361034B4022C3F8A420704749
:1023800000080040001C004010B5054B9847054B65
:1023900098470549054B0246BDE8104004481847D8
:1023A0006D230000E5390000003C0040B12700002B
:1023B000703E0020044A936943F400539361034B39
:1023C0004022C3F8E820704700080040001C00408D
:1023D00010B5054B9847054B98470549054B0246F4
:1023E000BDE8104004481847B5230000E539000057
:1023F00000A00141B12700006C3D0020044A936910
:1024000043F400639361034B4022C3F8E420704718
:1024100000080040001C004010B5054B9847054BD4
:1024200098470549054B0246BDE810400448184747
:10243000FD2300007935000000600141892800007B
:10244000903E0020044A936943F480539361034B08
:102450004022C3F8E420704700080040001C004000
:1024600010B5054B9847054B98470549054B024663
:10247000BDE81040044818474524000079350000A5
:102480000080014189280000D83D0020044AD3691A
:1024900043F00803D361034B4022C3F8F420704794
:1024A00000080040001C004010B5054B9847054B44
:1024B00098470549054B0246BDE8104004481847B7
:1024C0008D24000079350000000C004289280000AE
:1024D000303E0020044AD36943F01003D361034B1C
:1024E0004022C3F8F420704700080040001C004060
:1024F00010B5054B9847054B98470549054B0246D3
:10250000BDE8104004481847D52400007935000084
:102510000010004289280000503E0020044A136A3F
:1025200043F010031362034B4022C3F81821704795
:1025300000080040001C004010B5054B9847054BB3
:1025400098470549054B0246BDE810400448184726
:102550001D25000079350000001000438928000087
:10256000A43D0020024A536943F4807353617047CD
:102570000008004010B5044B98470448044B036022
:10258000BDE81040034B184765250000F83D0020CA
:1025900000200040493A00002DE9F041264B274C2D
:1025A000274F284E284D9847284B9847284B984747
:1025B000284B9847284B9847284B9847284B9847D3
:1025C000284B9847284B9847284B9847284B9847C3
:1025D000284B9847A3694FF0400843F48043A36118
:1025E000C7F8E880B047244902462448A847E36971
:1025F00043F02003E361C7F8F880B0472049024662
:102600002048A847E36943EA0803E361C7F8F88074
:10261000B0471D4902461D48A8471D4B98471D4B12
:1026200098471D4B98471D4B98471D4B98471D4B8E
:10263000BDE8F041184700BF012C00000008004031
:10264000001C0040DD39000089280000152300002F
:102650008D200000B1210000D5210000F9210000EB
:1026600021220000F52200008D22000041230000FD
:1026700089230000D123000000C00141C83E002092
:1026800000140042103E002000180042303D00209F
:102690001924000061240000A9240000F124000096
:1026A0003925000075250000004B184795290000CA
:1026B000EFF31083036072B6BFF35F8F7047BFF311
:1026C0005F8F036883F310887047000010B5044BD8
:1026D0000446984718B96060A060E060206110BDB2
:1026E0009D2C0000014B1860014B1847A4050020E9
:1026F00001330000054B10B51C68054B9847054B8E
:1027000001462046BDE81040184700BFA405002040
:10271000F92B000015330000004B1847552E000020
:102720000A4B30B45D68012100228C18640801D086
:1027300030BC7047854204D11B68002BF8D030BCF8
:1027400018472CBFFF210122EFE700BFA80500209A
:10275000044B054800214FF0FF3283E80600034B8D
:10276000184700BFA805002021270000E92D000020
:10277000436903B118477047836903B1184770472D
:1027800010B5044B0446984718B9034B2360034B1C
:10279000636010BD492F00007127000079270000F9
:1027A000436903B118477047836903B118477047FD
:1027B00010B5044B04469847034B2360034B6360FA
:1027C000002010BD19390000A1270000A927000032
:1027D000F0B505681DB90F4BBDE8F0401847D1F8BA
:1027E00008E02C460026C2F1010C6368A7689342FA
:1027F00095BFDB1963449B1ADB19734507D2236825
:10280000264613B93046044BE6E71C46EDE7A542E1
:10281000F8D1E0E7A5280000AD2800002DE9F04739
:102820000669037E44690136DA070546066110D45D
:10283000037E9B070DD4DFF84880DFF8489000F155
:10284000140724B16368A268F31A934207D2BDE863
:10285000F0872B7E43F002032B76BDE8F0873846E5
:10286000C047237C012B04D166603246214638469E
:10287000C847D5F814A0E368204698475446E0E7D7
:10288000B5280000D127000010B51368044640F8B1
:10289000042B98470020024B6061636010BD00BFAD
:1028A0001D28000003680B600160704703680B601F
:1028B0000160704703680BB11A68026018467047E0
:1028C000531E1A4001BF43608260C26001600CBFAA
:1028D00010466FF00C0070478368C2689A4209D0B6
:1028E000426813400268D35C0B70836801338360D5
:1028F000002070476FF009007047C36842681340BA
:102900000268D154C36881684268591A914288BFED
:102910009A1A03F1010388BF8260C36000207047E8
:10292000C2688068101A7047C368836000207047CF
:10293000044B1968024609B9034919601868024432
:102940001A607047B0050020003F0120036A0B4267
:10295000FCD1704738B501210D4DA8470321A84788
:102960000478C4F3400484B90121A847037843F0F4
:10297000010303700121A8474FF4C063036104738E
:10298000436144734480204638BD6FF0100038BD69
:102990004D2900000160014B0846184755290000E9
:1029A00000280DDB4309012200F01F0002FA00F0AD
:1029B0002033044A42F82300BFF34F8FBFF36F8FD9
:1029C000704700BF00E100E0002809DB4309012255
:1029D00000F01F0002FA00F06033024A42F82300C0
:1029E000704700BF00E100E0036B0B42FCD1704771
:1029F00008B50121034B984703889BB243F00103BC
:102A0000038008BDE929000008B50321034B98475E
:102A100003889BB243F00203038008BDE92900004C
:102A20000A46074B10B540F6FF719847838823F09C
:102A30001F031B041B0C02F01F021343838010BDF5
:102A4000E92900000A46084B10B540F6FF71984787
:102A5000838823F4F8531B0412021B0C02F4F8526F
:102A60001343838010BD00BFE929000000F13D4001
:102A7000A0F5E050C0F38720431E584258417047EC
:102A800070B5174E0C460121B0470321B0470588A9
:102A9000C5F340050DBB134B98470121B0471249C0
:102AA000162303FB04118B88C3808B790372CB79C7
:102AB00083700B8983808B7A8372CB7AC3728B8904
:102AC0008381CB89C3810B8A03824B8A43820B7D2E
:102AD000C3704B880380284670BD6FF0100070BD36
:102AE000E9290000F12900006476000000F13D4072
:102AF000A0F5E050800A4000763000F0FE007047FC
:102B00002DE9F8431D4B044608460A4698471C4BDE
:102B1000014610469847064600282BD119496261A4
:102B200010468847DFF86490DFF86480164F00B2E3
:102B3000C8476069884700B2C04760698847012577
:102B4000420900F01F0305FA03F3284447F8223036
:102B500000B2C84760698847284400B2C04760692E
:102B60008847284480B2430900F01F0005FA00F0AE
:102B700047F823003046BDE8F88300BF6D2A000007
:102B8000812A0000ED2A000000E100E0A1290000F8
:102B9000C92900004069014B184700BF092A0000FD
:102BA000426908B540F6FF71034B10469847137D04
:102BB00043F00203137508BDE929000070B504460F
:102BC00015464069034B984729466069024BBDE8AA
:102BD00070401847212A0000452A000043090122BD
:102BE00000F01F0002FA00F04033024A42F82300CE
:102BF000704700BF00E100E04BF680335843704758
:102C000010B50D4A0D4C13889BB213800C4B98479E
:102C10000C4B98474FF40060A0470B4B984740F28D
:102C2000FF70A047094A136943F400731361BDE8BC
:102C30001040074B184700BF00400041AD2E000078
:102C4000C92F00003D2F0000ED2F000000080040BC
:102C5000F92C000083680B42FCD1704738B5012184
:102C60000D4DA8470321A8470278C2F340027AB964
:102C70000121A847037843F0010303700121A8470D
:102C80000123427082708281C2810376104638BD72
:102C90006FF0030038BD00BF552C00000160014BF0
:102CA000084618475D2C000010B4114B114C198CCC
:102CB00001F01F0103EB01130C224A4393F84E105D
:102CC000C90704EB020006D5012283F84E204368B1
:102CD0005DF8044B184793F84E10890704D502217C
:102CE00083F84E10A358F3E75DF8044B704700BF1C
:102CF00000A00041C005002030B52E4B1A8822F0FC
:102D000002021204120C1A805A8822F47C52120415
:102D1000120C5A801A8892B242F001021A801A8864
:102D200012F00102FBD14FF470611980597B2248E7
:102D300001F0FE01597300F500715A6158639963FF
:102D40001E491346A0F5C0701C0104F1824202F531
:102D500020420D6815640D7982F845504D7982F84E
:102D6000465004440133CA88A4F88021202B01F185
:102D70000801E9D11F22012053099B0003F16043A0
:102D800002F01F0103F5614300FA01F1C3F880105E
:102D9000BFF34F8FBFF36F8F0132242AC3F8801126
:102DA0001960E9D1034A13889BB243F002031380F0
:102DB000002030BD00A000414007002090760000B8
:102DC000004B1847A92C0000004B1847A92C000005
:102DD000004B1847A92C0000004B1847A92C0000F5
:102DE000004B1847A92C0000194A13465168C9071F
:102DF000FCD45A689007FCD11B78990725D4144B52
:102E000019465A68D207FCD41A7842F001021A70A7
:102E10004B68DB07FCD40E4B5A6812F00302FBD15F
:102E2000197801F0EF0119705A709A609A611A636B
:102E30005A63DA611A62064B586810F00300FBD13E
:102E40001A7842F002021A7070476FF01000704753
:102E50000028004010B5124A124C0023185D03F1FF
:102E600048010133432B42F82100F7D10E480022DC
:102E700000F14004D30003F1824303F5604330F8CE
:102E80001210196214F8221083F825100132C94378
:102E9000C9B2202A83F82410ECD1002010BD00BF55
:102EA00000E0004190770000D4770000C10742BFE6
:102EB0001D4B1E4A1A62820742BF1B4B1C4A5A62B4
:102EC000430742BF184B194A9A62010742BF164B8B
:102ED000164ADA62C20642BF134B144A1A638306CB
:102EE00042BF114B114A5A63410642BF0E4B0F4A73
:102EF0009A63020642BF0C4B0C4ADA63C30542BF19
:102F0000094B0A4A1A64810542BF074B074A5A64B3
:102F1000420542BF044B074A9A64030542BF024B75
:102F2000054ADA64704700BF001C0040062B010010
:102F300006230100052B0100053B0100014B012286
:102F40005A7170470008004001610B8823F0C003EC
:102F50009B049B0C0B800D4B18600D4B4FF00051E8
:102F6000C3F88010BFF34F8FBFF36F8F4FF08042D5
:102F7000C3F88020BFF34F8FBFF36F8F0020C3F8DB
:102F80008011C3F8802119601A607047400B00203F
:102F900000E100E0094B186803691A8AD20704D5DA
:102FA00001221A82036843B118471A8A92B222B1E9
:102FB00040F25E221A824368F5E77047400B00201A
:102FC000004B1847952F0000074B42F24E029A82A1
:102FD00001229A75DA75DA690022DA61DA68D207B5
:102FE000FCD504221A74704700140040244A136A66
:102FF00023F00F0343F004031362224B00221A77DD
:10300000214A9A6293F82C2012F01002FAD183F828
:1030100020201C4A134692F82C104907FBD4422169
:10302000117793F82C209207FBD45A6A5A62154BF9
:103030001A4693F82C100807FBD4822183F820103D
:1030400092F82C305907FBD492F820300D4A13F037
:10305000010F10D0136903F41063B3F5106FF9D1A9
:10306000074A5368002BFCD1136A23F00F0343F087
:103070000603136270471369DB05FCD5F0E700BF58
:10308000001C0040001000400000010407B50C4A7D
:103090009378DBB20193019B990707D5094B1B6815
:1030A00023B15068984703B05DF804FB019BDB0730
:1030B000F9D5044B5B68002BF5D0014AF1E700BF5E
:1030C00000000241E83E0020002808DB42090123FD
:1030D00000F01F0003FA00F0014B43F82200704794
:1030E00000E100E000280DDB4309012200F01F0091
:1030F00002FA00F02033044A42F82300BFF34F8F56
:10310000BFF36F8F704700BF00E100E0002809DBCC
:103110004309012200F01F0002FA00F06033024A66
:1031200042F82300704700BF00E100E0C3690B4292
:10313000FCD1704708B50321024B98470068C0F3E3
:10314000400008BD2D31000070B50B4D06460FCD77
:1031500086B06C460FC495E8030084E803000020A5
:103160005DF82030B34202D1C0B206B070BD01306C
:103170000628F5D10020F8E79478000038B5254BF3
:103180000446984703283ED004283ED0052814BFA3
:1031900000220222204601211F4DA84720461F4B36
:1031A0009847002833D120460121A847236843F0DF
:1031B0000103236020460121A8471949182303FB76
:1031C0000213D8691D6A206065605D6AA56010F40D
:1031D000C04F1BBFA0891D8D1B8D65F30C001FBF49
:1031E000A08193F82A00A38960F34F33A3811823A9
:1031F00003FB0212002092F82B30A37392F82C30BC
:1032000084F8303038BD0022C4E70122C2E76FF0F5
:10321000100038BD493100002D310000353100006B
:103220009478000008B5034B984780002E3000F0DA
:10323000FE0008BD4931000070B5104B0646084637
:103240000C4698470546B0B9B46120460C4B9847E8
:103250000230C1B20CB220460A4B984720460A4BB6
:10326000984701F1604000F56140E02380F80033A9
:103270002046064B9847284670BD00BF7D310000B0
:1032800025320000E53000000D310000C93000009B
:10329000826908B50321044B10469847136843F030
:1032A0000203136008BD00BF2D31000083699962DD
:1032B00070478369986AC0B270478369187E00F0CE
:1032C000010070478369187EC0F38000704711F0D9
:1032D000FD0F09D183690221012012B918751975F2
:1032E0007047987599757047012904D18369042145
:1032F000002AF7D1F3E70329F5D183698021F7E7A5
:10330000034B6FF07F425A6005221A60704700BF7E
:1033100010E000E00B0E0C4A30B5D8B26FF07F44DD
:103320000138C0B2FF2808D1A3EB036319445160F0
:1033300091601368DB03FCD530BD54609460156860
:10334000ED03FCD5ECE700BF10E000E000280DDB4A
:103350004309012200F01F0002FA00F02033044A62
:1033600042F82300BFF34F8FBFF36F8F704700BF4A
:1033700000E100E0C36819647047C368186C7047C7
:10338000C268D16AC90703D50121D1620368184711
:103390007047000070B50B4D06460FCD86B001ACEE
:1033A0000FC42B682360002001AB53F82020B242E9
:1033B00002D1C0B206B070BD01300528F5D10020A1
:1033C000F8E700BF0C790000C3689A689207FCD147
:1033D0001A6842F002021A607047000038B50546CC
:1033E000364B08460C46984738B1012805D00228CC
:1033F00003D0032801D0042841D143B2EC60A26875
:10340000D207FCD4A2689107FCD12268920751D45C
:10341000A268D107FCD4226842F001022260A268AF
:10342000D207FCD4264A242101FB03239969216099
:10343000197F6171597FA177196A5B6A21622364E0
:103440000123A3621F4B9C421CD11F4B1D6004280B
:1034500096BF8018892190F8C8101C4B08469847E1
:1034600001F01F024909890001F1604101F5614144
:1034700001239340C1F8803100200B6038BD4FF02C
:10348000FF33BBE7124B9C4202D10F4B5D60DEE77E
:10349000104B9C4202D10C4B9D60D8E70E4B9C42D6
:1034A00002D1094BDD60D2E70C4B9C4204BF064BB6
:1034B0001D61CCE76FF0100038BD00BF95330000F0
:1034C0000C79000000600141440B00204D330000E6
:1034D00000800141000C0042001000420010004337
:1034E000C3689A689207FCD11A6822F002021A6037
:1034F0007047C3689A689207FCD11868C0F340000F
:1035000070470000074BC06810B5984704289BBF60
:10351000054BC018892090F8C800044BBDE8104046
:10352000184700BF953300000C790000DD2B000028
:1035300010B5C4680D4B2046984704289BBF0C4B20
:10354000C018892090F8C8000A4B9847A3689A07CA
:10355000FCD1236823F002032360A368DB07FCD4BB
:10356000236843F00103236010BD00BF95330000C2
:103570000C7900004D330000004870476C000020BB
:10358000014B1868014B1847440B002081330000A1
:10359000014B5868014B1847440B00208133000051
:1035A000014B9868014B1847440B00208133000001
:1035B000014BD868014B1847440B002081330000B1
:1035C000014B1869014B1847440B00208133000060
:1035D00000280DDB4309012200F01F0002FA00F071
:1035E0002033044A42F82300BFF34F8FBFF36F8F9D
:1035F000704700BF00E100E003690B42FCD1704757
:1036000008B50121034B9847036843F001030360A9
:1036100008BD00BFF935000008B50321024B9847EB
:103620000068C0F3400008BDF935000008B503216B
:10363000034B9847036823F00203036008BD00BFF3
:10364000F9350000C26808B50321044B10469847BD
:10365000136843F00203136008BD00BFF935000092
:10366000C068014B184700BF2D360000C3681A68B8
:10367000C2F38102022A01D1D96170471A6812F09F
:103680000C0F02D189B2998370471A68C2F3810284
:10369000012A04BFC9B2D9767047C3681A68C2F359
:1036A0008102022A01D1D86970471A6812F00C0F02
:1036B00002D1988B80B270471A68C2F38102012A46
:1036C00006BFD87EC0B2002070470000C068014B22
:1036D000184700BF19360000C268917AC90703D5A0
:1036E0000121917203681847704770B50569AB7A7C
:1036F000DA07044604D50123AB72036803B1984787
:103700006B7A9B0707D50223AB7263681BB1204617
:10371000BDE87040184770BD114B984207D1114B5E
:103720001960114B984204BF0E4B596170470F4B03
:10373000984202D10B4B5960F3E70D4B984202D1EE
:10374000084B996070470B4B984202D1054BD960EA
:103750007047094B9842E4D1024B1961704700BF92
:1037600000380040580B002000180042003C004088
:1037700000A0014100C001410014004270B5134D8A
:1037800006460FCD86B06C460FC495E8030084E86A
:10379000030000235DF82320B2420BD1DBB20C4AB8
:1037A0000020142101FB00F4A45C9C4207D140B22C
:1037B00006B070BD0133062BECD10023EFE70130DA
:1037C0000628EFD14FF0FF30F2E700BFDC790000B0
:1037D0008C0000202DE9F0412E4B074608460C4690
:1037E0009847FC600646012120462B4A9047204618
:1037F0002A4B9847002848D1294B20469847012159
:10380000204690472749142303FB061388465A682D
:103810002260987AE0731889E08002F00C0201209F
:10382000082A207322D1DA68E2611B69236201252C
:10383000394620461C4B65729847142303FB0686C5
:103840001A4BB6F902100846984700290BDB01F025
:103850001F034909890001F1604101F561419D4063
:10386000C1F880510D600020BDE8F08122B99A892D
:10387000A2831B8AE383DAE7042AD8D11A7B227752
:103880001A7C6277DB7AE376D1E76FF01000BDE84F
:10389000F08100BF7D370000F935000019360000C7
:1038A000013600008C00002019370000D1350000DF
:1038B00010B5C468094B20469847094A142303FBF6
:1038C0000020084BB0F9020098472046064B984765
:1038D0002046064BBDE81040184700BF7D3700006A
:1038E0008C000020D13500002D360000013600008C
:1038F00010B5064BC0689847054A142303FB002007
:10390000BDE810408078034B184700BF7D370000AA
:103910008C000020DD2B0000F8B5294B0646084638
:103920000C4698473461054601212046254A9047B8
:103930002046254B984700283CD1244B244F204655
:103940009847204601219047142303FB05735A68CA
:103950002260987AE0731889E08002F00C0203205C
:10396000082A207320D1DA68E2611B69236231469C
:103970002046184B9847142303FB0575164BB5F9E1
:1039800002100846984700290CDB01F01F02490984
:10399000890001F1604101F5614101239340C1F8C3
:1039A00080310B600020F8BD3AB99A89A2831B8A46
:1039B000E383DCE76FF01000F8BD4FF0FF30F8BD97
:1039C0007D370000F935000019360000013600008F
:1039D0008C00002019370000D135000000487047E6
:1039E0000401002000207047014B1868014B184764
:1039F000580B0020EB360000014B5868014B18476C
:103A0000580B0020EB360000014B9868014B18471B
:103A1000580B0020EB360000014BD868014B1847CB
:103A2000580B0020D9360000014B1869014B18478C
:103A3000580B0020D9360000014B5869014B18473C
:103A4000580B0020D936000003689A6812F00E0F58
:103A5000FBD11A78D20913D19A6812F00E0FFBD15C
:103A60001A7892070CD4986810F00E00FBD11A78DF
:103A700002F0FB021A705A7802F0F0025A70704796
:103A80006FF010007047D0B50468A36813F00E0FF4
:103A9000FBD1237803F0FD032370A36813F00E0F0E
:103AA000FBD1237803F07F032370A36813F00E0F7C
:103AB000FBD12378DB0955D1A36813F00E0FFBD19E
:103AC0002378C3F34003002B4CD1A2FB01010E4627
:103AD0001F4656EA07020DD1B0F57A3F38D014D808
:103AE000B0F5FA4F30D008D8B0F5FA5F25D0B0F570
:103AF0007A5F21D06FF00C00D0BDB0F57A4F25D0A1
:103B0000B0F5FA3FF6D1042317E0B0F5FA1F23D041
:103B100007D8B0F5FA2F1DD0B0F57A2FEAD10723D8
:103B20000BE0B0F5FA0F19D0B0F57A0F18D0B0F558
:103B30007A1FDFD1092300E00123627802F0F0024E
:103B4000134363700020D0BD0223F6E70323F4E79C
:103B50000523F2E70623F0E70823EEE70A23ECE764
:103B60000B23EAE76FF01000D0BD0368986810F0EF
:103B70000E00FBD11A7842F002021A7070470368F7
:103B80009A6812F00E0FFBD11A78D20908D1986802
:103B900010F00E00FBD11A7802F0FD021A70704787
:103BA0006FF0100070470368A5221A730020704759
:103BB00070B50022144C154E154D08210120A04768
:103BC0000121306000220846A04700222860082119
:103BD0000120A0470F4B186033689BB12B688BB155
:103BE00080B1032200210120A0470B4B0322186063
:103BF00000210120A047094B1860094B012098477C
:103C0000084B186070BD00BF7D440000F0340020F8
:103C100004350020D034002000350020FC34002082
:103C20007D460000F834002083B5274B274D284CF3
:103C300098470227274B0193962200232649009795
:103C40002648A8470126264B206001939622002390
:103C5000244900962448A847244B6060019396228B
:103C60000023234900972348A847234BA0600193D2
:103C700096220023214900962148A847214BE06065
:103C800001930096002396221F492048A8472368E5
:103C90001F4DB34215D1E368B34212D16368B342FA
:103CA0000FD1A368B3420CD1B0420AD1194B984747
:103CB00020B1194B98471948A847FEE71848A8476C
:103CC000F9E71848FBE700BFC91E0000E54B0000FC
:103CD000700B0020F4340020F4790000A1050000EE
:103CE000D4340020FF790000D51B0000E834002008
:103CF0000B7A00006D1B0000DC340020177A0000F6
:103D0000A1190000E0340020287A00009D15000071
:103D10005D1D0000B13B0000854D00006D7A000084
:103D2000367A0000567A000000F1080343604FF035
:103D3000FF32C36003610023826003607047002389
:103D40000361704743684B609A688A609A68516063
:103D50009960036808610133036070470A68531C67
:103D600030B50AD103695A684A6091608B60596026
:103D7000036808610133036030BD00F108035C682B
:103D80002568AA42EFD32346F9E7416882680369B0
:103D90008A60826851605968884208BF5A60002270
:103DA00002611A68013A1A601868704782B00023ED
:103DB00001930D4B1B68013308D04FF0800383F350
:103DC0001188BFF36F8FBFF34F8FFEE74FF0800373
:103DD00083F31188BFF36F8FBFF34F8F019B002BCD
:103DE000FCD002B0704700BF2401002008480068E2
:103DF000006880F308884FF0000080F3148862B6F2
:103E000061B6BFF34F8FBFF36F8F00DF00BF0000BD
:103E100008ED00E0DFF80C00016841F4700101607A
:103E20007047000088ED00E04FF0807340F8043CDC
:103E3000074B40F80C3C21F001016FF0020340F801
:103E4000081C40F8202C40F8243C4438704700BF40
:103E5000AD3D000000000000000000000000000078
:103E6000074B19680868B0E8F04F80F30988BFF382
:103E70006F8F4FF0000080F311887047AFF3008020
:103E80000C3400204FF0800383F31188BFF36F8F51
:103E9000BFF34F8F0A4A13680133012B13600DD112
:103EA000084B1B6813F0FF0F08D04FF0800383F31B
:103EB0001188BFF36F8FBFF34F8FFEE7704700BFCE
:103EC0002401002004ED00E0084A136843B94FF0D4
:103ED000800383F31188BFF36F8FBFF34F8FFEE72B
:103EE000013B13600BB983F3118870472401002054
:103EF000EFF30980BFF36F8F154B1A681EF0100F98
:103F000008BF20ED108A20E9F04F10602DE909006C
:103F10004FF0800080F31188BFF34F8FBFF36F8F96
:103F200001F098F84FF0000080F3118809BC19687F
:103F30000868B0E8F04F1EF0100F08BFB0EC108A10
:103F400080F30988BFF36F8F704700BFAFF3008025
:103F50000C34002008B54FF0800383F31188BFF3C1
:103F60006F8FBFF34F8F054B984718B1044B4FF03D
:103F700080521A60002383F3118808BD254E00008B
:103F800004ED00E0054B064900221A600A60054A6C
:103F90004BF67F31116007221A60704710E000E095
:103FA00018E000E014E000E0384B394A13B5196816
:103FB000914208D14FF0800383F31188BFF36F8FD4
:103FC000BFF34F8FFEE71A68324B9A4208D14FF089
:103FD000800383F31188BFF36F8FBFF34F8FFEE72A
:103FE0002D4B1A78D2B20192FF221A701B78DBB2E5
:103FF0008DF803309DF80320284B02F080021A70E0
:1040000007225A6000219DF80300000602F1FF34E8
:104010000DD401B15A605A68042A11D04FF08003C0
:1040200083F31188BFF36F8FBFF34F8FFEE79DF8C7
:1040300003205200D2B28DF8032001212246E2E78C
:10404000120202F4E0625A60019B134ADBB2137061
:10405000134B1A6842F460021A601A6842F0604218
:104060001A60104B9847104B00241C600F4B984768
:104070000F4A136843F0404313600E4B98470E4BB2
:1040800098470E4B9847204602B010BD00ED00E067
:1040900071C20F4170C20F4100E400E0800B0020AC
:1040A00020ED00E0853F000024010020153E0000C7
:1040B00034EF00E0ED3D000055500000AD3D000044
:1040C000EFF305830F2B104A0DD910495B5C117873
:1040D000994208D94FF0800383F31188BFF36F8FA3
:1040E000BFF34F8FFEE70A4B52681B6803F4E0638F
:1040F000934208D94FF0800383F31188BFF36F8F89
:10410000BFF34F8FFEE77047800B0020F0E300E025
:104110000CED00E070B5294B04469847284B986891
:1041200090B92849586003F1140222F0070242F2C4
:10413000F875C1F82056C1F81C0601F21C611A601E
:104140005560116001229A602CB1083462071CBFCF
:1041500024F007040834611E42F2F672914207D837
:104160001B6817495A68944204D81748834207D1FC
:1041700000251DE018680028F7D019460346F1E72E
:104180000D6818680860121B102A05F108050AD985
:1041900019194A605C604E68094A10684468A64272
:1041A0000AD80860116009495B680A68D21A0A6077
:1041B000074B9847284670BD0246EEE7054E0000C3
:1041C000880B0020782D0020943300202801002047
:1041D000114F000070B50446B8B10C4BA0F10805B2
:1041E000984754F8040C0A4A11684B6898420AD858
:1041F00044F8081C1560074A136803441360BDE8BF
:104200007040054B18470A46EEE770BD054E0000AA
:10421000880B002028010020114F000010B5044633
:10422000044B9847A46B044B9847B4FA84F04009B8
:1042300010BD00BF853E0000C93E000070B51546A8
:10424000026C866B044642B905689DB94068144B00
:10425000984765600136A66370BD124B65B98068EA
:104260009847A368226C13446268A360934201D309
:104270002368A3600020EDE7C0689847236CE268DC
:1042800021685B421A448A42E2603EBF62689B1822
:10429000E360022DEED10EB1013EEBE73046D9E7E7
:1042A00025530000375A0000034610B41A6C084624
:1042B00062B1D9685C681144A142D96024BF196811
:1042C000D960D9685DF8044B024B18475DF8044B80
:1042D000704700BF375A00004FF0800383F3118806
:1042E000BFF36F8FBFF34F8FFEE7000073B5846C91
:1042F00001900A460CB9174B9847A16BE36B9942A2
:1043000008D34FF0800383F31188BFF36F8FBFF39F
:104310004F8FFEE7A16B8B421AD994F845500E4B94
:1043200001A9204698476DB26B1C06460BD1636A03
:1043300033B104F12400094B9847002818BF012627
:10434000304602B070BD01356DB284F84550F7E7D4
:104350000026F5E7D94200003D4200005951000017
:104360002DE9F04704461F4F1F4EDFF88480DFF829
:104370008490B84794F845506DB2002D17DCFF23A8
:1043800084F84530194EDFF86080DFF86490B0475C
:10439000B84794F8445004F110076DB2002D17DCB3
:1043A000FF2384F844303346BDE8F0471847A36C38
:1043B0003BB100212046C84700B1C047013D6DB266
:1043C000DBE7636A002BDAD004F12400B047F3E79F
:1043D0002369002BE4D03846C04700B1C847013DEF
:1043E0006DB2DBE7853E000059510000C93E000078
:1043F00071520000ED42000038B50D46044608B980
:10440000184B9847184B9847206CE36B2268A260C2
:104410004343D1181B1A13446160E3600021FF235A
:10442000A16384F8443084F8453095B9236963B1B9
:1044300004F110000D4B984738B10D4B4FF08052EE
:104440001A60BFF34F8FBFF36F8F0A4B984701205D
:1044500038BD04F11000084DA84704F12400A84716
:10446000F3E700BFD9420000853E0000595100002B
:1044700004ED00E0C93E0000293D0000F8B50D46FE
:104480001746064640B94FF0800383F31188BFF307
:104490006F8FBFF34F8FFEE7484354300A4B984766
:1044A000044658B165B92060084BE66325640121D4
:1044B00020469847002384F85070A3642046F8BD36
:1044C00000F154030360EFE715410000F9430000D9
:1044D0002DE9F04F87B08A4603921F46044640B943
:1044E0004FF0800383F31188BFF36F8FBFF34F8FBB
:1044F000FEE7002940F08F80036C002B00F08B80DA
:104500004FF0800383F31188BFF36F8FBFF34F8F9A
:10451000FEE7039B002B00F089804FF0800383F3BC
:104520001188BFF36F8FBFF34F8FFEE7636A002BD5
:104530005BD004F12400444B984756E0039D15B925
:10454000B04700205CE013B904A8404B9847B0473F
:104550003F4BDFF820B13F4D9847C04794F84430B7
:10456000FF2B04BF002384F8443094F84530FF2B20
:1045700004BF002384F84530B04703A904A8364B94
:104580009847002843D1C047A16BE26B029101928A
:10459000B047019A0299914235D103992F4A04F10B
:1045A000100090472046D847A84738B92C4A4FF00A
:1045B00080531360BFF34F8FBFF36F8F01230193BD
:1045C000C847A16BE26B274E914202D3022F019B99
:1045D000B4D1254B3A46514620469847A36C002B50
:1045E000A4D039462046214B984738B11C4B4FF098
:1045F00080521A60BFF34F8FBFF36F8FB047012017
:1046000007B0BDE8F08F2046D847A847D6E7204638
:10461000D847A84795E7022F02D1E36B012B09D1B8
:10462000134B984700283FF474AF0023DFF84890FD
:10463000C846C4E74FF0800383F31188BFF36F8F40
:10464000BFF34F8FFEE700BF59510000DD5100005E
:10465000054E0000114F0000F1510000D95000003C
:1046600004ED00E0C93E00003D420000ED420000C4
:104670008152000061430000853E000038B50246CB
:1046800000210120064B9847044638B100234360BF
:104690000360C3601A461946024DA847204638BD3C
:1046A0007D440000D14400002DE9F843884691463E
:1046B0001F46044640B94FF0800383F31188BFF3CF
:1046C0006F8FBFF34F8FFEE719BB036C0BB34FF037
:1046D000800383F31188BFF36F8FBFF34F8FFEE723
:1046E000B9F1000F3FD00120C9F8000086F311880E
:1046F000BDE8F883636A002B35D004F124001F4B1A
:1047000098472EE001356DB284F845502BE000202B
:10471000ECE7022F02D1E36B012B26D1184B98470F
:10472000EFF311864FF0800383F31188BFF36F8F8F
:10473000BFF34F8FA26BE36B9A4201D3022FE6D1F6
:1047400094F845500F4B6DB23A4641462046984783
:104750006B1CD7D1A36C002BCCD0394620460A4B1A
:1047600098470028BCD10120C0E74FF0800383F3B5
:104770001188BFF36F8FBFF34F8FFEE759510000D1
:10478000C14000003D420000ED4200002DE9F04F25
:1047900085B089460192044640B94FF0800383F307
:1047A0001188BFF36F8FBFF34F8FFEE700297DD1D4
:1047B000036C002B7AD04FF0800383F31188BFF392
:1047C0006F8FBFF34F8FFEE7019E002E73D04FF027
:1047D000800383F31188BFF36F8FBFF34F8FFEE722
:1047E000019D15B9B847002051E016B902A8354B14
:1047F0009847B847344B354E354D9847D84794F8CD
:104800004430FF2B04BF002384F8443094F8453033
:10481000FF2B04BF002384F84530B84701A902A844
:104820002C4B2D4F9847002838D12046B8470028F8
:1048300030D00199294B04F1240098472046B04715
:10484000A84738B94FF08053CAF80030BFF34F8FF4
:10485000BFF36F8F0126C047A56B214F002DBFD03E
:10486000204B49462046013D9847A563236963B123
:1048700004F110001C4B984738B11C4B4FF080528C
:104880001A60BFF34F8FBFF36F8FB847012005B099
:10489000BDE8F08F2046B047A847DBE72046B04789
:1048A000A8472046B8470028D4D09CE7104B98472B
:1048B000002889D00026DFF83C80DFF830A0C3460E
:1048C000C9E700BFDD510000054E00006143000054
:1048D000114F0000F15100001D420000D9500000AE
:1048E000C93E0000A94200005951000004ED00E05B
:1048F00081520000853E00002DE9F04F85B004464E
:10490000019140B94FF0800383F31188BFF36F8F9B
:10491000BFF34F8FFEE7056C45B14FF0800383F383
:104920001188BFF36F8FBFF34F8FFEE7504B98474F
:1049300018B9019D002D40F09180DFF86491DFF8F7
:104940003CA12E464F46C847A36BE3B1013BA3638E
:10495000236813B9474B98476060236963B104F13A
:104960001000454B984738B1444B4FF080521A60C5
:10497000BFF34F8FBFF36F8F414B984701252846F8
:1049800005B0BDE8F08F019B63B945B14FF08003DE
:1049900083F31188BFF36F8FBFF34F8FFEE7384B60
:1049A0009847ECE716B902A8364B9847344EDFF823
:1049B000F4B0DFF8F480B047334B9847B84794F829
:1049C0004430FF2B04BF002384F8443094F8453072
:1049D000FF2B04BF002384F84530B0472B4B01A9BF
:1049E00002A898472A4B08BB20469847D0B12368B5
:1049F0002BB9B8476068274B98470546B0470199DF
:104A0000254B04F1240098472046D847C04738B9C1
:104A10004FF08053CAF80030BFF34F8FBFF36F8F52
:104A2000012690E72046D847C047F9E72046009383
:104A3000D847C0472046009B98470028F0D0002D5B
:104A40009DD0B847616A19B1236B1968C1F105019E
:104A50006068124B98470025B04790E74FF08003FD
:104A600083F31188BFF36F8FBFF34F8FFEE700BF53
:104A700081520000455400005951000004ED00E04F
:104A8000C93E0000DD510000054E0000F15100005C
:104A90001D420000A1520000D9500000A95300009F
:104AA000853E000061430000114F000010B5044630
:104AB00040B94FF0800383F31188BFF36F8FBFF3CA
:104AC0004F8FFEE7034B9847A46B034B9847204654
:104AD00010BD00BF853E0000C93E000070B5044611
:104AE000104B0D461646984794F84430FF2B04BFF0
:104AF000002384F8443094F84530FF2B04BF002392
:104B000084F84530084B9847A36B2BB932462946A9
:104B100004F12400054B98472046054BBDE8704042
:104B2000184700BF853E0000C93E00001551000037
:104B3000614300000649074B4FF080520868012886
:104B4000FCD91A60BFF34F8FBFF36F8FF6E700BF3A
:104B50009C33002004ED00E0064B5A6E12681AB92F
:104B60004FF0FF329A6670475A6ED268D268526828
:104B7000F8E700BF9C3300202DE9F041154E164B9D
:104B8000F76E0546306F0430884698476B1C3446F4
:104B90000AD1B8F1000F07D0316F104B043106F184
:104BA0007400BDE8F04118473D44236FAF425D609B
:104BB0000B4B04D9D4F88800216F0431F1E7606E03
:104BC000216F04319847A36E9D4238BFA566BDE8AA
:104BD000F08100BF9C3300208B3D0000453D00006C
:104BE0005D3D00002DE9F84F940080465A4D204667
:104BF0000F469946A8470646002800F09E8054209C
:104C0000A8470546002800F0958022460663534BCE
:104C1000A521304698472B6B043C1C4424F0070A1E
:104C20007B1E05F134020737597802F8011B13F88F
:104C3000011F09B1BB42F7D10A9C494E042C28BF81
:104C400004244FF0000B2F1DEC626C64384685F88D
:104C50003BB0C5F848B0B047C4F1050405F11800F1
:104C6000B047C5F84CB03F4B2D61AC616D6285F823
:104C700050B04A464146504698470B9B286003B1C6
:104C80001D60394C394B9847D4F8A0300133C4F833
:104C9000A030236F002B54D12567D4F8A030012B0E
:104CA00020D1334E2046B04704F11400B04704F140
:104CB0002800B04704F13C00B04704F1A40904F116
:104CC0005000B04704F1B8084846B0474046B047E6
:104CD00004F18C00B04704F17400B047C4F864904C
:104CE000C4F88880D4F8D030D4F8D4200133C4F884
:104CF000D030EB63EB6A1420934288BFC4F8D43001
:104D000000FB034039461B4B98471B4B9847D4F890
:104D1000CC3063B1236FDA6AEB6A9A4207D2174B41
:104D20004FF080521A60BFF34F8FBFF36F8F012097
:104D3000BDE8F88F3046124B98474FF0FF30BDE882
:104D4000F88FD4F8CC30002BCCD1236FDA6AEB6A21
:104D50009A4298BF2567C5E715410000815A0000B7
:104D60003F3D0000293E00009C330020853E0000AE
:104D7000293D0000453D0000C93E000004ED00E073
:104D8000D541000073B5194C19491A481A4E04F15F
:104D9000DC030025019300952B468022B0470128B3
:104DA00016D1164B9847012812D14FF0800383F398
:104DB0001188BFF36F8FBFF34F8F4FF0FF33A366A0
:104DC0000F4BC4F8CC00E56602B0BDE87040184750
:104DD000013008D14FF0800383F31188BFF36F8F48
:104DE000BFF34F8FFEE702B070BD00BF9C330020C1
:104DF000857A0000354B0000E54B0000815600002D
:104E0000A93F0000034AD2F8D8300133C2F8D830A5
:104E1000704700BF9C330020014BD86E704700BF25
:104E20009C3300202DE9F84F354BD3F8D8201C4691
:104E3000002A3DD1DE6E0136DE66C6B95B6E1B68A8
:104E400043B14FF0800383F31188BFF36F8FBFF33B
:104E50004F8FFEE7636ED4F888206266C4F888300E
:104E6000D4F8E0300133C4F8E030264B9847A36E05
:104E70009E424FF000050BD3DFF88C80DFF88CB03A
:104E80004FF0140A636E1B68CBB94FF0FF33A36673
:104E9000236FDA6A14235343E358022B28BF0125FA
:104EA000D4F8E830002B18BF01252846BDE8F88F5C
:104EB000D3F8E4300133C4F8E4300025F0E7636E42
:104EC000DB68DF687B689E42E1D307F1040948464E
:104ED000C047BB6A13B107F11800C047F86AD4F89D
:104EE000D430984288BFC4F8D40049460AFB004039
:104EF000D847236FFA6ADB6A9A4228BF0125C1E7C7
:104F00009C330020594B00008B3D0000453D0000C4
:104F10002DE9F843314CD4F8D83043B94FF0800331
:104F200083F31188BFF36F8FBFF34F8FFEE72C4BD6
:104F30009847D4F8D830013BC4F8D830D4F8D850CA
:104F40002DB10024274B98472046BDE8F883D4F8BC
:104F5000A030002BF5D0244FDFF89C904FF01408C0
:104F6000D4F88C30EBB90DB1204B9847D4F8E4500D
:104F70004DB11F4E0127B04708B1C4F8E870013D9C
:104F8000F9D1C4F8E450D4F8E830002BD9D0194B4B
:104F90004FF080521A60BFF34F8FBFF36F8F012421
:104FA000D0E7D4F89830DD682E1D05F11800B84719
:104FB0003046B847E86AD4F8D430984288BFC4F87D
:104FC000D400314608FB0040C847236FEA6ADB6A19
:104FD0009A4224BF0123C4F8E830C1E79C33002083
:104FE000853E0000C93E00008B3D0000594B00008B
:104FF000254E000004ED00E0453D000008B540B935
:105000000F4B4FF080521A60BFF34F8FBFF36F8F7B
:1050100008BD0C4BD3F8D81041B14FF0800383F397
:105020001188BFF36F8FBFF34F8FFEE7064B984792
:10503000064B9847064B98470028E1D008BD00BFB3
:1050400004ED00E09C330020054E0000794B000089
:10505000114F000038B51E4BD3F8D8201C461AB1AA
:105060000122C3F8E82038BDC3F8E8201A6F1B6F8F
:1050700012681B6B9A4204D8206F216F154B343194
:105080009847D4F8D420142505FB02F3E118E05822
:1050900088B148680833406848602344984204BF98
:1050A00043684B60142303FB02435B68DB682367A0
:1050B000C4F8D42038BD42B94FF0800383F311887F
:1050C000BFF36F8FBFF34F8FFEE7013ADCE700BFFE
:1050D0009C330020D102000010B50C4640B94FF0BF
:1050E000800383F31188BFF36F8FBFF34F8FFEE709
:1050F000054B196F054B1831984720460121044B89
:10510000BDE81040184700BF9C3300205D3D000003
:10511000794B000070B50D46144640B94FF080033E
:1051200083F31188BFF36F8FBFF34F8FFEE7074BF9
:10513000196F074B18319847002C21460CBF2846A1
:105140004FF0FF30034BBDE8704018479C33002000
:10515000453D0000794B0000C3682DE9F041D3F8CC
:105160000C80B8F1000F08D14FF0800383F3118851
:10517000BFF36F8FBFF34F8FFEE708F11806144C93
:10518000144F154D3046B847D4F8D830E3B908F17C
:1051900004063046B847D8F82C30D4F8D420142070
:1051A000934288BFC4F8D430314600FB0340A8477F
:1051B000236FD8F82C20DB6A9A4286BF0120C4F8FE
:1051C000E8000020BDE8F081314604F18C00EEE7F4
:1051D0009C3300208B3D0000453D0000034BD3F87D
:1051E000E020DB6E02604360704700BF9C3300200C
:1051F00070B50C46054640B94FF0800383F3118823
:10520000BFF36F8FBFF34F8FFEE741B94FF08003BD
:1052100083F31188BFF36F8FBFF34F8FFEE7104BFF
:10522000984723680F486968C26E5E1C0ED0D0F89C
:10523000E0002E68864201D08A420ED2521A9A426B
:1052400009D29B1A23602846074B98470024074B36
:105250009847204670BD002323600124F7E700BF74
:10526000853E00009C330020DD510000C93E000057
:10527000024B0122C3F8E820704700BF9C33002096
:10528000064BD3F8CC2032B1D3F8D830002B0CBF6A
:105290000220002070470120704700BF9C3300208F
:1052A00070B50446002831D01B4AC36A116FC96A21
:1052B0008B42154622D28269002AA1BF2A6FD26A88
:1052C000C2F105028261142202FB035342699A4231
:1052D0001DD1061D114B304698472B6FD5F8D420B1
:1052E000DB6AE362934201D9C5F8D430142000FB95
:1052F000035031460A4B9847012070BD136F406C34
:10530000DC6AA0422CBF0020012070BD70BD2B6F55
:10531000DB6AC362F0E700BF9C3300208B3D0000D6
:10532000453D000070B5044608B9002070BD1B4D16
:105330002B6F984208D04FF0800383F31188BFF39E
:105340006F8FBFF34F8FFEE7836C43B94FF080033D
:1053500083F31188BFF36F8FBFF34F8FFEE7C16AEE
:10536000426C013B91428364DFD0002BDDD1061DEE
:1053700030460B4B9847636CE362C3F10502A261B0
:10538000D5F8D4201420934200FB035088BFC5F801
:10539000D4303146034B9847012070BD9C33002028
:1053A0008B3D0000453D000070B50446002841D00B
:1053B000826C42B94FF0800383F31188BFF36F8F83
:1053C000BFF34F8FFEE7436C994238BF1946C36A5B
:1053D0008B422FD0012A2DD1174D2A6F904208D130
:1053E0004FF0800383F31188BFF36F8FBFF34F8FAC
:1053F000FEE78269C162002A4FF0140202FB0353E8
:105400004269A4BFC1F1050181619A4212D1061D12
:105410000A4B30469847E36AD5F8D420934201D925
:10542000C5F8D430142000FB03503146044BBDE8CE
:105430007040184770BD00BF9C3300208B3D0000BA
:10544000453D0000044B1A6F1AB1196F8A6C013286
:105450008A64186F704700BF9C3300202DE9F84321
:10546000204C214F1D4681460E469046B847236F7B
:1054700093F85030022B14D0236FDA6C22EA090221
:10548000DA64236F012183F8501055B12846174B79
:105490009847174B4FF080521A60BFF34F8FBFF3FE
:1054A0006F8F144DA847B8472A46B8F1000F03D0B4
:1054B000236FDB6CC8F80030236F93F85030022B59
:1054C00001BF236FD96CB143D964236F4FF0000142
:1054D0000CBF0125002583F8501090472846BDE8F1
:1054E000F88300BF9C330020853E0000794B00000C
:1054F00004ED00E0C93E00002DE9F843089F88460E
:1055000015469946044640B94FF0800383F311884D
:10551000BFF36F8FBFF34F8FFEE7334B9847EFF327
:1055200011864FF0800383F31188BFF36F8FBFF3B1
:105530004F8FB9F1000F02D0E36CC9F8003094F836
:105540005030022284F850206A1EDBB2032A07D8AA
:10555000DFE802F0020D1210E26C42EA0802E26497
:10556000012B0CD0012086F31188BDE8F883E26C92
:105570000132F4E7022B35D0C4F84C80F0E7A36A7F
:1055800043B14FF0800383F31188BFF36F8FBFF3F4
:105590004F8FFEE7154DDFF85C80D5F8D830CBB9DA
:1055A00004F10409124B48469847E36AD5F8D42021
:1055B0001420934288BFC5F8D430494600FB0350FD
:1055C000C0472B6FE26ADB6A9A42CBD9012037B120
:1055D0003860C8E704F1180105F18C00F0E7C5F860
:1055E000E800C0E70020BEE7C14000009C33002077
:1055F0008B3D0000453D00002DE9F0410C4C0D4B6A
:105600009847256885B9271D3846DFF8348004F1AE
:105610001806C0473046C0472A460C211420064BC6
:10562000E762266398472060044BBDE8F0411847C5
:1056300088340020853E00007D440000C93E000003
:10564000293D0000914208B5416000610AD8D21A94
:1056500083699A420ED2084B011D186B074B98477D
:10566000002008BD9A4201D2994203D2024B011D8B
:10567000D86AF3E7012008BD883400205D3D0000B2
:105680000E4B13B598470E4B1A6842B94FF0800382
:1056900083F31188BFF36F8FBFF34F8FFEE734336F
:1056A0000193032300938022002306490648074CF8
:1056B000A0470028EAD002B010BD00BFF955000095
:1056C00088340020997A000009580000E54B00005A
:1056D0002DE9F04180461E462C200F4B0D46174603
:1056E00098470446A8B145B94FF0800383F3118869
:1056F000BFF36F8FBFF34F8FFEE7084B9847069BB2
:105700006362C4F80080A561E7612662201D044B36
:1057100098472046BDE8F08115410000F95500008A
:105720003F3D000030B5154685B01A46034640B9E6
:105730004FF0800383F31188BFF36F8FBFF34F8F58
:10574000FEE70D4C206880B1052901910295039375
:105750000DDC0A4B0A4D98470023022808BF089A1F
:10576000206818BF1A4601A9A84705B030BD00231C
:1057700001A9044CA047F8E78834002081520000BA
:10578000D1440000A94600002DE9F3411A4D1B4FFA
:10579000EB6A1A682AB92A6BEA622B6302B0BDE889
:1057A000F081DB68DC681E6804F104084046B847F5
:1057B000636A20469847E369012BE9D1A369334422
:1057C0009E4206D2636024614146E86A0C4B9847CA
:1057D000DEE700232046009332461946094CA047D5
:1057E0000028D5D14FF0800383F31188BFF36F8F6A
:1057F000BFF34F8FFEE700BF883400208B3D0000D1
:105800005D3D0000255700002DE9F04F87B0644D45
:10581000EA6AD2F80090A846B9F1000F3BD0D268EE
:105820001668604A604F9047B847AA6B904282461C
:1058300033D25E4A90470124C5F838A0DFF88CB116
:10584000002C73D1B9F1000F58D056456CD8D84709
:10585000EB6ADB68DD68564B281D9847EB69012B26
:105860001DD1A9695246334631442846DFF858A174
:10587000D047A0B1009423462146324628464D4CDD
:10588000A04760B94FF0800383F31188BFF36F8F97
:10589000BFF34F8FFEE74E46C3E70024CCE76B6AA9
:1058A00028469847444D414ED8F80000002203A9ED
:1058B000A8470028ABD0039B002BF5DB059C636950
:1058C00013B1201D3A4B9847B847D8F83830984262
:1058D000834600D2B047039AC8F838B0092AE3D803
:1058E0000123934013F4047A46D113F0C70F1FD15C
:1058F0009B06D9D52046314B9847D4E72B6B1A68C5
:10590000B2FA82F25209A6EB0A0128682C4B98479A
:10591000D8470028C6D12B4B4FF080521A60BFF3F6
:105920004F8FBFF36F8FBDE72246ECE7D847B9E74B
:10593000A169049B244E5A4619442046B0470028CA
:10594000B1D0636A20469847E369012BABD1A269C5
:105950000499CDF800A00A44204653465146154C00
:10596000A04700289FD14FF0800383F31188BFF335
:105970006F8FBFF34F8FFEE70499A16141B94FF0DC
:10598000800383F31188BFF36F8FBFF34F8FFEE760
:105990005B465A46594420460B4CA04783E700BF5C
:1059A00088340020054E0000194E00008957000081
:1059B0008B3D0000255700008D470000D5410000B9
:1059C000DD4A000004ED00E045560000114F0000E4
:1059D00070B50D4E0D4CA41BA4100025A54209D195
:1059E0000B4E0C4C02F0A8F8A41BA4100025A542F5
:1059F00005D170BD56F8253098470135EEE756F8C9
:105A0000253098470135F2E7447B0000447B0000D5
:105A1000447B0000487B000010B5013902449042ED
:105A200001D1002010BD10F8013B11F8014FA34235
:105A3000F5D0181B10BD10B5431E0A44914200D189
:105A400010BD11F8014B03F8014FF7E7884210B57C
:105A500001EB020303D8421E99420CD110BD9842BB
:105A6000F9D28118D21AD34200D110BD13F8014DDA
:105A700001F8014DF7E711F8014B02F8014FEBE790
:105A800002440346934200D1704703F8011BF9E733
:105A900038B50546002945D051F8043C0C1F002BB1
:105AA000B8BFE41800F01AF91F4A1368104633B95A
:105AB000636014602846BDE8384000F010B9A34286
:105AC0000CD921686218934204BF1A685B6863604E
:105AD00004BF521822600460ECE713465A680AB10A
